:1000000000800020A9160000A1160000A116000023
:1000100080B51448144B21E05C689968DD688C4217
:100020000CD0002205E0A6180832D6E9008941E983
:1000300002898C460831AA42F5D101E004EB050C97
:100040001C696146002204E008320026002741E9CD
:1000500002670831A242F7D1143301380028DBD1FE
:1000600004F0B8FD01000000784F000048F278135A
:10007000C1F6FF731A780AB901201870704700BFE3
:1000800048F20810C1F6FF7008B503682BB140F2C2
:100090000003C0F2000303B1984708BD80B400AF6D
:1000A00048F27913C1F6FF731B78002B0DD048F28C
:1000B0000F13C1F6FF731B7883F00103DBB2DAB2D2
:1000C00048F20F13C1F6FF731A70BD4680BC70472B
:1000D00080B582B000AF4FF47A7001F0E3FB44F6D4
:1000E0005840C0F2000003F039FE40F6B83001F08D
:1000F000D9FB2BE0BA794AF6AB23CAF6AA23A3FBB5
:1001000002134FEA53010B464FEA43030B44C3EB80
:100110000203DBB2BA7902F10102BA71002B11D1EC
:100120004FF001004FF00D0101F0B6FC44F65C40C9
:10013000C0F2000001F0EAFC4FF001004FF00D01A9
:1001400001F0AAFC4FF02E0001F000FD03F09CFC32
:10015000034603F02003002B04D103F027FD0346E0
:10016000022BC7D903F03CFC03464F2B09D103F007
:1001700037FC03464B2B04D103F032FC03460D2B16
:1001800007D04FF0010003F043FBFB7903F10103BB
:10019000FB7144F66040C0F2000003F0DFFD03F0A5
:1001A0001FFC03464F2B09D103F01AFC03464B2BCF
:1001B00004D103F015FC03460D2B03D04FF00100D2
:1001C00003F026FB44F66840C0F2000003F0C6FDD1
:1001D0004FF00F0003F090FD4FF00D0003F0A4FD71
:1001E00003F0FEFB03464F2B09D103F0F9FB034656
:1001F0004B2B04D103F0F4FB03460D2B03D04FF03F
:10020000010003F005FB44F67040C0F2000003F06B
:10021000A5FD03F0E5FB03464F2B09D103F0E0FBFE
:1002200003464B2B04D103F0DBFB03460D2B03D01D
:100230004FF0010003F0ECFA4FF0010003F00AFB6D
:1002400007F10807BD4680BD80B582B000AF786079
:1002500003F0A8FD7B681B78184603F04DFD7B6812
:100260005B884FEA13139BB2DBB2184603F044FDE0
:100270007B685B88DBB2184603F03EFD7B681B7928
:10028000184603F039FD7B685B79184603F034FDAE
:100290007B68DB884FEA13139BB2DBB2184603F08E
:1002A0002BFD7B68DB88DBB2184603F025FD7B68FD
:1002B0001B7A184603F020FD7B685B7A184603F032
:1002C0001BFD7B689B7A184603F016FD7B68DB7A82
:1002D000184603F011FD7B681B7B184603F00CFDEC
:1002E0007B685B7B184603F007FD07F10807BD46F6
:1002F00080BD00BF90B585B000AF786003F0B2FC60
:1003000044F6EC40C0F2000000F0A2FF03F0BCFB9A
:10031000034603F02003002BF8D044F6F440C0F26B
:10032000000000F095FF4FF4FA7001F0BBFA4FF0B7
:1003300001004FF00C0101F0AFFB03F037FC034666
:10034000BB81BB89184601F019FE4FF4FA6001F039
:10035000A9FABB89FB8125E04FF0010000F04CFFBA
:100360004FF001004FF0000101F096FB03F0B4FBE9
:100370000346184601F002FE4FF001004FF00C0159
:1003800001F08AFBBA89FB89C3EB02039BB21846D2
:1003900001F0DEFD4FF47A7001F084FAFB8903F17D
:1003A000FF33FB81FB89002BD6D103F019FB0346F9
:1003B0001A467B681A707B681B787E2B00D0AFE0F2
:1003C00044F60050C0F2000000F042FF4FF4FA7013
:1003D00001F068FA03F004FB03461A467B685A8072
:1003E0007B685B884FEA03239AB27B685A807B68FC
:1003F0005C8803F0F5FA034644EA03039AB27B688B
:100400005A804FF0010000F0F7FE4FF001004FF06E
:10041000000101F041FB7B685B88184601F0AEFDEE
:100420004FF4FA7001F03EFA03F0DAFA03461A4686
:100430007B681A7103F0D4FA03461A467B685A7136
:1004400003F0CEFA03461A467B68DA807B68DB88C5
:100450004FEA03239AB27B68DA807B68DC8803F07A
:10046000BFFA034644EA03039AB27B68DA8003F0DA
:10047000B7FA03461A467B681A7203F0B1FA0346CC
:100480001A467B685A727B685B7A072B00D047E07C
:1004900003F0A6FA03461A467B689A7203F0A0FAA4
:1004A00003461A467B68DA727B68DB7A002B03D03E
:1004B0007B68DB7A072B00D932E003F091FA034620
:1004C0001A467B681A737B681B7B002B03D07B6802
:1004D000DB7A082B00D923E003F082FA03461A46A0
:1004E0007B685A737B681B791A467B685B791A4470
:1004F0007B68DB881A447B681B7A1A447B685B7ACA
:100500001A447B689B7A1A447B68DB7A1A447B68BE
:100510001B7B1A447B685B7B1344FF2B01D0EDE609
:10052000ECE600BF07F11407BD4690BD80B483B070
:1005300000AF4FF00003BB7128E04FF00003FB71E8
:100540001DE0B979FA7948F2C413C1F6FF734FEA96
:10055000C1010A4413444FF000021A70B979FA79C4
:1005600048F20423C1F6FF734FEAC1010A44134461
:100570004FF000021A70FB7903F10103FB71FB7964
:10058000072BDED9BB7903F10103BB71BB79072BC4
:10059000D3D907F10C07BD4680BC704780B586B043
:1005A00000AF4FF001037B6077E24FF00003BB60C8
:1005B0006BE27B68042B00F391804FF001033B74E6
:1005C0004FF00003FB6039E048F20E13C1F6FF73F1
:1005D0001B78002B16D07A68FB6802EB0301BA681F
:1005E00048F2C413C1F6FF734FEAC1010A44134431
:1005F0001B7883F00103DBB2002B1AD04FF000030D
:100600003B7417E07A68FB6802EB0301BA6848F2B2
:100610000423C1F6FF734FEAC1010A4413441B7857
:1006200083F00103DBB2002B04D04FF000033B74D6
:1006300000E000BFFB6803F10103FB603B7C002B83
:1006400002D0FB68032BBFDD3B7C002B46D044F679
:100650000450C0F2000000F0FBFD4FF000037B747B
:100660004FF00003FB6029E048F20E13C1F6FF7360
:100670001B78002B0FD07A68FB6802EB0301BA6885
:1006800048F2C413C1F6FF734FEAC1010A44134490
:100690007A7C1A700EE07A68FB6802EB0301BA6894
:1006A00048F20423C1F6FF734FEAC1010A44134420
:1006B0007A7C1A70FB6803F10103FB603B7C002B22
:1006C00002D0FB68032BCFDD4FF0640001F0EAF8A5
:1006D0007B7C83F00103DBB27B74C1E7BB68042B36
:1006E00000F38D804FF00103BB744FF00003FB60FB
:1006F00037E048F20E13C1F6FF731B78002B15D0BC
:100700007968BA68FB681A4448F2C413C1F6FF73EB
:100710004FEAC1010A4413441B7883F00103DBB2A2
:10072000002B19D04FF00003BB7416E07968BA684B
:10073000FB681A4448F20423C1F6FF734FEAC10173
:100740000A4413441B7883F00103DBB2002B04D06E
:100750004FF00003BB7400E000BFFB6803F101032E
:10076000FB60BB7C002B02D0FB68032BC1DDBB7C94
:10077000002B44D044F60450C0F2000000F068FDA5
:100780004FF00003FB744FF00003FB6027E048F2DA
:100790000E13C1F6FF731B78002B0ED07968BA6870
:1007A000FB681A4448F2C413C1F6FF734FEAC10153
:1007B0000A441344FA7C1A700DE07968BA68FB6841
:1007C0001A4448F20423C1F6FF734FEAC1010A44F8
:1007D0001344FA7C1A70FB6803F10103FB60BB7CD5
:1007E000002B02D0FB68032BD1DD4FF0640001F039
:1007F00059F8FB7C83F00103DBB2FB74C3E77B6831
:10080000042B00F39D80BB68042B00F399804FF00C
:1008100001033B754FF00003FB603DE048F20E130F
:10082000C1F6FF731B78002B18D07A68FB6802EBC7
:100830000301BA68FB681A4448F2C413C1F6FF7397
:100840004FEAC1010A4413441B7883F00103DBB271
:10085000002B1CD04FF000033B7519E07A68FB6851
:1008600002EB0301BA68FB681A4448F20423C1F69C
:10087000FF734FEAC1010A4413441B7883F001035C
:10088000DBB2002B04D04FF000033B7500E000BF4B
:10089000FB6803F10103FB603B7D002B02D0FB688A
:1008A000032BBBDD3B7D002B4AD044F60450C0F245
:1008B000000000F0CDFC4FF000037B754FF000030B
:1008C000FB602DE048F20E13C1F6FF731B78002B7E
:1008D00011D07A68FB6802EB0301BA68FB681A441E
:1008E00048F2C413C1F6FF734FEAC1010A4413442E
:1008F0007A7D1A7010E07A68FB6802EB0301BA682F
:10090000FB681A4448F20423C1F6FF734FEAC101A1
:100910000A4413447A7D1A70FB6803F10103FB60FB
:100920003B7D002B02D0FB68032BCBDD4FF0640036
:1009300000F0B8FF7B7D83F00103DBB27B75BDE780
:100940007B68032B40F39D80BB68042B00F39980E8
:100950004FF00103BB754FF00003FB603DE048F230
:100960000E13C1F6FF731B78002B18D07A68FB6852
:10097000C3EB0201BA68FB681A4448F2C413C1F61B
:10098000FF734FEAC1010A4413441B7883F001034B
:10099000DBB2002B1CD04FF00003BB7519E07A6866
:1009A000FB68C3EB0201BA68FB681A4448F20423EF
:1009B000C1F6FF734FEAC1010A4413441B7883F068
:1009C0000103DBB2002B04D04FF00003BB7500E045
:1009D00000BFFB6803F10103FB60BB7D002B02D06D
:1009E000FB68032BBBDDBB7D002B4AD044F60450D3
:1009F000C0F2000000F02CFC4FF00003FB754FF03C
:100A00000003FB602DE048F20E13C1F6FF731B7864
:100A1000002B11D07A68FB68C3EB0201BA68FB684F
:100A20001A4448F2C413C1F6FF734FEAC1010A44E5
:100A30001344FA7D1A7010E07A68FB68C3EB020178
:100A4000BA68FB681A4448F20423C1F6FF734FEA00
:100A5000C1010A441344FA7D1A70FB6803F10103D3
:100A6000FB60BB7D002B02D0FB68032BCBDD4FF07E
:100A7000640000F017FFFB7D83F00103DBB2FB7520
:100A8000BDE7BB6803F10103BB60BB68072B7FF7C1
:100A900090AD7B6803F101037B607B68072B7FF7D8
:100AA00084AD07F11807BD4680BD00BF80B582B098
:100AB00000AF4FF04003FB8095E048F21113C1F600
:100AC000FF731B7803F10103DAB248F21113C1F688
:100AD000FF731A7048F21113C1F6FF731B78082BCD
:100AE00021D948F21113C1F6FF734FF000021A70BA
:100AF00048F21013C1F6FF731B7803F10103DAB259
:100B000048F21013C1F6FF731A7048F21013C1F6C1
:100B1000FF731B78082B06D948F21013C1F6FF7338
:100B20004FF000021A7048F21013C1F6FF731B78E1
:100B3000194648F21113C1F6FF731B781A4648F2A2
:100B4000C413C1F6FF734FEAC1010A4413441B7872
:100B5000002B18D000F094FC48F21013C1F6FF737C
:100B60001B78194648F21113C1F6FF731B781A4619
:100B700048F20C13C1F6FF731B78084611461A465B
:100B800000F07CFB3CE048F21013C1F6FF731B78C9
:100B9000194648F21113C1F6FF731B781A4648F242
:100BA0000423C1F6FF734FEAC1010A4413441B78C2
:100BB000002B18D000F064FC48F21013C1F6FF734C
:100BC0001B78194648F21113C1F6FF731B781A46B9
:100BD00048F20D13C1F6FF731B78084611461A46FA
:100BE00000F04CFB0CE0FB88002B0CBF0023012322
:100BF000DBB2FA8802F1FF32FA80002B7FF45DAF9E
:100C000007F10807BD4680BD80B58AB000AF00F08F
:100C10002DFF44F61050C0F2000000F003FB44F634
:100C20002050C0F2000000F013FBFFF77FFC44F6F9
:100C30002850C0F2000000F00BFB4FF001004FF015
:100C4000000100F055FC00F01BFC44F63050C0F2EF
:100C5000000000F0FDFA62B644F63C50C0F200001D
:100C600000F0F6FA02F02CFD4FF4165002F04EFDA3
:100C700044F64450C0F2000000F0EAFA01F03EFBF6
:100C800001F000FE44F65050C0F2000000F0CAFA35
:100C900040F29D00C0F2000002F05AFD48F27913C4
:100CA000C1F6FF734FF001021A704FF00503BB77D6
:100CB00028E048F20F13C1F6FF731B78002B04D015
:100CC00044F66053C0F2000303E044F66853C0F2F8
:100CD0000003184600F0BCFA4FF4FA7000F0E2FD91
:100CE0004FF001004FF00F0100F0D6FEBB7F184619
:100CF00001F044F94FF4FA7000F0D4FDBB7F03F12A
:100D0000FF33BB77BB7F002BD3D148F27913C1F6F9
:100D1000FF734FF000021A7002F02EFD48F20F131D
:100D2000C1F6FF731B7883F00103DBB2002B19D0EF
:100D300044F61050C0F2000000F074FA44F670500F
:100D4000C0F2000000F084FA02F0A6FD03F02AF8D9
:100D500002F088FF44F67850C0F2000000F078FA04
:100D6000FFF7B6F944F68050C0F2000000F05AFADE
:100D700040F6AD20C0F2000003F0D6F848F20E13A2
:100D8000C1F6FF731B78002B07D148F20F13C1F691
:100D9000FF731B78002B00F0038248F20E13C1F69C
:100DA000FF731B78002B04D044F68C53C0F2000371
:100DB00003E044F69853C0F20003184600F032FAFC
:100DC00044F6A450C0F2000000F042FA4FF00003D5
:100DD000FB7713E0FB7F03F10103FB77FB7F072B1E
:100DE0000CD944F6B450C0F2000000F01BFA44F6EF
:100DF000C050C0F2000000F02BFAFEE7FA7F48F284
:100E0000C413C1F6FF7313441B7A002BE2D1FA7F9F
:100E100048F20423C1F6FF7313441B7A002BD9D187
:100E20004FF0000387F8203001F022FE01F020FE91
:100E300001F000FB01F03EFB0346002BFAD148F223
:100E40000E13C1F6FF731B78002B06D04FF0010084
:100E500001F006FF0346002B10D148F20E13C1F635
:100E6000FF731B7883F00103DBB2002B25D04FF01A
:100E7000020001F0F5FE0346002B1ED0FA7F48F277
:100E8000C413C1F6FF7313441B7A002B08D1FA7FF9
:100E900048F20423C1F6FF7313441B7A002B07D0DA
:100EA00044F6CC50C0F2000000F0D2F900BF77E069
:100EB0004FF0010387F8203072E0F97FFA7F48F2A3
:100EC0000423C1F6FF734FF00000985448F2042346
:100ED000C1F6FF739A5C48F2C413C1F6FF735A540B
:100EE0004FF0000002F014F803461A4613464FEA8A
:100EF000C303C2EB030240F2EB73C1F21D5383FB49
:100F000002134FEAE3014FEAE273C3EB01037B8470
:100F10007B8C072B01D87B8CFB774FF001037B6226
:100F200014E0FB7F062B02D94FF0FF337B62FB7F7F
:100F3000002B06D17B6AB3F1FF3F02D14FF00103D2
:100F40007B627B6ADAB2FB7F1344FB77FA7F48F25D
:100F5000C413C1F6FF7313441B7A002BE1D1FA7F4F
:100F600048F20423C1F6FF7313441B7A002BD8D137
:100F700048F20E13C1F6FF731B78002B08D0FA7FDE
:100F800048F2C413C1F6FF734FF00101995407E012
:100F9000FA7F48F20423C1F6FF734FF00101995420
:100FA00097F8203083F00103DBB2002B7FF43CAFD5
:100FB000F97FFA7F48F20423C1F6FF734FF0000077
:100FC000985448F20423C1F6FF739A5C48F2C413A4
:100FD000C1F6FF735A544FF0010387F8213075E0D2
:100FE00048F20E13C1F6FF731B78002B0ED097F852
:100FF0002110FA7F48F2C413C1F6FF734FEAC10112
:101000000A4413444FF001021A700DE097F82110C2
:10101000FA7F48F20423C1F6FF734FEAC1010A4484
:1010200013444FF001021A7097F8213003F10101C7
:10103000FA7F48F2C413C1F6FF734FEAC1010A44B4
:1010400013441B78002B45D197F8213003F101019F
:10105000FA7F48F20423C1F6FF734FEAC1010A4444
:1010600013441B78002B35D197F82130072B31D052
:101070004FF00A0000F016FC48F20E13C1F6FF73A1
:101080001B78002B0ED097F82110FA7F48F2C4137A
:10109000C1F6FF734FEAC1010A4413444FF0000246
:1010A0001A700DE097F82110FA7F48F20423C1F678
:1010B000FF734FEAC1010A4413444FF000021A7053
:1010C00097F8213003F1010387F8213097F8213098
:1010D000072B85D948F20F13C1F6FF731B7883F0F5
:1010E0000103DBB2002B49D04FF07E033B744FF07D
:1010F00009037B824FF001033B754FF000037B75C2
:101100004FF6FF73FB824FF001033B766FF0250330
:101110007B764FF00003BB7697F82130C3F10803CC
:10112000DBB2FB76FB7F03F10103DBB23B773A7D59
:101130007B7D1344DAB2FB8A4FEA13239BB2DBB206
:101140001344DAB2FB8ADBB21344DAB23B7E1344B7
:10115000DAB27B7E1344DAB2BB7E1344DAB2FB7E92
:101160001344DAB23B7F1344DBB26FEA0303DBB212
:101170007B7707F110031846FFF766F8FFF70EFAC2
:1011800048F20E13C1F6FF731B7883F00103DBB244
:10119000DAB248F20E13C1F6FF731A7000BFEDE524
:1011A00044F69850C0F2000000F03CF844F6D850E5
:1011B000C0F2000000F04CF83B461846FFF79AF8E2
:1011C000FB7AC3F108013B7B03F1FF3248F20423B1
:1011D000C1F6FF734FEAC1010A4413444FF0010204
:1011E0001A70FFF7DBF948F20E13C1F6FF734FF0E8
:1011F00001021A70C2E500BF80B582B000AF78600E
:101200007B68DBB218464FF0000100F045FC44F665
:10121000E450C0F2000000F079FC07F10807BD4679
:1012200080BD00BF80B582B000AF78604FF0010094
:1012300000F0B6FC4FF000004FF0000100F02CFC75
:10124000786800F063FC07F10807BD4680BD00BF69
:1012500080B582B000AF78604FF00100FFF7CCFF9F
:101260004FF001004FF0000100F016FC786800F02C
:101270004DFC07F10807BD4680BD00BF80B588B0B2
:1012800000AFF860B9601346FB714FF00003BB7408
:101290004FF00103FB744FF00102FB6802FA03F305
:1012A0003B754FF001037B754FF00103BB754FF0A9
:1012B0000103FB75FB7903F1FF33062B65D801A20F
:1012C00052F823F0E1120000F512000009130000AB
:1012D0002313000037130000511300006B130000AC
:1012E0007A7DBB6802FA03F37B75BB7CBB75BB7C64
:1012F000FB7556E0BB7C7B75BA7DBB6802FA03F3D5
:10130000BB75BB7CFB754CE07A7DBB6802FA03F3CE
:101310007B75BA7DBB6802FA03F3BB75BB7CFB75BA
:101320003FE0BB7C7B75BB7CBB75FA7DBB6802FA7A
:1013300003F3FB7535E07A7DBB6802FA03F37B7536
:10134000BB7CBB75FA7DBB6802FA03F3FB7528E032
:10135000BB7C7B75BA7DBB6802FA03F3BB75FA7D73
:10136000BB6802FA03F3FB751BE07A7DBB6802FAE7
:1013700003F37B75BA7DBB6802FA03F3BB75FA7D94
:10138000BB6802FA03F3FB750BE044F6F850C0F2B9
:101390000000FFF747FF44F60060C0F20000FFF7CF
:1013A00057FF3B7D6FEA03033B757B7D6FEA0303C9
:1013B0007B75BB7D6FEA0303BB75FB7D6FEA03039F
:1013C000FB75BB7C184602F003FE4FF00003BB61C7
:1013D0004BE03A7D4FF08001BB6941FA03F302EA2A
:1013E0000303002B01D0FB7C00E0BB7C184600F01F
:1013F000C7F97A7D4FF08001BB6941FA03F302EA35
:101400000303002B01D0FB7C00E0BB7C184600F0FE
:10141000D9F9BA7D4FF08001BB6941FA03F302EAC2
:101420000303002B01D0FB7C00E0BB7C184600F0DE
:10143000EBF9FA7D4FF08001BB6941FA03F302EA50
:101440000303002B01D0FB7C00E0BB7C184600F0BE
:10145000FDF9FB7C184602F0DDFDBB7C184602F06E
:10146000D9FDBB6903F10103BB61BB69072BB0DD8B
:10147000FB7C184602F0ACFD07F12007BD4680BD9D
:1014800080B582B000AF4FF00003BB704FF0010396
:10149000FB70BB78184602F09BFD4FF000037B60A9
:1014A0001BE04FF0FF0000F06BF94FF0FF0000F081
:1014B00089F94FF0FF0000F0A7F94FF0FF0000F0AE
:1014C000C5F9FB78184602F0A5FDBB78184602F076
:1014D000A1FD7B6803F101037B607B68072BE0DDE6
:1014E000FB78184602F074FD07F10807BD4680BD81
:1014F00080B584B000AF02460B46FA71BB71FFF7AE
:10150000BFFF4FF001037B73C2E04FF00003BB73DA
:10151000ADE04FF00003FB73A1E04FF00100FFF7D7
:101520006BFE4FF001004FF0000100F0B5FABB7BFD
:10153000184600F023FD4FF001004FF0010100F0CC
:10154000ABFA4FF02C0000F001FB4FF001004FF020
:10155000020100F0A1FAFB7B184600F00FFD4FF0EE
:1015600001004FF0040100F097FA44F61060C0F259
:10157000000000F0CBFA4FF001004FF0040100F042
:101580008BFA7B7B03F1FF33062B42D801A252F882
:1015900023F000BFB1150000BF150000CD150000FD
:1015A000DB150000E9150000F71500000516000026
:1015B00044F61860C0F2000000F0A8FA36E044F6E5
:1015C0001C60C0F2000000F0A1FA2FE044F6246095
:1015D000C0F2000000F09AFA28E044F62C60C0F255
:1015E000000000F093FA21E044F63460C0F20000FD
:1015F00000F08CFA1AE044F63C60C0F2000000F003
:1016000085FA13E044F64460C0F2000000F07EFA70
:101610000CE044F6F850C0F20000FFF703FE44F679
:101620000060C0F20000FFF713FEFEE7B97BFA7B13
:101630007B7B084611461A46FFF720FEBB79002B3C
:1016400002D04FF07D0301E04FF00503184600F093
:1016500029F9FFF715FFFB7B03F10103FB73FB7B0C
:10166000072B7FF65AAFBB7B03F10103BB73BB7B38
:10167000072B7FF64EAFFB79002B04D07B7B03F169
:101680000103DBB203E07B7B4FEA4303DBB27B73F6
:101690007B7B072B7FF639AF07F11007BD4680BD76
:1016A00080B400AFFEE700BF054B1C7844F0010496
:1016B0001C70044B1A78D2B2034B1A70FEF7A8FCC8
:1016C000E8460040FA460040BC76004080B582B053
:1016D00000AF4EF60C53CEF2000340F20042C0F2CF
:1016E000FA521A604EF61453CEF200034EF614521C
:1016F000CEF20002126842F400721A604FF000034A
:101700007B6019E079687B68032B07D87A6840F220
:101710000003C0F2000353F8223003E041F2A1635A
:10172000C0F2000348F20002C1F6FF7242F8213015
:101730007B6803F101037B607B682F2BE2D947F2C2
:10174000BC63C4F200031B78DAB248F24423C1F64A
:10175000FF731A704EF60853CEF2000348F20002EF
:10176000C1F6FF721A6002F015FE48F20013C1F6CE
:10177000FF734FF000021A6007F10807BD4680BDF5
:1017800080B485B000AF0346FB7145F24013C4F24C
:1017900000031B78DBB223F00403FB7345F2401314
:1017A000C4F20003FA794FEA8202D2B202F00402D4
:1017B000F97B42EA0102D2B21A7007F11407BD4662
:1017C00080BC704780B485B000AF0346FB7145F222
:1017D0004013C4F200031B78DBB223F02003FB7339
:1017E00045F24013C4F20003FA794FEA4212D2B232
:1017F00002F02002F97B42EA0102D2B21A7007F12C
:101800001407BD4680BC704780B485B000AF034666
:10181000FB7145F24013C4F200031B78DBB223F0E6
:101820004003FB7345F24013C4F20003FA794FEA18
:101830008212D2B202F04002F97B42EA0102D2B235
:101840001A7007F11407BD4680BC704780B485B09C
:1018500000AF0346FB7145F24013C4F200031B784E
:10186000DBB203F07F03FB7345F24013C4F20003C5
:10187000FA794FEAC212D1B2FA7B41EA0202D2B23D
:101880001A7007F11407BD4680BC704780B483B05E
:1018900000AF0346FB7101BE07F10C07BD4680BCDB
:1018A000704700BF80B582B000AF78600BE048F2AF
:1018B0002013C1F6FF731B68184602F07DFE7B689B
:1018C000A3F500437B607B68B3F5004FEFD848F287
:1018D0001813C1F6FF731B687A6802FB03F31846FE
:1018E00002F06AFE07F10807BD4680BD80B582B0F0
:1018F00000AF0346FB80FA8848F21C13C1F6FF7361
:101900001B7803FB02F3184602F056FE07F10807A6
:10191000BD4680BD80B584B000AF03463960FB7121
:101920004EF60853CEF200031B68FB60FB791F2BB9
:1019300003D94FF00000FFF7A9FFFB7903F01F0365
:1019400003F110034FEA8302FB6813441B68BB607A
:10195000FB7903F01F0303F110034FEA8302FB68D6
:1019600013443A681A60BB68184607F11007BD4671
:1019700080BD00BF80B582B000AF02460B46FA7151
:10198000BB71BB79072B03D94FF00000FFF77EFF37
:10199000FB791F2B03D94FF00000FFF777FFFB798E
:1019A00003F01F0303F1604303F56443BA794FEA80
:1019B0004212D2B21A7007F10807BD4680BD00BFBF
:1019C00080B500AF4FF02800FFF76CFF4FF0030029
:1019D00000F056FA4FF00500FFF764FF4FF00300E8
:1019E00000F04EFA4FF00F00FFF75CFF4FF00300DE
:1019F00000F046FA4FF00100FFF754FF4FF00200ED
:101A000000F03EFA4FF00500FFF74CFF4FF00600E4
:101A100000F0C6F84FF00E0000F0C2F84FF02C00B6
:101A200000F0BEF84FF0080000F0BAF84FF00100E7
:101A300000F0B6F84FF00C0000F0B2F84FF00300E1
:101A400000F0AEF84FF00500FFF72CFF80BD00BF9F
:101A500080B500AF4FF00C0000F0A2F848F27A1306
:101A6000C1F6FF734FF001021A7080BD80B500AF60
:101A700048F27B13C1F6FF731B78002B08D1FFF7E8
:101A80009FFF48F27B13C1F6FF734FF001021A70FB
:101A9000FFF7DEFF80BD00BF80B582B000AF024619
:101AA0000B46FA71BB71FB79032B2AD801A252F8BD
:101AB00023F000BFC51A0000D51A0000E51A000087
:101AC000F51A0000BB79A3F18003DBB2184600F0E1
:101AD00067F816E0BB79A3F14003DBB2184600F0CB
:101AE0005FF80EE0BB79A3F16C03DBB2184600F09F
:101AF00057F806E0BB79A3F12C03DBB2184600F0DF
:101B00004FF807F10807BD4680BD00BF80B584B01F
:101B100000AF78604FF00103BB737B681B78FB73E9
:101B20000CE0FB7B184600F01FF8BA7B7B6813447F
:101B30001B78FB73BB7B03F10103BB73FB7B002BA7
:101B4000EFD107F11007BD4680BD00BF80B582B060
:101B500000AF0346FB71FB79184600F005F807F16A
:101B60000807BD4680BD00BF80B584B000AF034606
:101B7000FB7100F031F8FB794FEA1313FB73FB7B29
:101B8000184600F027F9FB7903F00F03FB73FB7B8A
:101B9000184600F01FF907F11007BD4680BD00BFD1
:101BA00080B584B000AF0346FB7100F015F8FB79F7
:101BB0004FEA1313FB73FB7B184600F061F9FB79C6
:101BC00003F00F03FB73FB7B184600F059F907F194
:101BD0001007BD4680BD00BF80B582B000AF45F2A2
:101BE0002013C4F2000345F22012C4F2000212785E
:101BF000D2B202F080021A7045F22213C4F200033E
:101C00001B78DBB223F00F03FB7145F22213C4F201
:101C10000003FA7942F00F02D2B21A7045F2231390
:101C2000C4F200031B78DBB223F00F03FB7145F213
:101C30002313C4F20003FA791A7045F22413C4F294
:101C400000031B78DBB223F00F03FB7145F2241372
:101C5000C4F20003FA791A7045F22013C4F20003AB
:101C600045F22012C4F200021278D2B202F0DF0272
:101C70001A7045F22013C4F2000345F22012C4F298
:101C800000021278D2B242F04002D2B21A704FF083
:101C90000000FFF72BFE45F22013C4F2000345F2CB
:101CA0002012C4F200021278D2B242F01002D2B274
:101CB0001A704FF00100FFF719FE45F22113C4F22C
:101CC00000031B78FB7145F22013C4F2000345F2B8
:101CD0002012C4F200021278D2B202F0EF021A709F
:101CE0004FF00000FFF702FEFB7903F00803FB71E1
:101CF00045F22013C4F2000345F22012C4F20002A0
:101D00001278D2B242F01002D2B21A704FF0010033
:101D1000FFF7ECFD45F22013C4F2000345F2201258
:101D2000C4F200021278D2B202F0EF021A70FB790C
:101D3000002BACD145F22013C4F2000345F220126F
:101D4000C4F200021278D2B202F0BF021A7045F259
:101D50002013C4F2000345F22012C4F200021278EC
:101D6000D2B202F080021A7045F22213C4F20003CC
:101D700045F22212C4F200021278D2B202F0F0024E
:101D80001A7045F22313C4F200031B78DBB223F070
:101D90000F03FB7145F22313C4F20003FA7942F0FA
:101DA0000F02D2B21A7045F22413C4F200031B785A
:101DB000DBB223F00F03FB7145F22413C4F20003DE
:101DC000FA7942F00F02D2B21A7007F10807BD4645
:101DD00080BD00BF80B582B000AF0346FB71FFF746
:101DE000FBFE45F22013C4F2000345F22012C4F2B8
:101DF00000021278D2B242F02002D2B21A7045F23A
:101E00002013C4F2000345F22012C4F2000212783B
:101E1000D2B202F0BF021A7045F22013C4F20003DE
:101E200045F22012C4F200021278D2B202F0F0029F
:101E30001A7045F22013C4F2000345F22012C4F2D6
:101E400000021278D1B2FA7941EA0202D2B242F02B
:101E50001002D2B21A704FF00100FFF747FD45F2B1
:101E60002013C4F2000345F22012C4F200021278DB
:101E7000D2B202F0EF021A7007F10807BD4680BD2A
:101E800080B582B000AF0346FB7145F22013C4F267
:101E9000000345F22012C4F200021278D2B202F01E
:101EA0009F021A7045F22013C4F2000345F220127B
:101EB000C4F200021278D2B202F0F0021A7045F2B7
:101EC0002013C4F2000345F22012C4F2000212787B
:101ED000D1B2FA7941EA0202D2B242F01002D2B291
:101EE0001A704FF00100FFF701FD45F22013C4F214
:101EF000000345F22012C4F200021278D2B202F0BE
:101F0000EF021A7007F10807BD4680BD80B582B0A8
:101F100000AF0346FB71FB794FEA1313DBB21A469D
:101F200044F64C63C0F200039B5C1846FFF70EFEBC
:101F3000FB7903F00F0244F64C63C0F200039B5C94
:101F40001846FFF703FE07F10807BD4680BD00BF36
:101F500080B582B000AF0346FB80FB884FEA1323B5
:101F60009BB2DBB21846FFF7D1FFFB88DBB2184605
:101F7000FFF7CCFF07F10807BD4680BD80B586B0EE
:101F800000AF0346FB804FF00003BB752AE0B87D2D
:101F9000FA884CF6CD43CCF6CC43A3FB02134FEAB0
:101FA000D3010B464FEA83030B444FEA4303C3EBD1
:101FB00002039BB2DBB203F13003DAB207F118017E
:101FC00001EB000303F8102CFA884CF6CD43CCF655
:101FD000CC43A3FB02134FEAD303FB80BB7D03F189
:101FE0000103BB75FB88092BD1D8B87DFA884CF664
:101FF000CD43CCF6CC43A3FB02134FEAD3010B46EF
:102000004FEA83030B444FEA4303C3EB02039BB243
:10201000DBB203F13003DAB207F1180101EB000380
:1020200003F8102CBB7DFB7512E0FA7DBB7DC3EB82
:102030000203BA7D07F118010A4412F8102C07F1C7
:1020400018010B4403F8082CBB7D03F1FF33BB756B
:10205000BB7D002BE9D1FB7D3A7A07F118010B44D7
:1020600003F8082CFB7D03F1010307F11802134468
:102070004FF0000203F8082C07F110031846FFF791
:1020800045FD07F11807BD4680BD00BF80B582B091
:1020900000AF00F025FA4FF0020000F073FB02F0F1
:1020A00093FA0346FB7146F29E43C4F2000346F2E4
:1020B0009E42C4F200021278D2B242F00302D2B2BF
:1020C0001A7046F29F43C4F2000346F29F42C4F2E4
:1020D00000021278D2B242F00302D2B21A70FB7937
:1020E000184602F075FA46F22E43C4F200034FF48C
:1020F00034421A8046F24E43C4F200034FF6FF7298
:102100001A8046F28F43C4F200034FF007021A70A0
:1021100002F05AFA0346FB7146F29B43C4F20003F5
:1021200046F29B42C4F200021278D2B242F003029D
:10213000D2B21A7046F29953C4F2000346F2995291
:10214000C4F200021278D2B242F00302D2B21A7084
:10215000FB79184602F03CFA46F22B43C4F2000326
:102160004FF0FF321A7046F24B43C4F200034FF0B7
:10217000FF321A7046F20B43C4F200034FF0FF32F5
:102180001A7046F22953C4F200034FF0FF321A705E
:1021900046F25953C4F200034FF0FF321A7046F270
:1021A0004953C4F200034FF0FF321A704EF280130D
:1021B000CEF200034FF004021A604FF0020043F227
:1021C0009501C0F20001FFF7A5FB4FF002004FF0B0
:1021D0000701FFF7CFFB01F0B9F94FF0070002F05C
:1021E00089F84FF0080002F085F84FF0090002F07E
:1021F00081F846F27E43C4F2000346F27E42C4F206
:1022000000021278D2B242F00402D2B21A7000F088
:10221000CFFF01F08BF84FF0000001F005F94FF00F
:10222000040001F02BF94FF0000001F051F907F123
:102230000807BD4680BD00BF80B582B000AF02F088
:10224000C3F90346FB7146F29F43C4F2000346F212
:102250009F42C4F200021278D2B242F02002D2B2FF
:102260001A7000F0F1FF01F095F844F2BB33C4F2AC
:10227000000344F2BB32C4F200021278D2B242F040
:102280002002D2B21A7044F2AB33C4F2000344F21B
:10229000AB32C4F200021278D2B242F02002D2B2C3
:1022A0001A7045F67203C4F2000345F67202C4F2D6
:1022B00000021278D2B242F00102D2B21A70FB7957
:1022C000184602F085F94EF20013CEF200034FF0EB
:1022D00004021A6046F27E43C4F2000346F27E42D4
:1022E000C4F200021278D2B26FEA42626FEA52621E
:1022F000D2B21A7007F10807BD4680BD80B500AFA5
:1023000048F27D13C1F6FF731B78002B08D1FFF74D
:10231000BDFE48F27D13C1F6FF734FF001021A7043
:10232000FFF78AFF00F02EFF48F27C13C1F6FF731F
:102330004FF001021A7080BD80B485B000AF034633
:10234000FB71FB7903F10103FB71FB79072B18D0BB
:10235000FB794FEAD303BB73FB7903F007034FF01C
:10236000010202FA03F3FB73BA7B48F22413C1F6AD
:10237000FF739A5CFB7B02EA0303DBB2002BE0D025
:1023800000E000BFFB79184607F11407BD4680BC8A
:10239000704700BF80B584B000AF0346FB71FA7987
:1023A00044F6A863C0F200039B5CFB73FA7948F221
:1023B0002813C1F6FF739B5C184601F089F846F2BA
:1023C0005B43C4F20003F97B48F23012C1F6FF729E
:1023D000525C1A70FA7948F24823C1F6FF739B5C8D
:1023E000184600F0B5F907F11007BD4680BD00BFE3
:1023F00080B582B000AF0346FB7148F27E13C1F690
:10240000FF734FF000021A7048F27F13C1F6FF739A
:10241000FA791A7048F27E13C1F6FF736FF07E02EC
:102420001A70FB79184600F0F5F807F10807BD4669
:1024300080BD00BF80B500AF48F27E13C1F6FF73C8
:102440004FF000021A7048F27F13C1F6FF734FF08D
:10245000FF321A7048F27F13C1F6FF731B78DBB2AC
:102460001846FFF769FF03461A4648F27F13C1F684
:10247000FF731A7048F27F13C1F6FF731B78DBB24B
:10248000062B16D848F27E13C1F6FF731B78DBB219
:1024900043F00103DAB248F27E13C1F6FF731A70FB
:1024A00048F27F13C1F6FF731B78DBB2184600F0C9
:1024B000B1F880BD80B400AF48F27E13C1F6FF735F
:1024C0001B78DBB203F00103DBB2002B02D04FF02C
:1024D000010301E04FF000031846BD4680BC704781
:1024E00080B582B000AF4FF00003FB7107E0FB79CD
:1024F000184600F04BF8FB7903F10103FB71FB79FF
:10250000062BF4D907F10807BD4680BD80B584B01D
:1025100000AF0346FB71FA7944F67863C0F200031A
:102520009B5CBB73FA7944F68063C0F200039B5C4A
:10253000FB73FA7944F65C63C0F2000353F822306F
:102540004FF009021A70BB7B0F2B02D14FF007032B
:10255000BB73BA7B44F68863C0F2000353F82220B1
:10256000B97B44F68863C0F2000353F82130197830
:10257000FB7B41EA0303DBB21370FB79184601F0E1
:10258000B9FE07F11007BD4680BD00BF80B584B01D
:1025900000AF0346FB71FA7944F67863C0F200039A
:1025A0009B5CBB73FA7944F68063C0F200039B5CCA
:1025B000FB73FB79184601F0C3FEBB7B0F2B02D1E6
:1025C0004FF00703BB73BA7B44F68863C0F2000385
:1025D00053F82220B97B44F68863C0F2000353F815
:1025E00021301B781946FB7B6FEA0303DBB201EA5B
:1025F0000303DBB2DBB21370FA7944F65C63C0F21A
:10260000000353F822304FF008021A7007F1100748
:10261000BD4680BD80B582B000AF0346FB71FB793B
:102620001846FFF7B7FE46F27E43C4F2000346F2B7
:102630007E42C4F200021278D2B242F00102D2B25B
:102640001A7045F67203C4F2000345F67202C4F232
:1026500000021278D2B202F0FE021A70FB7918461C
:10266000FFF754FF46F27E43C4F2000346F27E4277
:10267000C4F200021278D2B242F00202D2B21A7050
:1026800007F10807BD4680BD80B582B000AF0346A4
:10269000FB7146F27E43C4F2000346F27E42C4F26E
:1026A00000021278D2B202F0FC021A70FA7946F2F5
:1026B0001953C4F200031B78DBB24FEA032399B22B
:1026C00048F28013C1F6FF7323F81210FA79F979F2
:1026D00048F28013C1F6FF7333F8111046F2095324
:1026E000C4F200031B78DBB241EA030399B248F25B
:1026F0008013C1F6FF7323F81210FA79F97948F2C2
:102700008013C1F6FF7333F811306FEA030399B2F7
:1027100048F28013C1F6FF7323F81210FB791846B4
:10272000FFF734FF4FF0000000F0D2FE45F67203D1
:10273000C4F2000345F67202C4F200021278D2B26B
:1027400042F00102D2B21A7007F10807BD4680BDFF
:1027500080B483B000AF0346FB7146F22C43C4F251
:102760000003FA791A7046F23C43C4F20003FA7986
:102770004FEA5202D2B21A7007F10C07BD4680BC74
:10278000704700BF80B483B000AF0346FB71FB7994
:10279000012B0DD146F27E43C4F2000346F27E4285
:1027A000C4F200021278D2B202F0EF021A700DE009
:1027B00046F27E43C4F2000346F27E42C4F20002B7
:1027C0001278D2B242F01002D2B21A7007F10C079E
:1027D000BD4680BC704700BF80B485B000AF0346E3
:1027E000FB71FA7944F6A863C0F200039B5CFB73AB
:1027F000FA79F97948F28013C1F6FF7333F81110B2
:1028000048F29013C1F6FF7323F81210FA7948F2D8
:10281000A013C1F6FF734FF000019954FA7948F202
:10282000A813C1F6FF734FF000019954FB7B002BF6
:102830000DD0FB7B03F1FF32F97B48F24013C1F668
:10284000FF73595C48F2B813C1F6FF73995407F14E
:102850001407BD4680BC704780B582B000AF034608
:10286000FB71FB791846FFF7C3FDFFF723FE034614
:10287000002BFAD1FB791846FFF7AEFF07F10807E6
:10288000BD4680BD80B582B000AF4FF00003FB7144
:1028900007E0FB791846FFF7DFFFFB7903F101033F
:1028A000FB71FB79062BF4D907F10807BD4680BD03
:1028B00080B586B000AF0346FB71FA7944F6A86391
:1028C000C0F200039B5CBB75BA7D48F23813C1F6B9
:1028D000FF739B5CFB75FA7948F28013C1F6FF73B6
:1028E00033F81230BB82FB79184600F03DFCFA79D0
:1028F00048F29013C1F6FF7333F81230BA8A9A4245
:102900000ED3FA7948F29013C1F6FF7333F8123000
:10291000BA8AC3EB02037B824FF00103BB750DE063
:10292000FA7948F29013C1F6FF7333F81220BB8A8C
:10293000C3EB02037B824FF00003BB75BB7D002B12
:1029400026D17B8A142B23D9FA7948F25023C1F679
:10295000FF739B5C042B0CD9FB791846FFF73CFFF7
:10296000FA7948F25023C1F6FF734FF000019954F1
:1029700056E0FA7948F25023C1F6FF739B5C03F1ED
:102980000103D9B248F25023C1F6FF73995447E0CE
:10299000FB7D7A8A9A4205D97B8A132B40D8BB7D6E
:1029A000002B3DD1FA7948F29013C1F6FF7333F84A
:1029B00012304FEA0323FB60FA7948F2A013C1F604
:1029C000FF739B5CFA6842EA0303FB60BB8AFA6808
:1029D0001344FB60FA7948F29013C1F6FF7333F8A1
:1029E0001230FA68C3EB0203FB60FA79FB684FEA26
:1029F000132399B248F29013C1F6FF7323F8121013
:102A0000FA79FB68D9B248F2A013C1F6FF73995462
:102A1000FA7948F25023C1F6FF734FF00001995440
:102A2000FB7D7A8A9A4217D9BB7D002B14D07B8A12
:102A3000FF2B08D9FA7948F2A813C1F6FF734FF0BB
:102A4000FF31995410E0FA797B8AD9B248F2A81381
:102A5000C1F6FF73995407E0FA7948F2A813C1F65A
:102A6000FF734FF00001995407F11807BD4680BD70
:102A700080B582B000AF4FF000037B711FE07B791F
:102A80004FEAD303BB717B7903F007034FF00102D8
:102A900002FA03F3FB71BA7948F22413C1F6FF730B
:102AA0009A5CFB7902EA0303DBB2002B03D07B794B
:102AB0001846FFF7FDFE7B7903F101037B717B79FB
:102AC000062BDCD907F10807BD4680BD80B485B070
:102AD00000AF0346FB71FB794FEAD303BB72FB796E
:102AE00003F007034FF0010202FA03F3FB72FA79D5
:102AF00044F6A863C0F200039B5C3B733A7B48F248
:102B00003413C1F6FF739B5C7B733A7B48F23C1332
:102B1000C1F6FF739B5CBB733A7B48F24013C1F66E
:102B2000FF739B5CFB733B7B002B0BD14FF00203CD
:102B30007B727A7A48F2B813C1F6FF734FF0010145
:102B4000995403E03B7B03F1FF337B72BA7A48F27E
:102B5000B013C1F6FF739A5CFB7A02EA0303DBB29F
:102B6000002B29D0FA7948F2A813C1F6FF739B5CB9
:102B70001A46797BBB7BC3EB01039A4256DABA7AD9
:102B8000B97A48F2B013C1F6FF735B5C1946FB7A61
:102B90006FEA0303DBB201EA0303DBB2D9B248F206
:102BA000B013C1F6FF7399547A7A48F2B813C1F69C
:102BB000FF73F97B99543CE0FA7948F2A813C1F607
:102BC000FF739B5C1A46797BBB7B0B449A4225DDE5
:102BD0007A7A48F2B813C1F6FF739B5C012B8CBF65
:102BE00000210121C9B203F1FF33D8B248F2B81372
:102BF000C1F6FF73985400291AD0BA7AB97A48F20C
:102C0000B013C1F6FF73595CFB7A41EA0303D9B2F2
:102C100048F2B013C1F6FF7399540AE07A7A48F289
:102C2000B813C1F6FF73F97B995402E000BF00E0CE
:102C300000BFBA7A48F2B013C1F6FF739A5CFB7A10
:102C400002EA0303DBB2002B02D04FF0010301E0E4
:102C50004FF00003184607F11407BD4680BC7047CB
:102C600080B584B000AF0346FB71FA7944F6B063D7
:102C7000C0F200039B5C7B73FA7944F6B463C0F244
:102C800000039A5C7B7B1344BB734FF00003FB7320
:102C90007B7B1846FFF71AFF0346002B02D04FF04C
:102CA0000103FB737B7B03F101037B737A7BBB7BAB
:102CB0009A42EDD3FB7B184607F11007BD4680BD55
:102CC00080B485B000AF13460246FA710A46BA7165
:102CD0007B714FF0FF33BB724FF00003FB72FA7948
:102CE00048F2A813C1F6FF731344FB604FF00003D2
:102CF0007B7218E07A7AFB6813441B787A799A42DF
:102D00000DD27A7AFB6813441B78FA7A9A4206D27B
:102D10007B7ABB727A7AFB6813441B78FB727B7AEE
:102D200003F101037B727A7ABB799A42E2D3BB7AD0
:102D3000184607F11407BD4680BC704780B487B0C1
:102D400000AFF871B9717A717B80BA7948F2A81333
:102D5000C1F6FF7313447B61FB7903F1FF337B7290
:102D6000FB7903F10103BB72FA797B6913441A788A
:102D700048F2B413C1F6FF735A70FB79002B10D1DF
:102D800048F2B413C1F6FF734FF000021A70BA7A1A
:102D90007B6913441A7848F2B413C1F6FF739A7032
:102DA00028E0FA797B7903F1FF339A4210D17A7ADD
:102DB0007B6913441A7848F2B413C1F6FF731A7092
:102DC00048F2B413C1F6FF734FF000029A7011E09D
:102DD0007A7A7B6913441A7848F2B413C1F6FF7308
:102DE0001A70BA7A7B6913441A7848F2B413C1F6A0
:102DF000FF739A7048F2B413C1F6FF731B7897F80B
:102E000020209A420FD248F2B413C1F6FF731A7809
:102E100097F82030C3EB0203DAB248F2B413C1F6DC
:102E2000FF731A7006E048F2B413C1F6FF734FF057
:102E300000021A7048F2B413C1F6FF735A7897F87B
:102E40002030C3EB0203DAB248F2B413C1F6FF73C9
:102E50005A7048F2B413C1F6FF739B7897F820209C
:102E60009A420FD248F2B413C1F6FF739A7897F8DA
:102E70002030C3EB0203DAB248F2B413C1F6FF7399
:102E80009A7006E048F2B413C1F6FF734FF00002E7
:102E90009A7048F2B413C1F6FF739B781A4648F251
:102EA000B413C1F6FF731B78C3EB0203FB6048F257
:102EB000B413C1F6FF731B781A4648F2B413C1F677
:102EC000FF735B781A4448F2B413C1F6FF739B7822
:102ED00013443B61FB684FEA03223B6992FBF3F228
:102EE000FB794FEA032313443B617A883B6902FB79
:102EF00003F33B613B6903F5FE434FEA1343FB7267
:102F0000FB7A184607F11C07BD4680BC704700BF1E
:102F100080B586B002AF0346FB71FA7948F24413DC
:102F2000C1F6FF739B5C7B72FA7944F6BC63C0F216
:102F300000039B5CBB72FA7944F6B063C0F20003F5
:102F40009B5CBB73FA7944F6B463C0F200039B5CEC
:102F5000FB73FA7948F23413C1F6FF739B5CB97BBB
:102F6000FA7B084611461A46FFF7AAFE0346FB7293
:102F7000FB7AFF2B55D0FA7944F6B863C0F2000310
:102F800033F812C0FA7948F23813C1F6FF73985C2F
:102F9000F97ABA7BFB7B0090084611461A466346D5
:102FA000FFF7CCFE0346BB81BB7A03F01F03002B67
:102FB00048D07B7A03F101033B727A7A48F24413DA
:102FC000C1F6FF739B5C002B10D13A7ABB89D9B252
:102FD00048F24413C1F6FF7399547A7A48F24413C5
:102FE000C1F6FF734FF0010199542EE0BB7A03F054
:102FF0000803002B28D03A7A48F24413C1F6FF7335
:103000009B5CBA891046194600F026F80346BB813E
:103010003A7ABB89D9B248F24413C1F6FF73995486
:1030200013E04FF6FF73BB81BB7A03F01F03002B45
:103030000BD07A7A48F24413C1F6FF734FF00001C7
:10304000995402E000BF00E000BFBB89184607F1B9
:103050001007BD4680BD00BF80B485B000AF0246FA
:103060000B46FA80BB80FA88BB881344FB60BB88A0
:103070004FEA4303FA681344FB60FB684FEA93038B
:10308000FB60FB689BB2184607F11407BD4680BC85
:10309000704700BF80B500AF48F27F13C1F6FF73E1
:1030A0001B78DBB21846FFF7EFFA48F27E13C1F641
:1030B000FF731B78DBB25BB2002B0EDA48F27E1393
:1030C000C1F6FF731B78DBB21A4602F0FE0248F22B
:1030D0007E13C1F6FF731A702FE048F27F13C1F61A
:1030E000FF731B78DBB21846FFF726F903461A4632
:1030F00048F27F13C1F6FF731A7048F27F13C1F6CE
:10310000FF731B78DBB2062B09D848F27F13C1F698
:10311000FF731B78DBB21846FFF77CFA0DE048F22C
:103120007E13C1F6FF731B78DBB21A4602F0FE0273
:1031300048F27E13C1F6FF731A7080BD80B582B06D
:1031400000AF0346FB71FB791846FFF751F907F111
:103150000807BD4680BD00BF80B500AFFFF7AAF9E4
:103160000346184680BD00BF80B582B000AF03465D
:10317000FB71FB79184601F081FA07F10807BD469B
:1031800080BD00BF80B500AF01F0AEFB80BD00BFC9
:1031900080B500AF4FF00200FFF7F4FA80BD00BF2A
:1031A00080B500AF4FF00100FFF7ECFA80BD00BF23
:1031B00080B500AF4FF0000000F068F845F643031B
:1031C000C4F2000345F64302C4F200021278D2B200
:1031D00042F02002D2B21A7045F64303C4F2000353
:1031E00045F64302C4F200021278D2B202F0FB02AA
:1031F0001A7045F64303C4F2000345F64302C4F2D5
:1032000000021278D2B242F00802D2B21A7045F629
:10321000DF23C4F2000345F6DF22C4F20002127875
:10322000D2B202F0E7021A7045F6DF23C4F20003BF
:1032300045F6DF22C4F200021278D2B242F0100248
:10324000D2B21A7080BD00BF80B400AF44F2A73381
:10325000C4F2000344F2A732C4F200021278D2B2E0
:1032600042F00802D2B21A7044F2B733C4F200033B
:1032700044F2B732C4F200021278D2B242F008022D
:10328000D2B21A70BD4680BC704700BF80B483B014
:1032900000AF0346FB7145F64303C4F2000345F655
:1032A0004302C4F200021278D2B2D1B201F0FC01A2
:1032B000FA79D2B202F0030241EA0202D2B2D2B2E9
:1032C0001A70FB79012B16D144F23663C4F2000365
:1032D00040F21312C4F600121278D2B21A7044F2FD
:1032E0003763C4F2000340F21712C4F600121278DA
:1032F000D2B21A7015E044F23663C4F2000340F211
:10330000B312C4F600121278D2B21A7044F23763C4
:10331000C4F2000340F2BB12C4F600121278D2B21B
:103320001A7007F10C07BD4680BC704780B500AF2E
:1033300045F62C03C4F200034FF014021A7045F650
:103340002D03C4F200034FF000021A7045F62D035E
:10335000C4F2000345F62D02C4F200021278D2B284
:1033600042F00402D2B21A7045F62D03C4F20003F3
:1033700045F62D02C4F200021278D2B242F00202E7
:10338000D2B21A704FF0000000F026F800F0B0F84A
:1033900080BD00BF80B400AF44F2A833C4F2000384
:1033A00044F2A832C4F200021278D2B242F008020B
:1033B000D2B21A7044F2B833C4F2000344F2B83205
:1033C000C4F200021278D2B242F00802D2B21A70ED
:1033D000BD4680BC704700BF80B483B000AF0346D9
:1033E000FB7145F62C03C4F2000345F62C02C4F22F
:1033F00000021278D2B202F0FD021A7045F62C03D8
:10340000C4F2000345F62C02C4F200021278D1B2D5
:10341000FA7902F0020241EA0202D2B21A7007F10E
:103420000C07BD4680BC704780B582B000AF034634
:10343000FB7145F62D03C4F2000345F62D02C4F2DC
:1034400000021278D2B202F0FB021A7045F62D0388
:10345000C4F2000345F62D02C4F200021278D1B284
:10346000FA7902F0040241EA0202D2B21A7000F0C4
:103470003FF807F10807BD4680BD00BF80B582B0A8
:1034800000AF0346FB7145F62C03C4F2000345F67A
:103490002C02C4F200021278D2B202F0F3021A70C7
:1034A00045F62C03C4F2000345F62C02C4F20002D8
:1034B0001278D1B2FA7902F00C0241EA0202D2B2D9
:1034C0001A7000F015F807F10807BD4680BD00BF6F
:1034D00080B483B000AF0346FB7145F68333C4F27A
:1034E0000003FA791A7007F10C07BD4680BC7047DB
:1034F00080B483B000AF45F62C03C4F200031B7800
:10350000DBB203F00C034FEA5303FB7145F62D03C6
:10351000C4F200031B78DBB203F00403002B03D0DA
:10352000FB7903F10103FB7144F20B63C4F2000366
:10353000FA7902F1924202F59C721278D2B21A70B4
:1035400007F10C07BD4680BC704700BF80B500AFD7
:1035500000F002F880BD00BF80B582B000AF4FF030
:103560000003FB7107E0FB79184600F0E9FEFB79E8
:1035700003F10103FB71FB79092BF4D907F108076B
:10358000BD4680BD80B500AF44F60073C4F20003B1
:1035900044F60072C4F200021278D2B202F00102C4
:1035A0001A7044F60273C4F2000344F60272C4F2C5
:1035B00000021278D2B202F0FC021A7044F60B73C9
:1035C000C4F2000344F60B72C4F200021278D2B2C5
:1035D00002F0CF021A7044F60B73C4F2000344F6F3
:1035E0000B72C4F200021278D2B242F03002D2B2B0
:1035F0001A7044F60B73C4F2000344F60B72C4F263
:1036000000021278D2B202F0F0021A7044F60B7384
:10361000C4F2000344F60B72C4F200021278D2B274
:1036200042F00F02D2B21A7044F60173C4F20003E2
:1036300044F60172C4F200021278D2B242F00102E2
:10364000D2B21A704FF6FF7000F060F84FF6FF70BC
:1036500000F06EF84FF0000000F048F880BD00BFA9
:1036600080B400AF44F2A333C4F2000344F2A332A7
:10367000C4F200021278D2B242F00102D2B21A7041
:1036800044F2B333C4F2000344F2B332C4F2000292
:103690001278D2B242F00102D2B21A7044F600732C
:1036A000C4F2000344F60072C4F200021278D2B2EF
:1036B00042F00102D2B21A70BD4680BC704700BF12
:1036C00080B500AF48F2BC13C1F6FF731B78002B26
:1036D00008D1FFF757FF48F2BC13C1F6FF734FF054
:1036E00001021A70FFF7BCFF80BD00BF80B483B039
:1036F00000AF0346FB7144F60373C4F20003FA798A
:103700001A7007F10C07BD4680BC704780B485B0C5
:1037100000AF0346FB80FB88FB8144F60473C4F2D0
:103720000003FA891A8007F11407BD4680BC704770
:1037300080B483B000AF0346FB8044F60673C4F246
:103740000003FA881A8007F10C07BD4680BC704759
:1037500080B582B000AF786000F04EF8786800F075
:1037600017F84FF0070000F027F800F039F807F1DC
:103770000807BD4680BD00BF80B500AF00F03CF833
:1037800041F2A160C0F2000000F002F880BD00BF6D
:1037900080B485B000AF78604EF60853CEF20003D7
:1037A0001B68FB60FB6803F144037A681A6007F149
:1037B0001407BD4680BC704780B483B000AF034699
:1037C000FB714EF20143CEF20003FA794FEA421246
:1037D000D2B21A7007F10C07BD4680BC704700BF1B
:1037E00080B400AF4EF20013CEF200034FF002029D
:1037F0001A60BD4680BC704780B400AF4EF28013A3
:10380000CEF200034FF002021A60BD4680BC704742
:1038100080B485B000AF0346FB7145F26013C4F27B
:1038200000031B78DBB223F00403FB7345F2601343
:10383000C4F20003FA794FEA8202D2B202F0040223
:10384000F97B42EA0102D2B21A7007F11407BD46B1
:1038500080BC704780B485B000AF0346FB7145F271
:103860006013C4F200031B78DBB223F00803FB7380
:1038700045F26013C4F20003FA794FEAC202D2B2F1
:1038800002F00802F97B42EA0102D2B21A7007F193
:103890001407BD4680BC704780B500AF48F2BD1329
:1038A000C1F6FF731B78002B08D100F00BF848F22B
:1038B000BD13C1F6FF734FF001021A7000F036F825
:1038C00080BD00BF80B500AF4FF0030043F6F95153
:1038D000C0F20001FEF71EF84FF003004FF00701A1
:1038E000FEF748F846F28843C4F200034FF0760230
:1038F0001A7046F28D43C4F200034FF020021A7092
:1039000046F22943C4F200034FF00F021A7046F248
:103910003943C4F200036FF06F021A7046F2895304
:10392000C4F200034FF000021A7080BD80B582B06F
:1039300000AF00F049FE0346FB7146F29843C4F223
:10394000000346F29842C4F200021278D2B242F06A
:103950002002D2B21A7046F29D43C4F2000346F22E
:103960009D42C4F200021278D2B242F01002D2B2EA
:103970001A704EF20013CEF200034FF008021A60E4
:1039800046F29953C4F2000346F29952C4F200027F
:103990001278D2B242F01002D2B21A7000F0A2FA3B
:1039A000FB79184600F014FE07F10807BD4680BDFC
:1039B00080B400AF4EF20013CEF200034FF00802C5
:1039C0001A60BD4680BC704780B400AF4EF28013D1
:1039D000CEF200034FF008021A60BD4680BC70476B
:1039E00080B582B000AFFFF7EFFF48F2BE13C1F61B
:1039F000FF731B78BB7148F2BF13C1F6FF731B78CE
:103A0000FB7148F2C013C1F6FF731B78DBB2002BC9
:103A100003D1BA79FB799A4226D0BA7948F2AC231D
:103A2000C1F6FF739B5C7B71BB7903F10103BB7132
:103A3000BB793F2B02D94FF00003BB7148F2BE1394
:103A4000C1F6FF73BA791A7048F2C013C1F6FF735A
:103A50001B78DBB2002B0ED048F2C013C1F6FF7307
:103A60004FF000021A7007E046F24843C4F2000328
:103A70001B787B7100E000BFFFF79AFF7B79184647
:103A800007F10807BD4680BD80B483B000AF46F2A1
:103A90006D43C4F200031B78DBB203F07F03FB71BC
:103AA00048F2C113C1F6FF731B78DBB2002B0CD0B8
:103AB000FB796FEA43636FEA5363FB7148F2C1130A
:103AC000C1F6FF734FF000021A70FB79184607F138
:103AD0000C07BD4680BC704780B582B000AF4FF088
:103AE00000033B71FFF770FF48F2BE13C1F6FF738E
:103AF0001B78BB7148F2BF13C1F6FF731B78FB71D3
:103B000048F2C013C1F6FF731B78DBB2002B03D160
:103B1000BA79FB799A4226D0BA7948F2AC23C1F639
:103B2000FF739B5C3B71BB7903F10103BB71BB79F4
:103B30003F2B02D94FF00003BB7148F2BE13C1F610
:103B4000FF73BA791A7048F2C013C1F6FF731B787D
:103B5000DBB2002B21D048F2C013C1F6FF734FF047
:103B600000021A701AE046F26D43C4F200031B789B
:103B70007B717B7903F02003002B0FD046F2484382
:103B8000C4F200031B783B717B7903F01E03002B0A
:103B900004D04FF000033B7100E000BFFFF708FFC7
:103BA0003B79184607F10807BD4680BD80B582B055
:103BB00000AFFFF709FF48F2BE13C1F6FF731B7891
:103BC000DAB248F2BF13C1F6FF731B78DBB29A4238
:103BD0000FD148F2C013C1F6FF731B78DBB2002B84
:103BE00003D04FF04003FB7133E04FF00003FB7153
:103BF0002FE048F2BE13C1F6FF731B78DAB248F229
:103C0000BF13C1F6FF731B78DBB29A420FD248F2A2
:103C1000BF13C1F6FF731B78DAB248F2BE13C1F6C8
:103C2000FF731B78DBB2C3EB0203FB7111E048F2B8
:103C3000BF13C1F6FF731B78DAB248F2BE13C1F6A8
:103C4000FF731B78DBB2C3EB0203DBB203F140036B
:103C5000FB71FFF7ADFEFB79184607F10807BD467B
:103C600080BD00BF80B582B000AF00F0ADFC034660
:103C7000FB7146F29843C4F2000346F29842C4F244
:103C800000021278D2B242F00102D2B21A7046F2A9
:103C90009843C4F2000346F29842C4F2000212783C
:103CA000D2B202F0FE021A70FB79184600F090FCC6
:103CB000FFF78AFE48F2BE13C1F6FF734FF0000211
:103CC0001A7048F2BF13C1F6FF734FF000021A706A
:103CD00048F2C013C1F6FF734FF000021A7048F2A9
:103CE000C113C1F6FF734FF000021A70FFF760FEB8
:103CF00007F10807BD4680BD80B483B000AF03461E
:103D0000FB7148F2BD13C1F6FF731B78002B05D081
:103D100046F24D43C4F20003FA791A7007F10C071A
:103D2000BD4680BC704700BF80B483B000AF03467F
:103D3000FB7146F26953C4F200031B78DBB203F057
:103D40000403002BF5D146F24D43C4F20003FA7987
:103D50001A7007F10C07BD4680BC704780B584B06F
:103D600000AF78604FF00003FB8148F2BD13C1F64D
:103D7000FF731B78002B11D00AE0FA897B6813448B
:103D80001B781846FFF7D0FFFB8903F10103FB8185
:103D9000FA897B6813441B78002BEED107F11007DA
:103DA000BD4680BD80B582B000AF00F00DFC03467B
:103DB000FB7146F29D43C4F2000346F29D42C4F2F9
:103DC00000021278D2B242F00102D2B21A7046F268
:103DD0009D43C4F2000346F29D42C4F200021278F1
:103DE000D2B202F0FE021A70FB79184600F0F0FB26
:103DF00007F10807BD4680BD80B483B000AF4FF027
:103E00000003FB7146F26D43C4F200031B78BB71E3
:103E10005EE048F2BF13C1F6FF731B78DBB21A46AF
:103E200046F24843C4F200031B78D9B248F2AC23EF
:103E3000C1F6FF7399544FF00103FB71FB79002B1E
:103E400040D048F2C013C1F6FF731B78DBB2002BE1
:103E500006D048F2C113C1F6FF734FF001021A7089
:103E600048F2BF13C1F6FF731B78DBB203F1010305
:103E7000DAB248F2BF13C1F6FF731A7048F2BF13EB
:103E8000C1F6FF731B78DBB23F2B06D948F2BF1394
:103E9000C1F6FF734FF000021A7048F2BF13C1F66B
:103EA000FF731B78DAB248F2BE13C1F6FF731B78BA
:103EB000DBB29A4206D148F2C013C1F6FF734FF04D
:103EC00001021A7046F26D43C4F200031B78BB7105
:103ED000BB7903F02003002B9BD107F10C07BD46F3
:103EE00080BC704780B400AF44F2A233C4F2000338
:103EF00044F2A232C4F200021278D2B242F00102BD
:103F0000D2B21A7044F2B233C4F2000344F2B232B5
:103F1000C4F200021278D2B242F00102D2B21A7098
:103F2000BD4680BC704700BF80B582B000AF7860EE
:103F300000F042F8786800F00BF84FF0070000F04E
:103F40001BF800F02DF807F10807BD4680BD00BF43
:103F500080B485B000AF78604EF60853CEF200030F
:103F60001B68FB60FB6803F140037A681A6007F185
:103F70001407BD4680BC704780B483B000AF0346D1
:103F8000FB714EF20043CEF20003FA794FEA42127F
:103F9000D2B21A7007F10C07BD4680BC704700BF53
:103FA00080B400AF4EF20013CEF200034FF00102D6
:103FB0001A60BD4680BC704780B400AF4EF28013DB
:103FC000CEF200034FF001021A60BD4680BC70477C
:103FD00080B485B000AF0346FB7145F24013C4F2D4
:103FE00000031B78DBB223F01003FB7345F2401390
:103FF000C4F20003FA794FEA0212D2B202F01002C0
:10400000F97B42EA0102D2B21A7007F11407BD46E9
:1040100080BC704780B485B000AF0346FB7145F2A9
:104020004013C4F200031B78DBB223F00803FB73D8
:1040300045F24013C4F20003FA794FEAC202D2B249
:1040400002F00802F97B42EA0102D2B21A7007F1CB
:104050001407BD4680BC704780B582B000AF786061
:10406000396078684FF000013A6800F049FD07F1C7
:104070000807BD4680BD00BF80B584B000AFF860C2
:10408000B9607A60F868B9687A6800F071FC07F185
:104090001007BD4680BD00BF80B487B000AF786018
:1040A00039604FF00003FB604FF00003BB602CE071
:1040B000BB684FEA83027B6813441B683B613B6922
:1040C000FB753B6923F0FF033B6117E0FB684FEA98
:1040D00043023B6813441B781A463B691344FA6851
:1040E0004FEA42013A680A4452781A70FB6803F1B9
:1040F0000103FB60FB7D03F1FF33FB75FB7D002BB0
:10410000E4D1BB6803F10103BB60BB681E2BCFD9B0
:1041100007F11C07BD4680BC704700BF80B582B068
:1041200000AF44F28003C4F200034FF09B021A80F8
:1041300044F28203C4F200034FF018021A7044F2F2
:104140000033C4F200034FF002021A7044F200037D
:10415000C4F200034FF008021A7044F20023C4F2C4
:1041600000034FF003021A7044F2A163C4F200038B
:1041700040F20812C4F600121278D2B21A7044F259
:104180002223C4F200034FF008021A8044F22023D5
:10419000C4F2000341F251021A804FF00003FB7198
:1041A0004FF019033B6019E0FB794FEA4303DAB2A1
:1041B00044F22523C4F200031B78DBB203F00103B1
:1041C00042EA0303DBB203F00303FB714FF4F07028
:1041D00000F0F2F93B6803F1FF333B603B68002BD2
:1041E00002D0FB79032BDFD144F20403C4F20003B5
:1041F0004FF480721A8044F20403C4F200034FF0BB
:1042000007021A7044F20603C4F200034FF00002E2
:104210001A7044F20803C4F200034FF048021A7007
:1042200044F20403C4F200034FF000021A7044F297
:104230000103C4F200034FF002021A7044F2A233E9
:10424000C4F2000344F2A232C4F200021278D2B2E5
:1042500042F00102D2B21A7007F10807BD4680BDD4
:1042600080B483B000AF40F2CF13C4F600131B78C4
:10427000FB7145F66E03C4F20003FA7902F00702FF
:104280001A7045F66F03C4F20003FA794FEA12126E
:10429000D2B21A7045F2FD13C4F200034FF02002AF
:1042A0001A7045F67203C4F200034FF000021A7050
:1042B00045F68823C4F200034FF003021A7045F656
:1042C000DB23C4F200034FF020021A7045F6583386
:1042D000C4F200034FF002021A7045F67603C4F2EE
:1042E00000034FF044021A7007F10C07BD4680BC72
:1042F000704700BF80B483B000AF0346FB71FB7909
:10430000092B18D8FA7944F6E863C0F2000353F891
:104310002220F97944F6E863C0F2000353F8213013
:104320001978F87944F61073C0F200031B5C41EA77
:104330000303DBB2137007F10C07BD4680BC704766
:1043400080B483B000AF0346FB71FB79092B1BD807
:10435000FA7944F6E863C0F2000353F82220F979B1
:1043600044F6E863C0F2000353F821301978F87975
:1043700044F61073C0F200031B5C6FEA0303DBB268
:1043800001EA0303DBB2137007F10C07BD4680BCE2
:10439000704700BF80B582B000AF72B644F2E863E8
:1043A000C4F2000344F2E862C4F200021278D2B20E
:1043B00042F00402D2B21A704FF00003FB702FE0FB
:1043C000FA7813464FEA430313444FEA43031A466D
:1043D00044F61C73C0F2000313447B607B681A78B8
:1043E00059784FEA012141EA020299784FEA0141E6
:1043F00041EA0202DB784FEA036343EA02031A460A
:104400007B6819795B794FEA032343EA01039BB286
:1044100010461946FFF720FEFB7803F10103FB70FD
:10442000FB78082BCCD94FF0904040F27C01C4F6C9
:104430000001FFF731FE45F67203C4F200034FF4AA
:1044400040721A8045F64E03C4F2000340F2033274
:104450001A8045F20303C4F2010345F20302C4F2D9
:1044600001021278D2B242F00202D2B21A7045F2C0
:104470001303C4F2010345F21302C4F201021278DD
:10448000D2B242F00202D2B21A7044F2A033C4F2A5
:10449000000344F2A032C4F200021278D2B242F019
:1044A0004002D2B21A7044F2C233C4F2000344F2A2
:1044B000C232C4F200021278D2B242F01002D2B27A
:1044C0001A7045F2F210C4F2000040F27871C4F69E
:1044D00000014FF00802FFF7CFFD45F22210C4F2B1
:1044E000000040F28071C4F600014FF00802FFF7AF
:1044F000C3FD45F24210C4F2000040F28871C4F6D8
:1045000000014FF00802FFF7B7FD45F25210C4F268
:10451000000040F29071C4F600014FF00802FFF76E
:10452000ABFD45F26010C4F2000040F29871C4F691
:1045300000014FF00A02FFF79FFD40F6DB63C4F273
:1045400001034FF044021A7044F22233C4F2000314
:1045500044F22232C4F200021278D2B242F00802CF
:10456000D2B21A7044F60003C4F200034FF0010205
:104570001A70FFF7D3FD44F60003C4F200036FF096
:104580007E021A7040F20403C4F208034FF00102E5
:104590001A70FFF765FE44F2B030C4F2000044F236
:1045A000A031C4F200014FF00E02FFF765FD07F1E4
:1045B0000807BD4680BD00BF0230800803D000BFA1
:1045C00001380046FCD17047EFF3108072B6704797
:1045D00080F31088704700BF224B234A1B6832F8D3
:1045E0001010224A33F8103030B532F81040CD1A8E
:1045F000ADB2C3EB040C85EA0C0C1CF4004F2DD0BB
:1046000065B31C1B24B222F81010194A002CB8BF45
:10461000644212F800C0E4B2B4EB5C0F1EDA154A33
:10462000115C8C4208DD144C0131002501EBDC0CDF
:10463000255402F800C011E010D00F4C14F800C04F
:10464000BCF1090F04D80CF1010C04F800C005E01E
:104650004FF0000C013904F800C01154024A22F84E
:10466000103030BD6881FF1F5882FF1F7C82FF1F02
:104670009082FF1FA482FF1F6882FF1F38B5284B5E
:1046800005461B681C5CFFF7A7FF264A135D591EF1
:104690001155002B24D1244A24491368095D24486C
:1046A0001955244B005D1968085512681B68125D86
:1046B000E15C5208914228BFE2541F4B1B681A5D0F
:1046C000184B1A55184A1D4B12681B68125D920848
:1046D0001A55164B4FF0FF321A55154B01321A5529
:1046E000174B124A595D174B48005B5DC0B28342BD
:1046F00004D9105D984206D9135504E012F804C09D
:10470000844588BF10550A4A01EB5101C9B29B0884
:10471000994228BF0B46115D994238BF135538BDE9
:104720005481FF1FA082FF1F5C81FF1F7082FF1F4B
:104730008C82FF1F4881FF1F5881FF1F4C81FF1F84
:10474000A482FF1F9082FF1F70B5002237E0C45C77
:10475000944204D1204C1C5DA14238BF2146013354
:10476000DCB26445F3D31D4B1B6899541C4B1E7877
:104770001C4B1D6800231DE0E85C904219D11A48CB
:10478000154C185C13F804C007E04FEA4C0C5FFAB4
:104790008CFC40004CF0010C80B26145F5D80E4C09
:1047A00010F47F4F03F804C00F4C18BF4FF0FF30D8
:1047B00018550133D8B2B042DED30132D2B20B4B1E
:1047C0001B78934207D9064B93F800C0054B186835
:1047D00000231946C4E770BD7482FF1F5081FF1F7C
:1047E0007481FF1F5481FF1F9082FF1F7681FF1F7E
:1047F0002DE9F0419846194B04461B7883422AD98B
:10480000174B00261B6847001954164B16491B68A6
:1048100080251E54154B09681B681B5CCA54114B3C
:1048200020461B68E25C45EA0202E254FEF786FC81
:10483000FEF792FC0028FBD10D4B1B68DB5B434568
:1048400005D2084B1B68E25C22EA0502E2540136FD
:104850006D08082EE3D1BDE8F08100BF7581FF1F10
:104860006481FF1F6081FF1F5081FF1F5481FF1F64
:104870006881FF1F38B5154B4FF0FF321A54144BA7
:10488000FF221B6804461D5C4DF69813FFF7B0FF2E
:10489000104B114A1B5D12885343B3FBF5F5ADB2C3
:1048A00004E00A4B6D081A5D52081A55802DF8D89D
:1048B0000A4BEDB21D550A4BAD081D55094B4FF083
:1048C00000021B6823F8142038BD00BF7482FF1F4C
:1048D0006081FF1FC04E00007281FF1F9082FF1F8A
:1048E000A482FF1F6C81FF1F10B5FEF759FC002446
:1048F00009E0194B2046197801224FF4D973FFF7CC
:1049000077FF0134E4B2154B1B78A342F1D80023A2
:104910000AE01349134A09681348C95C1268C908B8
:10492000415CD1540133DBB2104A12789A42F0D87C
:10493000FEF72EFC002407E00A4B20461B68195D99
:10494000FFF798FF0134E4B2044B1B78A342F3D87D
:10495000BDE81040FFF7F8BE7081FF1F7581FF1F93
:104960006081FF1F6481FF1FC84E00007481FF1F1C
:10497000032A2DE9F0070BD83AB1002311F803C040
:1049800000F803C001339342F8D1BDE8F007704747
:1049900082180C46034603E014F8011C03F8011CBE
:1049A00003F003061946A44601330134002EF3D167
:1049B0001CF00304634608BFC1EB020C68D06542DB
:1049C000C4F1040A0CEB050733464FEACA0A5CF847
:1049D00005604FEAC408551A08E057F8044F264608
:1049E00004FA0AF449EA0404CC5004335C18032D99
:1049F00026FA08F9A5F104050CEB0306EDDC00230B
:104A000002E0F15CE154013319199142F9D3BCE79A
:104A100053F8404C41F8404C53F83C4C41F83C4C66
:104A200053F8384C41F8384C53F8344C41F8344C76
:104A300053F8304C41F8304C53F82C4C41F82C4C86
:104A400053F8284C41F8284C53F8244C41F8244C96
:104A500053F8204C41F8204C53F81C4C41F81C4CA6
:104A600053F8184C41F8184C53F8144C41F8144CB6
:104A700053F8104C41F8104C53F80C4C41F80C4CC6
:104A800053F8084C41F8084C53F8044C41F8044CD6
:104A90001C460D4640334031BCF13F0FACF1400C99
:104AA000B6DC21462B46541B0FE051F8105C43F84E
:104AB000105C51F80C5C43F80C5C51F8085C43F84E
:104AC000085C51F8045C43F8045C0F2C0D469C46CE
:104AD00001F1100103F11003A4F11004E5DCCCEBAB
:104AE0000201002303E0EC584CF8034004335E1944
:104AF000032903EB0C04A1F10401F4DC7FE700BF00
:104B0000032AC9B230B407D822B10023C1540133FB
:104B10009342FBD130BC704700EB020C034601E02E
:104B200003F8011C03F003041A460133002CF7D1EB
:104B30004FF00133C2EB0C0403FB01F31FE042F81A
:104B4000403C42F83C3C42F8383C42F8343C42F8A5
:104B5000303C42F82C3C42F8283C42F8243C42F8D5
:104B6000203C42F81C3C42F8183C42F8143C42F805
:104B7000103C42F80C3C42F8083C42F8043C154614
:104B800040323F2CA4F14004D9DC2A46C5EB0C048A
:104B900007E042F8103C42F80C3C42F8083C42F86E
:104BA000043C154610320F2CA4F11004F1DC2A4607
:104BB000C5EB0C0501E042F8043C14460432032D19
:104BC000A5F10405F7DC01E004F8011B6445FBD303
:104BD000A0E700BF08B500F017F8074800B100686B
:104BE000064901B109680022FCF70EF8044B0BB12D
:104BF000AFF30080FEE700BF0000000000000000EF
:104C000000000000FEE7000070B544F6607644F650
:104C10006075C0F20006C0F20005761BB61006D023
:104C2000002455F8243001349847A642F9D844F6B8
:104C3000607544F66876C0F20005C0F20006761B87
:104C400000F088F9B61006D0002455F8243001345D
:084C50009847A642F9D870BD97
:104C58002B2B2B002020200041544150310D000007
:104C680041544348000000004154434E0D000000E9
:104C780044656C696D697465720000004C656E6707
:104C88007468000041504920494400003078000011
:104C98004672616D652049440000000044657374E4
:104CA800696E6174696F6E0044697361626C652036
:104CB80041434B00506C6179657220494400000003
:104CC8005061636B6574205479706500526F77008A
:104CD800436F6C756D6E0000436865636B73756D2B
:104CE8000000000077616974696E6700726563652A
:104CF80069766564000000007E000000596F752029
:104D080077696E2100000000696E697469616C69D9
:104D18007A696E672E2E2E00626F61726400000041
:104D28006D61747269780000696E7465727275706D
:104D38007473000074696D657200000063617073BC
:104D4800656E7365000000006C6F63617465206FA9
:104D580070706F6E656E74006C6F63616C0000003C
:104D680072656D6F74650000554152540000000073
:104D78005842656500000000436F6E6E65637420DD
:104D880034000000506C6179657220310000000029
:104D9800506C61796572203200000000506C6163CC
:104DA80065206120646973632100000047616D65B7
:104DB800204F766572000000426F6172642046756C
:104DC8006C6C0000436F6C756D6E2046756C6C00E2
:104DD80077616974696E672E2E2E000020202020CE
:104DE800202020202020202020202020000000003B
:104DF8006572726F72000000636F6C6F72206D696C
:104E0800736D61746368000020202020202020003A
:104E180052656400477265656E00000059656C6CE8
:104E28006F770000426C7565000000004D61676592
:104E38006E7461004379616E000000005768697400
:104E48006500000030313233343536373839414265
:104E5800434445462D5000402E5000402850004005
:104E6800295000402A5000402B5000402C50004050
:104E78000505050505050500204001020408100088
:104E8800065200400E520040165200401E5200408A
:104E9800265200402E520040365200407E520040BA
:104EA80001020000000000000200010005010100ED
:104EB800C01F0000080000000202020202020200F5
:104EC80001010102020203030304040404050505A9
:104ED800060606070707080808090909090A0A0A49
:104EE8005C5100405C5100405C5100405C51004006
:104EF8005C5100405C5100405C5100408B5A0040BE
:104F0800DB5A00409B5A004020400102040810016F
:104F180001100000004F00400C000051004020002C
:104F2800305100401000C051004010000000014006
:104F3800001000140140000800400140000A004C25
:104F4800014000020050014020000000F8B500BFF9
:104F5800F8BC08BC9E46704781000000CD160000D2
:104F6800F8B500BFF8BC08BC9E4670476D0000004D
:104F780000000000904F00000881FF1F7000000033
:084F88007801000000000000A8
:104F90000000000001040101FFFF000000366E0167
:104FA000C05D0000180000000000E02E7F0000003F
:104FB000C8C8C8C8C8C8C800030303006464640044
:104FC00014141400000A0A0001010100010000008D
:104FD0003881FF1F3C81FF1F3081FF1FA84E00005A
:104FE000B44E00003481FF1F2881FF1F4882FF1F3D
:104FF0008081FF1F9081FF1F0A00C22D0707030059
:04000003000016A93A
:00000001FF
