:10000000008000204D070000450700004507000064
:1000100080B51448144B21E05C689968DD688C4217
:100020000CD0002205E0A6180832D6E9008941E983
:1000300002898C460831AA42F5D101E004EB050C97
:100040001C696146002204E008320026002741E9CD
:1000500002670831A242F7D1143301380028DBD1FE
:1000600003F016F8010000009838000048F23863E9
:10007000C1F6FF731A780AB901201870704700BFE3
:1000800048F20810C1F6FF7008B503682BB140F2C2
:100090000003C0F2000303B1984708BD80B582B0E9
:1000A00000AF0346FB71FB7918464FF0000100F0EA
:1000B00033FC43F27410C0F2000000F067FCFB79DF
:1000C00018464FF0000100F027FC07F10807BD4675
:1000D00080BD00BF80B582B000AF78604FF00100F6
:1000E00000F09EFC4FF000004FF0000100F014FC07
:1000F000786800F04BFC07F10807BD4680BD00BFE3
:1001000080B582B000AF78604FF00100FFF7C6FF06
:10011000786800F03BFC07F10807BD4680BD00BFD2
:1001200080B586B000AF13460246FA710A46BA712E
:100130007B714FF00003BB724FF00103FB72FB7940
:100140004FF0010202FA03F33B734FF001037B739C
:100150004FF00103BB734FF00103FB737B79072B57
:100160006ED801A252F823F0890100009701000027
:10017000AB010000BF010000D9010000ED0100004B
:100180000702000021020000BB7A7B73BB7ABB73BD
:10019000BB7AFB736BE07A7BBB7902FA03F37B7368
:1001A000BB7ABB73BB7AFB7361E0BB7A7B73BA7BB0
:1001B000BB7902FA03F3BB73BB7AFB7357E07A7B1C
:1001C000BB7902FA03F37B73BA7BBB7902FA03F3C0
:1001D000BB73BB7AFB734AE0BB7A7B73BB7ABB739E
:1001E000FA7BBB7902FA03F3FB7340E07A7BBB79BD
:1001F00002FA03F37B73BB7ABB73FA7BBB7902FA17
:1002000003F3FB7333E0BB7A7B73BA7BBB7902FAEF
:1002100003F3BB73FA7BBB7902FA03F3FB7326E0AB
:100220007A7BBB7902FA03F37B73BA7BBB7902FA60
:1002300003F3BB73FA7BBB7902FA03F3FB7316E09B
:1002400043F28810C0F20000FFF744FF43F2981019
:10025000C0F20000FFF754FF4FF001004FF00E0115
:1002600000F05AFB7B79184600F090FDFEE73B7BDF
:100270006FEA03033B737B7B6FEA03037B73BB7BF8
:100280006FEA0303BB73FB7B6FEA0303FB73BB7A69
:10029000184600F02DFF4FF000033B614BE03A7B26
:1002A0004FF080013B6941FA03F302EA0303002B9C
:1002B00001D0FB7A00E0BB7A184600F071FE7A7B31
:1002C0004FF080013B6941FA03F302EA0303002B7C
:1002D00001D0FB7A00E0BB7A184600F083FEBA7BBF
:1002E0004FF080013B6941FA03F302EA0303002B5C
:1002F00001D0FB7A00E0BB7A184600F095FEFA7B4D
:100300004FF080013B6941FA03F302EA0303002B3B
:1003100001D0FB7A00E0BB7A184600F0A7FEFB7A1A
:10032000184600F0C3FEBB7A184600F0BFFE3B69DA
:1003300003F101033B613B69072BB0DDFB7A1846F3
:1003400000F0D6FE07F11807BD4680BD80B582B02B
:1003500000AF4FF00003BB704FF00103FB70BB78A0
:10036000184600F0C5FE4FF000037B601BE04FF025
:10037000FF0000F015FE4FF0FF0000F033FE4FF0DD
:10038000FF0000F051FE4FF0FF0000F06FFEFB7821
:10039000184600F08BFEBB78184600F087FE7B689D
:1003A00003F101037B607B68072BE0DDFB781846D7
:1003B00000F09EFE07F10807BD4680BD80B584B001
:1003C00000AF78604FF04003FB81FB89002B0CBF2E
:1003D00000230123DBB2FA8902F1FF32FA81002BFC
:1003E0006AD048F20E13C1F6FF731B8803F10103B4
:1003F0009AB248F20E13C1F6FF731A8048F20E1338
:10040000C1F6FF731B88072B21D948F20E13C1F6E2
:10041000FF734FF000021A8048F20C13C1F6FF730D
:100420001B8803F101039AB248F20C13C1F6FF7363
:100430001A8048F20C13C1F6FF731B88072B06D9EC
:1004400048F20C13C1F6FF734FF000021A80FFF759
:100450007DFF48F20C13C1F6FF731B884FEAC302FD
:100460007B681A4448F20E13C1F6FF731B88D35CF5
:10047000002B20D048F20C13C1F6FF731B88D9B2B1
:1004800048F20E13C1F6FF731B88DAB248F20C1360
:10049000C1F6FF731B884FEAC3007B68184448F21B
:1004A0000E13C1F6FF731B88C35C084611461A463B
:1004B000FFF736FE00E000BF07F11007BD4680BD24
:1004C000B0B586B000AF786043F20820C0F20000FB
:1004D000FFF700FE4FF0000002F07EF903461846D9
:1004E00002F04AF900E000BF02F0F2F802464FEADB
:1004F000E2734FEA53731A4402F00702C3EB02039C
:10050000BB7302F0E5F802464FEAE2734FEA537319
:100510001A4402F00702C3EB0203FB73BB7B4FEAF2
:10052000C3027B6802EB0305FC7B02F0D1F80246B4
:100530004FEAE2734FEA53731A4402F00702C3EB27
:100540000203DBB22B554FF0010001F0A5F9034681
:10055000002BC8D04FF032033B824FF000037B8268
:1005600001F0CAF903469BB2BB82BB8A398A7A8AF8
:10057000C2EB010202FB03F348F20102C8F20002DF
:1005800082FB03121A444FEAE2324FEAE373C3EBF1
:1005900002039BB23A8AC3EB02039AB27B8A4FEA08
:1005A00043039BB21344FB8243F2FC10C0F20000F1
:1005B000FFF7A6FD4FF001004FF0070100F0ACF986
:1005C000BB8A4FF0640202FB03F348F20102C8F257
:1005D000000282FB03121A444FEAE2324FEAE3734D
:1005E000C3EB02039BB2184600F0F2FBFB8A1846ED
:1005F00000F0BEFE78E700BF80B500AF48F23C6077
:10060000C1F6FF70FFF7DAFE80BD00BF80B500AF16
:1006100000F00AF848F23C60C1F6FF70FFF750FFA7
:1006200000F064F880BD00BF80B500AF00F050F965
:1006300043F21420C0F20000FFF74CFD43F22420E7
:10064000C0F20000FFF75CFD00F024F843F22C201C
:10065000C0F20000FFF754FD62B640F2F950C0F25C
:10066000000000F03DFC43F23820C0F20000FFF72C
:1006700047FD00F0FDFD41F66A0000F04BFE43F23D
:100680004020C0F20000FFF73BFD00F0EBFF01F05F
:10069000EFF880BD80B483B000AF4FF00003BB71B2
:1006A0001BE04FF00003FB7110E0B979FA7948F2D2
:1006B0003C63C1F6FF734FEAC1010A4413444FF093
:1006C00000021A70FB7903F10103FB71FB79072B20
:1006D000EBD9BB7903F10103BB71BB79072BE0D9DF
:1006E00007F10C07BD4680BC704700BF80B500AF66
:1006F00043F24420C0F20000FFF7ECFC43F240203C
:10070000C0F20000FFF7FCFC00F0CAFF43F2382003
:10071000C0F20000FFF7F4FC00F0C0FD43F22C2013
:10072000C0F20000FFF7ECFC00F0EEFB43F22420E7
:10073000C0F20000FFF7E4FCFFF7ACFF00F0DEF8CA
:1007400080BD00BF80B400AFFEE700BF054B1C7842
:1007500044F001041C70044B1A78D2B2034B1A7097
:10076000FFF756FCE8460040FA460040BC760040E1
:1007700080B582B000AF4EF60C53CEF2000340F2CB
:100780000042C0F2FA521A604EF61453CEF2000341
:100790004EF61452CEF20002126842F400721A6051
:1007A0004FF000037B6019E079687B68032B07D862
:1007B0007A6840F20003C0F2000353F8223003E0ED
:1007C00040F24573C0F2000348F20002C1F6FF7226
:1007D00042F821307B6803F101037B607B682F2B9B
:1007E000E2D947F2BC63C4F200031B78DAB248F2E4
:1007F000BC63C1F6FF731A704EF60853CEF20003C5
:1008000048F20002C1F6FF721A6001F037FD48F2AB
:100810000013C1F6FF734FF000021A6007F10807DA
:10082000BD4680BD80B500AF4FF0280000F0A0FDB0
:100830004FF0030000F064FA4FF0050000F098FD5F
:100840004FF0030000F05CFA4FF00F0000F090FD55
:100850004FF0030000F054FA4FF0010000F088FD63
:100860004FF0020000F04CFA4FF0050000F080FD60
:100870004FF0060000F0D4F84FF00E0000F0D0F872
:100880004FF02C0000F0CCF84FF0080000F0C8F852
:100890004FF0010000F0C4F84FF00C0000F0C0F879
:1008A0004FF0030000F0BCF84FF0050000F060FDD1
:1008B00080BD00BF80B500AF4FF00C0000F0B0F875
:1008C00048F27C63C1F6FF734FF001021A7080BDDD
:1008D00080B500AF48F27D63C1F6FF731B78002B33
:1008E00008D1FFF79FFF48F27D63C1F6FF734FF019
:1008F00001021A70FFF7DEFF80BD00BF80B500AFB8
:100900004FF0080000F08CF848F27C63C1F6FF73EA
:100910004FF000021A7080BD80B582B000AF024671
:100920000B46FA71BB71FB79032B2AD801A252F84E
:1009300023F000BF450900005509000065090000CB
:1009400075090000BB79A3F18003DBB2184600F003
:1009500067F816E0BB79A3F14003DBB2184600F05C
:100960005FF80EE0BB79A3F16C03DBB2184600F030
:1009700057F806E0BB79A3F12C03DBB2184600F070
:100980004FF807F10807BD4680BD00BF80B584B0B1
:1009900000AF78604FF00103BB737B681B78FB737B
:1009A0000CE0FB7B184600F01FF8BA7B7B68134411
:1009B0001B78FB73BB7B03F10103BB73FB7B002B39
:1009C000EFD107F11007BD4680BD00BF80B582B0F2
:1009D00000AF0346FB71FB79184600F005F807F1FC
:1009E0000807BD4680BD00BF80B584B000AF034698
:1009F000FB7100F031F8FB794FEA1313FB73FB7BBB
:100A0000184600F027F9FB7903F00F03FB73FB7B1B
:100A1000184600F01FF907F11007BD4680BD00BF62
:100A200080B584B000AF0346FB7100F015F8FB7988
:100A30004FEA1313FB73FB7B184600F061F9FB7957
:100A400003F00F03FB73FB7B184600F059F907F125
:100A50001007BD4680BD00BF80B582B000AF45F233
:100A60002013C4F2000345F22012C4F200021278EF
:100A7000D2B202F080021A7045F22213C4F20003CF
:100A80001B78DBB223F00F03FB7145F22213C4F293
:100A90000003FA7942F00F02D2B21A7045F2231322
:100AA000C4F200031B78DBB223F00F03FB7145F2A5
:100AB0002313C4F20003FA791A7045F22413C4F226
:100AC00000031B78DBB223F00F03FB7145F2241304
:100AD000C4F20003FA791A7045F22013C4F200033D
:100AE00045F22012C4F200021278D2B202F0DF0204
:100AF0001A7045F22013C4F2000345F22012C4F22A
:100B000000021278D2B242F04002D2B21A704FF014
:100B1000000000F051FC45F22013C4F2000345F23E
:100B20002012C4F200021278D2B242F01002D2B205
:100B30001A704FF0010000F03FFC45F22113C4F29F
:100B400000031B78FB7145F22013C4F2000345F249
:100B50002012C4F200021278D2B202F0EF021A7030
:100B60004FF0000000F028FCFB7903F00803FB7154
:100B700045F22013C4F2000345F22012C4F2000231
:100B80001278D2B242F01002D2B21A704FF00100C5
:100B900000F012FC45F22013C4F2000345F22012CB
:100BA000C4F200021278D2B202F0EF021A70FB799E
:100BB000002BACD145F22013C4F2000345F2201201
:100BC000C4F200021278D2B202F0BF021A7045F2EB
:100BD0002013C4F2000345F22012C4F2000212787E
:100BE000D2B202F080021A7045F22213C4F200035E
:100BF00045F22212C4F200021278D2B202F0F002E0
:100C00001A7045F22313C4F200031B78DBB223F001
:100C10000F03FB7145F22313C4F20003FA7942F08B
:100C20000F02D2B21A7045F22413C4F200031B78EB
:100C3000DBB223F00F03FB7145F22413C4F200036F
:100C4000FA7942F00F02D2B21A7007F10807BD46D6
:100C500080BD00BF80B582B000AF0346FB71FFF7D7
:100C6000FBFE45F22013C4F2000345F22012C4F249
:100C700000021278D2B242F02002D2B21A7045F2CB
:100C80002013C4F2000345F22012C4F200021278CD
:100C9000D2B202F0BF021A7045F22013C4F2000370
:100CA00045F22012C4F200021278D2B202F0F00231
:100CB0001A7045F22013C4F2000345F22012C4F268
:100CC00000021278D1B2FA7941EA0202D2B242F0BD
:100CD0001002D2B21A704FF0010000F06DFB45F225
:100CE0002013C4F2000345F22012C4F2000212786D
:100CF000D2B202F0EF021A7007F10807BD4680BDBC
:100D000080B582B000AF0346FB7145F22013C4F2F8
:100D1000000345F22012C4F200021278D2B202F0AF
:100D20009F021A7045F22013C4F2000345F220120C
:100D3000C4F200021278D2B202F0F0021A7045F248
:100D40002013C4F2000345F22012C4F2000212780C
:100D5000D1B2FA7941EA0202D2B242F01002D2B222
:100D60001A704FF0010000F027FB45F22013C4F287
:100D7000000345F22012C4F200021278D2B202F04F
:100D8000EF021A7007F10807BD4680BD80B582B03A
:100D900000AF0346FB71FB794FEA1313DBB21A462F
:100DA00043F61003C0F200039B5C1846FFF70EFEEB
:100DB000FB7903F00F0243F61003C0F200039B5CC3
:100DC0001846FFF703FE07F10807BD4680BD00BFC8
:100DD00080B586B000AF0346FB804FF00003BB75C3
:100DE0002AE0B87DFA884CF6CD43CCF6CC43A3FB81
:100DF00002134FEAD3010B464FEA83030B444FEA39
:100E00004303C3EB02039BB2DBB203F13003DAB25C
:100E100007F1180101EB000303F8102CFA884CF6D7
:100E2000CD43CCF6CC43A3FB02134FEAD303FB80A4
:100E3000BB7D03F10103BB75FB88092BD1D8B87DBD
:100E4000FA884CF6CD43CCF6CC43A3FB02134FEA11
:100E5000D3010B464FEA83030B444FEA4303C3EB32
:100E600002039BB2DBB203F13003DAB207F11801DF
:100E700001EB000303F8102CBB7DFB7512E0FA7D3B
:100E8000BB7DC3EB0203BA7D07F118010A4412F8D7
:100E9000102C07F118010B4403F8082CBB7D03F15B
:100EA000FF33BB75BB7D002BE9D1FB7D3A7A07F19F
:100EB00018010B4403F8082CFB7D03F1010307F133
:100EC000180213444FF0000203F8082C07F1100336
:100ED0001846FFF75BFD07F11807BD4680BD00BF50
:100EE00080B582B000AF786000F04EF8786800F00E
:100EF00017F84FF0070000F027F800F039F807F175
:100F00000807BD4680BD00BF80B500AF00F03CF8CB
:100F100040F24570C0F2000000F002F880BD00BF52
:100F200080B485B000AF78604EF60853CEF200036F
:100F30001B68FB60FB6803F140037A681A6007F1E5
:100F40001407BD4680BC704780B483B000AF034631
:100F5000FB714EF20043CEF20003FA794FEA4212DF
:100F6000D2B21A7007F10C07BD4680BC704700BFB3
:100F700080B400AF4EF20013CEF200034FF0010236
:100F80001A60BD4680BC704780B400AF4EF280133B
:100F9000CEF200034FF001021A60BD4680BC7047DC
:100FA00080B485B000AF0346FB7145F24013C4F234
:100FB00000031B78DBB223F00403FB7345F24013FC
:100FC000C4F20003FA794FEA8202D2B202F00402BC
:100FD000F97B42EA0102D2B21A7007F11407BD464A
:100FE00080BC704780B485B000AF0346FB7145F20A
:100FF0004013C4F200031B78DBB223F02003FB7321
:1010000045F24013C4F20003FA794FEA4212D2B219
:1010100002F02002F97B42EA0102D2B21A7007F113
:101020001407BD4680BC704780B485B000AF03464E
:10103000FB7145F24013C4F200031B78DBB223F0CE
:101040004003FB7345F24013C4F20003FA794FEA00
:101050008212D2B202F04002F97B42EA0102D2B21D
:101060001A7007F11407BD4680BC704780B485B084
:1010700000AF0346FB7145F24013C4F200031B7836
:10108000DBB203F07F03FB7345F24013C4F20003AD
:10109000FA794FEAC212D1B2FA7B41EA0202D2B225
:1010A0001A7007F11407BD4680BC704780B485B044
:1010B00000AF0346FB7145F24013C4F200031B78F6
:1010C000DBB223F00803FB7345F24013C4F20003C4
:1010D000FA794FEAC202D2B202F00802F97B42EA80
:1010E0000102D2B21A7007F11407BD4680BC7047E6
:1010F00080B485B000AF0346FB7145F24013C4F2E3
:1011000000031B78DBB223F01003FB7345F240139E
:10111000C4F20003FA794FEA0212D2B202F01002CE
:10112000F97B42EA0102D2B21A7007F11407BD46F8
:1011300080BC704780B500AF44F60073C4F2000372
:1011400044F60072C4F200021278D2B202F0010238
:101150001A7044F60273C4F2000344F60272C4F239
:1011600000021278D2B202F0FC021A7044F60B733D
:10117000C4F2000344F60B72C4F200021278D2B239
:1011800002F0CF021A7044F60B73C4F2000344F667
:101190000B72C4F200021278D2B242F03002D2B224
:1011A0001A7044F60B73C4F2000344F60B72C4F2D7
:1011B00000021278D2B202F0F0021A7044F60B73F9
:1011C000C4F2000344F60B72C4F200021278D2B2E9
:1011D00042F00F02D2B21A7044F60173C4F2000357
:1011E00044F60172C4F200021278D2B242F0010257
:1011F000D2B21A704FF6FF7000F08CF84FF6FF7005
:1012000000F09AF84FF0000000F074F880BD00BFC5
:1012100080B400AF44F2A333C4F2000344F2A3321B
:10122000C4F200021278D2B242F00102D2B21A70B5
:1012300044F2B333C4F2000344F2B332C4F2000206
:101240001278D2B242F00102D2B21A7044F60073A0
:10125000C4F2000344F60072C4F200021278D2B263
:1012600042F00102D2B21A70BD4680BC704700BF86
:1012700080B500AF48F27E63C1F6FF731B78002B88
:1012800008D1FFF757FF48F27E63C1F6FF734FF0B6
:1012900001021A70FFF7BCFF80BD00BF80B400AF31
:1012A00044F60073C4F2000344F60072C4F2000274
:1012B0001278D2B202F0FE021A7044F2A333C4F2E2
:1012C000000344F2A332C4F200021278D2B202F058
:1012D000FE021A7044F2B333C4F2000344F2B33294
:1012E000C4F200021278D2B202F0FE021A70BD46B9
:1012F00080BC704780B483B000AF0346FB7144F6F6
:101300000373C4F20003FA791A7007F10C07BD46A3
:1013100080BC704780B485B000AF0346FB80FB887B
:10132000FB8144F60473C4F20003FA891A8007F1C2
:101330001407BD4680BC704780B483B000AF03463D
:10134000FB8044F60673C4F20003FA881A8007F1A2
:101350000C07BD4680BC704780B483B000AF034625
:10136000FB7101BE07F10C07BD4680BC704700BF92
:1013700080B582B000AF78600BE048F21C13C1F674
:10138000FF731B68184601F05FF87B68A3F5004304
:101390007B607B68B3F5004FEFD848F21413C1F6B9
:1013A000FF731B687A6802FB03F3184601F04CF8E0
:1013B00007F10807BD4680BD80B582B000AF034687
:1013C000FB80FA8848F21813C1F6FF731B7803FB01
:1013D00002F3184601F038F807F10807BD4680BD52
:1013E00080B584B000AF03463960FB714EF60853F8
:1013F000CEF200031B68FB60FB791F2B03D94FF073
:101400000000FFF7A9FFFB7903F01F0303F11003AE
:101410004FEA8302FB6813441B68BB60FB7903F04F
:101420001F0303F110034FEA8302FB6813443A6879
:101430001A60BB68184607F11007BD4680BD00BFA3
:1014400080B582B000AF02460B46FA71BB71BB7922
:10145000072B03D94FF00000FFF77EFFFB791F2B0E
:1014600003D94FF00000FFF777FFFB7903F01F036C
:1014700003F1604303F56443BA794FEA4212D2B2F2
:101480001A7007F10807BD4680BD00BF80B500AFE8
:101490004FF0010000F042FA4FF0100000F0C8FCDD
:1014A0004FF0100000F0E0FC4FF0020048F65861E9
:1014B0004FF400424FF0100300F09CFB80BD00BFD2
:1014C00080B500AF44F2AA33C4F2000344F2AA325A
:1014D000C4F200021278D2B242F00102D2B21A7003
:1014E00044F2AA33C4F2000344F2AA32C4F2000266
:1014F0001278D2B242F01002D2B21A7044F2BA3369
:10150000C4F2000344F2BA32C4F200021278D2B23A
:1015100042F00102D2B21A7044F2BA33C4F20003AC
:1015200044F2BA32C4F200021278D2B242F010028F
:10153000D2B21A7048F22013C1F6FF731B78DBB2E7
:10154000012B47D144F2F863C4F2000344F2F8627D
:10155000C4F200021278D2B242F00202D2B21A7081
:1015600044F2F963C4F2000344F2F962C4F20002E7
:101570001278D2B242F00202D2B21A7045F691034A
:10158000C4F2000345F69102C4F200021278D2B20E
:1015900042F00302D2B21A704FF00300FFF70CFFC3
:1015A00044F2F863C4F2000344F2F862C4F20002A9
:1015B0001278D2B202F0FD021A7044F2F963C4F25A
:1015C000000344F2F962C4F200021278D2B202F0CF
:1015D000FD021A7045F67703C4F2000345F6770260
:1015E000C4F200021278D2B242F00602D2B21A70ED
:1015F00044F2A133C4F2000344F2A132C4F2000267
:101600001278D2B242F00102D2B21A7044F2B1336F
:10161000C4F2000344F2B132C4F200021278D2B232
:1016200042F00102D2B21A7044F2A233C4F20003B3
:1016300044F2A232C4F200021278D2B242F00102A5
:10164000D2B21A7044F2B233C4F2000344F2B2329E
:10165000C4F200021278D2B242F00102D2B21A7081
:1016600080BD00BF80B500AF48F28263C1F6FF7352
:101670001B78002B10D148F28363C1F6FF731B78EF
:10168000DBB2002B01D1FFF701FF48F28263C1F604
:10169000FF734FF001021A70FFF712FF80BD00BF09
:1016A00080B500AF44F60063C4F2000344F6006264
:1016B000C4F200021278D2B202F0FE021A7044F6AE
:1016C0000163C4F2000344F60162C4F2000212781E
:1016D000D2B242F00402D2B21A7044F2F863C4F2F9
:1016E000000344F2F862C4F200021278D2B242F06F
:1016F0000202D2B21A7044F2F963C4F2000344F257
:10170000F962C4F200021278D2B242F00202D2B2FE
:101710001A7045F69103C4F2000345F69102C4F233
:1017200000021278D2B202F0FC021A7045F692035F
:10173000C4F2000345F69202C4F200021278D2B25B
:1017400002F0F7021A704FF00300FFF735FE44F283
:10175000F863C4F2000344F2F862C4F200021278A3
:10176000D2B202F0FD021A7044F2F963C4F200032F
:1017700044F2F962C4F200021278D2B202F0FD0221
:101780001A7044F2AA33C4F2000344F2AA32C4F23B
:1017900000021278D2B202F0EF021A7044F2AA33B9
:1017A000C4F2000344F2AA32C4F200021278D2B2A8
:1017B00002F0FE021A7044F2BA33C4F2000344F29B
:1017C000BA32C4F200021278D2B202F0FE021A70EB
:1017D00044F2BA33C4F2000344F2BA32C4F2000253
:1017E0001278D2B202F0EF021A7045F67703C4F213
:1017F000000345F67702C4F200021278D2B202F07A
:10180000F9021A7044F2A133C4F2000344F2A13287
:10181000C4F200021278D2B202F0FE021A7044F250
:10182000B133C4F2000344F2B132C4F200021278C0
:10183000D2B202F0FE021A7044F2A233C4F20003E4
:1018400044F2A232C4F200021278D2B202F0FE02D6
:101850001A7044F2B233C4F2000344F2B232C4F25A
:1018600000021278D2B202F0FE021A7080BD00BFF0
:1018700080B400AF44F60063C4F2000344F6006293
:10188000C4F200021278D2B242F00102D2B21A704F
:10189000BD4680BC704700BF80B485B000AF034632
:1018A000FB7148F28163C1F6FF731B78DBB2012B39
:1018B0000CD148F28063C1F6FF731B78FB73FB7B8E
:1018C000012B12D0FB79002BF3D00EE044F601631C
:1018D000C4F200031B78DBB203F00103FB73FB7B54
:1018E000012B02D0FB79002BF0D0FB7B184607F1CF
:1018F0001407BD4680BC704780B483B000AF44F687
:101900001063C4F200031B88FB80FB881BB21846DF
:1019100007F10C07BD4680BC704700BF80B582B0A0
:1019200000AF0346FB7148F28163C1F6FF734FF0CD
:1019300000021A7048F28263C1F6FF731B78002B15
:1019400068D145F69603C4F200034FF007021A70FF
:1019500045F69703C4F200034FF000021A7045F6F3
:101960009E03C4F200034FF000021A7045F60733DD
:10197000C4F2000345F60732C4F200021278D2B274
:1019800042F01802D2B21A7045F69303C4F2000373
:101990004FF000021A7045F68833C4F200034FF08E
:1019A00000021A7045F68933C4F200034FF00002BA
:1019B0001A7045F68003C4F200034FF00A021A7051
:1019C00045F68103C4F200034FF000021A7045F699
:1019D0008203C4F200034FF07A021A7045F68303C3
:1019E000C4F200034FF000021A7045F68D03C4F2F2
:1019F00000034FF000021A7044F60163C4F20003C2
:101A00004FF014021A7044F61463C4F200034FF04E
:101A100001021A70FB79012B40F0E88044F6006364
:101A2000C4F200034FF038021A7044F60263C4F2A5
:101A300000034FF004021A7044F60363C4F200037B
:101A40004FF006021A7044F60463C4F200034FF02C
:101A500000021A7044F60563C4F200034FF000025E
:101A60001A7044F60663C4F200034FF03F021A7086
:101A700044F60863C4F200034FF000021A7044F603
:101A80000963C4F200034FF000021A7044F60A63BF
:101A9000C4F200034FF000021A7045F68403C4F24A
:101AA00000034FF050021A7045F68503C4F200039C
:101AB0004FF00E021A7045F68603C4F200034FF091
:101AC0003E021A7045F68703C4F200034FF000028D
:101AD0001A7045F68803C4F200034FF012021A7020
:101AE00045F68903C4F200034FF013021A7045F65D
:101AF0008A03C4F200034FF044021A7045F68B03C8
:101B0000C4F200034FF048021A7045F68C03C4F289
:101B100000034FF001021A7045F68E03C4F2000371
:101B20004FF001021A7045F68F03C4F200034FF024
:101B300011021A7045F69003C4F200034FF0190227
:101B40001A7045F69103C4F200036FF068021A7030
:101B50004FF0520000F01CF945F69403C4F2000364
:101B60004FF058021A7045F69503C4F200034FF087
:101B700000021A7045F69A03C4F200034FF0050202
:101B80001A7045F69B03C4F200034FF002021A706C
:101B900045F69C03C4F200034FF001021A7045F6AB
:101BA0009D03C4F200034FF000021A704FF00000D2
:101BB00000F094F948F22413C1F6FF7343F2333274
:101BC0001A604FF01D004FF00701FFF739FC4FF08E
:101BD0001D0041F62561C0F20001FFF701FC4EF245
:101BE0000013CEF200034FF000521A6007F108070D
:101BF000BD4680BD80B487B000AFF871B9807A80EF
:101C00007B70FB79A3F10403062B5DD801A252F887
:101C100023F000BF311C0000C91C0000C91C0000DB
:101C2000571C00007D1C0000C91C0000A31C000004
:101C30007B780F2B07D940F21813C4F600131B78DA
:101C4000DBB2FB7343E040F21C13C4F600131B78B5
:101C5000DBB2FB733BE07B780F2B07D940F2191303
:101C6000C4F600131B78DBB2FB7330E040F21D13A7
:101C7000C4F600131B78DBB2FB7328E07B780F2BD4
:101C800007D940F21A13C4F600131B78DBB2FB73BA
:101C90001DE040F21E13C4F600131B78DBB2FB7389
:101CA00015E07B780F2B07D940F21B13C4F6001305
:101CB0001B78DBB2FB730AE040F21F13C4F600137B
:101CC0001B78DBB2FB7302E04FF00003FB73FB7980
:101CD000002B11D0FB79012B0ED0FB79022B0BD0FE
:101CE000FB79032B08D0FB79052B05D0FB79062B5C
:101CF00002D0FB79092B03D14FF000033B8206E0B1
:101D000097F90F309BB24FEA43139BB23B823A8A5A
:101D1000BB8813447B827B8A7A8802FB03F37B6156
:101D20007B694FEAD3337B827B780D2B12D87A8A7A
:101D30007B786FEA030303F10F0342FA03F37B821C
:101D400044F60E63C4F200037A7802F10102D2B2C3
:101D50001A7006E044F60E63C4F200034FF00F025F
:101D60001A7044F60C63C4F200037A8AD2B21A7075
:101D700044F60D63C4F200037A8A4FEA122292B24B
:101D8000D2B21A7007F11C07BD4680BC704700BF75
:101D900080B582B000AF0346FB7144F2F863C4F231
:101DA000000344F2F862C4F200021278D2B242F0A8
:101DB0000302D2B21A7044F2F963C4F2000344F28F
:101DC000F962C4F200021278D2B242F00302D2B237
:101DD0001A7045F69203C4F20003FA791A704FF0B4
:101DE0000300FFF7E9FA44F2F863C4F2000344F297
:101DF000F862C4F200021278D2B202F0FC021A7049
:101E000044F2F963C4F2000344F2F962C4F200023E
:101E10001278D2B202F0FC021A7007F10807BD4630
:101E200080BD00BF80B400AFBD4680BC704700BF1E
:101E300080B483B000AF0346FB7144F20213C4F2D6
:101E4000000344F20212C4F200021278D1B2FA790D
:101E500002F0F80241EA0202D2B21A7007F10C074E
:101E6000BD4680BC704700BF80B483B000AF03465E
:101E7000FB7144F28203C4F2000344F28202C4F212
:101E800000021278D1B2FA7902F0F80241EA0202B5
:101E9000D2B21A7007F10C07BD4680BC704700BF74
:101EA00080B582B000AF4FF00003FB7107E0FB7913
:101EB000184600F0B9F9FB7903F10103FB71FB79D6
:101EC000012BF4D948F22813C1F6FF734FF0FF320B
:101ED0001A7007F10807BD4680BD00BF80B582B00B
:101EE00000AF0346FB71FFF7DBFFFB79184600F0FC
:101EF00075F948F22813C1F6FF73FA791A7007F1E1
:101F00000807BD4680BD00BF80B582B000AF7860D5
:101F1000396078684FF000013A6800F06DFB07F116
:101F20000807BD4680BD00BF80B584B000AFF86033
:101F3000B9607A60F868B9687A6800F095FA07F1D4
:101F40001007BD4680BD00BF80B487B000AF786089
:101F500039604FF00003FB604FF00003BB602CE0E2
:101F6000BB684FEA83027B6813441B683B613B6993
:101F7000FB753B6923F0FF033B6117E0FB684FEA09
:101F800043023B6813441B781A463B691344FA68C2
:101F90004FEA42013A680A4452781A70FB6803F12A
:101FA0000103FB60FB7D03F1FF33FB75FB7D002B21
:101FB000E4D1BB6803F10103BB60BB68132BCFD92D
:101FC00007F11C07BD4680BC704700BF80B582B0DA
:101FD00000AF44F28003C4F200034FF008021A80FD
:101FE00044F28203C4F200034FF018021A7044F264
:101FF0000010C4F2000040F2B801C4F600014FF036
:102000000402FFF791FF44F20033C4F200034FF0E3
:1020100002021A7044F20003C4F200034FF00802F7
:102020001A7044F20023C4F200034FF003021A7046
:1020300044F2A163C4F2000340F20812C4F6001295
:102040001278D2B21A7044F22223C4F200034FF085
:1020500008021A8044F22023C4F2000341F2510224
:102060001A804FF00003FB714FF019033B6019E039
:10207000FB794FEA4303DAB244F22523C4F20003AA
:102080001B78DBB203F0010342EA0303DBB203F087
:102090000303FB714FF4F07000F0D6F93B6803F1D5
:1020A000FF333B603B68002B02D0FB79032BDFD171
:1020B00044F20403C4F200034FF480721A8044F225
:1020C0000403C4F200034FF007021A7044F206033F
:1020D000C4F200034FF000021A7044F20803C4F285
:1020E00000034FF048021A7044F20403C4F20003E4
:1020F0004FF000021A7044F20103C4F200034FF0E3
:1021000002021A7044F20B03C4F200034FF00402FF
:102110001A7044F2A233C4F2000344F2A232C4F2B1
:1021200000021278D2B242F00102D2B21A7044F226
:10213000A133C4F2000344F2A132C4F200021278C7
:10214000D2B242F00102D2B21A7044F2A033C4F209
:10215000000344F2A032C4F200021278D2B26FEA55
:1021600042626FEA5262D2B21A7007F10807BD46A6
:1021700080BD00BF80B483B000AF40F2CF13C4F67F
:1021800000131B78FB7145F66E03C4F20003FA7965
:1021900002F007021A7045F66F03C4F20003FA79E1
:1021A0004FEA1212D2B21A7045F26D13C4F2000354
:1021B0004FF020021A7045F60033C4F200034FF0CE
:1021C00002021A7045F67603C4F200034FF044028F
:1021D0001A7007F10C07BD4680BC704780B483B00D
:1021E00000AF0346FB71FB79012B18D8FA7943F64F
:1021F0002003C0F2000353F82220F97943F62003AC
:10220000C0F2000353F821301978F87943F6280317
:10221000C0F200031B5C41EA0303DBB2137007F159
:102220000C07BD4680BC704780B483B000AF034646
:10223000FB71FB79012B1BD8FA7943F62003C0F21E
:10224000000353F82220F97943F62003C0F200037B
:1022500053F821301978F87943F62803C0F20003C7
:102260001B5C6FEA0303DBB201EA0303DBB213700A
:1022700007F10C07BD4680BC704700BF80B582B037
:1022800000AF72B644F2E863C4F2000344F2E862BD
:10229000C4F200021278D2B242F00402D2B21A7032
:1022A0004FF00003FB702FE0FA7813464FEA430328
:1022B00013444FEA43031A4643F62C03C0F20003CB
:1022C00013447B607B681A7859784FEA012141EA10
:1022D000020299784FEA014141EA0202DB784FEAB3
:1022E000036343EA02031A467B6819795B794FEA74
:1022F000032343EA01039BB210461946FFF704FE8D
:10230000FB7803F10103FB70FB780A2BCCD94FF06B
:10231000904040F25001C4F60001FFF715FE45F26F
:102320000303C4F2010345F20302C4F2010212786E
:10233000D2B242F00202D2B21A7045F21303C4F2D2
:10234000010345F21302C4F201021278D2B242F044
:102350000202D2B21A7044F2A033C4F2000344F273
:10236000A032C4F200021278D2B242F04002D2B2DD
:102370001A7044F2C233C4F2000344F2C232C4F20F
:1023800000021278D2B242F01002D2B21A7045F2B4
:102390002210C4F2000040F2A001C4F600014FF088
:1023A0000802FFF7C1FD45F24210C4F2000040F2FE
:1023B000A801C4F600014FF00802FFF7B5FD45F291
:1023C0006210C4F2000040F2B001C4F600014FF008
:1023D0000802FFF7A9FD44F22233C4F2000344F2DD
:1023E0002232C4F200021278D2B242F00802D2B213
:1023F0001A7044F60003C4F200034FF001021A7091
:10240000FFF7E4FD44F60003C4F200036FF07E0220
:102410001A7040F20403C4F208034FF001021A706C
:10242000FFF7A8FE44F2B030C4F2000044F2A0313D
:10243000C4F200014FF00E02FFF776FD07F1080726
:10244000BD4680BD000000000230800803D000BF00
:1024500001380046FCD17047EFF3108072B6704728
:1024600080F31088704700BF032A2DE9F0070BD8CE
:102470003AB1002311F803C000F803C001339342BE
:10248000F8D1BDE8F007704782180C46034603E018
:1024900014F8011C03F8011C03F003061946A446B6
:1024A00001330134002EF3D11CF00304634608BF4E
:1024B000C1EB020C68D06542C4F1040A0CEB0507BD
:1024C00033464FEACA0A5CF805604FEAC408551A59
:1024D00008E057F8044F264604FA0AF449EA0404CF
:1024E000CC5004335C18032D26FA08F9A5F1040535
:1024F0000CEB0306EDDC002302E0F15CE154013358
:1025000019199142F9D3BCE753F8404C41F8404CBB
:1025100053F83C4C41F83C4C53F8384C41F8384C9B
:1025200053F8344C41F8344C53F8304C41F8304CAB
:1025300053F82C4C41F82C4C53F8284C41F8284CBB
:1025400053F8244C41F8244C53F8204C41F8204CCB
:1025500053F81C4C41F81C4C53F8184C41F8184CDB
:1025600053F8144C41F8144C53F8104C41F8104CEB
:1025700053F80C4C41F80C4C53F8084C41F8084CFB
:1025800053F8044C41F8044C1C460D46403340318E
:10259000BCF13F0FACF1400CB6DC21462B46541B7E
:1025A0000FE051F8105C43F8105C51F80C5C43F8F4
:1025B0000C5C51F8085C43F8085C51F8045C43F883
:1025C000045C0F2C0D469C4601F1100103F1100331
:1025D000A4F11004E5DCCCEB0201002303E0EC588D
:1025E0004CF8034004335E19032903EB0C04A1F1FA
:1025F0000401F4DC7FE700BF032AC9B230B407D876
:1026000022B10023C15401339342FBD130BC704747
:1026100000EB020C034601E003F8011C03F0030485
:102620001A460133002CF7D14FF00133C2EB0C04F2
:1026300003FB01F31FE042F8403C42F83C3C42F807
:10264000383C42F8343C42F8303C42F82C3C42F8EA
:10265000283C42F8243C42F8203C42F81C3C42F81A
:10266000183C42F8143C42F8103C42F80C3C42F84A
:10267000083C42F8043C154640323F2CA4F140048B
:10268000D9DC2A46C5EB0C0407E042F8103C42F8BE
:102690000C3C42F8083C42F8043C154610320F2C22
:1026A000A4F11004F1DC2A46C5EB0C0501E042F868
:1026B000043C14460432032DA5F10405F7DC01E0C7
:1026C00004F8011B6445FBD3A0E700BF0000000035
:1026D00038B548F22C14C1F6FF742568A86BD8B140
:1026E00004694FF22D4C4569C5F6510C47F62D7122
:1026F0000122C4F69541002304FB0CFC05FB01CC30
:10270000A1FB04451219654443EB0503C0E904230A
:1027100023F00041084638BD182000F093F82468E3
:1027200013A3D3E900234FF22D41C5F6510141F225
:10273000342CA8634AF6CD35A06B43F20E344580A5
:102740004DF6EC6504804EF26D64A0F804C04FF0C5
:10275000050CC4804FF00B04058100258481012401
:10276000A0F80AC0C0E90445C0E90423084638BD02
:102770002E7F954C2DF4515870B548F22C14C1F6AB
:10278000FF7406462568AB6B1BB100221E615A61BF
:1027900070BD182000F056F823684AF6CD3141F29A
:1027A0003422A86343F20E309B6B18804EF26D60AA
:1027B00059804DF6EC619A804FF00502D8804FF0B9
:1027C0000B00198100215A81002298810120C3E960
:1027D00004011E615A6170BD48F22C130022C1F63B
:1027E000FF7310B582B004466946186800F00CF813
:1027F0000028B8BF4FF0FF3002DB1CB1009820600A
:1028000002B010BD0098FBE738B548F2C064C1F6CD
:10281000FF740546084611460023236000F050FC73
:10282000B0F1FF3F00D038BD2368002BFBD02B60F8
:1028300038BD00BF48F22C130146C1F6FF7318687B
:1028400000F046BB48F22C130146C1F6FF7318682E
:1028500000F000B82DE9F04F01F10B04162C83B005
:1028600006462FD8002310248C422CBF194643F073
:102870000101002930D1304600F0BEFAB4F5FC7FEA
:102880002ED24FEAD40E48F22025C1F6FF7505EB93
:10289000CE02D368934200F006825A6803F108051D
:1028A000D968304622F0030C9A6863445C688A60F9
:1028B00044F00104D1605C6000F0A0FA284603B047
:1028C000BDE8F08F24F00704E30F8C422CBF1946BB
:1028D00043F001010029CED00C2300253360EDE741
:1028E0005FEA542E04BF4FEAD40E4FEACE0040F008
:1028F000908048F22025C1F6FF752818C3689842D9
:1029000006D10DE0002A80F26F81DB68984207D083
:10291000596821F003010A1B0F2AF3DD0EF1FF3E77
:102920000EF1010E48F22027C1F6FF7707F10801EA
:102930008B68994208BF7A6826D05A6822F0030C47
:10294000C4EB0C020F2A00F39481002AC96089604D
:1029500080F29980BCF5007F80F065814FEADC0C45
:102960004FF0010A7A6807EBCC004FEAAC0C0AFA88
:102970000CFCD860D0F808804CEA02027A60C3F8F8
:102980000880C8F80C3083604FF0010C4FEAAE03AA
:102990000CFA03FC944500F2828012EA0C0F08D175
:1029A0002EF0030E4FEA4C0C0EF1040E12EA0C0F3F
:1029B000F8D007EBCE09F246C846D8F80C30984557
:1029C00007D168E1002A80F27881DB68984500F041
:1029D0006281586820F00300021B0F2AF2DD1D46B9
:1029E0001F19D3F80CC044F0010E55F8084F3046BB
:1029F000BA5042F00102C3F804E0CCF80840C4F831
:102A00000CC08F60CF607A60B960F96000F0F6F9B1
:102A100054E7BEF1040F9EBF4FEA941E0EF1380E2C
:102A20004FEACE007FF665AFBEF1140F9CBF0EF1EA
:102A30005B0E4FEACE007FF65CAFBEF1540F9EBF37
:102A40004FEA143E0EF16E0E4FEACE007FF651AF04
:102A5000BEF5AA7F9EBF4FEAD43E0EF1770E4FEA35
:102A6000CE007FF646AF40F254539E4595BF4FEAE5
:102A7000944E4FF47C700EF17C0E4FF07E0E98BF9A
:102A80004FEACE0035E703EB0C0203F108053046B0
:102A9000536843F00103536000F0B0F90EE7D7F834
:102AA0000880D8F8043023F00309C4EB09024C4530
:102AB00094BF002301230F2AD8BF43F00103002B4A
:102AC00000F0A18048F2886BD5F80824C1F6FF7B9E
:102AD000DBF8003010331B19B2F1FF3F06D003F5CD
:102AE0007E631F3323F47E6323F01F0319463046B1
:102AF000019300F085F9019BB0F1FF3F824600F0A1
:102B0000F48008EB0901814200F2EC80DBF804203C
:102B10009A185145CBF8042000F04581D5F80854A7
:102B200048F22020C1F6FF70B5F1FF3F08BFC0F8A2
:102B300008A403D05244511ACBF804101AF0070528
:102B4000304617BFC5F108054FF48055AA4405F576
:102B5000805553441B051B0DED1A294600F050F912
:102B6000B0F1FF3F00F02C81CAEB0001491941F0A0
:102B70000101DBF8042048F28863C7F808A0C1F619
:102B8000FF73AA18B845CBF80420CAF8041017D070
:102B9000B9F10F0F40F2DF80A9F10C01052521F0FA
:102BA000070108EB01000F2985604560D8F8040093
:102BB00000F0010041EA0000C8F8040000F2AC8017
:102BC000D04648F28863DBF82C10C1F6FF738A42C6
:102BD000DBF8301088BFDA6248F28863C1F6FF7311
:102BE0008A4288BF1A6382E05C189A68D9683046C6
:102BF000666803F108058A6046F00103D1606360EE
:102C000000F0FCF85AE608EB040342F0010244F03D
:102C100001043046C8F8044008F108055A60BB605A
:102C200000F0ECF84AE64FEA5C22042A54D9142A50
:102C300000F289805B324FEAC208A84448F220279C
:102C4000C1F6FF77D8F80800404503D16FE08068EF
:102C5000804504D0426822F003029445F7D3D0F8AF
:102C60000CC0C3F80CC098607A68C360CCF8083018
:102C70008AE61F19304644F00104CF605C6003F11E
:102C80000805BA5042F001028F607A60B960F960BD
:102C900000F0B4F812E60AF1010A1AF0030F5FD04F
:102CA00003F1080889E603F10802D3689A4208BFD5
:102CB0000EF1020E3FF436AEEFE51D461918DA6844
:102CC000304655F8083F4C68936044F00104DA60E0
:102CD0004C6000F093F8F1E54FEA9C1238324FEA6D
:102CE000C208AAE7B8453FF411AFD7F80880D8F872
:102CF000042022F00302944294BF00230123121BFC
:102D00000F2AD8BF43F00103002B3FF47CAF3046BD
:102D1000002500F073F8D1E508F108013046019371
:102D200000F0D6F8019BD7F808805A6849E74FF0C1
:102D3000010AD7F80480921084460AFA02F248EA9F
:102D400002027A608DE7542A24D84FEA1C326E3290
:102D50004FEAC20871E70123D046CAF80430C6E73B
:102D60004A461EF0030F13460EF1FF3E33D053F8D0
:102D700008299A42F5D07B684FEA4C0C9C453FF6F7
:102D80008EAEBCF1000F3FF48AAE1CEA030F27D0D1
:102D9000D6460EE6B2F5AA7F15D84FEADC32773276
:102DA0004FEAC20849E70805000D00287FF4B6AED7
:102DB000D7F808804B4443F00103C8F8043000E71B
:102DC00001210025D5E640F2545082420DD94FF43E
:102DD0007C787E2231E77B6823EA0C037B60CBE7BB
:102DE0004FEA4C0C0AF1040ACFE74FEA9C427C32CE
:102DF0004FEAC20821E700BF704700BF704700BF1D
:102E000038B548F2C064C1F6FF7405460846002391
:102E1000236000F05DF9B0F1FF3F00D038BD2368BA
:102E2000002BFBD02B6038BDF8B548F22024C1F64A
:102E3000FF740F460546FFF7DFFFA3685E6826F0C4
:102E4000030606F57E630F33DF1B3F0B013F3F0395
:102E5000B7F5805F07DB00212846FFF7D1FFA368A5
:102E6000F318834204D02846FFF7C8FF0020F8BDBE
:102E700079422846FFF7C4FFB0F1FF3F10D0A268A7
:102E800048F28C63C1F6FF73F61B46F00106284634
:102E900056601A68D71B1F60FFF7B0FF0120F8BD0E
:102EA00000212846FFF7ACFFA368C21A0F2ADADD1B
:102EB00048F2286448F28C61C1F6FF74C1F6FF71D4
:102EC00042F001022468001B08605A60CBE700BF93
:102ED0002DE9F04105460C46002900F08880FFF7F7
:102EE0008BFFA4F1080248F220205668C1F6FF705B
:102EF00026F00103D0F808C0D1188C454F6827F0A0
:102F0000030700F0958016F001064F605FD00026A1
:102F1000CC19646814F0010F06D1DB19002E7AD0A9
:102F20008C68C9688C60E16043F00101D350516046
:102F3000002E47D1B3F5007F5BD3590A04299EBF09
:102F40004FEA931C0CF1380C4FEACC0428D9142911
:102F50009CBF01F15B0C4FEACC0421D954299EBFE0
:102F60004FEA133C0CF16E0C4FEACC0418D9B1F5C2
:102F7000AA7F9EBF4FEAD33C0CF1770C4FEACC04FA
:102F80000ED940F2545C614595BF4FEA934C4FF423
:102F90007C740CF17C0C4FF07E0C98BF4FEACC0493
:102FA0000419A168A14203D164E089688C4204D06D
:102FB000486820F003008342F7D3CB68D360916068
:102FC000CA609A602846BDE8F041FFF717BF54F881
:102FD000084C00F1080C121B1B199468644547D07B
:102FE000D2F80CC0CCF80840C4F80CC090E7BDE89B
:102FF000F081DB084FF0010C466800EBC3019B1029
:103000000CFA03F3D1608C6846EA030343609460D2
:10301000E2608A60D6E78C681C4FBC4281D1D350F5
:1030200043F00103E260A26053609460D460C9E79A
:10303000FB1816F0010F07D154F8081C521A5B1840
:10304000D4689168A160CC6048F22C618260C1F6BE
:10305000FF7143F0010050600A689342B2D348F216
:1030600088632846C1F6FF731968FFF7DDFEA9E7FC
:1030700001264DE7012644684FEAAC0C0B4606FAE0
:103080000CFC44EA0C04446098E700BF2882FF1F50
:1030900008B500F047F8074800B10068064901B1DB
:1030A00009680022FDF7B2FA044B0BB1AFF30080C0
:1030B000FEE700BF0000000000000000000000006C
:1030C00008B500F029F8582303604FF0FF3008BD21
:1030D00008B50E4B1A680E4B1B6818184AB1121A25
:1030E000002A06DA00F018F80C2303604FF0FF30D6
:1030F00008BDADEB0302002A03DBADEB0002FF2AA3
:10310000F0DD034A1060184608BD00BF3486FF1F7B
:103110003086FF1FFEE7000048F22C13C1F6FF7354
:103120001868704770B543F6800643F68005C0F214
:103130000006C0F20005761BB61006D0002455F834
:10314000243001349847A642F9D843F6800543F667
:103150008806C0F20005C0F20006761B00F08AFB6C
:10316000B61006D0002455F8243001349847A64202
:04317000F9D870BD5D
:10317400202020202020202020202020202020204B
:103184000000000073657269616C206572726F7271
:1031940000000000636F6C6F72206D69736D617461
:1031A4006368000020202020202020005265640055
:1031B400477265656E00000059656C6C6F7700009E
:1031C400426C7565000000004D6167656E746100B6
:1031D4004379616E0000000057686974650000005F
:1031E4006572726F720000007363726F6C6C696E4B
:1031F400672E2E2E0000000073706565643A20204F
:1032040020250000726176696E672E2E2E00000064
:10321400696E697469616C697A696E672E2E2E0015
:103224006D61727175656500696E74657272757031
:103234007473000074696D657200000041444300BA
:10324400636C65616E696E672E2E2E0000040100AA
:103254000001030000050200000206000003010053
:10326400000704000006040702050100000207032A
:103274000106020000010500000401000004020030
:103284000003020000060300000705000000070118
:103294000204000000030602050602000002040006
:1032A40000030100000502000002050000040105FE
:1032B40003070600000702060401020000060300DB
:1032C40000070300000107000005040000060207D0
:1032D40004060000000104060305040000030500C1
:1032E40000020100000704000006040000050102BA
:1032F40007030700000304050104000000060200A0
:1033040000000000000104000000000000060207A5
:103314000406000000010406030504000003050080
:103324000002010000070400000604000005010279
:10333400070307000003040501040000000602005F
:10334400000000000001040000000000000106006D
:10335400000305000004050000040100000302004E
:103364000007030000010607030501000000040133
:103374000507000000000002040000000000000334
:10338400010000000000000506000000000000002D
:103394000000000000000000000000000000000029
:1033A4000000000000000000000000000000000019
:1033B4000000000000000000000000000000000009
:1033C40000000000000000000000000000010402F2
:1033D40006010500000503050207040000040100BE
:1033E40000000000000207000000000000010602C7
:1033F400050603000002050107040700000403009A
:1034040000000000000601000000000000000701A9
:103414000204000000030602050602000002040084
:10342400000301000005020000020500000401057C
:103434000307060000070206040102000006030059
:10344400000703000001070000050400000704054D
:10345400030502000005010204070600000000063F
:103464000300000000000005010000000000000748
:10347400040000000000000205000000000000013C
:103484000600000000000003070000000004010023
:103494000001030000050200000206000003010011
:1034A40000070400000604070205010000020703E8
:1034B40001060200000105000004010000040200EE
:1034C40000030200000603000007050000060307CE
:1034D40004050600000104050207010000070100BD
:1034E40000000000000405060102060000020103BA
:1034F40004010500000507000000000000060305A4
:10350400060203000001040201040700000305028F
:103514000706000000020706050402000005020079
:103524000007050000030100000104000006020773
:103534000302000000010405040703000002070061
:10354400000605000005010000010200000003045C
:10355400070102000007050103040700000204003C
:103564000000000000010704070600000000050237
:103574000103040000000000000501000002010531
:103584000307020000030607040100000000000016
:103594000000000000000000000000000000000027
:1035A4000000000000000000000000000000000017
:1035B4000000000000000000000000000000000007
:1035C40000000000000000000000000000070201ED
:1035D40006000000000501030504000000060400C5
:1035E40007020100000702000006030000050100B5
:1035F400000705000001030006020100000605079C
:10360400030400000004010201000000000007019F
:103614000204000000030602050602000002040082
:10362400000301000005020000020500000401057A
:103634000307060000070206040102000006030057
:103644000007030000010700000504000001060054
:10365400000305000004050000040100000302004B
:103664000007030000010607030501000000040130
:103674000507000000000002040000000000000331
:10368400010000000000000506000000000000002A
:103694000000000000000000000000000000000026
:1036A4000000000000000000000000000000000016
:1036B4000000000000000000000000000000000006
:1036C40000000000000000000000000000070201EC
:1036D40006000000000501030504000000060400C4
:1036E40007020100000702000006030000050100B4
:1036F400000705000001030006020100000605079B
:10370400030400000004010201000000000007019E
:103714000204000000030602050602000002040081
:103724000003010000050200000205000004010579
:103734000307060000070206040102000006030056
:103744000007030000010700000504000007020150
:103754000600000000050103050400000006040043
:103764000702010000070200000603000005010033
:10377400000705000001030006020100000605071A
:103784000304000000040102010000000003030020
:103794000006060000040400000303000005050001
:1037A40000040400000707000001010000010100FB
:1037B40000020200000000000000000000060600F5
:1037C40000070700000202000005050000000000D9
:1037D40000000000000000000000000000000000E5
:1037E40000000000000000000000000000000000D5
:1037F40000000000000000000000000000000000C5
:1038040000000000000000000000000030313233EE
:10381400343536373839414243444546035B00402A
:10382400035B004040400000004F00400C0000518A
:103834000040200030510040100050510040100062
:10384400C05100401000F051004010000000014041
:10385400001000140140000800400140000A004C20
:10386400014000020050014020000000430000001D
:10387400F8B500BFF8BC08BC9E4670478100000044
:1038840071070000F8B500BFF8BC08BC9E4670473D
:103894006D00000000000000B03800000881FF1F28
:0C38A40030050000900000000000000053
:1038B000000000000800080000366E01C05D000036
:1038C000180000000000E02E01000000333300006B
:1038D000FF0000003081FF1F00000000000000001A
:1038E00000000000000000000000000000000000D8
:1038F0000000000000000000703800000000000020
:1039000000000000000000000000000000000000B7
:1039100000000000000000000000000000000000A7
:103920000000000000000000000000000000000097
:103930000000000000000000000000000000000087
:103940000000000000000000000000000000000077
:103950000000000000000000000000000000000067
:103960000000000000000000000000000000000057
:103970000000000000000000000000000000000047
:103980000000000000000000000000000000000037
:103990000000000000000000000000000000000027
:1039A0000000000000000000000000000000000017
:1039B0000000000000000000000000000000000007
:1039C00000000000000000000000000000000000F7
:1039D0002082FF1F2082FF1F2882FF1F2882FF1FD7
:1039E0003082FF1F3082FF1F3882FF1F3882FF1F87
:1039F0004082FF1F4082FF1F4882FF1F4882FF1F37
:103A00005082FF1F5082FF1F5882FF1F5882FF1FE6
:103A10006082FF1F6082FF1F6882FF1F6882FF1F96
:103A20007082FF1F7082FF1F7882FF1F7882FF1F46
:103A30008082FF1F8082FF1F8882FF1F8882FF1FF6
:103A40009082FF1F9082FF1F9882FF1F9882FF1FA6
:103A5000A082FF1FA082FF1FA882FF1FA882FF1F56
:103A6000B082FF1FB082FF1FB882FF1FB882FF1F06
:103A7000C082FF1FC082FF1FC882FF1FC882FF1FB6
:103A8000D082FF1FD082FF1FD882FF1FD882FF1F66
:103A9000E082FF1FE082FF1FE882FF1FE882FF1F16
:103AA000F082FF1FF082FF1FF882FF1FF882FF1FC6
:103AB0000083FF1F0083FF1F0883FF1F0883FF1F72
:103AC0001083FF1F1083FF1F1883FF1F1883FF1F22
:103AD0002083FF1F2083FF1F2883FF1F2883FF1FD2
:103AE0003083FF1F3083FF1F3883FF1F3883FF1F82
:103AF0004083FF1F4083FF1F4883FF1F4883FF1F32
:103B00005083FF1F5083FF1F5883FF1F5883FF1FE1
:103B10006083FF1F6083FF1F6883FF1F6883FF1F91
:103B20007083FF1F7083FF1F7883FF1F7883FF1F41
:103B30008083FF1F8083FF1F8883FF1F8883FF1FF1
:103B40009083FF1F9083FF1F9883FF1F9883FF1FA1
:103B5000A083FF1FA083FF1FA883FF1FA883FF1F51
:103B6000B083FF1FB083FF1FB883FF1FB883FF1F01
:103B7000C083FF1FC083FF1FC883FF1FC883FF1FB1
:103B8000D083FF1FD083FF1FD883FF1FD883FF1F61
:103B9000E083FF1FE083FF1FE883FF1FE883FF1F11
:103BA000F083FF1FF083FF1FF883FF1FF883FF1FC1
:103BB0000084FF1F0084FF1F0884FF1F0884FF1F6D
:103BC0001084FF1F1084FF1F1884FF1F1884FF1F1D
:103BD0002084FF1F2084FF1F2884FF1F2884FF1FCD
:103BE0003084FF1F3084FF1F3884FF1F3884FF1F7D
:103BF0004084FF1F4084FF1F4884FF1F4884FF1F2D
:103C00005084FF1F5084FF1F5884FF1F5884FF1FDC
:103C10006084FF1F6084FF1F6884FF1F6884FF1F8C
:103C20007084FF1F7084FF1F7884FF1F7884FF1F3C
:103C30008084FF1F8084FF1F8884FF1F8884FF1FEC
:103C40009084FF1F9084FF1F9884FF1F9884FF1F9C
:103C5000A084FF1FA084FF1FA884FF1FA884FF1F4C
:103C6000B084FF1FB084FF1FB884FF1FB884FF1FFC
:103C7000C084FF1FC084FF1FC884FF1FC884FF1FAC
:103C8000D084FF1FD084FF1FD884FF1FD884FF1F5C
:103C9000E084FF1FE084FF1FE884FF1FE884FF1F0C
:103CA000F084FF1FF084FF1FF884FF1FF884FF1FBC
:103CB0000085FF1F0085FF1F0885FF1F0885FF1F68
:103CC0001085FF1F1085FF1F1885FF1F1885FF1F18
:103CD0002085FF1F2085FF1F2885FF1F2885FF1FC8
:103CE0003085FF1F3085FF1F3885FF1F3885FF1F78
:103CF0004085FF1F4085FF1F4885FF1F4885FF1F28
:103D00005085FF1F5085FF1F5885FF1F5885FF1FD7
:103D10006085FF1F6085FF1F6885FF1F6885FF1F87
:103D20007085FF1F7085FF1F7885FF1F7885FF1F37
:103D30008085FF1F8085FF1F8885FF1F8885FF1FE7
:103D40009085FF1F9085FF1F9885FF1F9885FF1F97
:103D5000A085FF1FA085FF1FA885FF1FA885FF1F47
:103D6000B085FF1FB085FF1FB885FF1FB885FF1FF7
:103D7000C085FF1FC085FF1FC885FF1FC885FF1FA7
:103D8000D085FF1FD085FF1FD885FF1FD885FF1F57
:103D9000E085FF1FE085FF1FE885FF1FE885FF1F07
:103DA000F085FF1FF085FF1FF885FF1FF885FF1FB7
:103DB0000086FF1F0086FF1F0886FF1F0886FF1F63
:103DC0001086FF1F1086FF1F1886FF1F1886FF1F13
:103DD000FFFFFFFF00000200C886FF1F0040002019
:040000030000074DA5
:00000001FF
