:40000000008000203D0400005D1900005D1900005D1900005D1900005D1900005D1900005D1900005D1900005D1900005D1900005D1900005D1900005D1900005D1900006B
:400040005D1900005D1900005D1900005D1900005D1900005D1900005D1900005D1900005D1900005D1900005D1900005D1900005D1900005D1900005D1900005D19000020
:400080005D1900005D1900005D1900005D1900005D1900005D1900005D1900005D1900005D1900005D1900005D1900005D1900005D1900005D1900005D1900005D190000E0
:4000C00080B51448144B21E05C689968DD688C420CD0002205E0A6180832D6E9008941E902898C460831AA42F5D101E004EB050C1C696146002204E008320026002741E9DE
:4001000002670831A242F7D1143301380028DBD101F00CFC01000000A41A000048F21813C1F6FF731A780AB901201870704700BF48F20010C1F6FF7008B503682BB140F2BD
:400140000003C0F2000303B1984708BD80B582B000AF78607B68DBB218464FF0000100F029FD41F6B410C0F2000000F05DFD07F10807BD4680BD00BF80B582B000AF786072
:400180004FF0010000F09AFD4FF000004FF0000100F010FD786800F047FD07F10807BD4680BD00BF80B582B000AF78604FF00100FFF7CCFF4FF001004FF0000100F0FAFC8D
:4001C000786800F031FD07F10807BD4680BD00BF90B5ADF5005D83B000AF00F0D5FC41F6C810C0F20000FFF7C7FF41F6D810C0F20000FFF7D7FF00F081F900F071FB00F044
:40020000B3FA41F6E010C0F20000FFF7CBFF4FF0000307F5005101F104010B8029E007F5005303F104031A8807F5005101F104010B88D9B207F5805303F10803A3F10403A7
:40024000995407F5005303F104031A8807F10803A3F104034FF00001995407F5005101F104010B8803F1010307F5005202F10402138007F5005303F104031A8840F6FF739D
:400280009A42CCD941F6E810C0F20000FFF774FF4FF0000307F5005101F106010B804FF0000307F5005202F10402138074E007F5005303F104031A8807F5805303F1080336
:4002C000A3F104039B5C184600F0B0FA00F024FA034603F02003002BF8D007F5005101F104010C8800F0C4F903461A4607F10803A3F104031A5507F5005202F104021388F7
:40030000002B05D141F6F410C0F20000FFF74AFF07F5005303F104031A8807F10803A3F104039A5C07F5005303F10403198807F5805303F10803A3F104035B5C9A421FD03A
:4003400041F60420C0F20000FFF72CFF07F5005101F106010B8803F1010307F5005202F10602138041F6B013C0F200031B88184600F0CEFE41F6F410C0F20000FFF712FF42
:4003800007F5005101F104010B8803F1010307F5005202F10402138007F5005303F104031A8840F6FF739A4281D941F60C20C0F20000FFF7F7FE41F6B013C0F200031B8878
:4003C000184600F0A5FE4FF00100FFF7BFFE4FF001004FF0000100F0EDFB07F5005101F106010B88002B0CD141F61C20C0F2000000F01AFC4FF001004FF0030100F0DAFB6D
:400400000DE007F5005202F106021388184600F029FE4FF001004FF0050100F0CBFB41F62020C0F2000000F0FFFB41F6B013C0F200031B88184600F06BFE29E7054B1C782B
:4004400044F001041C70044B1A78D2B2034B1A70FFF736FEE8460040FA460040BC76004080B582B000AF4EF60C53CEF2000340F20042C0F2FA521A604EF61453CEF200031A
:400480004EF61452CEF20002126842F400721A604FF000037B6014E07A687B684FEA830140F20003C0F200030B441B68194648F20003C1F6FF7343F822107B6803F10103D8
:4004C0007B607B682F2BE7D947F2BC63C4F200031B78DAB248F2A413C1F6FF731A704EF60853CEF2000348F20002C1F6FF721A6000F0C6FF07F10807BD4680BD80B500AF30
:4005000048F21913C1F6FF731B78002B08D100F00BF848F21913C1F6FF734FF001021A7000F044F880BD00BF80B500AF4FF0000040F65911C0F2000100F022FE4FF000005A
:400540004FF0070100F04CFE46F28143C4F200034FF076021A7046F28343C4F200034FF020021A704FF0010040F64521C0F2000100F006FE4FF001004FF0070100F030FE3A
:4005800046F22043C4F200034FF00F021A7046F23043C4F200036FF06F021A7046F28443C4F200034FF002021A7080BD80B582B000AF00F099FD0346FB7146F29143C4F27A
:4005C000000346F29142C4F200021278D2B242F02002D2B21A7046F29343C4F2000346F29342C4F200021278D2B242F01002D2B21A704EF20013CEF200034FF001021A6007
:4006000046F29443C4F2000346F29442C4F200021278D2B242F01002D2B21A704EF20013CEF200034FF002021A6000F031FDFB79184600F05DFD07F10807BD4680BD00BFB9
:4006400080B400AF4EF20013CEF200034FF001021A60BD4680BC704780B400AF4EF28013CEF200034FF001021A60BD4680BC704780B582B000AFFFF7EFFF48F21C13C1F68A
:40068000FF731B78BB7148F21D13C1F6FF731B78FB7148F21E13C1F6FF731B78DBB2002B03D1BA79FB799A4226D0BA7948F22413C1F6FF739B5C7B71BB7903F10103BB7143
:4006C000BB793F2B02D94FF00003BB7148F21C13C1F6FF73BA791A7048F21E13C1F6FF731B78DBB2002B0ED048F21E13C1F6FF734FF000021A7007E046F24243C4F200034B
:400700001B787B7100E000BFFFF79AFF7B79184607F10807BD4680BD80B483B000AF46F26343C4F200031B78DBB203F07F03FB7148F21F13C1F6FF731B78DBB2002B0CD009
:40074000FB796FEA43636FEA5363FB7148F21F13C1F6FF734FF000021A70FB79184607F10C07BD4680BC704780B582B000AF00F0BBFC0346FB7146F29243C4F2000346F2E8
:400780009242C4F200021278D2B242F00102D2B21A7046F29243C4F2000346F29242C4F200021278D2B202F0FE021A70FB79184600F09EFCFFF750FF48F21C13C1F6FF7315
:4007C0004FF000021A7048F21D13C1F6FF734FF000021A7048F21E13C1F6FF734FF000021A7048F21F13C1F6FF734FF000021A70FFF726FF07F10807BD4680BD80B400AFCC
:400800004EF20013CEF200034FF002021A60BD4680BC704780B400AF4EF28013CEF200034FF002021A60BD4680BC704780B582B000AF0346FB7148F21913C1F6FF731B78D6
:40084000002B48D0FFF7E6FF48F21A13C1F6FF731B78DAB248F21B13C1F6FF731B789A4210D146F26443C4F200031B78DBB203F00403002B06D146F24443C4F20003FA792B
:400880001A7026E048F21B13C1F6FF731B783F2B06D948F21B13C1F6FF734FF000021A7048F21B13C1F6FF731B781A4648F26413C1F6FF73F979995448F21B13C1F6FF7391
:4008C0001B7803F10103DAB248F21B13C1F6FF731A70FFF793FF07F10807BD4680BD00BF80B582B000AF00F0FFFB0346FB7146F29443C4F2000346F29442C4F2000212786B
:40090000D2B242F00102D2B21A7046F29443C4F2000346F29442C4F200021278D2B202F0FE021A70FB79184600F0E2FBFFF772FF48F21A13C1F6FF734FF000021A7048F23D
:400940001B13C1F6FF734FF000021A70FFF756FF07F10807BD4680BD80B483B000AF4FF00003FB7146F26343C4F200031B78BB715EE048F21D13C1F6FF731B78DBB21A4658
:4009800046F24243C4F200031B78D9B248F22413C1F6FF7399544FF00103FB71FB79002B40D048F21E13C1F6FF731B78DBB2002B06D048F21F13C1F6FF734FF001021A70A8
:4009C00048F21D13C1F6FF731B78DBB203F10103DAB248F21D13C1F6FF731A7048F21D13C1F6FF731B78DBB23F2B06D948F21D13C1F6FF734FF000021A7048F21D13C1F628
:400A0000FF731B78DAB248F21C13C1F6FF731B78DBB29A4206D148F21E13C1F6FF734FF001021A7046F26343C4F200031B78BB71BB7903F02003002B9BD107F10C07BD461B
:400A400080BC704780B400AF2EE048F21A13C1F6FF731B78DBB23F2B06D948F21A13C1F6FF734FF000021A7046F24443C4F2000348F21A12C1F6FF721278D2B2114648F299
:400A80006412C1F6FF72525CD2B21A7048F21A13C1F6FF731B78DBB203F10103DAB248F21A13C1F6FF731A7048F21A13C1F6FF731B78DAB248F21B13C1F6FF731B789A42DF
:400AC00009D046F26443C4F200031B78DBB203F00403002BB9D0BD4680BC704780B500AF4FF0280000F014FB4FF0030000F052FA4FF0050000F00CFB4FF0030000F04AFA48
:400B00004FF00F0000F004FB4FF0030000F042FA4FF0010000F0FCFA4FF0020000F03AFA4FF0050000F0F4FA4FF0060000F0C6F84FF00E0000F0C2F84FF02C0000F0BEF862
:400B40004FF0080000F0BAF84FF0010000F0B6F84FF00C0000F0B2F84FF0030000F0AEF84FF0050000F0D4FA80BD00BF80B500AF4FF00C0000F0A2F848F22113C1F6FF73A3
:400B80004FF001021A7080BD80B500AF48F22213C1F6FF731B78002B08D1FFF79FFF48F22213C1F6FF734FF001021A70FFF7DEFF80BD00BF80B582B000AF02460B46FA7138
:400BC000BB71FB79032B2AD801A252F823F000BFE10B0000F10B0000010C0000110C0000BB79A3F18003DBB2184600F067F816E0BB79A3F14003DBB2184600F05FF80EE0AE
:400C0000BB79A3F16C03DBB2184600F057F806E0BB79A3F12C03DBB2184600F04FF807F10807BD4680BD00BF80B584B000AF78604FF00103BB737B681B78FB730CE0FB7BA7
:400C4000184600F01FF8BA7B7B6813441B78FB73BB7B03F10103BB73FB7B002BEFD107F11007BD4680BD00BF80B582B000AF0346FB71FB79184600F005F807F10807BD4640
:400C800080BD00BF80B584B000AF0346FB7100F031F8FB794FEA1313FB73FB7B184600F023F9FB7903F00F03FB73FB7B184600F01BF907F11007BD4680BD00BF80B584B0FB
:400CC00000AF0346FB7100F015F8FB794FEA1313FB73FB7B184600F05DF9FB7903F00F03FB73FB7B184600F055F907F11007BD4680BD00BF80B582B000AF45F22013C4F2FB
:400D0000000345F22012C4F200021278D2B202F080021A7045F22213C4F200031B78DBB223F00F03FB7145F22213C4F20003FA7942F00F02D2B21A7045F22313C4F200039E
:400D40001B78DBB223F00F03FB7145F22313C4F20003FA791A7045F22413C4F200031B78DBB223F00F03FB7145F22413C4F20003FA791A7045F22013C4F2000345F2201217
:400D8000C4F200021278D2B202F0DF021A7045F22013C4F2000345F22012C4F200021278D2B242F04002D2B21A704FF0000000F0D3F945F22013C4F2000345F22012C4F2FF
:400DC00000021278D2B242F01002D2B21A704FF0010000F0C1F945F22113C4F200031B78FB7145F22013C4F2000345F22012C4F200021278D2B202F0EF021A70FB7903F05E
:400E00000803FB7145F22013C4F2000345F22012C4F200021278D2B242F01002D2B21A704FF0010000F098F945F22013C4F2000345F22012C4F200021278D2B202F0EF02A1
:400E40001A70FB79002BB0D145F22013C4F2000345F22012C4F200021278D2B202F0BF021A7045F22013C4F2000345F22012C4F200021278D2B202F080021A7045F222137D
:400E8000C4F2000345F22212C4F200021278D2B202F0F0021A7045F22313C4F200031B78DBB223F00F03FB7145F22313C4F20003FA7942F00F02D2B21A7045F22413C4F2F5
:400EC00000031B78DBB223F00F03FB7145F22413C4F20003FA7942F00F02D2B21A7007F10807BD4680BD00BF80B582B000AF0346FB71FFF7FFFE45F22013C4F2000345F235
:400F00002012C4F200021278D2B242F02002D2B21A7045F22013C4F2000345F22012C4F200021278D2B202F0BF021A7045F22013C4F2000345F22012C4F200021278D2B276
:400F400002F0F0021A7045F22013C4F2000345F22012C4F200021278D1B2FA7941EA0202D2B242F01002D2B21A704FF0010000F0F3F845F22013C4F2000345F22012C4F2DD
:400F800000021278D2B202F0EF021A7007F10807BD4680BD80B582B000AF0346FB7145F22013C4F2000345F22012C4F200021278D2B202F09F021A7045F22013C4F2000310
:400FC00045F22012C4F200021278D2B202F0F0021A7045F22013C4F2000345F22012C4F200021278D1B2FA7941EA0202D2B242F01002D2B21A704FF0010000F0ADF845F27F
:401000002013C4F2000345F22012C4F200021278D2B202F0EF021A7007F10807BD4680BD80B582B000AF0346FB71FB794FEA1313DBB21A4641F62823C0F200039B5C1846CA
:40104000FFF712FEFB7903F00F0241F62823C0F200039B5C1846FFF707FE07F10807BD4680BD00BF80B582B000AF0346FB80FB884FEA13239BB2DBB21846FFF7D1FFFB8818
:40108000DBB21846FFF7CCFF07F10807BD4680BD80B400AF44F2A233C4F2000344F2A232C4F200021278D2B242F00102D2B21A7044F2B233C4F2000344F2B232C4F20002DD
:4010C0001278D2B242F00102D2B21A70BD4680BC704700BF000000000230800803D000BF01380046FCD17047EFF3108072B6704780F31088704700BF80B483B000AF03466A
:40110000FB7101BE07F10C07BD4680BC704700BF80B582B000AF78600BE048F21013C1F6FF731B681846FFF7D7FF7B68A3F500437B607B68B3F5004FEFD848F20813C1F672
:40114000FF731B687A6802FB03F31846FFF7C4FF07F10807BD4680BD80B582B000AF0346FB80FA8848F20C13C1F6FF731B7803FB02F31846FFF7B0FF07F10807BD4680BD99
:4011800080B584B000AF03463960FB714EF60853CEF200031B68FB60FB791F2B03D94FF00000FFF7A9FFFB7903F01F0303F110034FEA8302FB6813441B68BB60FB7903F005
:4011C0001F0303F110034FEA8302FB6813443A681A60BB68184607F11007BD4680BD00BF80B582B000AF02460B46FA71BB71BB79072B03D94FF00000FFF77EFFFB791F2BAB
:4012000003D94FF00000FFF777FFFB7903F01F0303F1604303F56443BA794FEA4212D2B21A7007F10807BD4680BD00BF80B582B000AF7860396078684FF000013A6800F05B
:401240000BFB07F10807BD4680BD00BF80B584B000AFF860B9607A60F868B9687A6800F033FA07F11007BD4680BD00BF80B487B000AF786039604FF00003FB604FF0000307
:40128000BB602CE0BB684FEA83027B6813441B683B613B69FB753B6923F0FF033B6117E0FB684FEA43023B6813441B781A463B691344FA684FEA42013A680A4452781A7082
:4012C000FB6803F10103FB60FB7D03F1FF33FB75FB7D002BE4D1BB6803F10103BB60BB680E2BCFD907F11C07BD4680BC704700BF80B582B000AF44F28003C4F200034FF001
:4013000026021A8044F28203C4F200034FF018021A7044F20033C4F200034FF002021A7044F20003C4F200034FF008021A7044F20023C4F200034FF003021A7044F2A163C6
:40134000C4F2000340F20812C4F600121278D2B21A7044F22223C4F200034FF008021A8044F22023C4F2000341F251021A804FF00003FB714FF019033B6019E0FB794FEA51
:401380004303DAB244F22523C4F200031B78DBB203F0010342EA0303DBB203F00303FB714FF4F070FFF798FE3B6803F1FF333B603B68002B02D0FB79032BDFD144F2040327
:4013C000C4F200034FF480721A8044F20403C4F200034FF007021A7044F20603C4F200034FF000021A7044F20803C4F200034FF048021A7044F20403C4F200034FF0000296
:401400001A7044F20103C4F200034FF002021A7044F2A233C4F2000344F2A232C4F200021278D2B242F00102D2B21A7007F10807BD4680BD80B483B000AF40F2CF13C4F660
:4014400000131B78FB7145F66E03C4F20003FA7902F007021A7045F66F03C4F20003FA794FEA1212D2B21A7045F67603C4F200034FF044021A7007F10C07BD4680BC70473C
:4014800080B586B000AF72B644F2E863C4F2000344F2E862C4F200021278D2B242F00402D2B21A704FF00003FB702FE0FA7813464FEA430313444FEA43031A4641F6382356
:4014C000C0F2000313447B607B681A7859784FEA012141EA020299784FEA014141EA0202DB784FEA036343EA02031A467B6819795B794FEA032343EA01039BB2104619461B
:40150000FFF794FEFB7803F10103FB70FB78092BCCD94FF00003FB7043E0FA7813464FEA830313444FEA43031A4641F67423C0F200031344BB60BB681A7859784FEA01219B
:4015400041EA020299784FEA014141EA0202DB784FEA036343EA0203FB60BB681A7959794FEA012141EA020299794FEA014141EA0202DB794FEA036343EA02033B61BB6850
:401580001A7A5B7A4FEA032343EA0203FB82FB8AF86839691A46FFF759FEFB7803F10103FB70FB78002BB8D04FF0904040F23C01C4F60001FFF75AFE45F20303C4F2010306
:4015C00045F20302C4F201021278D2B242F00202D2B21A7045F21303C4F2010345F21302C4F201021278D2B242F00202D2B21A7044F2A033C4F2000344F2A032C4F20002C4
:401600001278D2B242F04002D2B21A7044F2C233C4F2000344F2C232C4F200021278D2B242F01002D2B21A7045F20210C4F2000040F2DC31C4F600014FF00802FFF706FEB8
:4016400045F22210C4F2000040F2E431C4F600014FF00802FFF7FAFD44F22233C4F2000344F22232C4F200021278D2B242F00802D2B21A7044F60003C4F200034FF00102FD
:401680001A70FFF735FE44F60003C4F200036FF07E021A7040F20403C4F208034FF001021A70FFF7C7FE44F2B030C4F2000044F2A031C4F200014FF00E02FFF7C7FD07F10C
:4016C0001807BD4680BD00BF032A2DE9F0070BD83AB1002311F803C000F803C001339342F8D1BDE8F007704782180C46034603E014F8011C03F8011C03F003061946A44657
:4017000001330134002EF3D11CF00304634608BFC1EB020C68D06542C4F1040A0CEB050733464FEACA0A5CF805604FEAC408551A08E057F8044F264604FA0AF449EA04048C
:40174000CC5004335C18032D26FA08F9A5F104050CEB0306EDDC002302E0F15CE154013319199142F9D3BCE753F8404C41F8404C53F83C4C41F83C4C53F8384C41F8384CFE
:4017800053F8344C41F8344C53F8304C41F8304C53F82C4C41F82C4C53F8284C41F8284C53F8244C41F8244C53F8204C41F8204C53F81C4C41F81C4C53F8184C41F8184CE9
:4017C00053F8144C41F8144C53F8104C41F8104C53F80C4C41F80C4C53F8084C41F8084C53F8044C41F8044C1C460D4640334031BCF13F0FACF1400CB6DC21462B46541B8F
:401800000FE051F8105C43F8105C51F80C5C43F80C5C51F8085C43F8085C51F8045C43F8045C0F2C0D469C4601F1100103F11003A4F11004E5DCCCEB0201002303E0EC5891
:401840004CF8034004335E19032903EB0C04A1F10401F4DC7FE700BF032AC9B230B407D822B10023C15401339342FBD130BC704700EB020C034601E003F8011C03F003045A
:401880001A460133002CF7D14FF00133C2EB0C0403FB01F31FE042F8403C42F83C3C42F8383C42F8343C42F8303C42F82C3C42F8283C42F8243C42F8203C42F81C3C42F8DD
:4018C000183C42F8143C42F8103C42F80C3C42F8083C42F8043C154640323F2CA4F14004D9DC2A46C5EB0C0407E042F8103C42F80C3C42F8083C42F8043C154610320F2C55
:40190000A4F11004F1DC2A46C5EB0C0501E042F8043C14460432032DA5F10405F7DC01E004F8011B6445FBD3A0E700BF08B500F017F8074800B10068064901B10968002205
:40194000FEF746FC044B0BB1AFF30080FEE700BF000000000000000000000000FEE7000070B541F68C2641F68C25C0F20006C0F20005761BB61006D0002455F824300134EE
:401980009847A642F9D841F68C2541F69426C0F20005C0F20006761B00F072F8B61006D0002455F8243001349847A642F9D870BDE803000020202020202020202020202096
:4019C0002020202000000000696E697469616C697A696E672E2E2E0055415254000000007061636B6574730072756E6E696E672E2E2E00007472616E7366657272696E670B
:401A0000000000006572726F720000007472616E7366657220646F6E650000006E6F00006572726F7273000030313233343536373839414243444546105100401000305103
:401A400000404000C05100401000F0510040100000000140000280020140800D00140140000800400140000A004C01400002005001402000000201405C03004880000000CF
:401A8000F8B500BFF8BC08BC9E4670473101000061040000F8B500BFF8BC08BC9E4670471D01000000000000B81A00000080FF1F180100009000000000000000000000005A
:401AC00000000000000000000000000000000000000000000000000000000000000000000000000000000000000000000000000000000000000000000000000000000000E6
:401B000000000000000000000000000000000000000000000000000000000000000000000000000000000000000000000000000000000000000000000000000000000000A5
:401B40000000000000000000000000000000000000000000000000000000000000000000000000000000000000000000000000000000000000000000000000000000000065
:401B800000000000000000000000000000000000000000000000000000000000000000000000000000000000000000000000000000000000000000000000000000366E0180
:401BC000C05D0000180000000000E02E00000000000000000000000000000000000000000000000000000000000000000000000000000000000000000000000000000000A2
:401C000000000000000000000000000000000000000000000000000000000000000000000000000000000000000000000000000000000000000000000000000000000000A4
:401C40000000000000000000000000000000000000000000000000000000000000000000000000000000000000000000000000000000000000000000000000000000000064
:401C80000000000000000000000000000000000000000000000000000000000000000000000000000000000000000000000000000000000000000000000000000000000024
:401CC00000000000000000000000000000000000000000000000000000000000000000000000000000000000000000000000000000000000000000000000000000000000E4
:020000040003F7
:0200000480007A
:400000000152004003640040550001402C010140180201403C03014056040140440501400207014005400140094101400642014002430140035001400151014004018176F5
:40004000833C840F080C0A101065140F1630180F1A501E7A2420288030803203347C368038083A203E05400346504701481849FF4A0F4BFF4C404D204EF04F05500858043A
:400080005A045F01604061A8624063208025818082DA849285338625870C89338B0C8C038D838EFC8F3C90E09140921C952A971599159B2A9C489D409E25A01FA10FA2E01D
:4000C000A330A4E3A540A61CA8E3A940AA1CAD30AF0CB1C0B340B4FFB53FB902BB80BE10BF04D602D711D804D904DB04DF010208048405050A1A0B800D010E400F02102873
:400100001501171419A01A0A1B0A1E0824D426402D012E402F1434403514364037013C423D103E04430850285C106D116E446F14740177288110C0B2C29FC476CAF0CCF097
:40014000CEF0D002D62089118B088D188F24911A9365957D970299079B789D4D9F12A17FAB7FB140B320B503B71CBBA0D41CD604D904DB04DF010480051007400C400D281D
:4001800017291D581E401F1421502205241025402620274128482C402F25311833413408355239A03C143D804448452847404D4257105A0A5D405E40608062A08080908479
:4001C0009103961097A8984099A09B3C9D019F01A020A204A302A608A701C0D0C2E0C470CAF5CCFFCE7CD0F0D210D603D80D000202010401050A060E08C309020A300B0419
:400200000C240D040EC110711106128814B016472050210124032504264027022A802B0630803301347F350837063B803E013F144064410345E0460B470C481649FF4AFF11
:400240004BFF4EF04F44500C54015604580459045A045B045F0166C06A406B028201867088408A308B018C058E0890049208944096109A029C01A00DA405A608A805AA0853
:40028000AC20AE40AF01B003B230B40CB650B701BA88BF40D804D904DF01000601A004800521062008010A100B800D010E180F0210A8132014011501171418041A801D2544
:4002C0001E101F41200221402214268029062A202E403001380439803B103F204210430249224B105088520859025A885B20634087409080910392409610978299A09B148C
:400300009D01A020A204A313A520A688AF21C0FFC2FCC4FECA17CC01CE2ED003D204D60FD801A980AA30334036408380CC30E4200380532083409F40A640A780C010D42098
:40034000E6808640A640A720AF80E640EC10AB20EE20000108010A01000F0000010000000000001007003804000406020000002039000603000431013F00002016072900B9
:40038000040400500207000000000008101807402620080780002880000000113204050001E0C0000AFFFFFF62A0F0410C00000000000000040404000000000100000000A8
:4003C000000040020010301000101012000000000000000000000000000000000102020002000000007F7F0000000000000000000000000000000000000000000000000034
:4004000000000000000000000000000000000000000000000000000000000000000000000000000000000000000000000000000000000000000000000000000000000000BC
:40044000000000000000000000000000000000000000000000000000000000000000000000000000000000000000000000000000000000000000000000000000000000007C
:40048000000000000000000000000000000000000000000000000000000000000000000000000000000000000000000000000000000000000000000000000000000000003C
:4004C00000000000000000000000000000000000000000000000000000000000000000000000000000000000000000000000000000000000000000000000000000000000FC
:0200000490006A
:0400000000004005B7
:0200000490105A
:04000000BC90ACAF55
:0200000490303A
:020000005DD1D0
:0200000490501A
:0C00000000012E12306900012E1E8E3A05
:0200000490402A
:4000000000000000000000000000000000000000000000000000000000000000000000000000000000000000000000000000000000000000000000000000000000000000C0
:400040000000000000000000000000000000000000000000000000000000000000000000000000000000000000000000000000000000000000000000000000000000000080
:400080000000000000000000000000000000000000000000000000000000000000000000000000000000000000000000000000000000000000000000000000000000000040
:4000C0000000000000000000000000000000000000000000000000000000000000000000000000000000000000000000000000000000000000000000000000000000000000
:00000001FF
