:1000000000800020310400009D1A00009D1A0000AD
:100010009D1A00009D1A00009D1A00009D1A000004
:100020009D1A00009D1A00009D1A00009D1A0000F4
:100030009D1A00009D1A00009D1A00009D1A0000E4
:100040009D1A00009D1A00009D1A00009D1A0000D4
:100050009D1A00009D1A00009D1A00009D1A0000C4
:100060009D1A00009D1A00009D1A00009D1A0000B4
:100070009D1A00009D1A00009D1A00009D1A0000A4
:100080009D1A00009D1A00009D1A00009D1A000094
:100090009D1A00009D1A00009D1A00009D1A000084
:1000A0009D1A00009D1A00009D1A00009D1A000074
:1000B0009D1A00009D1A00009D1A00009D1A000064
:1000C00080B51448144B21E05C689968DD688C4267
:1000D0000CD0002205E0A6180832D6E9008941E9D3
:1000E00002898C460831AA42F5D101E004EB050CE7
:1000F0001C696146002204E008320026002741E91D
:1001000002670831A242F7D1143301380028DBD14D
:1001100001F0ACFC01000000EC1B000048F21813D9
:10012000C1F6FF731A780AB901201870704700BF32
:1001300048F20010C1F6FF7008B503682BB140F219
:100140000003C0F2000303B1984708BD80B582B038
:1001500000AF78607B68DBB218464FF0000100F01A
:100160006BFD41F6F420C0F2000000F09FFD07F1A6
:100170000807BD4680BD00BF80B582B000AF786083
:100180004FF0010000F0DCFD4FF000004FF00001E7
:1001900000F052FD786800F089FD07F10807BD46C0
:1001A00080BD00BF80B582B000AF78604FF0010025
:1001B000FFF7CCFF4FF001004FF0000100F03CFDD5
:1001C000786800F073FD4FF4FA7001F035F807F12C
:1001D0000807BD4680BD00BF80B500AF48F21A13C6
:1001E000C1F6FF731B8803F101039AB248F21A1398
:1001F000C1F6FF731A8000F053FB03463F2BFAD879
:1002000048F20413C1F6FF731A88114649F2281305
:10021000C1F6FF73595C02F101039AB248F204136C
:10022000C1F6FF731A80084600F0E0FA80BD00BFF7
:1002300090B583B000AF00F0E9FC41F60830C0F2A1
:100240000000FFF799FF41F61830C0F20000FFF7F9
:10025000A9FF62B640F2D910C0F2000000F05AFFC8
:1002600000F0A0FF41F62430C0F20000FFF79AFF33
:1002700000F03EF900F0EAF941F62C30C0F200003F
:10028000FFF790FF4FF00003BB8013E0BA88BB88F4
:10029000D9B249F22813C1F6FF739954BA8848F2CB
:1002A0002813C1F6FF734FF000019954BB8803F186
:1002B0000103BB80BA8840F6FF739A42E6D941F643
:1002C0003430C0F20000FFF757FF00F035FB00F0BC
:1002D0002BFA4FF00003FB8048F20413C1F6FF73C2
:1002E0004FF000021A8048F21A13C1F6FF734FF064
:1002F00000021A8041F64030C0F20000FFF752FFC2
:1003000000F044FF4FF00003BB8023E04FF00100FA
:1003100000F092FFBC8800F0A5F903461A4648F2A7
:100320002813C1F6FF731A55BA8848F22813C1F68C
:10033000FF739A5CB98849F22813C1F6FF735B5CBE
:100340009A4203D0FB8803F10103FB80BB8803F1D1
:100350000103BB80BA8840F6FF739A42D6D900F0F9
:1003600021FF41F65030C0F20000FFF71BFF41F6BD
:10037000F023C0F200031B88184600F05DFF4FF029
:100380000100FFF7E3FE4FF001004FF0000100F025
:1003900053FCFB88002B0CD141F66030C0F200000A
:1003A00000F084FC4FF001004FF0030100F044FC2A
:1003B00009E0FB88184600F097FE4FF001004FF06F
:1003C000050100F039FC41F66430C0F2000000F095
:1003D0006DFC41F6F023C0F200031B88184600F0C4
:1003E0002BFF4FF00100FFF7B1FE4FF001004FF07F
:1003F000010100F021FC48F21A13C1F6FF731B88BB
:10040000184600F071FE4FF001004FF0060100F0B9
:1004100013FC41F66C30C0F2000000F047FC41F6DE
:10042000F023C0F200031B88184600F005FF4CE7DC
:10043000054B1C7844F001041C70044B1A78D2B2AE
:10044000034B1A70FFF73CFEE8460040FA460040B6
:10045000BC76004080B582B000AF4EF60C53CEF2B1
:10046000000340F20042C0F2FA521A604EF61453F2
:10047000CEF200034EF61452CEF20002126842F49D
:1004800000721A604FF000037B6014E07A687B68AA
:100490004FEA830140F20003C0F200030B441B68E3
:1004A000194648F20003C1F6FF7343F822107B6837
:1004B00003F101037B607B682F2BE7D947F2BC6314
:1004C000C4F200031B78DAB24AF2A813C1F6FF7334
:1004D0001A704EF60853CEF2000348F20002C1F63D
:1004E000FF721A6001F060F807F10807BD4680BD91
:1004F00080B500AF48F21C13C1F6FF731B78002BC8
:1005000008D100F00BF848F21C13C1F6FF734FF04E
:1005100001021A7000F044F880BD00BF80B500AF42
:100520004FF0000040F6B111C0F2000100F0BCFE37
:100530004FF000004FF0070100F0E6FE46F2804366
:10054000C4F200034FF076021A7046F28343C4F2FD
:1005500000034FF020021A704FF0010040F6C9214D
:10056000C0F2000100F0A0FE4FF001004FF00701C3
:1005700000F0CAFE46F22143C4F200034FF00F021E
:100580001A7046F23143C4F200036FF06F021A7022
:1005900046F28543C4F200034FF002021A7080BD98
:1005A00080B582B000AF00F033FE0346FB7146F227
:1005B0009043C4F2000346F29042C4F20002127863
:1005C000D2B242F02002D2B21A7046F29343C4F281
:1005D000000346F29342C4F200021278D2B242F013
:1005E0001002D2B21A704EF20013CEF200034FF096
:1005F00001021A6046F29543C4F2000346F29542A6
:10060000C4F200021278D2B242F01002D2B21A70D2
:100610004EF20013CEF200034FF002021A6000F017
:10062000CDFDFB79184600F0F7FD07F10807BD4640
:1006300080BD00BF80B400AF4EF20013CEF20003C5
:100640004FF001021A60BD4680BC704780B400AF15
:100650004EF28013CEF200034FF001021A60BD4645
:1006600080BC704780B582B000AFFFF7EFFF48F263
:100670001F13C1F6FF731B78BB7148F22013C1F63C
:10068000FF731B78FB7148F22113C1F6FF731B78CF
:10069000DBB2002B03D1BA79FB799A4234D0BA7914
:1006A0004AF22813C1F6FF739B5C7B71BB7903F19F
:1006B0000103BB71BB793F2B02D94FF00003BB7123
:1006C00048F21F13C1F6FF73BA791A7048F221136A
:1006D000C1F6FF731B78DBB2002B1CD048F221134C
:1006E000C1F6FF734FF000021A7046F28343C4F262
:1006F000000346F28342C4F200021278D2B242F002
:100700002002D2B21A7007E046F24043C4F200035E
:100710001B787B7100E000BFFFF78CFF7B791846E8
:1007200007F10807BD4680BD80B582B000AF00F07C
:100730006FFD0346FB7146F29043C4F2000346F29C
:100740009042C4F200021278D2B242F00102D2B258
:100750001A7046F29043C4F2000346F29042C4F28B
:1007600000021278D2B202F0FE021A70FB7918462B
:1007700000F052FDFFF76AFF48F21F13C1F6FF7346
:100780004FF000021A7048F22013C1F6FF734FF0C9
:1007900000021A7048F22113C1F6FF734FF00002F5
:1007A0001A7048F22213C1F6FF734FF000021A705C
:1007B000FFF740FF07F10807BD4680BD80B400AFDA
:1007C0004EF20013CEF200034FF002021A60BD4653
:1007D00080BC704780B400AF4EF28013CEF20003AD
:1007E0004FF002021A60BD4680BC704780B582B0EF
:1007F00000AF0346FB7148F21C13C1F6FF731B7870
:10080000002B48D0FFF7E6FF48F21D13C1F6FF7337
:100810001B78DAB248F21E13C1F6FF731B789A42B6
:1008200010D146F26543C4F200031B78DBB203F03B
:100830000403002B06D146F24443C4F20003FA79C4
:100840001A7026E048F21E13C1F6FF731B783F2B87
:1008500006D948F21E13C1F6FF734FF000021A705A
:1008600048F21E13C1F6FF731B781A464AF268134A
:10087000C1F6FF73F979995448F21E13C1F6FF735C
:100880001B7803F10103DAB248F21E13C1F6FF73BD
:100890001A70FFF793FF07F10807BD4680BD00BF40
:1008A00080B582B000AFFFF795FF48F21D13C1F687
:1008B000FF731B78DAB248F21E13C1F6FF731B7880
:1008C0009A4203D14FF00003FB712CE048F21D1354
:1008D000C1F6FF731B78DAB248F21E13C1F6FF733C
:1008E0001B789A420ED248F21E13C1F6FF731A7893
:1008F00048F21D13C1F6FF731B78DBB2C3EB020392
:10090000FB7110E048F21E13C1F6FF731A7848F22B
:100910001D13C1F6FF731B78DBB2C3EB0203DBB21E
:1009200003F14003FB71FFF749FFFB79184607F11C
:100930000807BD4680BD00BF80B582B000AF00F0A3
:1009400067FC0346FB7146F29443C4F2000346F28F
:100950009442C4F200021278D2B242F00102D2B242
:100960001A7046F29443C4F2000346F29442C4F271
:1009700000021278D2B202F0FE021A70FB79184619
:1009800000F04AFCFFF726FF48F21D13C1F6FF7383
:100990004FF000021A7048F21E13C1F6FF734FF0B9
:1009A00000021A70FFF70AFF07F10807BD4680BD75
:1009B00080B483B000AF4FF00003FB7146F2634395
:1009C000C4F200031B78BB7173E048F22013C1F638
:1009D000FF731B78DBB21A4646F24043C4F20003B1
:1009E0001B78D9B24AF22813C1F6FF7399544FF01D
:1009F0000103FB71FB79002B55D048F22113C1F69E
:100A0000FF731B78DBB2002B06D048F22213C1F62D
:100A1000FF734FF001021A7048F22013C1F6FF7302
:100A20001B78DBB203F10103DAB248F22013C1F6FE
:100A3000FF731A7048F22013C1F6FF731B78DBB204
:100A40003F2B06D948F22013C1F6FF734FF0000286
:100A50001A7048F22013C1F6FF731B78DAB248F21D
:100A60001F13C1F6FF731B78DBB29A421BD148F209
:100A70002113C1F6FF734FF001021A7046F283434F
:100A8000C4F2000346F28342C4F200021278D2B2EA
:100A900002F0DF021A704EF28023CEF200034FF014
:100AA00001021A600AE046F26343C4F200031B78B5
:100AB000BB71BB7903F02003002B86D107F10C0733
:100AC000BD4680BC704700BF80B400AF2EE048F246
:100AD0001D13C1F6FF731B78DBB23F2B06D948F21A
:100AE0001D13C1F6FF734FF000021A7046F2444323
:100AF000C4F2000348F21D12C1F6FF721278D2B29E
:100B000011464AF26812C1F6FF72525CD2B21A70F4
:100B100048F21D13C1F6FF731B78DBB203F101032A
:100B2000DAB248F21D13C1F6FF731A7048F21D13B2
:100B3000C1F6FF731B78DAB248F21E13C1F6FF73D9
:100B40001B789A4209D046F26543C4F200031B7831
:100B5000DBB203F00403002BB9D0BD4680BC704764
:100B600080B500AF4FF0280000F066FB4FF00300A7
:100B700000F052FA4FF0050000F05EFB4FF003006A
:100B800000F04AFA4FF00F0000F056FB4FF0030060
:100B900000F042FA4FF0010000F04EFB4FF002006F
:100BA00000F03AFA4FF0050000F046FB4FF0060067
:100BB00000F0C6F84FF00E0000F0C2F84FF02C0025
:100BC00000F0BEF84FF0080000F0BAF84FF0010056
:100BD00000F0B6F84FF00C0000F0B2F84FF0030050
:100BE00000F0AEF84FF0050000F026FB80BD00BF1E
:100BF00080B500AF4FF00C0000F0A2F848F22413CB
:100C0000C1F6FF734FF001021A7080BD80B500AFCE
:100C100048F22513C1F6FF731B78002B08D1FFF7AC
:100C20009FFF48F22513C1F6FF734FF001021A70BF
:100C3000FFF7DEFF80BD00BF80B582B000AF024687
:100C40000B46FA71BB71FB79032B2AD801A252F82B
:100C500023F000BF650C0000750C0000850C00003F
:100C6000950C0000BB79A3F18003DBB2184600F0BD
:100C700067F816E0BB79A3F14003DBB2184600F039
:100C80005FF80EE0BB79A3F16C03DBB2184600F00D
:100C900057F806E0BB79A3F12C03DBB2184600F04D
:100CA0004FF807F10807BD4680BD00BF80B584B08E
:100CB00000AF78604FF00103BB737B681B78FB7358
:100CC0000CE0FB7B184600F01FF8BA7B7B681344EE
:100CD0001B78FB73BB7B03F10103BB73FB7B002B16
:100CE000EFD107F11007BD4680BD00BF80B582B0CF
:100CF00000AF0346FB71FB79184600F005F807F1D9
:100D00000807BD4680BD00BF80B584B000AF034674
:100D1000FB7100F031F8FB794FEA1313FB73FB7B97
:100D2000184600F023F9FB7903F00F03FB73FB7BFC
:100D3000184600F01BF907F11007BD4680BD00BF43
:100D400080B584B000AF0346FB7100F015F8FB7965
:100D50004FEA1313FB73FB7B184600F05DF9FB7938
:100D600003F00F03FB73FB7B184600F055F907F106
:100D70001007BD4680BD00BF80B582B000AF45F210
:100D80002013C4F2000345F22012C4F200021278CC
:100D9000D2B202F080021A7045F22213C4F20003AC
:100DA0001B78DBB223F00F03FB7145F22213C4F270
:100DB0000003FA7942F00F02D2B21A7045F22313FF
:100DC000C4F200031B78DBB223F00F03FB7145F282
:100DD0002313C4F20003FA791A7045F22413C4F203
:100DE00000031B78DBB223F00F03FB7145F22413E1
:100DF000C4F20003FA791A7045F22013C4F200031A
:100E000045F22012C4F200021278D2B202F0DF02E0
:100E10001A7045F22013C4F2000345F22012C4F206
:100E200000021278D2B242F04002D2B21A704FF0F1
:100E3000000000F025FA45F22013C4F2000345F249
:100E40002012C4F200021278D2B242F01002D2B2E2
:100E50001A704FF0010000F013FA45F22113C4F2AA
:100E600000031B78FB7145F22013C4F2000345F226
:100E70002012C4F200021278D2B202F0EF021A700D
:100E8000FB7903F00803FB7145F22013C4F2000361
:100E900045F22012C4F200021278D2B242F01002DF
:100EA000D2B21A704FF0010000F0EAF945F22013B7
:100EB000C4F2000345F22012C4F200021278D2B24A
:100EC00002F0EF021A70FB79002BB0D145F220132B
:100ED000C4F2000345F22012C4F200021278D2B22A
:100EE00002F0BF021A7045F22013C4F2000345F26B
:100EF0002012C4F200021278D2B202F080021A70FC
:100F000045F22213C4F2000345F22212C4F2000299
:100F10001278D2B202F0F0021A7045F22313C4F232
:100F200000031B78DBB223F00F03FB7145F22313A0
:100F3000C4F20003FA7942F00F02D2B21A7045F2FD
:100F40002413C4F200031B78DBB223F00F03FB7100
:100F500045F22413C4F20003FA7942F00F02D2B230
:100F60001A7007F10807BD4680BD00BF80B582B08A
:100F700000AF0346FB71FFF7FFFE45F22013C4F2FA
:100F8000000345F22012C4F200021278D2B242F0FD
:100F90002002D2B21A7045F22013C4F2000345F2C7
:100FA0002012C4F200021278D2B202F0BF021A700C
:100FB00045F22013C4F2000345F22012C4F20002ED
:100FC0001278D2B202F0F0021A7045F22013C4F285
:100FD000000345F22012C4F200021278D1B2FA796D
:100FE00041EA0202D2B242F01002D2B21A704FF0BD
:100FF000010000F045F945F22013C4F2000345F268
:101000002012C4F200021278D2B202F0EF021A707B
:1010100007F10807BD4680BD80B582B000AF03462A
:10102000FB7145F22013C4F2000345F22012C4F212
:1010300000021278D2B202F09F021A7045F2201319
:10104000C4F2000345F22012C4F200021278D2B2B8
:1010500002F0F0021A7045F22013C4F2000345F2C8
:101060002012C4F200021278D1B2FA7941EA0202E7
:10107000D2B242F01002D2B21A704FF0010000F06A
:10108000FFF845F22013C4F2000345F22012C4F227
:1010900000021278D2B202F0EF021A7007F10807CC
:1010A000BD4680BD80B582B000AF0346FB71FB79C1
:1010B0004FEA1313DBB21A4641F67433C0F2000351
:1010C0009B5C1846FFF712FEFB7903F00F0241F616
:1010D0007433C0F200039B5C1846FFF707FE07F16C
:1010E0000807BD4680BD00BF80B582B000AF034693
:1010F000FB80FB884FEA13239BB2DBB21846FFF755
:10110000D1FFFB88DBB21846FFF7CCFF07F10807D9
:10111000BD4680BD80B582B000AF786000F042F877
:10112000786800F00BF84FF0070000F01BF800F0B3
:101130002DF807F10807BD4680BD00BF80B485B01B
:1011400000AF78604EF60853CEF200031B68FB60D8
:10115000FB6803F14C037A681A6007F11407BD4677
:1011600080BC704780B483B000AF0346FB714EF281
:101170000343CEF20003FA794FEA4212D2B21A7058
:1011800007F10C07BD4680BC704700BF80B400AFBC
:101190004EF20013CEF200034FF008021A60BD4673
:1011A00080BC704780B400AF4EF28013CEF20003D3
:1011B0004FF008021A60BD4680BC704780B400AF93
:1011C00044F2A233C4F2000344F2A232C4F2000299
:1011D0001278D2B242F00102D2B21A7044F2B233A3
:1011E000C4F2000344F2B232C4F200021278D2B266
:1011F00042F00102D2B21A70BD4680BC704700BFF7
:101200000230800803D000BF01380046FCD170478F
:10121000EFF3108072B6704780F31088704700BFFC
:1012200080B483B000AF0346FB7101BE07F10C0729
:10123000BD4680BC704700BF80B582B000AF78600B
:101240000BE048F21413C1F6FF731B681846FFF752
:10125000D7FF7B68A3F500437B607B68B3F5004F45
:10126000EFD848F20C13C1F6FF731B687A6802FBD3
:1012700003F31846FFF7C4FF07F10807BD4680BD1A
:1012800080B582B000AF0346FB80FA8848F21013A5
:10129000C1F6FF731B7803FB02F31846FFF7B0FF9C
:1012A00007F10807BD4680BD80B584B000AF034696
:1012B0003960FB714EF60853CEF200031B68FB60E9
:1012C000FB791F2B03D94FF00000FFF7A9FFFB7933
:1012D00003F01F0303F110034FEA8302FB6813447A
:1012E0001B68BB60FB7903F01F0303F110034FEA97
:1012F0008302FB6813443A681A60BB68184607F11A
:101300001007BD4680BD00BF80B582B000AF024669
:101310000B46FA71BB71BB79072B03D94FF0000064
:10132000FFF77EFFFB791F2B03D94FF00000FFF77B
:1013300077FFFB7903F01F0303F1604303F5644378
:10134000BA794FEA4212D2B21A7007F10807BD46C5
:1013500080BD00BF80B582B000AF7860396078682A
:101360004FF000013A6800F017FB07F10807BD468F
:1013700080BD00BF80B584B000AFF860B9607A600E
:10138000F868B9687A6800F03FFA07F11007BD46BF
:1013900080BD00BF80B487B000AF786039604FF087
:1013A0000003FB604FF00003BB602CE0BB684FEA1A
:1013B00083027B6813441B683B613B69FB753B6997
:1013C00023F0FF033B6117E0FB684FEA43023B68F1
:1013D00013441B781A463B691344FA684FEA4201EA
:1013E0003A680A4452781A70FB6803F10103FB6003
:1013F000FB7D03F1FF33FB75FB7D002BE4D1BB6864
:1014000003F10103BB60BB68102BCFD907F11C07A8
:10141000BD4680BC704700BF80B582B000AF44F2CB
:101420008003C4F200034FF026021A8044F28203C4
:10143000C4F200034FF018021A7044F20033C4F2F1
:1014400000034FF002021A7044F20003C4F20003DA
:101450004FF008021A7044F20023C4F200034FF068
:1014600003021A7044F2A163C4F2000340F20812AE
:10147000C4F600121278D2B21A7044F22223C4F2D7
:1014800000034FF008021A8044F22023C4F2000344
:1014900041F251021A804FF00003FB714FF0190323
:1014A0003B6019E0FB794FEA4303DAB244F22523AB
:1014B000C4F200031B78DBB203F0010342EA03032A
:1014C000DBB203F00303FB714FF4F070FFF798FEFB
:1014D0003B6803F1FF333B603B68002B02D0FB7994
:1014E000032BDFD144F20403C4F200034FF48072F3
:1014F0001A8044F20403C4F200034FF007021A708A
:1015000044F20603C4F200034FF000021A7044F2E2
:101510000803C4F200034FF048021A7044F20403B7
:10152000C4F200034FF000021A7044F20103C4F247
:1015300000034FF002021A7044F2A233C4F2000317
:1015400044F2A232C4F200021278D2B242F0010296
:10155000D2B21A7007F10807BD4680BD80B483B0CF
:1015600000AF40F2CF13C4F600131B78FB7145F6B1
:101570006E03C4F20003FA7902F007021A7045F60E
:101580006F03C4F20003FA794FEA1212D2B21A7052
:1015900045F67603C4F200034FF044021A7007F1D7
:1015A0000C07BD4680BC704780B586B000AF72B6F0
:1015B00044F2E863C4F2000344F2E862C4F20002B9
:1015C0001278D2B242F00402D2B21A704FF0000385
:1015D000FB702FE0FA7813464FEA430313444FEAB7
:1015E00043031A4641F68433C0F2000313447B6080
:1015F0007B681A7859784FEA012141EA020299780A
:101600004FEA014141EA0202DB784FEA036343EA11
:1016100002031A467B6819795B794FEA032343EA90
:1016200001039BB210461946FFF794FEFB7803F1C5
:101630000103FB70FB78082BCCD94FF00003FB7043
:1016400043E0FA7813464FEA830313444FEA430317
:101650001A4641F6BC33C0F200031344BB60BB68BA
:101660001A7859784FEA012141EA020299784FEA43
:10167000014141EA0202DB784FEA036343EA0203D5
:10168000FB60BB681A7959794FEA012141EA0202ED
:1016900099794FEA014141EA0202DB794FEA03639B
:1016A00043EA02033B61BB681A7A5B7A4FEA032381
:1016B00043EA0203FB82FB8AF86839691A46FFF79E
:1016C00059FEFB7803F10103FB70FB78002BB8D0C7
:1016D0004FF0904040F24401C4F60001FFF75AFE7B
:1016E00045F20303C4F2010345F20302C4F201020E
:1016F0001278D2B242F00202D2B21A7045F213034B
:10170000C4F2010345F21302C4F201021278D2B20C
:1017100042F00202D2B21A7044F2A033C4F20003C3
:1017200044F2A032C4F200021278D2B242F0400277
:10173000D2B21A7044F2C233C4F2000344F2C2328D
:10174000C4F200021278D2B242F01002D2B21A7081
:1017500045F20210C4F2000040F20041C4F600015C
:101760004FF00802FFF706FE45F22210C4F2000017
:1017700040F20841C4F600014FF00802FFF7FAFDFD
:1017800045F26210C4F2000040F21041C4F60001BC
:101790004FF00802FFF7EEFD44F22233C4F20003DB
:1017A00044F22232C4F200021278D2B242F00802AD
:1017B000D2B21A7044F60003C4F200034FF00102E3
:1017C0001A70FFF729FE44F60003C4F200036FF01D
:1017D0007E021A7040F20403C4F208034FF00102C3
:1017E0001A70FFF7BBFE44F2B030C4F2000044F2BE
:1017F000A031C4F200014FF00E02FFF7BBFD07F16C
:101800001807BD4680BD00BF032A2DE9F0070BD89D
:101810003AB1002311F803C000F803C0013393422A
:10182000F8D1BDE8F007704782180C46034603E084
:1018300014F8011C03F8011C03F003061946A44622
:1018400001330134002EF3D11CF00304634608BFBA
:10185000C1EB020C68D06542C4F1040A0CEB050729
:1018600033464FEACA0A5CF805604FEAC408551AC5
:1018700008E057F8044F264604FA0AF449EA04043B
:10188000CC5004335C18032D26FA08F9A5F10405A1
:101890000CEB0306EDDC002302E0F15CE1540133C4
:1018A00019199142F9D3BCE753F8404C41F8404C28
:1018B00053F83C4C41F83C4C53F8384C41F8384C08
:1018C00053F8344C41F8344C53F8304C41F8304C18
:1018D00053F82C4C41F82C4C53F8284C41F8284C28
:1018E00053F8244C41F8244C53F8204C41F8204C38
:1018F00053F81C4C41F81C4C53F8184C41F8184C48
:1019000053F8144C41F8144C53F8104C41F8104C57
:1019100053F80C4C41F80C4C53F8084C41F8084C67
:1019200053F8044C41F8044C1C460D4640334031FA
:10193000BCF13F0FACF1400CB6DC21462B46541BEA
:101940000FE051F8105C43F8105C51F80C5C43F860
:101950000C5C51F8085C43F8085C51F8045C43F8EF
:10196000045C0F2C0D469C4601F1100103F110039D
:10197000A4F11004E5DCCCEB0201002303E0EC58F9
:101980004CF8034004335E19032903EB0C04A1F166
:101990000401F4DC7FE700BF032AC9B230B407D8E2
:1019A00022B10023C15401339342FBD130BC7047B4
:1019B00000EB020C034601E003F8011C03F00304F2
:1019C0001A460133002CF7D14FF00133C2EB0C045F
:1019D00003FB01F31FE042F8403C42F83C3C42F874
:1019E000383C42F8343C42F8303C42F82C3C42F857
:1019F000283C42F8243C42F8203C42F81C3C42F887
:101A0000183C42F8143C42F8103C42F80C3C42F8B6
:101A1000083C42F8043C154640323F2CA4F14004F7
:101A2000D9DC2A46C5EB0C0407E042F8103C42F82A
:101A30000C3C42F8083C42F8043C154610320F2C8E
:101A4000A4F11004F1DC2A46C5EB0C0501E042F8D4
:101A5000043C14460432032DA5F10405F7DC01E033
:101A600004F8011B6445FBD3A0E700BF08B500F0F4
:101A700017F8074800B10068064901B1096800225B
:101A8000FEF7D6FB044B0BB1AFF30080FEE700BFBF
:101A9000000000000000000000000000FEE7000061
:101AA00070B541F6D43641F6D435C0F20006C0F226
:101AB0000005761BB61006D0002455F824300134FA
:101AC0009847A642F9D841F6D43541F6DC36C0F243
:101AD0000005C0F20006761B00F076F8B61006D0BE
:101AE000002455F8243001349847A642F9D870BD37
:101AF000D00700002020202020202020202020208F
:101B00002020202000000000696E697469616C6902
:101B10007A696E672E2E2E00696E7465727275700A
:101B20007473000055415254000000007061636BF3
:101B30006574730072756E6E696E672E2E2E0000CE
:101B40007472616E7366657272696E670000000080
:101B50007472616E7366657220646F6E650000005A
:101B60006E6F00006572726F72730000495251739C
:101B700000000000303132333435363738394142D5
:101B800043444546105100401000305100403000A1
:101B9000C05100401000F051004010008000014092
:101BA000800F00140140000800400140000A004C72
:101BB00001400002005001402000000000000140F0
:101BC0008003004880000000F8B500BFF8BC08BCE6
:101BD0009E4670473101000055040000F8B500BF73
:101BE000F8BC08BC9E4670471D01000000000000C4
:101BF000001C00000080FF1F18010000982000005A
:101C000000000000000000000000000000000000D4
:101C100000000000000000000000000000000000C4
:101C200000000000000000000000000000000000B4
:101C300000000000000000000000000000000000A4
:101C40000000000000000000000000000000000094
:101C50000000000000000000000000000000000084
:101C60000000000000000000000000000000000074
:101C70000000000000000000000000000000000064
:101C80000000000000000000000000000000000054
:101C90000000000000000000000000000000000044
:101CA0000000000000000000000000000000000034
:101CB0000000000000000000000000000000000024
:101CC0000000000000000000000000000000000014
:101CD0000000000000000000000000000000000004
:101CE00000000000000000000000000000000000F4
:101CF00000000000000000000000000000000000E4
:101D0000000000000010000000366E01C05D000001
:081D1000180000000000E02EA5
:0400000300000431C4
:00000001FF
