:4000000000800020E5170000DD170000DD17000080B51448144B21E05C689968DD688C420CD0002205E0A6180832D6E9008941E902898C460831AA42F5D101E004EB050CFD
:400040001C696146002204E008320026002741E902670831A242F7D1143301380028DBD104F0DCFE01000000F451000048F27813C1F6FF731A780AB901201870704700BF85
:4000800048F20810C1F6FF7008B503682BB140F20003C0F2000303B1984708BD80B400AF48F27913C1F6FF731B78002B0DD048F20D13C1F6FF731B7883F00103DBB2DAB26F
:4000C00048F20D13C1F6FF731A70BD4680BC704780B582B000AF4FF04003FB8093E048F21113C1F6FF731B7803F10103DAB248F21113C1F6FF731A7048F21113C1F6FF7341
:400100001B78082B21D948F21113C1F6FF734FF000021A7048F21013C1F6FF731B7803F10103DAB248F21013C1F6FF731A7048F21013C1F6FF731B78082B06D948F2101378
:40014000C1F6FF734FF000021A7048F21013C1F6FF731B78194648F21113C1F6FF731B781A4648F2C813C1F6FF734FEAC1010A4413441B78002B16D048F21013C1F6FF7391
:400180001B78194648F21113C1F6FF731B781A4648F20E13C1F6FF731B78084611461A4601F00AF93CE048F21013C1F6FF731B78194648F21113C1F6FF731B781A4648F27B
:4001C0000823C1F6FF734FEAC1010A4413441B78002B18D001F0F2F948F21013C1F6FF731B78194648F21113C1F6FF731B781A4648F20F13C1F6FF731B78084611461A467A
:4002000001F0DAF80CE0FB88002B0CBF00230123DBB2FA8802F1FF32FA80002B7FF45FAF07F10807BD4680BD80B582B000AF00F06BF844F6A060C0F2000001F091F848F2A6
:400240000C13C1F6FF731B78002B06D148F20D13C1F6FF731B78002B33D048F20C13C1F6FF731B78002B04D044F6AC63C0F2000303E044F6B863C0F20003184601F070F8A7
:4002800000F0F8F90346FB71FB79184600F042FD0346BB7148F20D13C1F6FF731B7883F00103DBB2002B1DD0BB79C3F10803DAB2FB7903F10103DBB21046194600F00CFDDA
:4002C00011E044F6B860C0F2000001F049F800F0E3FA0346FB71FB79184600F01BFD0346BB7100E000BF00F095FD48F20C13C1F6FF731B7883F00103DBB2DAB248F20C13E7
:40030000C1F6FF731A709AE780B582B000AF01F04BFC44F6C460C0F2000001F021F844F6D460C0F2000001F031F800F0ABF844F6DC60C0F2000001F029F84FF001004FF09B
:40034000000101F073F901F039F944F6E460C0F2000001F01BF862B644F6F060C0F2000001F014F803F04AFA4FF4FA5003F06CFA44F6F860C0F2000001F008F802F05CF8DF
:4003800002F01EFB44F60470C0F2000000F0E8FF40F29D00C0F2000003F078FA48F27913C1F6FF734FF001021A704FF00503FB7128E048F20D13C1F6FF731B78002B04D08A
:4003C00044F61473C0F2000303E044F61C73C0F20003184600F0DAFF4FF4FA7001F000FB4FF001004FF00F0101F0F4FBFB79184601F062FE4FF4FA7001F0F2FAFB7903F1E2
:40040000FF33FB71FB79002BD3D148F27913C1F6FF734FF000021A7003F04CFA48F20D13C1F6FF731B7883F00103DBB2002B19D044F6C460C0F2000000F092FF44F624705B
:40044000C0F2000000F0A2FF03F0A2FA03F048FD03F00AFC44F62C70C0F2000000F096FF00F048F844F63470C0F2000000F08EFF40F2D100C0F2000003F056FE07F108072C
:40048000BD4680BD80B483B000AF4FF00003BB7128E04FF00003FB711DE0B979FA7948F2C813C1F6FF734FEAC1010A4413444FF000021A70B979FA7948F20823C1F6FF7344
:4004C0004FEAC1010A4413444FF000021A70FB7903F10103FB71FB79072BDED9BB7903F10103BB71BB79072BD3D907F10C07BD4680BC704780B500AF4FF001004FF0050188
:4005000001F068FB44F63C70C0F2000001F09CFB4FF47A7001F064FA44F64470C0F2000003F0BAFC40F6B83001F05AFA03F040FB0346022BFAD903F0E5FA03464F2B09D139
:4005400003F0E0FA03464B2B04D103F0DBFA03460D2B03D04FF0010003F07EFE4FF001004FF0050101F036FB44F64870C0F2000001F06AFB44F65470C0F2000003F08CFC83
:4005800003F016FB0346022BFAD903F0BBFA03464F2B09D103F0B6FA03464B2B04D103F0B1FA03460D2B03D04FF0010003F054FE4FF001004FF0050101F00CFB44F65C7078
:4005C000C0F2000001F040FB44F66870C0F2000003F062FC4FF00F0003F0A8FB4FF00D0003F0FEFB03F0E4FA0346022BFAD903F089FA03464F2B09D103F084FA03464B2B8F
:4006000004D103F07FFA03460D2B03D04FF0010003F022FE4FF001004FF0050101F0DAFA44F67070C0F2000001F00EFB44F67C70C0F2000003F030FC03F0BAFA0346022BAE
:40064000FAD903F05FFA03464F2B09D103F05AFA03464B2B04D103F055FA03460D2B03D04FF0010003F0F8FD4FF0010003F06EF980BD00BF80B582B000AF44F68470C0F299
:40068000000000F083FE4FF000033B7013E03B7803F101033B703B78072B0CD944F69470C0F2000000F05CFE44F6A070C0F2000000F06CFEFEE73A7848F2C813C1F6FF7364
:4006C00013441B7A002BE2D13A7848F20823C1F6FF7313441B7A002BD9D14FF000037B7002F064FA02F062FA01F042FF01F080FF0346002BFAD148F20C13C1F6FF731B786E
:40070000002B06D04FF0010002F048FB0346002B10D148F20C13C1F6FF731B7883F00103DBB2002B24D04FF0020002F037FB0346002B1DD03A7848F2C813C1F6FF731344A9
:400740001B7A002B08D13A7848F20823C1F6FF7313441B7A002B07D044F6AC70C0F2000000F014FE00BF76E04FF001037B7072E039783A7848F20823C1F6FF734FF00000E3
:40078000985448F20823C1F6FF739A5C48F2C813C1F6FF735A544FF0000002F057FC03461A4613464FEAC303C2EB030240F2EB73C1F21D5383FB02134FEAE3014FEAE273B5
:4007C000C3EB01037B807B88072B01D87B883B704FF001037B6014E03B78062B02D94FF0FF337B603B78002B06D17B68B3F1FF3F02D14FF001037B607B68DAB23B7813448F
:400800003B703A7848F2C813C1F6FF7313441B7A002BE1D13A7848F20823C1F6FF7313441B7A002BD8D148F20C13C1F6FF731B78002B08D03A7848F2C813C1F6FF734FF00D
:400840000101995407E03A7848F20823C1F6FF734FF0010199547B7883F00103DBB2002B7FF43EAF39783A7848F20823C1F6FF734FF00000985448F20823C1F6FF739A5C12
:4008800048F2C813C1F6FF735A543B78184607F10807BD4680BD00BF80B582B000AF07F10403184600F028F83B79C3F10803DBB23B717B7903F1FF33DBB27B713B79194660
:4008C0007B791A4648F20823C1F6FF734FEAC1010A4413441B78002B06D048F24820C1F6FF7000F07DF8DAE703F0BEF97B79184607F10807BD4680BD80B584B000AF7860C1
:4009000003F0B2F944F6B870C0F2000000F03EFD03F04EF90346002BFAD003F0F3F80346FB7344F6C470C0F2000000F02FFD4FF001004FF0090101F04DF903F039F9034663
:40094000184601F0B9FB4FF47A7001F049F8FB7B072B00D03EE04FF001004FF00E0101F039F944F6D070C0F2000001F06DF94FF47A7001F035F803F01BF90346002BFAD0BB
:4009800003F0C0F803F014F90346002BFAD003F0B9F803461A467B681A707B681B78002B03D07B681B78072B00D913E003F000F90346002BFAD003F0A5F803461A467B6866
:4009C0005A707B685B78002B03D07B681B78082B01D900BF96E700BF07F11007BD4680BD80B586B000AF78604FF07E03FB724FF001033B734FF000037B734FF6FF73FB8139
:400A00004FF001037B744FF009037B823A7B7B7B1344DAB2FB894FEA13239BB2DBB21344DAB2FB89DBB21344DAB27B7C1344DAB27B681B781344DAB27B685B781344DBB23D
:400A4000A3F12603DBB26FEA03037B754FF47A73FB8244F6D470C0F2000000F081FC4FF0010000F061FCFB7A184601F00DF94FF001004FF0020101F0ADF8FB7A184601F060
:400A80001BFBFB8A184600F0ABFF44F6E070C0F2000000F065FC4FF0010000F045FC7B8A184601F009FBFB8A184600F099FF44F6E870C0F2000000F053FC4FF0010000F02F
:400AC00033FC44F6F070C0F2000001F0BDF83B7B184601F0B9FAFB8A184600F081FF44F6F470C0F2000000F03BFC4FF0010000F01BFC44F6F070C0F2000001F0A5F87B7B3C
:400B0000184601F0A1FAFB8A184600F069FF45F20000C0F2000000F023FC4FF0010000F003FC44F6F070C0F2000001F08DF8FB89184601F0ABFAFB8A184600F051FF45F2D5
:400B40000C00C0F2000000F00BFC4FF0010000F0EBFB44F6F070C0F2000001F075F87B7C184601F071FAFB8A184600F039FF45F21800C0F2000000F0F3FB4FF0010000F035
:400B8000D3FB44F6F070C0F2000001F05DF84FF0DA0001F059FAFB8A184600F021FF45F22400C0F2000000F0DBFB4FF0010000F0BBFB44F6F070C0F2000001F045F84FF013
:400BC000000001F041FAFB8A184600F009FF45F23000C0F2000000F0C3FB4FF0010000F0A3FB7B681B78184601F066FAFB8A184600F0F6FE45F23400C0F2000000F0B0FBB5
:400C00004FF0010000F090FB7B685B78184601F053FAFB8A184600F0E3FE45F23C00C0F2000000F09DFB4FF0010000F07DFB44F6F070C0F2000001F007F87B7D184601F01B
:400C400003FAFB8A184600F0CBFE03F049F9FB7A184603F06BF87B8A4FEA13239BB2DBB2184603F063F87B8ADBB2184603F05EF83B7B184603F05AF87B7B184603F056F85C
:400C8000FB894FEA13239BB2DBB2184603F04EF8FB89DBB2184603F049F87B7C184603F045F84FF0DA0003F041F84FF0000003F03DF87B681B78184603F038F87B685B784F
:400CC000184603F033F87B7D184603F02FF807F11807BD4680BD00BF80B582B000AF02460B46FA71BB7148F24823C1F6FF73FA791A7048F24823C1F6FF73BA795A7048F2DC
:400D00004820C1F6FF70FFF76BFE07F10807BD4680BD00BF80B584B000AF0346FB714FF00103FB736CE048F20C13C1F6FF731B78002B0DD0F97BFA7948F2C813C1F6FF73B4
:400D40004FEAC1010A4413444FF001021A700CE0F97BFA7948F20823C1F6FF734FEAC1010A4413444FF001021A70FB7B03F10101FA7948F2C813C1F6FF734FEAC1010A44D4
:400D800013441B78002B3ED1FB7B03F10101FA7948F20823C1F6FF734FEAC1010A4413441B78002B2FD1FB7B072B2CD04FF0140000F016FE48F20C13C1F6FF731B78002B09
:400DC0000DD0F97BFA7948F2C813C1F6FF734FEAC1010A4413444FF000021A700CE0F97BFA7948F20823C1F6FF734FEAC1010A4413444FF000021A70FB7B03F10103FB73DE
:400E0000FB7B072B8FD9FB7B184607F11007BD4680BD00BF80B584B000AF4FF064037B804FF001033B7077E24FF000037B706BE23B78042B00F291804FF001033B724FF032
:400E400000037B6039E048F20C13C1F6FF731B78002B16D03A787B6802EB03017A7848F2C813C1F6FF734FEAC1010A4413441B7883F00103DBB2002B1AD04FF000033B7264
:400E800017E03A787B6802EB03017A7848F20823C1F6FF734FEAC1010A4413441B7883F00103DBB2002B04D04FF000033B7200E000BF7B6803F101037B603B7A002B02D009
:400EC0007B68032BBFDD3B7A002B46D045F24800C0F2000000F05AFA4FF000037B724FF000037B6029E048F20C13C1F6FF731B78002B0FD03A787B6802EB03017A7848F2B4
:400F0000C813C1F6FF734FEAC1010A4413447A7A1A700EE03A787B6802EB03017A7848F20823C1F6FF734FEAC1010A4413447A7A1A707B6803F101037B603B7A002B02D015
:400F40007B68032BCFDD7B88184600F049FD7B7A83F00103DBB27B72C1E77B78042B00F28D804FF00103BB724FF000037B6037E048F20C13C1F6FF731B78002B15D03978F4
:400F80007A787B681A4448F2C813C1F6FF734FEAC1010A4413441B7883F00103DBB2002B19D04FF00003BB7216E039787A787B681A4448F20823C1F6FF734FEAC1010A4455
:400FC00013441B7883F00103DBB2002B04D04FF00003BB7200E000BF7B6803F101037B60BB7A002B02D07B68032BC1DDBB7A002B44D045F24800C0F2000000F0C7F94FF0CB
:401000000003FB724FF000037B6027E048F20C13C1F6FF731B78002B0ED039787A787B681A4448F2C813C1F6FF734FEAC1010A441344FA7A1A700DE039787A787B681A446D
:4010400048F20823C1F6FF734FEAC1010A441344FA7A1A707B6803F101037B60BB7A002B02D07B68032BD1DD7B88184600F0B8FCFB7A83F00103DBB2FB72C3E73B78042B26
:4010800000F29D807B78042B00F299804FF001033B734FF000037B603DE048F20C13C1F6FF731B78002B18D03A787B6802EB03017A787B681A4448F2C813C1F6FF734FEA71
:4010C000C1010A4413441B7883F00103DBB2002B1CD04FF000033B7319E03A787B6802EB03017A787B681A4448F20823C1F6FF734FEAC1010A4413441B7883F00103DBB274
:40110000002B04D04FF000033B7300E000BF7B6803F101037B603B7B002B02D07B68032BBBDD3B7B002B4AD045F24800C0F2000000F02CF94FF000037B734FF000037B6081
:401140002DE048F20C13C1F6FF731B78002B11D03A787B6802EB03017A787B681A4448F2C813C1F6FF734FEAC1010A4413447A7B1A7010E03A787B6802EB03017A787B68E0
:401180001A4448F20823C1F6FF734FEAC1010A4413447A7B1A707B6803F101037B603B7B002B02D07B68032BCBDD7B88184600F017FC7B7B83F00103DBB27B73BDE73B785F
:4011C000032B40F29D807B78042B00F299804FF00103BB734FF000037B603DE048F20C13C1F6FF731B78002B18D03A787B68C3EB02017A787B681A4448F2C813C1F6FF73BB
:401200004FEAC1010A4413441B7883F00103DBB2002B1CD04FF00003BB7319E03A787B68C3EB02017A787B681A4448F20823C1F6FF734FEAC1010A4413441B7883F0010346
:40124000DBB2002B04D04FF00003BB7300E000BF7B6803F101037B60BB7B002B02D07B68032BBBDDBB7B002B4AD045F24800C0F2000000F08BF84FF00003FB734FF0000330
:401280007B602DE048F20C13C1F6FF731B78002B11D03A787B68C3EB02017A787B681A4448F2C813C1F6FF734FEAC1010A441344FA7B1A7010E03A787B68C3EB02017A78A7
:4012C0007B681A4448F20823C1F6FF734FEAC1010A441344FA7B1A707B6803F101037B60BB7B002B02D07B68032BCBDD7B88184600F076FBFB7B83F00103DBB2FB73BDE790
:401300007B7803F101037B707B78072B7FF690AD3B7803F101033B703B78072B7FF684AD07F11007BD4680BD80B582B000AF78607B68DBB218464FF0000100F04BFC45F266
:401340006000C0F2000000F07FFC7B68DBB218464FF0000100F03EFC07F10807BD4680BD80B582B000AF78604FF0010000F0B6FC4FF000004FF0000100F02CFC786800F03A
:4013800063FC07F10807BD4680BD00BF80B582B000AF78604FF00100FFF7C6FF4FF001004FF0000100F016FC786800F04DFC07F10807BD4680BD00BF80B588B000AFF860CA
:4013C000B9601346FB714FF00003BB744FF00103FB744FF00102FB6802FA03F33B754FF001037B754FF00103BB754FF00103FB75FB7903F1FF33062B65D801A252F823F044
:401400001D14000031140000451400005F140000731400008D140000A71400007A7DBB6802FA03F37B75BB7CBB75BB7CFB7556E0BB7C7B75BA7DBB6802FA03F3BB75BB7C6D
:40144000FB754CE07A7DBB6802FA03F37B75BA7DBB6802FA03F3BB75BB7CFB753FE0BB7C7B75BB7CBB75FA7DBB6802FA03F3FB7535E07A7DBB6802FA03F37B75BB7CBB7590
:40148000FA7DBB6802FA03F3FB7528E0BB7C7B75BA7DBB6802FA03F3BB75FA7DBB6802FA03F3FB751BE07A7DBB6802FA03F37B75BA7DBB6802FA03F3BB75FA7DBB6802FA80
:4014C00003F3FB750BE045F27400C0F20000FFF747FF45F27C00C0F20000FFF757FF3B7D6FEA03033B757B7D6FEA03037B75BB7D6FEA0303BB75FB7D6FEA0303FB75BB7CFE
:40150000184602F065FE4FF00003BB614BE03A7D4FF08001BB6941FA03F302EA0303002B01D0FB7C00E0BB7C184600F0C7F97A7D4FF08001BB6941FA03F302EA0303002BF0
:4015400001D0FB7C00E0BB7C184600F0D9F9BA7D4FF08001BB6941FA03F302EA0303002B01D0FB7C00E0BB7C184600F0EBF9FA7D4FF08001BB6941FA03F302EA0303002B49
:4015800001D0FB7C00E0BB7C184600F0FDF9FB7C184602F03FFEBB7C184602F03BFEBB6903F10103BB61BB69072BB0DDFB7C184602F00EFE07F12007BD4680BD80B582B010
:4015C00000AF4FF00003BB704FF00103FB70BB78184602F0FDFD4FF000037B601BE04FF0FF0000F06BF94FF0FF0000F089F94FF0FF0000F0A7F94FF0FF0000F0C5F9FB781D
:40160000184602F007FEBB78184602F003FE7B6803F101037B607B68072BE0DDFB78184602F0D6FD07F10807BD4680BD80B584B000AF02460B46FA71BB71FFF7BFFF4FF031
:4016400001037B73C2E04FF00003BB73ADE04FF00003FB73A1E04FF00100FFF765FE4FF001004FF0000100F0B5FABB7B184600F023FD4FF001004FF0010100F0ABFA4FF0F7
:401680002C0000F001FB4FF001004FF0020100F0A1FAFB7B184600F00FFD4FF001004FF0040100F097FA45F28C00C0F2000000F0CBFA4FF001004FF0040100F08BFA7B7B17
:4016C00003F1FF33062B42D801A252F823F000BFED160000FB160000091700001717000025170000331700004117000045F29400C0F2000000F0A8FA36E045F29800C0F2D4
:40170000000000F0A1FA2FE045F2A000C0F2000000F09AFA28E045F2A800C0F2000000F093FA21E045F2B000C0F2000000F08CFA1AE045F2B800C0F2000000F085FA13E0DF
:4017400045F2C000C0F2000000F07EFA0CE045F27400C0F20000FFF703FE45F27C00C0F20000FFF713FEFEE7B97BFA7B7B7B084611461A46FFF720FEBB79002B02D04FF09F
:401780007D0301E04FF00503184600F029F9FFF715FFFB7B03F10103FB73FB7B072B7FF65AAFBB7B03F10103BB73BB7B072B7FF64EAFFB79002B04D07B7B03F10103DBB2E1
:4017C00003E07B7B4FEA4303DBB27B737B7B072B7FF639AF07F11007BD4680BD80B400AFFEE700BF054B1C7844F001041C70044B1A78D2B2034B1A70FEF70AFCE84600406C
:40180000FA460040BC76004080B582B000AF4EF60C53CEF2000340F20042C0F2FA521A604EF61453CEF200034EF61452CEF20002126842F400721A604FF000037B6019E0C2
:4018400079687B68032B07D87A6840F20003C0F2000353F8223003E041F2DD73C0F2000348F20002C1F6FF7242F821307B6803F101037B607B682F2BE2D947F2BC63C4F268
:4018800000031B78DAB248F24A23C1F6FF731A704EF60853CEF2000348F20002C1F6FF721A6002F099FE48F20013C1F6FF734FF000021A6007F10807BD4680BD80B485B002
:4018C00000AF0346FB7145F24013C4F200031B78DBB223F00403FB7345F24013C4F20003FA794FEA8202D2B202F00402F97B42EA0102D2B21A7007F11407BD4680BC7047F0
:4019000080B485B000AF0346FB7145F24013C4F200031B78DBB223F02003FB7345F24013C4F20003FA794FEA4212D2B202F02002F97B42EA0102D2B21A7007F11407BD4631
:4019400080BC704780B485B000AF0346FB7145F24013C4F200031B78DBB223F04003FB7345F24013C4F20003FA794FEA8212D2B202F04002F97B42EA0102D2B21A7007F19C
:401980001407BD4680BC704780B485B000AF0346FB7145F24013C4F200031B78DBB203F07F03FB7345F24013C4F20003FA794FEAC212D1B2FA7B41EA0202D2B21A7007F113
:4019C0001407BD4680BC704780B483B000AF0346FB7101BE07F10C07BD4680BC704700BF80B582B000AF78600BE048F22013C1F6FF731B68184602F003FF7B68A3F500438A
:401A00007B607B68B3F5004FEFD848F21813C1F6FF731B687A6802FB03F3184602F0F0FE07F10807BD4680BD80B582B000AF0346FB80FA8848F21C13C1F6FF731B7803FB40
:401A400002F3184602F0DCFE07F10807BD4680BD80B584B000AF03463960FB714EF60853CEF200031B68FB60FB791F2B03D94FF00000FFF7A9FFFB7903F01F0303F1100353
:401A80004FEA8302FB6813441B68BB60FB7903F01F0303F110034FEA8302FB6813443A681A60BB68184607F11007BD4680BD00BF80B582B000AF02460B46FA71BB71BB79E3
:401AC000072B03D94FF00000FFF77EFFFB791F2B03D94FF00000FFF777FFFB7903F01F0303F1604303F56443BA794FEA4212D2B21A7007F10807BD4680BD00BF80B500AF6A
:401B00004FF02800FFF76CFF4FF0030000F056FA4FF00500FFF764FF4FF0030000F04EFA4FF00F00FFF75CFF4FF0030000F046FA4FF00100FFF754FF4FF0020000F03EFA41
:401B40004FF00500FFF74CFF4FF0060000F0C6F84FF00E0000F0C2F84FF02C0000F0BEF84FF0080000F0BAF84FF0010000F0B6F84FF00C0000F0B2F84FF0030000F0AEF861
:401B80004FF00500FFF72CFF80BD00BF80B500AF4FF00C0000F0A2F848F27A13C1F6FF734FF001021A7080BD80B500AF48F27B13C1F6FF731B78002B08D1FFF79FFF48F2D8
:401BC0007B13C1F6FF734FF001021A70FFF7DEFF80BD00BF80B582B000AF02460B46FA71BB71FB79032B2AD801A252F823F000BF011C0000111C0000211C0000311C000016
:401C0000BB79A3F18003DBB2184600F067F816E0BB79A3F14003DBB2184600F05FF80EE0BB79A3F16C03DBB2184600F057F806E0BB79A3F12C03DBB2184600F04FF807F1A6
:401C40000807BD4680BD00BF80B584B000AF78604FF00103BB737B681B78FB730CE0FB7B184600F01FF8BA7B7B6813441B78FB73BB7B03F10103BB73FB7B002BEFD107F125
:401C80001007BD4680BD00BF80B582B000AF0346FB71FB79184600F005F807F10807BD4680BD00BF80B584B000AF0346FB7100F031F8FB794FEA1313FB73FB7B184600F093
:401CC00027F9FB7903F00F03FB73FB7B184600F01FF907F11007BD4680BD00BF80B584B000AF0346FB7100F015F8FB794FEA1313FB73FB7B184600F061F9FB7903F00F0351
:401D0000FB73FB7B184600F059F907F11007BD4680BD00BF80B582B000AF45F22013C4F2000345F22012C4F200021278D2B202F080021A7045F22213C4F200031B78DBB266
:401D400023F00F03FB7145F22213C4F20003FA7942F00F02D2B21A7045F22313C4F200031B78DBB223F00F03FB7145F22313C4F20003FA791A7045F22413C4F200031B7835
:401D8000DBB223F00F03FB7145F22413C4F20003FA791A7045F22013C4F2000345F22012C4F200021278D2B202F0DF021A7045F22013C4F2000345F22012C4F20002127864
:401DC000D2B242F04002D2B21A704FF00000FFF72BFE45F22013C4F2000345F22012C4F200021278D2B242F01002D2B21A704FF00100FFF719FE45F22113C4F200031B78D7
:401E0000FB7145F22013C4F2000345F22012C4F200021278D2B202F0EF021A704FF00000FFF702FEFB7903F00803FB7145F22013C4F2000345F22012C4F200021278D2B212
:401E400042F01002D2B21A704FF00100FFF7ECFD45F22013C4F2000345F22012C4F200021278D2B202F0EF021A70FB79002BACD145F22013C4F2000345F22012C4F20002D2
:401E80001278D2B202F0BF021A7045F22013C4F2000345F22012C4F200021278D2B202F080021A7045F22213C4F2000345F22212C4F200021278D2B202F0F0021A7045F28C
:401EC0002313C4F200031B78DBB223F00F03FB7145F22313C4F20003FA7942F00F02D2B21A7045F22413C4F200031B78DBB223F00F03FB7145F22413C4F20003FA7942F0B4
:401F00000F02D2B21A7007F10807BD4680BD00BF80B582B000AF0346FB71FFF7FBFE45F22013C4F2000345F22012C4F200021278D2B242F02002D2B21A7045F22013C4F2EE
:401F4000000345F22012C4F200021278D2B202F0BF021A7045F22013C4F2000345F22012C4F200021278D2B202F0F0021A7045F22013C4F2000345F22012C4F20002127864
:401F8000D1B2FA7941EA0202D2B242F01002D2B21A704FF00100FFF747FD45F22013C4F2000345F22012C4F200021278D2B202F0EF021A7007F10807BD4680BD80B582B03F
:401FC00000AF0346FB7145F22013C4F2000345F22012C4F200021278D2B202F09F021A7045F22013C4F2000345F22012C4F200021278D2B202F0F0021A7045F22013C4F22E
:40200000000345F22012C4F200021278D1B2FA7941EA0202D2B242F01002D2B21A704FF00100FFF701FD45F22013C4F2000345F22012C4F200021278D2B202F0EF021A7004
:4020400007F10807BD4680BD80B582B000AF0346FB71FB794FEA1313DBB21A4645F2C803C0F200039B5C1846FFF70EFEFB7903F00F0245F2C803C0F200039B5C1846FFF706
:4020800003FE07F10807BD4680BD00BF80B582B000AF0346FB80FB884FEA13239BB2DBB21846FFF7D1FFFB88DBB21846FFF7CCFF07F10807BD4680BD80B586B000AF034676
:4020C000FB804FF00003BB752AE0B87DFA884CF6CD43CCF6CC43A3FB02134FEAD3010B464FEA83030B444FEA4303C3EB02039BB2DBB203F13003DAB207F1180101EB000331
:4021000003F8102CFA884CF6CD43CCF6CC43A3FB02134FEAD303FB80BB7D03F10103BB75FB88092BD1D8B87DFA884CF6CD43CCF6CC43A3FB02134FEAD3010B464FEA83031C
:402140000B444FEA4303C3EB02039BB2DBB203F13003DAB207F1180101EB000303F8102CBB7DFB7512E0FA7DBB7DC3EB0203BA7D07F118010A4412F8102C07F118010B44E2
:4021800003F8082CBB7D03F1FF33BB75BB7D002BE9D1FB7D3A7A07F118010B4403F8082CFB7D03F1010307F1180213444FF0000203F8082C07F110031846FFF745FD07F1A8
:4021C0001807BD4680BD00BF80B582B000AF00F025FA4FF0020000F073FB02F019FB0346FB7146F29C43C4F2000346F29C42C4F200021278D2B242F00302D2B21A7046F219
:402200009D43C4F2000346F29D42C4F200021278D2B242F00302D2B21A70FB79184602F0FBFA46F22C43C4F200034FF434421A8046F24C43C4F200034FF6FF721A8046F26F
:402240008B43C4F200034FF007021A7002F0E0FA0346FB7146F29943C4F2000346F29942C4F200021278D2B242F00302D2B21A7046F29F43C4F2000346F29F42C4F20002F5
:402280001278D2B242F00302D2B21A70FB79184602F0C2FA46F22943C4F200034FF0FF321A7046F24943C4F200034FF0FF321A7046F20943C4F200034FF0FF321A7046F20E
:4022C0002F43C4F200034FF0FF321A7046F25F43C4F200034FF0FF321A7046F24F43C4F200034FF0FF321A704EF28013CEF200034FF004021A604FF0020043F2D111C0F250
:402300000001FFF7A5FB4FF002004FF00701FFF7CFFB01F0B9F94FF0070002F00DF94FF0080002F009F94FF0090002F005F946F27853C4F2000346F27852C4F2000212786A
:40234000D2B242F00402D2B21A7000F0CFFF01F08BF84FF0000001F005F94FF0040001F02BF94FF0000001F051F907F10807BD4680BD00BF80B582B000AF02F049FA0346C7
:40238000FB7146F29B43C4F2000346F29B42C4F200021278D2B242F02002D2B21A7000F0F1FF01F095F844F2BB33C4F2000344F2BB32C4F200021278D2B242F02002D2B2A9
:4023C0001A7044F2AB33C4F2000344F2AB32C4F200021278D2B242F02002D2B21A7045F67203C4F2000345F67202C4F200021278D2B242F00102D2B21A70FB79184602F066
:402400000BFA4EF20013CEF200034FF004021A6046F27853C4F2000346F27852C4F200021278D2B26FEA42626FEA5262D2B21A7007F10807BD4680BD80B500AF48F27D1331
:40244000C1F6FF731B78002B08D1FFF7BDFE48F27D13C1F6FF734FF001021A70FFF78AFF00F02EFF48F27C13C1F6FF734FF001021A7080BD80B485B000AF0346FB71FB7954
:4024800003F10103FB71FB79072B18D0FB794FEAD303BB73FB7903F007034FF0010202FA03F3FB73BA7B48F22413C1F6FF739A5CFB7B02EA0303DBB2002BE0D000E000BF32
:4024C000FB79184607F11407BD4680BC704700BF80B584B000AF0346FB71FA7945F22413C0F200039B5CFB73FA7948F22813C1F6FF739B5C184601F089F846F25943C4F218
:402500000003F97B48F23012C1F6FF72525C1A70FA7948F24C23C1F6FF739B5C184600F0B5F907F11007BD4680BD00BF80B582B000AF0346FB7148F27E13C1F6FF734FF004
:4025400000021A7048F27F13C1F6FF73FA791A7048F27E13C1F6FF736FF07E021A70FB79184600F0F5F807F10807BD4680BD00BF80B500AF48F27E13C1F6FF734FF00002B2
:402580001A7048F27F13C1F6FF734FF0FF321A7048F27F13C1F6FF731B78DBB21846FFF769FF03461A4648F27F13C1F6FF731A7048F27F13C1F6FF731B78DBB2062B16D875
:4025C00048F27E13C1F6FF731B78DBB243F00103DAB248F27E13C1F6FF731A7048F27F13C1F6FF731B78DBB2184600F0B1F880BD80B400AF48F27E13C1F6FF731B78DBB246
:4026000003F00103DBB2002B02D04FF0010301E04FF000031846BD4680BC704780B582B000AF4FF00003FB7107E0FB79184600F04BF8FB7903F10103FB71FB79062BF4D965
:4026400007F10807BD4680BD80B584B000AF0346FB71FA7945F2F403C0F200039B5CBB73FA7945F2FC03C0F200039B5CFB73FA7945F2D803C0F2000353F822304FF00902E7
:402680001A70BB7B0F2B02D14FF00703BB73BA7B45F20413C0F2000353F82220B97B45F20413C0F2000353F821301978FB7B41EA0303DBB21370FB79184601F03DFF07F1FF
:4026C0001007BD4680BD00BF80B584B000AF0346FB71FA7945F2F403C0F200039B5CBB73FA7945F2FC03C0F200039B5CFB73FB79184601F047FFBB7B0F2B02D14FF0070324
:40270000BB73BA7B45F20413C0F2000353F82220B97B45F20413C0F2000353F821301B781946FB7B6FEA0303DBB201EA0303DBB2DBB21370FA7945F2D803C0F2000353F86C
:4027400022304FF008021A7007F11007BD4680BD80B582B000AF0346FB71FB791846FFF7B7FE46F27853C4F2000346F27852C4F200021278D2B242F00102D2B21A7045F69B
:402780007203C4F2000345F67202C4F200021278D2B202F0FE021A70FB791846FFF754FF46F27853C4F2000346F27852C4F200021278D2B242F00202D2B21A7007F1080710
:4027C000BD4680BD80B582B000AF0346FB7146F27853C4F2000346F27852C4F200021278D2B202F0FC021A70FA7946F21F43C4F200031B78DBB24FEA032399B248F2801373
:40280000C1F6FF7323F81210FA79F97948F28013C1F6FF7333F8111046F20F43C4F200031B78DBB241EA030399B248F28013C1F6FF7323F81210FA79F97948F28013C1F690
:40284000FF7333F811306FEA030399B248F28013C1F6FF7323F81210FB791846FFF734FF4FF0000000F0D2FE45F67203C4F2000345F67202C4F200021278D2B242F0010290
:40288000D2B21A7007F10807BD4680BD80B483B000AF0346FB7146F22853C4F20003FA791A7046F23853C4F20003FA794FEA5202D2B21A7007F10C07BD4680BC704700BF45
:4028C00080B483B000AF0346FB71FB79012B0DD146F27853C4F2000346F27852C4F200021278D2B202F0EF021A700DE046F27853C4F2000346F27852C4F200021278D2B22D
:4029000042F01002D2B21A7007F10C07BD4680BC704700BF80B485B000AF0346FB71FA7945F22413C0F200039B5CFB73FA79F97948F28013C1F6FF7333F8111048F29013B9
:40294000C1F6FF7323F81210FA7948F2A013C1F6FF734FF000019954FA7948F2A813C1F6FF734FF000019954FB7B002B0DD0FB7B03F1FF32F97B48F24013C1F6FF73595C85
:4029800048F2B813C1F6FF73995407F11407BD4680BC704780B582B000AF0346FB71FB791846FFF7C3FDFFF723FE0346002BFAD1FB791846FFF7AEFF07F10807BD4680BD8E
:4029C00080B582B000AF4FF00003FB7107E0FB791846FFF7DFFFFB7903F10103FB71FB79062BF4D907F10807BD4680BD80B586B000AF0346FB71FA7945F22413C0F2000390
:402A00009B5CBB75BA7D48F23813C1F6FF739B5CFB75FA7948F28013C1F6FF7333F81230BB82FB79184600F03DFCFA7948F29013C1F6FF7333F81230BA8A9A420ED3FA79BB
:402A400048F29013C1F6FF7333F81230BA8AC3EB02037B824FF00103BB750DE0FA7948F29013C1F6FF7333F81220BB8AC3EB02037B824FF00003BB75BB7D002B26D17B8AF3
:402A8000142B23D9FA7948F25423C1F6FF739B5C042B0CD9FB791846FFF73CFFFA7948F25423C1F6FF734FF00001995456E0FA7948F25423C1F6FF739B5C03F10103D9B209
:402AC00048F25423C1F6FF73995447E0FB7D7A8A9A4205D97B8A132B40D8BB7D002B3DD1FA7948F29013C1F6FF7333F812304FEA0323FB60FA7948F2A013C1F6FF739B5CC6
:402B0000FA6842EA0303FB60BB8AFA681344FB60FA7948F29013C1F6FF7333F81230FA68C3EB0203FB60FA79FB684FEA132399B248F29013C1F6FF7323F81210FA79FB684E
:402B4000D9B248F2A013C1F6FF739954FA7948F25423C1F6FF734FF000019954FB7D7A8A9A4217D9BB7D002B14D07B8AFF2B08D9FA7948F2A813C1F6FF734FF0FF319954C1
:402B800010E0FA797B8AD9B248F2A813C1F6FF73995407E0FA7948F2A813C1F6FF734FF00001995407F11807BD4680BD80B582B000AF4FF000037B711FE07B794FEAD303D5
:402BC000BB717B7903F007034FF0010202FA03F3FB71BA7948F22413C1F6FF739A5CFB7902EA0303DBB2002B03D07B791846FFF7FDFE7B7903F101037B717B79062BDCD96F
:402C000007F10807BD4680BD80B485B000AF0346FB71FB794FEAD303BB72FB7903F007034FF0010202FA03F3FB72FA7945F22413C0F200039B5C3B733A7B48F23413C1F696
:402C4000FF739B5C7B733A7B48F23C13C1F6FF739B5CBB733A7B48F24013C1F6FF739B5CFB733B7B002B0BD14FF002037B727A7A48F2B813C1F6FF734FF00101995403E080
:402C80003B7B03F1FF337B72BA7A48F2B013C1F6FF739A5CFB7A02EA0303DBB2002B29D0FA7948F2A813C1F6FF739B5C1A46797BBB7BC3EB01039A4256DABA7AB97A48F272
:402CC000B013C1F6FF735B5C1946FB7A6FEA0303DBB201EA0303DBB2D9B248F2B013C1F6FF7399547A7A48F2B813C1F6FF73F97B99543CE0FA7948F2A813C1F6FF739B5C2E
:402D00001A46797BBB7B0B449A4225DD7A7A48F2B813C1F6FF739B5C012B8CBF00210121C9B203F1FF33D8B248F2B813C1F6FF73985400291AD0BA7AB97A48F2B013C1F696
:402D4000FF73595CFB7A41EA0303D9B248F2B013C1F6FF7399540AE07A7A48F2B813C1F6FF73F97B995402E000BF00E000BFBA7A48F2B013C1F6FF739A5CFB7A02EA030384
:402D8000DBB2002B02D04FF0010301E04FF00003184607F11407BD4680BC704780B584B000AF0346FB71FA7945F22C13C0F200039B5C7B73FA7945F23013C0F200039A5CD4
:402DC0007B7B1344BB734FF00003FB737B7B1846FFF71AFF0346002B02D04FF00103FB737B7B03F101037B737A7BBB7B9A42EDD3FB7B184607F11007BD4680BD80B485B01F
:402E000000AF13460246FA710A46BA717B714FF0FF33BB724FF00003FB72FA7948F2A813C1F6FF731344FB604FF000037B7218E07A7AFB6813441B787A799A420DD27A7AD6
:402E4000FB6813441B78FA7A9A4206D27B7ABB727A7AFB6813441B78FB727B7A03F101037B727A7ABB799A42E2D3BB7A184607F11407BD4680BC704780B487B000AFF8715B
:402E8000B9717A717B80BA7948F2A813C1F6FF7313447B61FB7903F1FF337B72FB7903F10103BB72FA797B6913441A7848F2B413C1F6FF735A70FB79002B10D148F2B413A9
:402EC000C1F6FF734FF000021A70BA7A7B6913441A7848F2B413C1F6FF739A7028E0FA797B7903F1FF339A4210D17A7A7B6913441A7848F2B413C1F6FF731A7048F2B413E1
:402F0000C1F6FF734FF000029A7011E07A7A7B6913441A7848F2B413C1F6FF731A70BA7A7B6913441A7848F2B413C1F6FF739A7048F2B413C1F6FF731B7897F820209A421A
:402F40000FD248F2B413C1F6FF731A7897F82030C3EB0203DAB248F2B413C1F6FF731A7006E048F2B413C1F6FF734FF000021A7048F2B413C1F6FF735A7897F82030C3EB7E
:402F80000203DAB248F2B413C1F6FF735A7048F2B413C1F6FF739B7897F820209A420FD248F2B413C1F6FF739A7897F82030C3EB0203DAB248F2B413C1F6FF739A7006E04F
:402FC00048F2B413C1F6FF734FF000029A7048F2B413C1F6FF739B781A4648F2B413C1F6FF731B78C3EB0203FB6048F2B413C1F6FF731B781A4648F2B413C1F6FF735B78DA
:403000001A4448F2B413C1F6FF739B7813443B61FB684FEA03223B6992FBF3F2FB794FEA032313443B617A883B6902FB03F33B613B6903F5FE434FEA1343FB72FB7A184684
:4030400007F11C07BD4680BC704700BF80B586B002AF0346FB71FA7948F24413C1F6FF739B5C7B72FA7945F23813C0F200039B5CBB72FA7945F22C13C0F200039B5CBB730D
:40308000FA7945F23013C0F200039B5CFB73FA7948F23413C1F6FF739B5CB97BFA7B084611461A46FFF7AAFE0346FB72FB7AFF2B55D0FA7945F23413C0F2000333F812C08C
:4030C000FA7948F23813C1F6FF73985CF97ABA7BFB7B0090084611461A466346FFF7CCFE0346BB81BB7A03F01F03002B48D07B7A03F101033B727A7A48F24413C1F6FF7345
:403100009B5C002B10D13A7ABB89D9B248F24413C1F6FF7399547A7A48F24413C1F6FF734FF0010199542EE0BB7A03F00803002B28D03A7A48F24413C1F6FF739B5CBA897A
:403140001046194600F026F80346BB813A7ABB89D9B248F24413C1F6FF73995413E04FF6FF73BB81BB7A03F01F03002B0BD07A7A48F24413C1F6FF734FF00001995402E0EA
:4031800000BF00E000BFBB89184607F11007BD4680BD00BF80B485B000AF02460B46FA80BB80FA88BB881344FB60BB884FEA4303FA681344FB60FB684FEA9303FB60FB685E
:4031C0009BB2184607F11407BD4680BC704700BF80B500AF48F27F13C1F6FF731B78DBB21846FFF7EFFA48F27E13C1F6FF731B78DBB25BB2002B0EDA48F27E13C1F6FF73FE
:403200001B78DBB21A4602F0FE0248F27E13C1F6FF731A702FE048F27F13C1F6FF731B78DBB21846FFF726F903461A4648F27F13C1F6FF731A7048F27F13C1F6FF731B7857
:40324000DBB2062B09D848F27F13C1F6FF731B78DBB21846FFF77CFA0DE048F27E13C1F6FF731B78DBB21A4602F0FE0248F27E13C1F6FF731A7080BD80B582B000AF034663
:40328000FB71FB791846FFF751F907F10807BD4680BD00BF80B500AFFFF7AAF90346184680BD00BF80B582B000AF0346FB71FB79184601F007FB07F10807BD4680BD00BFD4
:4032C00080B500AF01F034FC80BD00BF80B500AF4FF00200FFF7F4FA80BD00BF80B500AF4FF00100FFF7ECFA80BD00BF80B500AF4FF0000000F068F845F64303C4F200031F
:4033000045F64302C4F200021278D2B242F02002D2B21A7045F64303C4F2000345F64302C4F200021278D2B202F0FB021A7045F64303C4F2000345F64302C4F200021278F0
:40334000D2B242F00802D2B21A7045F6DF23C4F2000345F6DF22C4F200021278D2B202F0E7021A7045F6DF23C4F2000345F6DF22C4F200021278D2B242F01002D2B21A70D8
:4033800080BD00BF80B400AF44F2A733C4F2000344F2A732C4F200021278D2B242F00802D2B21A7044F2B733C4F2000344F2B732C4F200021278D2B242F00802D2B21A703E
:4033C000BD4680BC704700BF80B483B000AF0346FB7145F64303C4F2000345F64302C4F200021278D2B2D1B201F0FC01FA79D2B202F0030241EA0202D2B2D2B21A70FB7939
:40340000012B16D144F23663C4F2000340F21312C4F600121278D2B21A7044F23763C4F2000340F21712C4F600121278D2B21A7015E044F23663C4F2000340F2B312C4F6C0
:4034400000121278D2B21A7044F23763C4F2000340F2BB12C4F600121278D2B21A7007F10C07BD4680BC704780B500AF45F62C03C4F200034FF014021A7045F62D03C4F2AE
:4034800000034FF000021A7045F62D03C4F2000345F62D02C4F200021278D2B242F00402D2B21A7045F62D03C4F2000345F62D02C4F200021278D2B242F00202D2B21A700C
:4034C0004FF0000000F026F800F0B0F880BD00BF80B400AF44F2A833C4F2000344F2A832C4F200021278D2B242F00802D2B21A7044F2B833C4F2000344F2B832C4F200026C
:403500001278D2B242F00802D2B21A70BD4680BC704700BF80B483B000AF0346FB7145F62C03C4F2000345F62C02C4F200021278D2B202F0FD021A7045F62C03C4F20003C3
:4035400045F62C02C4F200021278D1B2FA7902F0020241EA0202D2B21A7007F10C07BD4680BC704780B582B000AF0346FB7145F62D03C4F2000345F62D02C4F200021278DB
:40358000D2B202F0FB021A7045F62D03C4F2000345F62D02C4F200021278D1B2FA7902F0040241EA0202D2B21A7000F03FF807F10807BD4680BD00BF80B582B000AF034687
:4035C000FB7145F62C03C4F2000345F62C02C4F200021278D2B202F0F3021A7045F62C03C4F2000345F62C02C4F200021278D1B2FA7902F00C0241EA0202D2B21A7000F0AB
:4036000015F807F10807BD4680BD00BF80B483B000AF0346FB7145F68333C4F20003FA791A7007F10C07BD4680BC704780B483B000AF45F62C03C4F200031B78DBB203F0B8
:403640000C034FEA5303FB7145F62D03C4F200031B78DBB203F00403002B03D0FB7903F10103FB7144F20B63C4F20003FA7902F1924202F59C721278D2B21A7007F10C07ED
:40368000BD4680BC704700BF80B500AF00F002F880BD00BF80B582B000AF4FF00003FB7107E0FB79184600F06DFFFB7903F10103FB71FB79092BF4D907F10807BD4680BD1E
:4036C00080B500AF44F60073C4F2000344F60072C4F200021278D2B202F001021A7044F60273C4F2000344F60272C4F200021278D2B202F0FC021A7044F60B73C4F20003C8
:4037000044F60B72C4F200021278D2B202F0CF021A7044F60B73C4F2000344F60B72C4F200021278D2B242F03002D2B21A7044F60B73C4F2000344F60B72C4F200021278F5
:40374000D2B202F0F0021A7044F60B73C4F2000344F60B72C4F200021278D2B242F00F02D2B21A7044F60173C4F2000344F60172C4F200021278D2B242F00102D2B21A70FB
:403780004FF6FF7000F060F84FF6FF7000F06EF84FF0000000F048F880BD00BF80B400AF44F2A333C4F2000344F2A332C4F200021278D2B242F00102D2B21A7044F2B333C0
:4037C000C4F2000344F2B332C4F200021278D2B242F00102D2B21A7044F60073C4F2000344F60072C4F200021278D2B242F00102D2B21A70BD4680BC704700BF80B500AF38
:4038000048F2BC13C1F6FF731B78002B08D1FFF757FF48F2BC13C1F6FF734FF001021A70FFF7BCFF80BD00BF80B483B000AF0346FB7144F60373C4F20003FA791A7007F19F
:403840000C07BD4680BC704780B485B000AF0346FB80FB88FB8144F60473C4F20003FA891A8007F11407BD4680BC704780B483B000AF0346FB8044F60673C4F20003FA880C
:403880001A8007F10C07BD4680BC704780B582B000AF786000F04EF8786800F017F84FF0070000F027F800F039F807F10807BD4680BD00BF80B500AF00F03CF841F2DD7066
:4038C000C0F2000000F002F880BD00BF80B485B000AF78604EF60853CEF200031B68FB60FB6803F144037A681A6007F11407BD4680BC704780B483B000AF0346FB714EF2F2
:403900000143CEF20003FA794FEA4212D2B21A7007F10C07BD4680BC704700BF80B400AF4EF20013CEF200034FF002021A60BD4680BC704780B400AF4EF28013CEF200038D
:403940004FF002021A60BD4680BC704780B485B000AF0346FB7145F26013C4F200031B78DBB223F00803FB7345F26013C4F20003FA794FEAC202D2B202F00802F97B42EAC5
:403980000102D2B21A7007F11407BD4680BC704780B500AF48F2BD13C1F6FF731B78002B08D100F00BF848F2BD13C1F6FF734FF001021A7000F044F880BD00BF80B500AF41
:4039C0004FF0030043F65971C0F20001FEF740F84FF003004FF00701FEF76AF846F28953C4F200034FF076021A7046F28943C4F200034FF020021A704FF0040044F2490149
:403A0000C0F20001FEF724F84FF004004FF00701FEF74EF846F22843C4F200034FF00F021A7046F23843C4F200036FF06F021A7046F28C43C4F200034FF002021A7080BD37
:403A400080B582B000AF00F0E3FE0346FB7146F29953C4F2000346F29952C4F200021278D2B242F02002D2B21A7046F29943C4F2000346F29942C4F200021278D2B242F0AA
:403A80001002D2B21A704EF20013CEF200034FF008021A6046F29C43C4F2000346F29C42C4F200021278D2B242F01002D2B21A704EF20013CEF200034FF010021A6000F03E
:403AC00011FBFB79184600F0A7FE07F10807BD4680BD00BF80B400AF4EF20013CEF200034FF008021A60BD4680BC704780B400AF4EF28013CEF200034FF008021A60BD465C
:403B000080BC704780B582B000AFFFF7EFFF48F2C013C1F6FF731B78BB7148F2C113C1F6FF731B78FB7148F2C213C1F6FF731B78DBB2002B03D1BA79FB799A4227D0BA7969
:403B400048F2B023C1F6FF739B5C7B71BB7903F10103BB71BB795BB2002B02DA4FF00003BB7148F2C013C1F6FF73BA791A7048F2C213C1F6FF731B78DBB2002B0ED048F290
:403B8000C213C1F6FF734FF000021A7007E046F24A43C4F200031B787B7100E000BFFFF799FF7B79184607F10807BD4680BD00BF80B582B000AFFFF799FF48F2C013C1F66B
:403BC000FF731B78DAB248F2C113C1F6FF731B78DBB29A420FD148F2C213C1F6FF731B78DBB2002B03D06FF07F03FB7133E04FF00003FB712FE048F2C013C1F6FF731B78E5
:403C0000DAB248F2C113C1F6FF731B78DBB29A420FD248F2C113C1F6FF731B78DAB248F2C013C1F6FF731B78DBB2C3EB0203FB7111E048F2C113C1F6FF731B78DAB248F298
:403C4000C013C1F6FF731B78DBB2C3EB0203DBB2A3F18003FB71FFF73DFFFB79184607F10807BD4680BD00BF80B582B000AF00F0CFFD0346FB7146F29A43C4F2000346F2CE
:403C80009A42C4F200021278D2B242F00102D2B21A7046F29A43C4F2000346F29A42C4F200021278D2B202F0FE021A70FB79184600F0B2FDFFF71AFF48F2C013C1F6FF7345
:403CC0004FF000021A7048F2C113C1F6FF734FF000021A7048F2C213C1F6FF734FF000021A7048F2C313C1F6FF734FF000021A70FFF7F0FE07F10807BD4680BD80B400AFE2
:403D00004EF20013CEF200034FF010021A60BD4680BC704780B400AF4EF28013CEF200034FF010021A60BD4680BC704780B582B000AF0346FB7148F2BD13C1F6FF731B78E1
:403D4000002B49D0FFF7E6FF48F2BE13C1F6FF731B78DAB248F2BF13C1F6FF731B789A4210D146F26C43C4F200031B78DBB203F00403002B06D146F24B43C4F20003FA799E
:403D80001A7027E048F2BF13C1F6FF731B785BB2002B06DA48F2BF13C1F6FF734FF000021A7048F2BF13C1F6FF731B781A4648F23033C1F6FF73F979995448F2BF13C1F682
:403DC000FF731B7803F10103DAB248F2BF13C1F6FF731A70FFF792FF07F10807BD4680BD80B485B000AF0346FB7148F2BF13C1F6FF731B78BB7348F2BE13C1F6FF731B7823
:403E0000FB73BA7BFB7B9A4209D2BA7BFB7B03F1FF339A4214BF00230123DBB208E0BA7BFB7BC3EB02037F2B14BF00230123DBB2002BDAD1FA7BBB7B9A4210D146F26C43A2
:403E4000C4F200031B78DBB203F00403002B06D146F24B43C4F20003FA791A7017E0BB7B5BB2002B02DA4FF00003BB73BA7B48F23033C1F6FF73F9799954BB7B03F10103B8
:403E8000BB7348F2BF13C1F6FF73BA7B1A7007F11407BD4680BC704780B584B000AF78604FF00003FB8148F2BD13C1F6FF731B78002B11D00AE0FA897B6813441B781846BF
:403EC000FFF78EFFFB8903F10103FB81FA897B6813441B78002BEED107F11007BD4680BD80B582B000AF00F093FC0346FB7146F29B43C4F2000346F29B42C4F2000212784E
:403F0000D2B242F00102D2B21A7046F29B43C4F2000346F29B42C4F200021278D2B202F0FE021A70FB79184600F076FCFFF7F2FE48F2BE13C1F6FF734FF000021A7048F241
:403F4000BF13C1F6FF734FF000021A70FFF7D6FE07F10807BD4680BD80B483B000AF4FF00003FB7146F26943C4F200031B78BB715FE048F2C113C1F6FF731B78DBB21A4654
:403F800046F24A43C4F200031B78D9B248F2B023C1F6FF7399544FF00103FB71FB79002B41D048F2C213C1F6FF731B78DBB2002B06D048F2C313C1F6FF734FF001021A7085
:403FC00048F2C113C1F6FF731B78DBB203F10103DAB248F2C113C1F6FF731A7048F2C113C1F6FF731B78DBB25BB2002B06DA48F2C113C1F6FF734FF000021A7048F2C113A6
:40400000C1F6FF731B78DAB248F2C013C1F6FF731B78DBB29A4206D148F2C213C1F6FF734FF001021A7046F26943C4F200031B78BB71BB7903F02003002B9AD107F10C07E4
:40404000BD4680BC704700BF80B400AF2FE048F2BE13C1F6FF731B78DBB25BB2002B06DA48F2BE13C1F6FF734FF000021A7046F24B43C4F2000348F2BE12C1F6FF721278F3
:40408000D2B2114648F23032C1F6FF72525CD2B21A7048F2BE13C1F6FF731B78DBB203F10103DAB248F2BE13C1F6FF731A7048F2BE13C1F6FF731B78DAB248F2BF13C1F6F9
:4040C000FF731B789A4209D046F26C43C4F200031B78DBB203F00403002BB8D0BD4680BC704700BF80B400AF44F2A233C4F2000344F2A232C4F200021278D2B242F0010238
:40410000D2B21A7044F2B233C4F2000344F2B232C4F200021278D2B242F00102D2B21A70BD4680BC704700BF80B582B000AF786000F042F8786800F00BF84FF0070000F0A4
:404140001BF800F02DF807F10807BD4680BD00BF80B485B000AF78604EF60853CEF200031B68FB60FB6803F140037A681A6007F11407BD4680BC704780B483B000AF034683
:40418000FB714EF20043CEF20003FA794FEA4212D2B21A7007F10C07BD4680BC704700BF80B400AF4EF20013CEF200034FF001021A60BD4680BC704780B400AF4EF280131E
:4041C000CEF200034FF001021A60BD4680BC704780B485B000AF0346FB7145F24013C4F200031B78DBB223F01003FB7345F24013C4F20003FA794FEA0212D2B202F01002FB
:40420000F97B42EA0102D2B21A7007F11407BD4680BC704780B485B000AF0346FB7145F24013C4F200031B78DBB223F00803FB7345F24013C4F20003FA794FEAC202D2B2D1
:4042400002F00802F97B42EA0102D2B21A7007F11407BD4680BC704780B485B000AF0346FB7145F26013C4F200031B78DBB223F00403FB7345F26013C4F20003FA794FEAA1
:404280008202D2B202F00402F97B42EA0102D2B21A7007F11407BD4680BC704780B582B000AF7860396078684FF000013A6800F04BFD07F10807BD4680BD00BF80B584B054
:4042C00000AFF860B9607A60F868B9687A6800F073FC07F11007BD4680BD00BF80B487B000AF786039604FF00003FB604FF00003BB602CE0BB684FEA83027B6813441B68C5
:404300003B613B69FB753B6923F0FF033B6117E0FB684FEA43023B6813441B781A463B691344FA684FEA42013A680A4452781A70FB6803F10103FB60FB7D03F1FF33FB75D2
:40434000FB7D002BE4D1BB6803F10103BB60BB681D2BCFD907F11C07BD4680BC704700BF80B582B000AF44F28003C4F200034FF09B021A8044F28203C4F200034FF0180201
:404380001A7044F20033C4F200034FF002021A7044F20003C4F200034FF008021A7044F20023C4F200034FF003021A7044F2A163C4F2000340F20812C4F600121278D2B2C6
:4043C0001A7044F22223C4F200034FF008021A8044F22023C4F2000341F251021A804FF00003FB714FF019033B6019E0FB794FEA4303DAB244F22523C4F200031B78DBB257
:4044000003F0010342EA0303DBB203F00303FB714FF4F07000F0F4F93B6803F1FF333B603B68002B02D0FB79032BDFD144F20403C4F200034FF480721A8044F20403C4F2D3
:4044400000034FF007021A7044F20603C4F200034FF000021A7044F20803C4F200034FF048021A7044F20403C4F200034FF000021A7044F20103C4F200034FF002021A7016
:4044800044F2A233C4F2000344F2A232C4F200021278D2B242F00102D2B21A7007F10807BD4680BD80B483B000AF40F2CF13C4F600131B78FB7145F66E03C4F20003FA7910
:4044C00002F007021A7045F66F03C4F20003FA794FEA1212D2B21A7045F2FD13C4F200034FF020021A7045F67203C4F200034FF000021A7045F68823C4F200034FF00302F1
:404500001A7045F6DB23C4F200034FF020021A7045F65833C4F200034FF002021A7045F67603C4F200034FF044021A7007F10C07BD4680BC704700BF80B483B000AF03462D
:40454000FB71FB79092B18D8FA7945F26413C0F2000353F82220F97945F26413C0F2000353F821301978F87945F28C13C0F200031B5C41EA0303DBB2137007F10C07BD4610
:4045800080BC704780B483B000AF0346FB71FB79092B1BD8FA7945F26413C0F2000353F82220F97945F26413C0F2000353F821301978F87945F28C13C0F200031B5C6FEA71
:4045C0000303DBB201EA0303DBB2137007F10C07BD4680BC704700BF80B582B000AF72B644F2E863C4F2000344F2E862C4F200021278D2B242F00402D2B21A704FF0000321
:40460000FB702FE0FA7813464FEA430313444FEA43031A4645F29813C0F2000313447B607B681A7859784FEA012141EA020299784FEA014141EA0202DB784FEA036343EA0D
:4046400002031A467B6819795B794FEA032343EA01039BB210461946FFF720FEFB7803F10103FB70FB78082BCCD94FF0904040F27801C4F60001FFF731FE45F67203C4F2C5
:4046800000034FF440721A8045F64E03C4F2000340F203321A8045F20303C4F2010345F20302C4F201021278D2B242F00202D2B21A7045F21303C4F2010345F21302C4F2DB
:4046C00001021278D2B242F00202D2B21A7044F2A033C4F2000344F2A032C4F200021278D2B242F04002D2B21A7044F2C233C4F2000344F2C232C4F200021278D2B242F04D
:404700001002D2B21A7045F2F210C4F2000040F28C71C4F600014FF00802FFF7CFFD45F22210C4F2000040F29471C4F600014FF00802FFF7C3FD45F24210C4F2000040F2F4
:404740009C71C4F600014FF00802FFF7B7FD45F25210C4F2000040F2A471C4F600014FF00802FFF7ABFD45F26010C4F2000040F2AC71C4F600014FF00A02FFF79FFD40F6CC
:40478000DB23C4F201036FF07B021A7044F22233C4F2000344F22232C4F200021278D2B242F00802D2B21A7044F60003C4F200034FF001021A70FFF7D3FD44F60003C4F282
:4047C00000036FF07E021A7040F20403C4F208034FF001021A70FFF765FE44F2B030C4F2000044F2A031C4F200014FF00E02FFF765FD07F10807BD4680BD00BF00000000F7
:404800000230800803D000BF01380046FCD17047EFF3108072B6704780F31088704700BF224B234A1B6832F81010224A33F8103030B532F81040CD1AADB2C3EB040C85EA07
:404840000C0C1CF4004F2DD065B31C1B24B222F81010194A002CB8BF644212F800C0E4B2B4EB5C0F1EDA154A115C8C4208DD144C0131002501EBDC0C255402F800C011E029
:4048800010D00F4C14F800C0BCF1090F04D80CF1010C04F800C005E04FF0000C013904F800C01154024A22F8103030BD6881FF1F5C82FF1F8082FF1F9482FF1FA882FF1FCD
:4048C0006C82FF1F38B5284B05461B681C5CFFF7A7FF264A135D591E1155002B24D1244A24491368095D24481955244B005D1968085512681B68125DE15C5208914228BF90
:40490000E2541F4B1B681A5D184B1A55184A1D4B12681B68125D92081A55164B4FF0FF321A55154B01321A55174B124A595D174B48005B5DC0B2834204D9105D984206D97A
:40494000135504E012F804C0844588BF10550A4A01EB5101C9B29B08994228BF0B46115D994238BF135538BD5481FF1FA482FF1F5C81FF1F7482FF1F9082FF1F4881FF1FEB
:404980005881FF1F4C81FF1FA882FF1F9482FF1F70B5002237E0C45C944204D1204C1C5DA14238BF21460133DCB26445F3D31D4B1B6899541C4B1E781C4B1D6800231DE038
:4049C000E85C904219D11A48154C185C13F804C007E04FEA4C0C5FFA8CFC40004CF0010C80B26145F5D80E4C10F47F4F03F804C00F4C18BF4FF0FF3018550133D8B2B04282
:404A0000DED30132D2B20B4B1B78934207D9064B93F800C0054B186800231946C4E770BD7882FF1F5081FF1F7481FF1F5481FF1F9482FF1F7681FF1F2DE9F0419846194BCB
:404A400004461B7883422AD9174B00261B6847001954164B16491B6880251E54154B09681B681B5CCA54114B20461B68E25C45EA0202E254FEF700FCFEF70CFC0028FBD1C1
:404A80000D4B1B68DB5B434505D2084B1B68E25C22EA0502E25401366D08082EE3D1BDE8F08100BF7581FF1F6481FF1F6081FF1F5081FF1F5481FF1F6881FF1F38B5154B72
:404AC0004FF0FF321A54144BFF221B6804461D5C4DF69813FFF7B0FF104B114A1B5D12885343B3FBF5F5ADB204E00A4B6D081A5D52081A55802DF8D80A4BEDB21D550A4B04
:404B0000AD081D55094B4FF000021B6823F8142038BD00BF7882FF1F6081FF1F3C5100007281FF1F9482FF1FA882FF1F6C81FF1F10B5FEF7D3FB002409E0194B2046197807
:404B400001224FF4D973FFF777FF0134E4B2154B1B78A342F1D800230AE01349134A09681348C95C1268C908415CD1540133DBB2104A12789A42F0D8FEF7A8FB002407E0FB
:404B80000A4B20461B68195DFFF798FF0134E4B2044B1B78A342F3D8BDE81040FFF7F8BE7081FF1F7581FF1F6081FF1F6481FF1F445100007481FF1F032A2DE9F0070BD8CC
:404BC0003AB1002311F803C000F803C001339342F8D1BDE8F007704782180C46034603E014F8011C03F8011C03F003061946A44601330134002EF3D11CF00304634608BF7F
:404C0000C1EB020C68D06542C4F1040A0CEB050733464FEACA0A5CF805604FEAC408551A08E057F8044F264604FA0AF449EA0404CC5004335C18032D26FA08F9A5F104057E
:404C40000CEB0306EDDC002302E0F15CE154013319199142F9D3BCE753F8404C41F8404C53F83C4C41F83C4C53F8384C41F8384C53F8344C41F8344C53F8304C41F8304C80
:404C800053F82C4C41F82C4C53F8284C41F8284C53F8244C41F8244C53F8204C41F8204C53F81C4C41F81C4C53F8184C41F8184C53F8144C41F8144C53F8104C41F8104C34
:404CC00053F80C4C41F80C4C53F8084C41F8084C53F8044C41F8044C1C460D4640334031BCF13F0FACF1400CB6DC21462B46541B0FE051F8105C43F8105C51F80C5C43F8A3
:404D00000C5C51F8085C43F8085C51F8045C43F8045C0F2C0D469C4601F1100103F11003A4F11004E5DCCCEB0201002303E0EC584CF8034004335E19032903EB0C04A1F1A2
:404D40000401F4DC7FE700BF032AC9B230B407D822B10023C15401339342FBD130BC704700EB020C034601E003F8011C03F003041A460133002CF7D14FF00133C2EB0C045E
:404D800003FB01F31FE042F8403C42F83C3C42F8383C42F8343C42F8303C42F82C3C42F8283C42F8243C42F8203C42F81C3C42F8183C42F8143C42F8103C42F80C3C42F840
:404DC000083C42F8043C154640323F2CA4F14004D9DC2A46C5EB0C0407E042F8103C42F80C3C42F8083C42F8043C154610320F2CA4F11004F1DC2A46C5EB0C0501E042F87E
:404E0000043C14460432032DA5F10405F7DC01E004F8011B6445FBD3A0E700BF08B500F017F8074800B10068064901B109680022FBF7FAF9044B0BB1AFF30080FEE700BFDC
:404E4000000000000000000000000000FEE7000070B545F2DC1645F2DC15C0F20006C0F20005761BB61006D0002455F8243001349847A642F9D845F2DC1545F2E416C0F29E
:404E80000005C0F20006761B00F0A2F9B61006D0002455F8243001349847A642F9D870BD436F6E6E6563742034000000506C61796572203100000000506C61796572203223
:404EC00000000000696E697469616C697A696E672E2E2E00626F6172640000006D61747269780000696E7465727275707473000074696D657200000043617053656E7365ED
:404F0000000000006C6F63617465206F70706F6E656E74006C6F63616C00000072656D6F7465000055415254000000005842656500000000646973706C617900436F6E66B3
:404F4000696700002B2B2B00415049204D6F64650000000041544150310D00004368616E6E656C200000000041544348000000005265616479202020000000004154434E89
:404F80000D000000506C616365206120646973632100000047616D65204F766572000000426F6172642046756C6C0000436F6C756D6E2046756C6C0077616974696E672E87
:404FC0002E2E00007265636569766564200000005032000044656C696D697465720000004C656E67746800004150492049440000307800004672616D6520494400000000A4
:4050000044657374696E6174696F6E0044697361626C652041434B00506C617965722049440000005061636B6574205479706500526F7700436F6C756D6E000043686563FE
:405040006B73756D00000000596F752077696E2100000000636C65616E696E672E2E2E0020202020202020202020202020202020000000006572726F72000000636F6C6F02
:4050800072206D69736D617463680000202020202020200052656400477265656E00000059656C6C6F770000426C7565000000004D6167656E7461004379616E00000000D0
:4050C0005768697465000000303132333435363738394142434445462D5000402E50004028500040295000402A5000402B5000402C5000400505050505050500204001026A
:4051000004081000065200400E520040165200401E520040265200402E520040365200407E52004001020000000000000200010005010100C01F0000080000000202020277
:405140000202020001010102020203030304040404050505060606070707080808090909090A0A0A5C5100405C5100405C5100405C5100405C5100405C5100405C510040FC
:405180008B5A0040DB5A00409B5A0040204001020408100101100000004F00400C00005100402000305100401000C0510040100000000140001000140140000800400140E2
:4051C000000A004C014000020050014020000000F8B500BFF8BC08BC9E4670478100000009180000F8B500BFF8BC08BC9E4670476D00000000000000085200000881FF1F57
:4052000070000000380200000000000001010104FFFF000000366E01C05D0000180000000000E02E7F000000C8C8C8C8C8C8C800030303006464640014141400000A0A005B
:4052400001010100010000003881FF1F3C81FF1F3081FF1F24510000305100003481FF1F2881FF1F4C82FF1F8081FF1F9081FF1F0A00C22D070703000000000000000000D5
:4052800000000000000000000000000000000000000000000000000000000000000000000000000000000000000000000000000000000000000000000000000000000000EE
:4052C00000000000000000000000000000000000000000000000000000000000000000000000000000000000000000000000000000000000000000000000000000000000AE
:40530000000000000000000000000000000000000000000000000000000000000000000000000000000000000000000000000000000000000000000000000000000000006D
:40534000000000000000000000000000000000000000000000000000000000000000000000000000000000000000000000000000000000000000000000000000000000002D
:020000040003F7
:0200000480007A
:40000000024F0040035200400964004002650040020301400404014001050140030701405F0801404D090140630A0140510B0140670C01404D0D0140570E0140360F014020
:400040004D1801403B19014006400140094101400642014006430140074401400B450140044601400647014001480140034901400A5001400251014001800A4B2E7F3140B0
:40008000340309FF0FFF19FF1FFF29FF2FFF89388B1F8C0F08FF8976E603EA02B880BE40D804DF011F80AF80E210EA800201050B060607040807090E0B010C070D050F0AD0
:4000C0001201130114051602180820072606280629082A012B023008320334043503370C3E01400445014750482149FF4A0F4BFF4C404D204EF04F055008580459045A04B0
:400100005C995F01604061A86240632080028201860689018B028C068D018F0294069501970299019B029D039E06A206A404AC06B006B503B601BB02C036C102C560C72056
:40014000C822D418D604D804D904DA04DB04DD09DF01E10CE2F0E30CE50CE70CE840E94CEA40EB4CEC90ED58EF0C00840102032004820510071008400A200C100EA00F04DC
:40018000110513401680172419411C101D121E2020042340255027042F0830A03204370139A03DA83E8041044204470248044AC04F0450015301560259016080622063025F
:4001C0008C809080910C92249308941695A19608975299029B229C509D949E029F01A044A104A301A4A8A572A6C4B210C0FDC275C47DCA20CC8ECE7CD086D204D601D80D72
:40020000E210EA80000201010240030406060A180B050C060E20100114061618181019041B021C181D041E061F01201E2404264028082C1E3060321E3304340135033A0837
:400240003E113F144032410542064404450C470E481149FF4AFF4BFF4C624DA04EF04F41500C580459045A045F016640670269106A306B106D106E106F12800188038901CF
:400280008D019002930197029901A704AA03AD02AF04B301B403B506BE10BF10C034C101C5EBC7C0C823C9FFCAFFCBFFCEF0CF44D00CD602D804D904DA04DB04DC90DD90D3
:4002C000DE08DF01E6C0EA40EB02008401020208038004020510084209200A100E801008110512201340172019201A701E04200821042504261027102D802F103110328C94
:400300003604371138223DA04004425045024620474048104B504D084F015304560160806101740175017D08852090A09320941295A09608971398029A209B629C909D1C21
:400340009E039F10A040A220A381A4B1A540A644A820A940AE02AF04C05FC21FC44FCA50CCECCE35D0D7D20CDE40E4020002010203200401093E0A020D3E111C132214027B
:400380001532170C192E1A011B101D08210126022D042E023002311E3201332035013E013F104003410249FF4AFF4BFF4C024D0C4EF854015604580459045A045B045C9943
:4003C0005D095F01624863A168F06AF06CF06EF0802C82D1830184148702889C89CD8A228B308DC08E038F309430950D964C97F0988099A89A109B549D3D9FC0A155A3A8C0
:40040000A409A5CDA6F0A730B103B4E0B5FCB61FBA20C003C102C6A0C9FFCAFFCBFFCC03CD0CCEF4D804D904DA04DD09DF01E248E3A1E8F0EAF0ECF0EEF001A8034005254A
:4004400007400A100B080E1811041544160119A01D081E40208021012220230424A0260A27282A082B802C202D012E082F01308032243510364A380439A23C123D804108C0
:4004800043104508471053105C205D015E405F09640265806740801087408B80900491049210940295A29608971699019A209B029C909D309E039F20A301A4B0A648B1C02A
:4004C000C07FC266C4A4CA93CCFECEBFD066D6F0D880EA02012503DA0592072509E30A010B1C0DE00F1C1503160117FC19E31B1C1D1F1FE02D482F25300135FF3E013F10D1
:40050000580459045F018001811B86038740880389608C808F039002916094A4971B99189A039B049C039D12A00CA2D0A580A6F8A80CA920AA70AC0CAD09AE10B0E0B1187E
:40054000B23CB380B403B507B760B980BA0ABE10BF51C023C105C502C606C805D608D804D904DA04DB0CDD99DF01E10CE2F0E30CE50CE70CE840E94CEA40EB4CEC90ED5829
:40058000EF0C002004020510060207200B100C040E800F091514160117011B011D211E10200425042602270A29402C142D202F0130A0320435113648370139A23B043D1CE4
:4005C0003E303F81452047084E024F0857405D80640167017C808801C0F2C2F4C4F0CA78CCFECEFFD060D210D610D810DE100A011C02280232013402382040534540460275
:400600004705481649FF4AFF4BFF4C024D204F055110521758045A045B045C095D995F01604061406280648066808019811C820483A18604874089108DBF901D934094056C
:4006400095089618980299A79A189B189D3C9F82A019A104A204A410A723A808AB18AC02AF04B001B180B338B403B540B61CB71FB820B902BA80BB80BE01BF10D602D71327
:40068000D804D904DB04DF01010103A005100A280B400F021048138A160819211A081B801D141E082221231229622B2030483211382039013B4845044F8256085740590192
:4006C00068A069A06F1970187120738875809220934895A19608971099429C409D849F11A104A320A4A8A520A624A708C04CC28EC44FCA0FCC0FCE0FD040D210D60132805B
:40070000330837823B40CCF0CE108308874097409F02A680A708AF80E6C0EA40128063029F02A680C410D6408F0298209F02AF01B020EE100102072063408910C00CD802F6
:40074000E40489029120974099029E40AF20B102B240E201EA01EE018740912097409E400240392091209E40C008CE08982078209820DE40000101010C010D010E010F017C
:40078000100111011C011D0100FE01030000000000002000007F7F000000000000FCFC000000000000007F00000000004200014E4C00400000000000000000000000000027
:4007C00000000000000000000000000000000000000000000000000000000000000000000000000000000000000000000000000000000000000000000000000000000000F9
:4008000000000000000000000000000000000000000000000000000000000000000000000000000000000000000000000000000000000000000000000000000000000000B8
:400840000000000000000000000000000000000000000000000000000000000000000000000000000000000000000000000000000000000000000000000000000000000078
:400880000000000000000000000000000000000000000000000000000000000000000000000000000000000000000000000000000000000000000000000000000000000038
:0200000490006A
:0400000000004005B7
:0200000490105A
:04000000BC90ACAF55
:0200000490303A
:0200000092422A
:0200000490501A
:0C00000000012E12306900012E39C2AB45
:0200000490402A
:4000000000000000000000000000000000000000000000000000000000000000000000000000000000000000000000000000000000000000000000000000000000000000C0
:400040000000000000000000000000000000000000000000000000000000000000000000000000000000000000000000000000000000000000000000000000000000000080
:400080000000000000000000000000000000000000000000000000000000000000000000000000000000000000000000000000000000000000000000000000000000000040
:4000C0000000000000000000000000000000000000000000000000000000000000000000000000000000000000000000000000000000000000000000000000000000000000
:00000001FF
