:1000000000800020C5010000BD010000BD0100000E
:1000100080B51448144B21E05C689968DD688C4217
:100020000CD0002205E0A6180832D6E9008941E983
:1000300002898C460831AA42F5D101E004EB050C97
:100040001C696146002204E008320026002741E9CD
:1000500002670831A242F7D1143301380028DBD1FE
:1000600001F092F8010000008C12000048F2201309
:10007000C1F6FF731A780AB901201870704700BFE3
:1000800048F20810C1F6FF7008B503682BB140F2C2
:100090000003C0F2000303B1984708BD80B400AF6D
:1000A00048F22413C1F6FF731B78002B0CD048F2E2
:1000B0002213C1F6FF731B8803F101039AB248F2C1
:1000C0002213C1F6FF731A80BD4680BC704700BF83
:1000D00080B582B000AF4FF00503FB7111E04FF027
:1000E00001004FF0000100F0F3F9FB79184600F031
:1000F0001BFC4FF47A7000F003FDFB7903F1FF3332
:10010000FB71FB79002BEAD107F10807BD4680BDE2
:1001100080B500AF00F0C6F94FF000004FF00001CD
:1001200000F0D6F941F20C20C0F2000000F00AFA0B
:1001300062B640F29D00C0F2000000F07DFC00F0CD
:10014000EFF84FF000004FF0000100F0C1F941F26C
:100150001C20C0F2000000F0F5F948F22413C1F6AB
:10016000FF734FF001021A70FFF7B2FF40F6DB3069
:1001700000F008F9FFF7ACFF48F22413C1F6FF7353
:100180004FF000021A704FF001004FF0000100F034
:100190009FF941F23020C0F2000000F0D3F94FF097
:1001A00001004FF0080100F093F948F22213C1F664
:1001B000FF731B88184600F0B7FBFEE780B400AF62
:1001C000FEE700BF054B1C7844F001041C70044B93
:1001D0001A78D2B2034B1A70FFF71AFFE8460040B4
:1001E000FA460040BC76004080B582B000AF4EF6C3
:1001F0000C53CEF2000340F20042C0F2FA521A60F1
:100200004EF61453CEF200034EF61452CEF2000214
:10021000126842F400721A604FF000037B6019E02C
:1002200079687B68032B07D87A6840F20003C0F234
:10023000000353F8223003E040F2BD13C0F2000384
:1002400048F20002C1F6FF7242F821307B6803F1E8
:1002500001037B607B682F2BE2D947F2BC63C4F2B9
:1002600000031B78DAB248F22913C1F6FF731A7043
:100270004EF60853CEF2000348F20002C1F6FF72B8
:100280001A6000F083FD48F20013C1F6FF734FF0CF
:1002900000021A6007F10807BD4680BD80B582B034
:1002A00000AF4FF6FF7000F06DF84FF6FF7000F0F2
:1002B00085F800F01DFC0346FB7146F29553C4F22D
:1002C000000346F29552C4F200021278D2B242F014
:1002D0001002D2B21A70FB79184600F00DFC00F043
:1002E0007DF84FF0000000F031F807F10807BD4637
:1002F00080BD00BF80B400AF46F27553C4F2000366
:1003000046F27552C4F200021278D2B26FEA42622B
:100310006FEA5262D2B21A70BD4680BC704700BF0D
:1003200080B500AF48F22613C1F6FF731B78002B8F
:1003300008D1FFF7B3FF48F22613C1F6FF734FF061
:1003400001021A70FFF7D6FF80BD00BF80B483B0F2
:1003500000AF0346FB7146F28553C4F20003FA79FD
:100360001A7007F10C07BD4680BC704780B400AF1F
:1003700046F26553C4F200031B78DBB21846BD4653
:1003800080BC704780B483B000AF0346FB8046F664
:100390004823C4F20003FA881A8007F10C07BD460F
:1003A00080BC704780B400AF46F68823C4F20003D7
:1003B0001B889BB21846BD4680BC704780B483B092
:1003C00000AF0346FB8046F60823C4F20003FA8818
:1003D0001A8007F10C07BD4680BC704780B500AF9E
:1003E00001E0FFF7DFFFFFF7C1FF034603F008035B
:1003F000002BF6D180BD00BF80B500AF4FF02800C4
:1004000000F07EFB4FF0030000F048FA4FF00500CB
:1004100000F076FB4FF0030000F040FA4FF00F00C1
:1004200000F06EFB4FF0030000F038FA4FF00100CF
:1004300000F066FB4FF0020000F030FA4FF00500CC
:1004400000F05EFB4FF0060000F0B8F84FF00E0031
:1004500000F0B4F84FF02C0000F0B0F84FF00800B6
:1004600000F0ACF84FF0010000F0A8F84FF00C00DD
:1004700000F0A4F84FF0030000F0A0F84FF00500E2
:1004800000F03EFB80BD00BF80B500AF4FF00C0018
:1004900000F094F848F22713C1F6FF734FF0010201
:1004A0001A7080BD80B500AF48F22813C1F6FF7303
:1004B0001B78002B08D1FFF79FFF48F22813C1F6E5
:1004C000FF734FF001021A70FFF7DEFF80BD00BF1F
:1004D00080B582B000AF02460B46FA71BB71FB7962
:1004E000032B2AD801A252F823F000BFFD0400001C
:1004F0000D0500001D0500002D050000BB79A3F1CE
:100500008003DBB2184600F059F816E0BB79A3F17E
:100510004003DBB2184600F051F80EE0BB79A3F1BE
:100520006C03DBB2184600F049F806E0BB79A3F192
:100530002C03DBB2184600F041F807F10807BD466E
:1005400080BD00BF80B584B000AF78604FF001037C
:10055000BB737B681B78FB730CE0FB7B184600F0D9
:1005600011F8BA7B7B6813441B78FB73BB7B03F1E8
:100570000103BB73FB7B002BEFD107F11007BD46D6
:1005800080BD00BF80B584B000AF0346FB7100F0B2
:1005900031F8FB794FEA1313FB73FB7B184600F02D
:1005A00027F9FB7903F00F03FB73FB7B184600F080
:1005B0001FF907F11007BD4680BD00BF80B584B0AC
:1005C00000AF0346FB7100F015F8FB794FEA1313F7
:1005D000FB73FB7B184600F061F9FB7903F00F0316
:1005E000FB73FB7B184600F059F907F11007BD4675
:1005F00080BD00BF80B582B000AF45F20013C4F2E9
:10060000000345F20012C4F200021278D2B202F0E6
:1006100080021A7045F20213C4F200031B78DBB2A9
:1006200023F00F03FB7145F20213C4F20003FA79C1
:1006300042F00F02D2B21A7045F20313C4F2000363
:100640001B78DBB223F00F03FB7145F20313C4F2F6
:100650000003FA791A7045F20413C4F200031B7800
:10066000DBB223F00F03FB7145F20413C4F2000365
:10067000FA791A7045F20013C4F2000345F2001231
:10068000C4F200021278D2B202F0DF021A7045F210
:100690000013C4F2000345F20012C4F20002127803
:1006A000D2B242F04002D2B21A704FF0000000F015
:1006B0004BFA45F20013C4F2000345F20012C4F2F3
:1006C00000021278D2B242F01002D2B21A704FF089
:1006D000010000F039FA45F20113C4F200031B785F
:1006E000FB7145F20013C4F2000345F20012C4F29C
:1006F00000021278D2B202F0EF021A704FF000003E
:1007000000F022FAFB7903F00803FB7145F20013B5
:10071000C4F2000345F20012C4F200021278D2B211
:1007200042F01002D2B21A704FF0010000F00CFA41
:1007300045F20013C4F2000345F20012C4F20002B5
:100740001278D2B202F0EF021A70FB79002BACD112
:1007500045F20013C4F2000345F20012C4F2000295
:100760001278D2B202F0BF021A7045F20013C4F23E
:10077000000345F20012C4F200021278D2B202F075
:1007800080021A7045F20213C4F2000345F202120D
:10079000C4F200021278D2B202F0F0021A7045F2EE
:1007A0000313C4F200031B78DBB223F00F03FB71C9
:1007B00045F20313C4F20003FA7942F00F02D2B2F9
:1007C0001A7045F20413C4F200031B78DBB223F065
:1007D0000F03FB7145F20413C4F20003FA7942F0EF
:1007E0000F02D2B21A7007F10807BD4680BD00BFE4
:1007F00080B582B000AF0346FB71FFF7FBFE45F208
:100800000013C4F2000345F20012C4F20002127891
:10081000D2B242F02002D2B21A7045F20013C4F2F2
:10082000000345F20012C4F200021278D2B202F0C4
:10083000BF021A7045F20013C4F2000345F2001221
:10084000C4F200021278D2B202F0F0021A7045F23D
:100850000013C4F2000345F20012C4F20002127841
:10086000D1B2FA7941EA0202D2B242F01002D2B217
:100870001A704FF0010000F067F945F20013C4F25E
:10088000000345F20012C4F200021278D2B202F064
:10089000EF021A7007F10807BD4680BD80B582B02F
:1008A00000AF0346FB7145F20013C4F2000345F2AA
:1008B0000012C4F200021278D2B202F09F021A7043
:1008C00045F20013C4F2000345F20012C4F2000224
:1008D0001278D2B202F0F0021A7045F20013C4F29C
:1008E000000345F20012C4F200021278D1B2FA7984
:1008F00041EA0202D2B242F01002D2B21A704FF0B4
:10090000010000F021F945F20013C4F2000345F2A2
:100910000012C4F200021278D2B202F0EF021A7092
:1009200007F10807BD4680BD80B586B000AF03461D
:10093000FB804FF00003BB752AE0B87DFA884CF6C7
:10094000CD43CCF6CC43A3FB02134FEAD3010B46B5
:100950004FEA83030B444FEA4303C3EB02039BB20A
:10096000DBB203F13003DAB207F1180101EB000347
:1009700003F8102CFA884CF6CD43CCF6CC43A3FBFD
:1009800002134FEAD303FB80BB7D03F10103BB7568
:10099000FB88092BD1D8B87DFA884CF6CD43CCF62C
:1009A000CC43A3FB02134FEAD3010B464FEA830368
:1009B0000B444FEA4303C3EB02039BB2DBB203F1E8
:1009C0003003DAB207F1180101EB000303F8102C31
:1009D000BB7DFB7512E0FA7DBB7DC3EB0203BA7DE4
:1009E00007F118010A4412F8102C07F118010B4402
:1009F00003F8082CBB7D03F1FF33BB75BB7D002BD7
:100A0000E9D1FB7D3A7A07F118010B4403F8082C71
:100A1000FB7D03F1010307F1180213444FF00002BC
:100A200003F8082C07F110031846FFF78BFD07F1B8
:100A30001807BD4680BD00BF80B582B000AF7860AA
:100A400000F042F8786800F00BF84FF0070000F073
:100A50001BF800F02DF807F10807BD4680BD00BF68
:100A600080B485B000AF78604EF60853CEF2000334
:100A70001B68FB60FB6803F140037A681A6007F1AA
:100A80001407BD4680BC704780B483B000AF0346F6
:100A9000FB714EF20043CEF20003FA794FEA4212A4
:100AA000D2B21A7007F10C07BD4680BC704700BF78
:100AB00080B400AF4EF20013CEF200034FF00102FB
:100AC0001A60BD4680BC704780B400AF4EF2801300
:100AD000CEF200034FF001021A60BD4680BC7047A1
:100AE0000230800803D000BF01380046FCD17047B7
:100AF000EFF3108072B6704780F31088704700BF24
:100B000080B582B000AF78600BE048F21813C1F6F0
:100B1000FF731B681846FFF7E3FF7B68A3F50043EC
:100B20007B607B68B3F5004FEFD848F21013C1F635
:100B3000FF731B687A6802FB03F31846FFF7D0FFC8
:100B400007F10807BD4680BD80B582B000AF0346FF
:100B5000FB80FA8848F21413C1F6FF731B7803FB7D
:100B600002F31846FFF7BCFF07F10807BD4680BD3A
:100B700080B582B000AF7860396078684FF00001CE
:100B80003A6800F097FA07F10807BD4680BD00BF3C
:100B900080B584B000AFF860B9607A60F868B96871
:100BA0007A6800F0BFF907F11007BD4680BD00BFAD
:100BB00080B487B000AF786039604FF00003FB600D
:100BC0004FF00003BB602CE0BB684FEA83027B68F8
:100BD00013441B683B613B69FB753B6923F0FF03D2
:100BE0003B6117E0FB684FEA43023B6813441B7804
:100BF0001A463B691344FA684FEA42013A680A44CC
:100C000052781A70FB6803F10103FB60FB7D03F16E
:100C1000FF33FB75FB7D002BE4D1BB6803F10103BF
:100C2000BB60BB680A2BCFD907F11C07BD4680BC4F
:100C3000704700BF80B582B000AF44F20033C4F209
:100C400000034FF002021A7044F20003C4F20003E2
:100C50004FF008021A7044F20023C4F200034FF070
:100C600003021A7044F2A163C4F2000340F20812B6
:100C7000C4F600121278D2B21A7044F22223C4F2DF
:100C800000034FF008021A8044F22023C4F200034C
:100C900041F251021A804FF00003FB714FF019032B
:100CA0003B6019E0FB794FEA4303DAB244F22523B3
:100CB000C4F200031B78DBB203F0010342EA030332
:100CC000DBB203F00303FB714FF4F070FFF708FF92
:100CD0003B6803F1FF333B603B68002B02D0FB799C
:100CE000032BDFD144F20403C4F200034FF48072FB
:100CF0001A8044F20403C4F200034FF007021A7092
:100D000044F20603C4F200034FF000021A7044F2EA
:100D10000803C4F200034FF048021A7044F20403BF
:100D2000C4F200034FF000021A7044F20103C4F24F
:100D300000034FF002021A7007F10807BD4680BD9C
:100D400080B483B000AF40F2CF13C4F600131B7819
:100D5000FB7145F66E03C4F20003FA7902F0070254
:100D60001A7045F66F03C4F20003FA794FEA1212C3
:100D7000D2B21A7045F67603C4F200034FF0440273
:100D80001A7007F10C07BD4680BC704780B582B071
:100D900000AF72B644F2E863C4F2000344F2E862C2
:100DA000C4F200021278D2B242F00402D2B21A7037
:100DB0004FF00003FB702FE0FA7813464FEA43032D
:100DC00013444FEA43031A4641F23823C0F20003AA
:100DD00013447B607B681A7859784FEA012141EA15
:100DE000020299784FEA014141EA0202DB784FEAB8
:100DF000036343EA02031A467B6819795B794FEA79
:100E0000032343EA01039BB210461946FFF7B0FEE5
:100E1000FB7803F10103FB70FB78072BCCD94FF073
:100E2000904040F22C01C4F60001FFF7C1FE45F2EC
:100E30000303C4F2010345F20302C4F20102127873
:100E4000D2B242F00202D2B21A7045F21303C4F2D7
:100E5000010345F21302C4F201021278D2B242F049
:100E60000202D2B21A7044F2A033C4F2000344F278
:100E7000A032C4F200021278D2B242F04002D2B2E2
:100E80001A7044F2C233C4F2000344F2C232C4F214
:100E900000021278D2B242F01002D2B21A7045F2B9
:100EA0000210C4F2000040F2D801C4F600014FF075
:100EB0000802FFF76DFE44F22233C4F2000344F24D
:100EC0002232C4F200021278D2B242F00802D2B248
:100ED0001A7044F60003C4F200034FF001021A70C6
:100EE000FFF7A8FE44F60003C4F200036FF07E0291
:100EF0001A7040F20403C4F208034FF001021A70A2
:100F0000FFF71EFF44F2B030C4F2000044F2A031FB
:100F1000C4F200014FF00E02FFF73AFE07F1080796
:100F2000BD4680BD032A2DE9F0070BD83AB1002356
:100F300011F803C000F803C001339342F8D1BDE8B3
:100F4000F007704782180C46034603E014F8011CB2
:100F500003F8011C03F003061946A44601330134CB
:100F6000002EF3D11CF00304634608BFC1EB020C52
:100F700068D06542C4F1040A0CEB050733464FEA1A
:100F8000CA0A5CF805604FEAC408551A08E057F829
:100F9000044F264604FA0AF449EA0404CC50043308
:100FA0005C18032D26FA08F9A5F104050CEB0306DD
:100FB000EDDC002302E0F15CE154013319199142A8
:100FC000F9D3BCE753F8404C41F8404C53F83C4C43
:100FD00041F83C4C53F8384C41F8384C53F8344CF9
:100FE00041F8344C53F8304C41F8304C53F82C4C09
:100FF00041F82C4C53F8284C41F8284C53F8244C19
:1010000041F8244C53F8204C41F8204C53F81C4C28
:1010100041F81C4C53F8184C41F8184C53F8144C38
:1010200041F8144C53F8104C41F8104C53F80C4C48
:1010300041F80C4C53F8084C41F8084C53F8044C58
:1010400041F8044C1C460D4640334031BCF13F0F83
:10105000ACF1400CB6DC21462B46541B0FE051F896
:10106000105C43F8105C51F80C5C43F80C5C51F8D0
:10107000085C43F8085C51F8045C43F8045C0F2CEE
:101080000D469C4601F1100103F11003A4F1100478
:10109000E5DCCCEB0201002303E0EC584CF8034004
:1010A00004335E19032903EB0C04A1F10401F4DC01
:1010B0007FE700BF032AC9B230B407D822B10023AA
:1010C000C15401339342FBD130BC704700EB020C9A
:1010D000034601E003F8011C03F003041A46013340
:1010E000002CF7D14FF00133C2EB0C0403FB01F3EA
:1010F0001FE042F8403C42F83C3C42F8383C42F8A1
:10110000343C42F8303C42F82C3C42F8283C42F84F
:10111000243C42F8203C42F81C3C42F8183C42F87F
:10112000143C42F8103C42F80C3C42F8083C42F8AF
:10113000043C154640323F2CA4F14004D9DC2A4639
:10114000C5EB0C0407E042F8103C42F80C3C42F8B6
:10115000083C42F8043C154610320F2CA4F1100450
:10116000F1DC2A46C5EB0C0501E042F8043C1446CC
:101170000432032DA5F10405F7DC01E004F8011B9E
:101180006445FBD3A0E700BF08B500F017F8074897
:1011900000B10068064901B109680022FEF7B8FFF6
:1011A000044B0BB1AFF30080FEE700BF000000006E
:1011B0000000000000000000FEE7000070B541F2F2
:1011C000742641F27425C0F20006C0F20005761BB9
:1011D000B61006D0002455F8243001349847A642B2
:1011E000F9D841F2742541F27C26C0F20005C0F224
:1011F0000006761B00F038F8B61006D0002455F82B
:0C120000243001349847A642F9D870BD94
:10120C00696E697469616C697A696E672E2E2E003D
:10121C0074657374696E672074696D65722E2E2EF9
:10122C0000000000646F6E6500000000105100406B
:10123C006000C05100401000F05100401000000050
:10124C000140001000140140000800400140000A59
:10125C00004C01400002005001402000F8B500BFD6
:10126C00F8BC08BC9E46704781000000E9010000F4
:10127C00F8B500BFF8BC08BC9E4670476D00000076
:10128C0000000000A01200000881FF1F18000000E1
:04129C00100000003E
:1012A0000000000000366E01C05D00001800000064
:0812B0000000E02E0000000028
:04000003000001C533
:00000001FF
