:10000000008000202D0900002509000025090000BE
:1000100080B51448144B21E05C689968DD688C4217
:100020000CD0002205E0A6180832D6E9008941E983
:1000300002898C460831AA42F5D101E004EB050C97
:100040001C696146002204E008320026002741E9CD
:1000500002670831A242F7D1143301380028DBD1FE
:1000600003F014FA010000001C37000048F2781376
:10007000C1F6FF731A780AB901201870704700BFE3
:1000800048F20810C1F6FF7008B503682BB140F2C2
:100090000003C0F2000303B1984708BD80B582B0E9
:1000A00000AF4FF040037B6095E048F20023C1F6BB
:1000B000FF731B7803F10103DAB248F20023C1F6A3
:1000C000FF731A7048F20023C1F6FF731B78082BE8
:1000D00021D948F20023C1F6FF734FF000021A70D5
:1000E00048F24423C1F6FF731B7803F10103DAB22F
:1000F00048F24423C1F6FF731A7048F24423C1F654
:10010000FF731B78082B06D948F24423C1F6FF730E
:100110004FF000021A7048F24423C1F6FF731B78B7
:10012000194648F20023C1F6FF731B781A4648F2BD
:10013000C013C1F6FF734FEAC1010A4413441B7890
:10014000002B18D000F004FB48F24423C1F6FF73E3
:100150001B78194648F20023C1F6FF731B781A4634
:1001600048F20C13C1F6FF731B78084611461A4675
:1001700000F056FA3CE048F24423C1F6FF731B78C6
:10018000194648F20023C1F6FF731B781A4648F25D
:100190000423C1F6FF734FEAC1010A4413441B78DC
:1001A000002B18D000F0D4FA48F24423C1F6FF73B4
:1001B0001B78194648F20023C1F6FF731B781A46D4
:1001C00048F20D13C1F6FF731B78084611461A4614
:1001D00000F026FA0CE07B68002BD4BF002301233B
:1001E000DBB27A6802F1FF327A60002B7FF45DAFF8
:1001F00007F10807BD4680BD80B584B000AF00F0B0
:1002000031FD43F21050C0F2000000F0DDF943F27E
:100210002050C0F2000000F0EDF94FF0000000F0B7
:10022000ABFA00F095FA43F22850C0F2000000F05B
:10023000E1F94FF000033B6028E04FF000037B60E2
:100240001DE039687A6848F2C013C1F6FF734FEABF
:10025000C1010A4413444FF000021A7039687A68E9
:1002600048F20423C1F6FF734FEAC1010A44134464
:100270004FF000021A707B6803F101037B607B681A
:10028000072BDEDD3B6803F101033B603B68072B76
:10029000D3DD43F23050C0F2000000F0ABF948F279
:1002A0000023C1F6FF734FF0FF321A7048F20023AB
:1002B000C1F6FF731A7848F24423C1F6FF731A702F
:1002C00062B640F29D00C0F2000002F0CDFA43F2A7
:1002D0003C50C0F2000000F08DF901F0D3F801F0BD
:1002E00095FB43F24850C0F2000000F083F902F0A1
:1002F0004FFA4FF4FA5002F07DFA43F25050C0F238
:10030000000000F077F94FF002033B6054E04FF03B
:1003100000037B6049E03B6803F00103002B20D120
:100320007B6803F00103002B0DD139687A6848F22D
:10033000C013C1F6FF734FEAC1010A4413444FF0E2
:1003400001021A702DE039687A6848F20423C1F678
:10035000FF734FEAC1010A4413444FF001021A70BF
:100360001FE07B6803F00103002B0DD139687A6828
:1003700048F20423C1F6FF734FEAC1010A44134453
:100380004FF001021A700CE039687A6848F2C01325
:10039000C1F6FF734FEAC1010A4413444FF0010252
:1003A0001A707B6803F101037B607B68072BB2DD69
:1003B0003B6803F101033B603B68072BA7DD48F274
:1003C0000423C1F6FF734FF001021A7348F2C01301
:1003D000C1F6FF734FF001025A7348F20423C1F6CD
:1003E000FF734FF001029A7348F2C013C1F6FF7316
:1003F0004FF00102DA7348F20423C1F6FF734FF0A5
:1004000001025A7043F25850C0F2000000F0DCF8CC
:1004100048F20E13C1F6FF731B78002B00F0B78073
:1004200043F26850C0F2000000F0E4F84FF000031F
:100430007B7213E07B7A03F101037B727B7A072BDB
:100440000CD943F27850C0F2000000F0BDF843F23E
:100450008450C0F2000000F0CDF8FEE77A7A48F24E
:10046000C013C1F6FF7313441B7A002BE2D17A7AD2
:1004700048F20423C1F6FF7313441B7A002BD9D131
:100480004FF00003BB7201F0B7FB01F097F801F0E9
:10049000D5F80346002BFAD14FF0010001F0A4FC7F
:1004A0000346002B13D07A7A48F2C013C1F6FF73CB
:1004B00013441B7A002B06D043F29050C0F2000088
:1004C00000F098F85BE04FF00103BB7257E07A7AD6
:1004D00048F2C013C1F6FF734FF0000199544FF07A
:1004E000000001F0D9FD03461A4613464FEAC30344
:1004F000C2EB030240F2EB73C1F21D5383FB021304
:100500004FEAE3014FEAE273C3EB0103FB72FB7AAC
:10051000072B01D8FB7A7B724FF00103FB6014E0DC
:100520007B7A062B02D94FF0FF33FB607B7A002BDE
:1005300006D1FB68B3F1FF3F02D14FF00103FB602E
:10054000FB68DAB27B7A13447B727A7A48F2C01382
:10055000C1F6FF7313441B7A002BE1D17A7A48F27B
:100560000423C1F6FF7313441B7A002BD8D17A7A87
:1005700048F2C013C1F6FF734FF001019954BB7AE2
:1005800083F00103DBB2002B7FF47DAF40E743F241
:100590009C50C0F2000000F02DF839E780B582B021
:1005A00000AF78607B68DBB218464FF0000100F0C6
:1005B0006FFB43F2AC50C0F2000000F0A3FB07F168
:1005C0000807BD4680BD00BF80B582B000AF78602F
:1005D0004FF0010000F0E0FB4FF000004FF0000191
:1005E00000F056FB786800F08DFB07F10807BD4668
:1005F00080BD00BF80B582B000AF78604FF00100D1
:10060000FFF7CCFF4FF001004FF0000100F040FB7E
:10061000786800F077FB07F10807BD4680BD00BF92
:1006200080B586B000AFF860B9601346FB714FF03B
:100630000103BB754FF00103FB7503E0BB7D4FEA7F
:100640004303BB75FB68002BD4BF00230123DBB23F
:10065000FA6802F1FF32FA60002BEFD1BB7D184639
:1006600000F0D0F903E0FB7D4FEA4303FB75BB6864
:10067000002BD4BF00230123DBB2BA6802F1FF32A2
:10068000BA60002BEFD1FB7D6FEA0303FB75FB79AA
:1006900003F1FF33062B49D801A252F823F000BF23
:1006A000BD060000C7060000D1060000E3060000FA
:1006B000ED060000FF06000011070000FB7D184654
:1006C00000F0B0F93FE0FB7D184600F0BBF93AE0DE
:1006D000FB7D184600F0A6F9FB7D184600F0B2F944
:1006E00031E0FB7D184600F0BDF92CE0FB7D18469B
:1006F00000F098F9FB7D184600F0B4F923E0FB7D8B
:10070000184600F09FF9FB7D184600F0ABF91AE09F
:10071000FB7D184600F086F9FB7D184600F092F943
:10072000FB7D184600F09EF900BF0CE043F2C0507C
:10073000C0F20000FFF748FF43F2C850C0F20000CB
:10074000FFF758FFFEE707F11807BD4680BD00BF61
:1007500080B500AF4FF0000000F054F94FF0FF00FB
:1007600000F060F94FF0FF0000F06CF94FF0FF006F
:1007700000F078F980BD00BF80B584B000AF0346BB
:10078000FB71FFF7E5FF4FF001037B73C2E04FF011
:100790000003BB73ADE04FF00003FB73A1E04FF02B
:1007A0000100FFF7FBFE4FF001004FF0000100F0E9
:1007B0006FFABB7B184600F0A5FC4FF001004FF02C
:1007C000010100F065FA4FF02C0000F0BBFA4FF089
:1007D00001004FF0020100F05BFAFB7B184600F0CD
:1007E00091FC4FF001004FF0040100F051FA43F288
:1007F000D850C0F2000000F085FA4FF001004FF031
:10080000040100F045FA7B7B03F1FF33062B42D84D
:1008100001A252F823F000BF350800004308000091
:10082000510800005F0800006D0800007B08000010
:100830008908000043F2E050C0F2000000F062FAC4
:1008400036E043F2E450C0F2000000F05BFA2FE023
:1008500043F2EC50C0F2000000F054FA28E043F2FA
:10086000F450C0F2000000F04DFA21E043F2FC50D9
:10087000C0F2000000F046FA1AE043F20460C0F251
:10088000000000F03FFA13E043F20C60C0F20000F9
:1008900000F038FA0CE043F2C050C0F20000FFF75D
:1008A00093FE43F2C850C0F20000FFF7A3FEFEE73C
:1008B000B97BFA7B7B7B084611461A46FFF7B0FEF0
:1008C000FB79002B02D04FF07D0301E04FF00503D0
:1008D000184600F0E3F8FFF73BFFFB7B03F1010351
:1008E000FB73FB7B072B7FF65AAFBB7B03F1010346
:1008F000BB73BB7B072B7FF64EAFFB79002B04D07D
:100900007B7B03F10103DBB203E07B7B4FEA430314
:10091000DBB27B737B7B072B7FF639AF07F11007C8
:10092000BD4680BD80B400AFFEE700BF054B1C781C
:1009300044F001041C70044B1A78D2B2034B1A70B5
:10094000FFF766FBE8460040FA460040BC760040F0
:1009500080B582B000AF4EF60C53CEF2000340F2E9
:100960000042C0F2FA521A604EF61453CEF200035F
:100970004EF61452CEF20002126842F400721A606F
:100980004FF000037B6019E079687B68032B07D880
:100990007A6840F20003C0F2000353F8223003E00B
:1009A00040F62513C0F2000348F20002C1F6FF72C0
:1009B00042F821307B6803F101037B607B682F2BB9
:1009C000E2D947F2BC63C4F200031B78DAB248F202
:1009D0004523C1F6FF731A704EF60853CEF200039A
:1009E00048F20002C1F6FF721A6002F013F948F2F1
:1009F0000013C1F6FF734FF000021A6007F10807F9
:100A0000BD4680BD80B483B000AF0346FB7146F2A3
:100A10007643C4F20003FA791A7007F10C07BD4659
:100A200080BC704780B483B000AF0346FB7146F2D0
:100A30007543C4F20003FA791A7007F10C07BD463A
:100A400080BC704780B483B000AF0346FB7146F2B0
:100A50007443C4F20003FA791A7007F10C07BD461B
:100A600080BC704780B483B000AF0346FB7146F290
:100A70007553C4F20003FA791A7007F10C07BD46EA
:100A800080BC704780B483B000AF0346FB7101BEE9
:100A900007F10C07BD4680BC704700BF80B582B02F
:100AA00000AF78600BE048F21C13C1F6FF731B68BF
:100AB000184602F0DDF97B68A3F500437B607B6894
:100AC000B3F5004FEFD848F21413C1F6FF731B685B
:100AD0007A6802FB03F3184602F0CAF907F1080727
:100AE000BD4680BD80B582B000AF0346FB80FA886A
:100AF00048F21813C1F6FF731B7803FB02F3184684
:100B000002F0B6F907F10807BD4680BD80B584B094
:100B100000AF03463960FB714EF60853CEF2000376
:100B20001B68FB60FB791F2B03D94FF00000FFF718
:100B3000A9FFFB7903F01F0303F110034FEA8302BF
:100B4000FB6813441B68BB60FB7903F01F0303F1D0
:100B500010034FEA8302FB6813443A681A60BB68CB
:100B6000184607F11007BD4680BD00BF80B582B0B2
:100B700000AF02460B46FA71BB71BB79072B03D954
:100B80004FF00000FFF77EFFFB791F2B03D94FF0DA
:100B90000000FFF777FFFB7903F01F0303F16043C9
:100BA00003F56443BA794FEA4212D2B21A7007F1E0
:100BB0000807BD4680BD00BF80B500AF4FF02800DC
:100BC000FFF76CFF4FF0030000F056FA4FF00500FE
:100BD000FFF764FF4FF0030000F04EFA4FF00F00F4
:100BE000FFF75CFF4FF0030000F046FA4FF0010002
:100BF000FFF754FF4FF0020000F03EFA4FF00500FF
:100C0000FFF74CFF4FF0060000F0C6F84FF00E0063
:100C100000F0C2F84FF02C0000F0BEF84FF00800D2
:100C200000F0BAF84FF0010000F0B6F84FF00C00F9
:100C300000F0B2F84FF0030000F0AEF84FF00500FE
:100C4000FFF72CFF80BD00BF80B500AF4FF00C0058
:100C500000F0A2F848F27913C1F6FF734FF00102D9
:100C60001A7080BD80B500AF48F27A13C1F6FF73E9
:100C70001B78002B08D1FFF79FFF48F27A13C1F6CB
:100C8000FF734FF001021A70FFF7DEFF80BD00BF57
:100C900080B582B000AF02460B46FA71BB71FB799A
:100CA000032B2AD801A252F823F000BFBD0C00008C
:100CB000CD0C0000DD0C0000ED0C0000BB79A3F1B1
:100CC0008003DBB2184600F067F816E0BB79A3F1A9
:100CD0004003DBB2184600F05FF80EE0BB79A3F1E9
:100CE0006C03DBB2184600F057F806E0BB79A3F1BD
:100CF0002C03DBB2184600F04FF807F10807BD4699
:100D000080BD00BF80B584B000AF78604FF00103B4
:100D1000BB737B681B78FB730CE0FB7B184600F011
:100D20001FF8BA7B7B6813441B78FB73BB7B03F112
:100D30000103BB73FB7B002BEFD107F11007BD460E
:100D400080BD00BF80B582B000AF0346FB71FB7968
:100D5000184600F005F807F10807BD4680BD00BF42
:100D600080B584B000AF0346FB7100F031F8FB7929
:100D70004FEA1313FB73FB7B184600F027F9FB794E
:100D800003F00F03FB73FB7B184600F01FF907F11C
:100D90001007BD4680BD00BF80B584B000AF0346DC
:100DA000FB7100F015F8FB794FEA1313FB73FB7B23
:100DB000184600F061F9FB7903F00F03FB73FB7B2E
:100DC000184600F059F907F11007BD4680BD00BF75
:100DD00080B582B000AF45F22013C4F2000345F2A3
:100DE0002012C4F200021278D2B202F080021A700D
:100DF00045F22213C4F200031B78DBB223F00F0389
:100E0000FB7145F22213C4F20003FA7942F00F029B
:100E1000D2B21A7045F22313C4F200031B78DBB27E
:100E200023F00F03FB7145F22313C4F20003FA7998
:100E30001A7045F22413C4F200031B78DBB223F0CE
:100E40000F03FB7145F22413C4F20003FA791A7000
:100E500045F22013C4F2000345F22012C4F200024E
:100E60001278D2B202F0DF021A7045F22013C4F2F7
:100E7000000345F22012C4F200021278D2B242F00E
:100E80004002D2B21A704FF00000FFF72BFE45F27D
:100E90002013C4F2000345F22012C4F200021278BB
:100EA000D2B242F01002D2B21A704FF00100FFF736
:100EB00019FE45F22113C4F200031B78FB7145F2C1
:100EC0002013C4F2000345F22012C4F2000212788B
:100ED000D2B202F0EF021A704FF00000FFF702FEEC
:100EE000FB7903F00803FB7145F22013C4F2000301
:100EF00045F22012C4F200021278D2B242F010027F
:100F0000D2B21A704FF00100FFF7ECFD45F220134A
:100F1000C4F2000345F22012C4F200021278D2B2E9
:100F200002F0EF021A70FB79002BACD145F22013CE
:100F3000C4F2000345F22012C4F200021278D2B2C9
:100F400002F0BF021A7045F22013C4F2000345F20A
:100F50002012C4F200021278D2B202F080021A709B
:100F600045F22213C4F2000345F22212C4F2000239
:100F70001278D2B202F0F0021A7045F22313C4F2D2
:100F800000031B78DBB223F00F03FB7145F2231340
:100F9000C4F20003FA7942F00F02D2B21A7045F29D
:100FA0002413C4F200031B78DBB223F00F03FB71A0
:100FB00045F22413C4F20003FA7942F00F02D2B2D0
:100FC0001A7007F10807BD4680BD00BF80B582B02A
:100FD00000AF0346FB71FFF7FBFE45F22013C4F29E
:100FE000000345F22012C4F200021278D2B242F09D
:100FF0002002D2B21A7045F22013C4F2000345F267
:101000002012C4F200021278D2B202F0BF021A70AB
:1010100045F22013C4F2000345F22012C4F200028C
:101020001278D2B202F0F0021A7045F22013C4F224
:10103000000345F22012C4F200021278D1B2FA790C
:1010400041EA0202D2B242F01002D2B21A704FF05C
:101050000100FFF747FD45F22013C4F2000345F2FB
:101060002012C4F200021278D2B202F0EF021A701B
:1010700007F10807BD4680BD80B582B000AF0346CA
:10108000FB7145F22013C4F2000345F22012C4F2B2
:1010900000021278D2B202F09F021A7045F22013B9
:1010A000C4F2000345F22012C4F200021278D2B258
:1010B00002F0F0021A7045F22013C4F2000345F268
:1010C0002012C4F200021278D1B2FA7941EA020287
:1010D000D2B242F01002D2B21A704FF00100FFF704
:1010E00001FD45F22013C4F2000345F22012C4F2C0
:1010F00000021278D2B202F0EF021A7007F108076C
:10110000BD4680BD80B586B000AF0346FB804FF082
:101110000003BB752AE0B87DFA884CF6CD43CCF6C7
:10112000CC43A3FB02134FEAD3010B464FEA8303E0
:101130000B444FEA4303C3EB02039BB2DBB203F160
:101140003003DAB207F1180101EB000303F8102CA9
:10115000FA884CF6CD43CCF6CC43A3FB02134FEAFE
:10116000D303FB80BB7D03F10103BB75FB88092B17
:10117000D1D8B87DFA884CF6CD43CCF6CC43A3FB4E
:1011800002134FEAD3010B464FEA83030B444FEAA5
:101190004303C3EB02039BB2DBB203F13003DAB2C9
:1011A00007F1180101EB000303F8102CBB7DFB7560
:1011B00012E0FA7DBB7DC3EB0203BA7D07F1180193
:1011C0000A4412F8102C07F118010B4403F8082CFC
:1011D000BB7D03F1FF33BB75BB7D002BE9D1FB7DEC
:1011E0003A7A07F118010B4403F8082CFB7D03F150
:1011F000010307F1180213444FF0000203F8082C12
:1012000007F110031846FFF77DFD07F11807BD46EB
:1012100080BD00BF80B582B000AF00F025FA4FF06E
:10122000020000F073FB01F02BFE0346FB7146F257
:101230009453C4F2000346F29452C4F200021278AE
:10124000D2B242F00302D2B21A7046F29553C4F2FF
:10125000000346F29552C4F200021278D2B242F074
:101260000302D2B21A70FB79184601F00DFE46F265
:101270002453C4F200034FF434421A8046F244531C
:10128000C4F200034FF6FF721A8046F28653C4F28E
:1012900000034FF007021A7001F0F2FD0346FB71E4
:1012A00046F29753C4F2000346F29752C4F200028A
:1012B0001278D2B242F00302D2B21A7046F29653BA
:1012C000C4F2000346F29652C4F200021278D2B27F
:1012D00042F00302D2B21A70FB79184601F0D4FD35
:1012E00046F22753C4F200034FF0FF321A7046F261
:1012F0004753C4F200034FF0FF321A7046F207530F
:10130000C4F200034FF0FF321A7046F22653C4F2C3
:1013100000034FF0FF321A7046F25653C4F2000336
:101320004FF0FF321A7046F24653C4F200034FF0FA
:10133000FF321A704EF28013CEF200034FF0020219
:101340001A604FF0010042F21D21C0F20001FFF7C8
:10135000DDFB4FF001004FF00701FFF707FC01F044
:10136000B9F94FF0070001F005FC4FF0080001F05B
:1013700001FC4FF0090001F0FDFB46F27453C4F28A
:10138000000346F27452C4F200021278D2B242F064
:101390000402D2B21A7000F0CFFF01F08BF84FF0C8
:1013A000000001F005F94FF0040001F02BF94FF0B7
:1013B000000001F051F907F10807BD4680BD00BFEC
:1013C00080B582B000AF01F05BFD0346FB7146F2D1
:1013D0009653C4F2000346F29652C4F20002127809
:1013E000D2B242F02002D2B21A7000F0F1FF01F046
:1013F00095F844F2BB33C4F2000344F2BB32C4F2AA
:1014000000021278D2B242F02002D2B21A7044F234
:10141000AB33C4F2000344F2AB32C4F200021278E0
:10142000D2B242F02002D2B21A7045F67203C4F270
:10143000000345F67202C4F200021278D2B242F002
:101440000102D2B21A70FB79184601F01DFD4EF26E
:101450000013CEF200034FF002021A6046F27453FA
:10146000C4F2000346F27452C4F200021278D2B2FF
:101470006FEA42626FEA5262D2B21A7007F108074D
:10148000BD4680BD80B500AF48F27D13C1F6FF7345
:101490001B78002B08D1FFF7BDFE48F27D13C1F683
:1014A000FF734FF001021A70FFF78AFF00F02EFF62
:1014B00048F27C13C1F6FF734FF001021A7080BD31
:1014C00080B485B000AF0346FB71FB7903F10103E3
:1014D000FB71FB79072B18D0FB794FEAD303BB7361
:1014E000FB7903F007034FF0010202FA03F3FB73E9
:1014F000BA7B48F22013C1F6FF739A5CFB7B02EAC9
:101500000303DBB2002BE0D000E000BFFB791846FC
:1015100007F11407BD4680BC704700BF80B584B09A
:1015200000AF0346FB71FA7943F26063C0F2000337
:101530009B5CFB73FA7948F22413C1F6FF739B5C42
:10154000184601F089F846F25753C4F20003F97BBC
:1015500048F22C12C1F6FF72525C1A70FA7948F206
:101560004823C1F6FF739B5C184600F0B5F907F1FC
:101570001007BD4680BD00BF80B582B000AF0346F6
:10158000FB7148F27E13C1F6FF734FF000021A7030
:1015900048F27F13C1F6FF73FA791A7048F27E138E
:1015A000C1F6FF736FF07E021A70FB79184600F0E7
:1015B000F5F807F10807BD4680BD00BF80B500AF54
:1015C00048F27E13C1F6FF734FF000021A7048F222
:1015D0007F13C1F6FF734FF0FF321A7048F27F138A
:1015E000C1F6FF731B78DBB21846FFF769FF0346AD
:1015F0001A4648F27F13C1F6FF731A7048F27F1340
:10160000C1F6FF731B78DBB2062B16D848F27E13A7
:10161000C1F6FF731B78DBB243F00103DAB248F284
:101620007E13C1F6FF731A7048F27F13C1F6FF7381
:101630001B78DBB2184600F0B1F880BD80B400AF73
:1016400048F27E13C1F6FF731B78DBB203F001038F
:10165000DBB2002B02D04FF0010301E04FF000039A
:101660001846BD4680BC704780B582B000AF4FF0D1
:101670000003FB7107E0FB79184600F04BF8FB799B
:1016800003F10103FB71FB79062BF4D907F108077D
:10169000BD4680BD80B584B000AF0346FB71FA79CA
:1016A00043F23063C0F200039B5CBB73FA7943F2F0
:1016B0003863C0F200039B5CFB73FA7943F2146356
:1016C000C0F2000353F822304FF009021A70BB7BBE
:1016D0000F2B02D14FF00703BB73BA7B43F2406379
:1016E000C0F2000353F82220B97B43F24063C0F2FA
:1016F000000353F821301978FB7B41EA0303DBB286
:101700001370FB79184601F035FA07F11007BD4652
:1017100080BD00BF80B584B000AF0346FB71FA798D
:1017200043F23063C0F200039B5CBB73FA7943F26F
:101730003863C0F200039B5CFB73FB79184601F031
:101740003FFABB7B0F2B02D14FF00703BB73BA7B71
:1017500043F24063C0F2000353F82220B97B43F206
:101760004063C0F2000353F821301B781946FB7B1D
:101770006FEA0303DBB201EA0303DBB2DBB21370EF
:10178000FA7943F21463C0F2000353F822304FF0A9
:1017900008021A7007F11007BD4680BD80B582B0FF
:1017A00000AF0346FB71FB791846FFF7B7FE46F220
:1017B0007453C4F2000346F27452C4F20002127869
:1017C000D2B242F00102D2B21A7045F67203C4F2EC
:1017D000000345F67202C4F200021278D2B202F09F
:1017E000FE021A70FB791846FFF754FF46F2745355
:1017F000C4F2000346F27452C4F200021278D2B26C
:1018000042F00202D2B21A7007F10807BD4680BD4D
:1018100080B582B000AF0346FB7146F27453C4F248
:10182000000346F27452C4F200021278D2B202F0FF
:10183000FC021A70FA7946F21653C4F200031B78C0
:10184000DBB24FEA032399B248F28013C1F6FF736B
:1018500023F81210FA79F97948F28013C1F6FF7370
:1018600033F8111046F20653C4F200031B78DBB2C2
:1018700041EA030399B248F28013C1F6FF7323F8DB
:101880001210FA79F97948F28013C1F6FF7333F830
:1018900011306FEA030399B248F28013C1F6FF7367
:1018A00023F81210FB791846FFF734FF4FF00000C1
:1018B00000F0D2FE45F67203C4F2000345F6720250
:1018C000C4F200021278D2B242F00102D2B21A700F
:1018D00007F10807BD4680BD80B483B000AF034662
:1018E000FB7146F22443C4F20003FA791A7046F2FF
:1018F0003443C4F20003FA794FEA5202D2B21A70AA
:1019000007F10C07BD4680BC704700BF80B483B0B0
:1019100000AF0346FB71FB79012B0DD146F27453E6
:10192000C4F2000346F27452C4F200021278D2B23A
:1019300002F0EF021A700DE046F27453C4F2000395
:1019400046F27452C4F200021278D2B242F010028F
:10195000D2B21A7007F10C07BD4680BC704700BFB9
:1019600080B485B000AF0346FB71FA7943F260633F
:10197000C0F200039B5CFB73FA79F97948F280139B
:10198000C1F6FF7333F8111048F29013C1F6FF73DC
:1019900023F81210FA7948F2A013C1F6FF734FF042
:1019A00000019954FA7948F2A813C1F6FF734FF079
:1019B00000019954FB7B002B0DD0FB7B03F1FF3220
:1019C000F97B48F23C13C1F6FF73595C48F2B81337
:1019D000C1F6FF73995407F11407BD4680BC7047E8
:1019E00080B582B000AF0346FB71FB791846FFF764
:1019F000C3FDFFF723FE0346002BFAD1FB791846FF
:101A0000FFF7AEFF07F10807BD4680BD80B582B085
:101A100000AF4FF00003FB7107E0FB791846FFF7BA
:101A2000DFFFFB7903F10103FB71FB79062BF4D98E
:101A300007F10807BD4680BD80B586B000AF0346FC
:101A4000FB71FA7943F26063C0F200039B5CBB75E3
:101A5000BA7D48F23413C1F6FF739B5CFB75FA79CB
:101A600048F28013C1F6FF7333F81230BB82FB7962
:101A7000184600F03DFCFA7948F29013C1F6FF7366
:101A800033F81230BA8A9A420ED3FA7948F2901398
:101A9000C1F6FF7333F81230BA8AC3EB02037B82BC
:101AA0004FF00103BB750DE0FA7948F29013C1F6CF
:101AB000FF7333F81220BB8AC3EB02037B824FF023
:101AC0000003BB75BB7D002B26D17B8A142B23D949
:101AD000FA7948F25023C1F6FF739B5C042B0CD9B2
:101AE000FB791846FFF73CFFFA7948F25023C1F61C
:101AF000FF734FF00001995456E0FA7948F25023F1
:101B0000C1F6FF739B5C03F10103D9B248F2502385
:101B1000C1F6FF73995447E0FB7D7A8A9A4205D952
:101B20007B8A132B40D8BB7D002B3DD1FA7948F23C
:101B30009013C1F6FF7333F812304FEA0323FB60B2
:101B4000FA7948F2A013C1F6FF739B5CFA6842EA87
:101B50000303FB60BB8AFA681344FB60FA7948F21E
:101B60009013C1F6FF7333F81230FA68C3EB020327
:101B7000FB60FA79FB684FEA132399B248F290139D
:101B8000C1F6FF7323F81210FA79FB68D9B248F254
:101B9000A013C1F6FF739954FA7948F25023C1F6A5
:101BA000FF734FF000019954FB7D7A8A9A4217D94E
:101BB000BB7D002B14D07B8AFF2B08D9FA7948F221
:101BC000A813C1F6FF734FF0FF31995410E0FA7972
:101BD0007B8AD9B248F2A813C1F6FF73995407E083
:101BE000FA7948F2A813C1F6FF734FF00001995437
:101BF00007F11807BD4680BD80B582B000AF4FF039
:101C000000037B711FE07B794FEAD303BB717B79C3
:101C100003F007034FF0010202FA03F3FB71BA79F4
:101C200048F22013C1F6FF739A5CFB7902EA0303C2
:101C3000DBB2002B03D07B791846FFF7FDFE7B79E2
:101C400003F101037B717B79062BDCD907F10807CF
:101C5000BD4680BD80B485B000AF0346FB71FB7903
:101C60004FEAD303BB72FB7903F007034FF0010285
:101C700002FA03F3FB72FA7943F26063C0F20003E5
:101C80009B5C3B733A7B48F23013C1F6FF739B5C5D
:101C90007B733A7B48F23813C1F6FF739B5CBB73CE
:101CA0003A7B48F23C13C1F6FF739B5CFB733B7BB2
:101CB000002B0BD14FF002037B727A7A48F2B813F3
:101CC000C1F6FF734FF00101995403E03B7B03F130
:101CD000FF337B72BA7A48F2B013C1F6FF739A5C95
:101CE000FB7A02EA0303DBB2002B29D0FA7948F22F
:101CF000A813C1F6FF739B5C1A46797BBB7BC3EBD1
:101D000001039A4256DABA7AB97A48F2B013C1F6A8
:101D1000FF735B5C1946FB7A6FEA0303DBB201EAEF
:101D20000303DBB2D9B248F2B013C1F6FF73995482
:101D30007A7A48F2B813C1F6FF73F97B99543CE004
:101D4000FA7948F2A813C1F6FF739B5C1A46797BB7
:101D5000BB7B0B449A4225DD7A7A48F2B813C1F670
:101D6000FF739B5C012B8CBF00210121C9B203F1E1
:101D7000FF33D8B248F2B813C1F6FF739854002964
:101D80001AD0BA7AB97A48F2B013C1F6FF73595C27
:101D9000FB7A41EA0303D9B248F2B013C1F6FF73EC
:101DA00099540AE07A7A48F2B813C1F6FF73F97BC6
:101DB000995402E000BF00E000BFBA7A48F2B013C5
:101DC000C1F6FF739A5CFB7A02EA0303DBB2002BD5
:101DD00002D04FF0010301E04FF00003184607F175
:101DE0001407BD4680BC704780B584B000AF034681
:101DF000FB71FA7943F26863C0F200039B5C7B736A
:101E0000FA7943F26C63C0F200039A5C7B7B134463
:101E1000BB734FF00003FB737B7B1846FFF71AFF81
:101E20000346002B02D04FF00103FB737B7B03F1D1
:101E300001037B737A7BBB7B9A42EDD3FB7B184615
:101E400007F11007BD4680BD80B485B000AF1346D2
:101E50000246FA710A46BA717B714FF0FF33BB72CA
:101E60004FF00003FB72FA7948F2A813C1F6FF7332
:101E70001344FB604FF000037B7218E07A7AFB6832
:101E800013441B787A799A420DD27A7AFB6813440C
:101E90001B78FA7A9A4206D27B7ABB727A7AFB680E
:101EA00013441B78FB727B7A03F101037B727A7A0D
:101EB000BB799A42E2D3BB7A184607F11407BD46B4
:101EC00080BC704780B487B000AFF871B9717A7187
:101ED0007B80BA7948F2A813C1F6FF7313447B6183
:101EE000FB7903F1FF337B72FB7903F10103BB72D2
:101EF000FA797B6913441A7848F2B413C1F6FF7378
:101F00005A70FB79002B10D148F2B413C1F6FF735D
:101F10004FF000021A70BA7A7B6913441A7848F2BB
:101F2000B413C1F6FF739A7028E0FA797B7903F154
:101F3000FF339A4210D17A7A7B6913441A7848F2B7
:101F4000B413C1F6FF731A7048F2B413C1F6FF73ED
:101F50004FF000029A7011E07A7A7B6913441A7884
:101F600048F2B413C1F6FF731A70BA7A7B6913444E
:101F70001A7848F2B413C1F6FF739A7048F2B4139A
:101F8000C1F6FF731B7897F820209A420FD248F2CF
:101F9000B413C1F6FF731A7897F82030C3EB02032D
:101FA000DAB248F2B413C1F6FF731A7006E048F2D1
:101FB000B413C1F6FF734FF000021A7048F2B41365
:101FC000C1F6FF735A7897F82030C3EB0203DAB2F8
:101FD00048F2B413C1F6FF735A7048F2B413C1F655
:101FE000FF739B7897F820209A420FD248F2B413DF
:101FF000C1F6FF739A7897F82030C3EB0203DAB288
:1020000048F2B413C1F6FF739A7006E048F2B413B5
:10201000C1F6FF734FF000029A7048F2B413C1F694
:10202000FF739B781A4648F2B413C1F6FF731B780E
:10203000C3EB0203FB6048F2B413C1F6FF731B78D5
:102040001A4648F2B413C1F6FF735B781A4448F29B
:10205000B413C1F6FF739B7813443B61FB684FEAEE
:1020600003223B6992FBF3F2FB794FEA032313440B
:102070003B617A883B6902FB03F33B613B6903F5F3
:10208000FE434FEA1343FB72FB7A184607F11C0725
:10209000BD4680BC704700BF80B586B002AF034626
:1020A000FB71FA7948F24013C1F6FF739B5C7B72B7
:1020B000FA7943F27463C0F200039B5CBB72FA7955
:1020C00043F26863C0F200039B5CBB73FA7943F28E
:1020D0006C63C0F200039B5CFB73FA7948F2301327
:1020E000C1F6FF739B5CB97BFA7B084611461A4622
:1020F000FFF7AAFE0346FB72FB7AFF2B55D0FA7955
:1021000043F27063C0F2000333F812C0FA7948F268
:102110003413C1F6FF73985CF97ABA7BFB7B0090AD
:10212000084611461A466346FFF7CCFE0346BB81BC
:10213000BB7A03F01F03002B48D07B7A03F1010325
:102140003B727A7A48F24013C1F6FF739B5C002B16
:1021500010D13A7ABB89D9B248F24013C1F6FF7365
:1021600099547A7A48F24013C1F6FF734FF0010197
:1021700099542EE0BB7A03F00803002B28D03A7A5A
:1021800048F24013C1F6FF739B5CBA8910461946AA
:1021900000F026F80346BB813A7ABB89D9B248F2EF
:1021A0004013C1F6FF73995413E04FF6FF73BB81E0
:1021B000BB7A03F01F03002B0BD07A7A48F240134E
:1021C000C1F6FF734FF00001995402E000BF00E038
:1021D00000BFBB89184607F11007BD4680BD00BF90
:1021E00080B485B000AF02460B46FA80BB80FA8807
:1021F000BB881344FB60BB884FEA4303FA6813446F
:10220000FB60FB684FEA9303FB60FB689BB21846D8
:1022100007F11407BD4680BC704700BF80B500AF12
:1022200048F27F13C1F6FF731B78DBB21846FFF745
:10223000EFFA48F27E13C1F6FF731B78DBB25BB294
:10224000002B0EDA48F27E13C1F6FF731B78DBB267
:102250001A4602F0FE0248F27E13C1F6FF731A70AE
:102260002FE048F27F13C1F6FF731B78DBB21846EC
:10227000FFF726F903461A4648F27F13C1F6FF73AB
:102280001A7048F27F13C1F6FF731B78DBB2062B7E
:1022900009D848F27F13C1F6FF731B78DBB21846EA
:1022A000FFF77CFA0DE048F27E13C1F6FF731B784E
:1022B000DBB21A4602F0FE0248F27E13C1F6FF734B
:1022C0001A7080BD80B582B000AF0346FB71FB7908
:1022D0001846FFF751F907F10807BD4680BD00BF5A
:1022E00080B500AFFFF7AAF90346184680BD00BFCE
:1022F00080B582B000AF0346FB71FB79184600F051
:1023000019FE07F10807BD4680BD00BF80B500AFCC
:1023100000F046FF80BD00BF80B500AF4FF0020067
:10232000FFF7F4FA80BD00BF80B500AF4FF00100A9
:10233000FFF7ECFA80BD00BF80B500AF4FF00000A2
:1023400000F068F845F64303C4F2000345F6430283
:10235000C4F200021278D2B242F02002D2B21A7055
:1023600045F64303C4F2000345F64302C4F20002FB
:102370001278D2B202F0FB021A7045F64303C4F29F
:10238000000345F64302C4F200021278D2B242F0D2
:102390000802D2B21A7045F6DF23C4F2000345F6F4
:1023A000DF22C4F200021278D2B202F0E7021A7001
:1023B00045F6DF23C4F2000345F6DF22C4F2000233
:1023C0001278D2B242F01002D2B21A7080BD00BFB1
:1023D00080B400AF44F2A733C4F2000344F2A73242
:1023E000C4F200021278D2B242F00802D2B21A70DD
:1023F00044F2B733C4F2000344F2B732C4F200022D
:102400001278D2B242F00802D2B21A70BD4680BC35
:10241000704700BF80B483B000AF0346FB7145F640
:102420004303C4F2000345F64302C4F200021278EB
:10243000D2B2D1B201F0FC01FA79D2B202F00302B9
:1024400041EA0202D2B2D2B21A70FB79012B16D144
:1024500044F23663C4F2000340F21312C4F60012D1
:102460001278D2B21A7044F23763C4F2000340F219
:102470001712C4F600121278D2B21A7015E044F2A4
:102480003663C4F2000340F2B312C4F600121278AD
:10249000D2B21A7044F23763C4F2000340F2BB12A6
:1024A000C4F600121278D2B21A7007F10C07BD46BA
:1024B00080BC704780B500AF45F62C03C4F2000322
:1024C0004FF014021A7045F62D03C4F200034FF0CA
:1024D00000021A7045F62D03C4F2000345F62D02E2
:1024E000C4F200021278D2B242F00402D2B21A70E0
:1024F00045F62D03C4F2000345F62D02C4F2000296
:102500001278D2B242F00202D2B21A704FF000003A
:1025100000F026F800F0B0F880BD00BF80B400AF36
:1025200044F2A833C4F2000344F2A832C4F2000219
:102530001278D2B242F00802D2B21A7044F2B83322
:10254000C4F2000344F2B832C4F200021278D2B2EC
:1025500042F00802D2B21A70BD4680BC704700BF7C
:1025600080B483B000AF0346FB7145F62C03C4F280
:10257000000345F62C02C4F200021278D2B202F037
:10258000FD021A7045F62C03C4F2000345F62C0236
:10259000C4F200021278D1B2FA7902F0020241EAE2
:1025A0000202D2B21A7007F10C07BD4680BC704718
:1025B00080B582B000AF0346FB7145F62D03C4F22F
:1025C000000345F62D02C4F200021278D2B202F0E6
:1025D000FB021A7045F62D03C4F2000345F62D02E6
:1025E000C4F200021278D1B2FA7902F0040241EA90
:1025F0000202D2B21A7000F03FF807F10807BD4698
:1026000080BD00BF80B582B000AF0346FB7145F6C8
:102610002C03C4F2000345F62C02C4F20002127827
:10262000D2B202F0F3021A7045F62C03C4F2000392
:1026300045F62C02C4F200021278D1B2FA7902F007
:102640000C0241EA0202D2B21A7000F015F807F14A
:102650000807BD4680BD00BF80B483B000AF03460D
:10266000FB7145F68333C4F20003FA791A7007F15F
:102670000C07BD4680BC704780B483B000AF45F600
:102680002C03C4F200031B78DBB203F00C034FEA07
:102690005303FB7145F62D03C4F200031B78DBB234
:1026A00003F00403002B03D0FB7903F10103FB715A
:1026B00044F20B63C4F20003FA7902F1924202F58C
:1026C0009C721278D2B21A7007F10C07BD4680BC1A
:1026D000704700BF80B500AF00F002F880BD00BFBA
:1026E00080B582B000AF4FF00003FB7107E0FB79CB
:1026F000184600F065FAFB7903F10103FB71FB79E1
:10270000092BF4D907F10807BD4680BD80B582B01A
:1027100000AF4FF6FF7000F06DF84FF6FF7000F05D
:1027200085F800F0ADFB0346FB7146F29743C4F217
:10273000000346F29742C4F200021278D2B242F08D
:102740001002D2B21A70FB79184600F09DFB00F01F
:102750007DF84FF0000000F031F807F10807BD46A2
:1027600080BD00BF80B400AF46F27743C4F20003DF
:1027700046F27742C4F200021278D2B26FEA4262A5
:102780006FEA5262D2B21A70BD4680BC704700BF79
:1027900080B500AF48F2BC13C1F6FF731B78002B65
:1027A00008D1FFF7B3FF48F2BC13C1F6FF734FF037
:1027B00001021A70FFF7D6FF80BD00BF80B483B05E
:1027C00000AF0346FB7146F28743C4F20003FA7977
:1027D0001A7007F10C07BD4680BC704780B400AF8B
:1027E00046F26743C4F200031B78DBB21846BD46CD
:1027F00080BC704780B483B000AF0346FB8046F6D0
:102800004C03C4F20003FA881A8007F10C07BD4696
:1028100080BC704780B400AF46F68C03C4F200035E
:102820001B889BB21846BD4680BC704780B483B0FD
:1028300000AF0346FB8046F60C03C4F20003FA889F
:102840001A8007F10C07BD4680BC704780B500AF09
:1028500001E0FFF7DFFFFFF7C1FF034603F00803C6
:10286000002BF6D180BD00BF80B582B000AF78608C
:1028700000F042F8786800F00BF84FF0070000F025
:102880001BF800F02DF807F10807BD4680BD00BF1A
:1028900080B485B000AF78604EF60853CEF20003E6
:1028A0001B68FB60FB6803F140037A681A6007F15C
:1028B0001407BD4680BC704780B483B000AF0346A8
:1028C000FB714EF20043CEF20003FA794FEA421256
:1028D000D2B21A7007F10C07BD4680BC704700BF2A
:1028E00080B400AF4EF20013CEF200034FF00102AD
:1028F0001A60BD4680BC704780B400AF4EF28013B2
:10290000CEF200034FF001021A60BD4680BC704752
:1029100080B582B000AF7860396078684FF0000110
:102920003A6800F049FD07F10807BD4680BD00BFC9
:1029300080B584B000AFF860B9607A60F868B968B3
:102940007A6800F071FC07F11007BD4680BD00BF3A
:1029500080B487B000AF786039604FF00003FB604F
:102960004FF00003BB602CE0BB684FEA83027B683A
:1029700013441B683B613B69FB753B6923F0FF0314
:102980003B6117E0FB684FEA43023B6813441B7846
:102990001A463B691344FA684FEA42013A680A440E
:1029A00052781A70FB6803F10103FB60FB7D03F1B1
:1029B000FF33FB75FB7D002BE4D1BB6803F1010302
:1029C000BB60BB681A2BCFD907F11C07BD4680BC82
:1029D000704700BF80B582B000AF44F20033C4F24C
:1029E00000034FF002021A7044F20003C4F2000325
:1029F0004FF008021A7044F20023C4F200034FF0B3
:102A000003021A7044F2A163C4F2000340F20812F8
:102A1000C4F600121278D2B21A7044F22223C4F221
:102A200000034FF008021A8044F22023C4F200038E
:102A300041F251021A804FF00003FB714FF019036D
:102A40003B6019E0FB794FEA4303DAB244F22523F5
:102A5000C4F200031B78DBB203F0010342EA030374
:102A6000DBB203F00303FB714FF4F07000F000FAE7
:102A70003B6803F1FF333B603B68002B02D0FB79DE
:102A8000032BDFD144F20403C4F200034FF480723D
:102A90001A8044F20403C4F200034FF007021A70D4
:102AA00044F20603C4F200034FF000021A7044F22D
:102AB0000803C4F200034FF048021A7044F2040302
:102AC000C4F200034FF000021A7044F20103C4F292
:102AD00000034FF002021A7007F10807BD4680BDDF
:102AE00080B483B000AF40F2CF13C4F600131B785C
:102AF000FB7145F66E03C4F20003FA7902F0070297
:102B00001A7045F66F03C4F20003FA794FEA121205
:102B1000D2B21A7045F2FD13C4F200034FF0200246
:102B20001A7045F67203C4F200034FF000021A70E7
:102B300045F68823C4F200034FF003021A7045F6ED
:102B4000DB23C4F200034FF020021A7045F658331D
:102B5000C4F200034FF002021A7045F67603C4F285
:102B600000034FF044021A7007F10C07BD4680BC09
:102B7000704700BF80B483B000AF0346FB71FB79A0
:102B8000092B18D8FA7943F2A063C0F2000353F876
:102B90002220F97943F2A063C0F2000353F82130F8
:102BA0001978F87943F2C863C0F200031B5C41EA6C
:102BB0000303DBB2137007F10C07BD4680BC7047FE
:102BC00080B483B000AF0346FB71FB79092B1BD89F
:102BD000FA7943F2A063C0F2000353F82220F97996
:102BE00043F2A063C0F2000353F821301978F8795A
:102BF00043F2C863C0F200031B5C6FEA0303DBB25D
:102C000001EA0303DBB2137007F10C07BD4680BC79
:102C1000704700BF80B582B000AF72B644F2E8637F
:102C2000C4F2000344F2E862C4F200021278D2B2A5
:102C300042F00402D2B21A704FF00003FB702FE092
:102C4000FA7813464FEA430313444FEA43031A4604
:102C500043F2D463C0F2000313447B607B681A78AC
:102C600059784FEA012141EA020299784FEA01417D
:102C700041EA0202DB784FEA036343EA02031A46A1
:102C80007B6819795B794FEA032343EA01039BB21E
:102C900010461946FFF73CFEFB7803F10103FB7079
:102CA000FB78052BCCD94FF0904040F26C01C4F674
:102CB0000001FFF74DFE45F67203C4F200034FF426
:102CC00040721A8045F64E03C4F2000340F203320C
:102CD0001A8045F20303C4F2010345F20302C4F271
:102CE00001021278D2B242F00202D2B21A7045F258
:102CF0001303C4F2010345F21302C4F20102127875
:102D0000D2B242F00202D2B21A7044F2A033C4F23C
:102D1000000344F2A032C4F200021278D2B242F0B0
:102D20004002D2B21A7044F2C233C4F2000344F239
:102D3000C232C4F200021278D2B242F01002D2B211
:102D40001A7045F20210C4F2000040F2B051C4F60D
:102D500000014FF00802FFF7EBFD45F2C210C4F28C
:102D6000000040F2B851C4F600014FF00802FFF72E
:102D7000DFFD45F2F210C4F2000040F2C051C4F68B
:102D800000014FF00802FFF7D3FD45F21210C4F224
:102D9000000040F2C851C4F600014FF00802FFF7EE
:102DA000C7FD45F22210C4F2000040F2D051C4F633
:102DB00000014FF00802FFF7BBFD45F23210C4F2EC
:102DC000000040F2D851C4F600014FF00802FFF7AE
:102DD000AFFD45F24210C4F2000040F2E051C4F6EB
:102DE00000014FF00802FFF7A3FD45F25210C4F2B4
:102DF000000040F2E851C4F600014FF00802FFF76E
:102E000097FD44F22233C4F2000344F22232C4F2AA
:102E100000021278D2B242F00802D2B21A7044F61E
:102E20000003C4F200034FF001021A70FFF7D2FD55
:102E300044F60003C4F200036FF07E021A7040F201
:102E40000403C4F208034FF001021A70FFF748FEB2
:102E500044F2B030C4F2000044F2A031C4F20001E8
:102E60004FF00E02FFF764FD07F10807BD4680BD75
:102E70000230800803D000BF01380046FCD1704703
:102E8000EFF3108072B6704780F31088704700BF70
:102E9000224B234A1B6832F81010224A33F81030B4
:102EA00030B532F81040CD1AADB2C3EB040C85EA50
:102EB0000C0C1CF4004F2DD065B31C1B24B222F85F
:102EC0001010194A002CB8BF644212F800C0E4B2D6
:102ED000B4EB5C0F1EDA154A115C8C4208DD144C11
:102EE0000131002501EBDC0C255402F800C011E093
:102EF00010D00F4C14F800C0BCF1090F04D80CF12D
:102F0000010C04F800C005E04FF0000C013904F892
:102F100000C01154024A22F8103030BD6481FF1FF6
:102F20005882FF1F7C82FF1F9082FF1FA482FF1F19
:102F30006882FF1F38B5284B05461B681C5CFFF7ED
:102F4000A7FF264A135D591E1155002B24D1244A90
:102F500024491368095D24481955244B005D1968FC
:102F6000085512681B68125DE15C5208914228BF47
:102F7000E2541F4B1B681A5D184B1A55184A1D4B1B
:102F800012681B68125D92081A55164B4FF0FF32FB
:102F90001A55154B01321A55174B124A595D174BEA
:102FA00048005B5DC0B2834204D9105D984206D9E7
:102FB000135504E012F804C0844588BF10550A4A2E
:102FC00001EB5101C9B29B08994228BF0B46115D24
:102FD000994238BF135538BD5081FF1FA082FF1F93
:102FE0005881FF1F7082FF1F8C82FF1F4481FF1FCB
:102FF0005481FF1F4881FF1FA482FF1F9082FF1F83
:1030000070B5002237E0C45C944204D1204C1C5DB2
:10301000A14238BF21460133DCB26445F3D31D4BD6
:103020001B6899541C4B1E781C4B1D6800231DE027
:10303000E85C904219D11A48154C185C13F804C08A
:1030400007E04FEA4C0C5FFA8CFC40004CF0010C9E
:1030500080B26145F5D80E4C10F47F4F03F804C0E0
:103060000F4C18BF4FF0FF3018550133D8B2B042A3
:10307000DED30132D2B20B4B1B78934207D9064BF9
:1030800093F800C0054B186800231946C4E770BDCB
:103090007482FF1F4C81FF1F7081FF1F5081FF1F33
:1030A0009082FF1F7281FF1F2DE9F0419846194B56
:1030B00004461B7883422AD9174B00261B68470019
:1030C0001954164B16491B6880251E54154B096868
:1030D0001B681B5CCA54114B20461B68E25C45EA26
:1030E0000202E254FFF7EEF8FFF7FAF80028FBD1EE
:1030F0000D4B1B68DB5B434505D2084B1B68E25C4C
:1031000022EA0502E25401366D08082EE3D1BDE83B
:10311000F08100BF7181FF1F6081FF1F5C81FF1F75
:103120004C81FF1F5081FF1F6481FF1F38B5154B75
:103130004FF0FF321A54144BFF221B6804461D5CEB
:103140004DF69813FFF7B0FF104B114A1B5D128824
:103150005343B3FBF5F5ADB204E00A4B6D081A5DBD
:1031600052081A55802DF8D80A4BEDB21D550A4B5E
:10317000AD081D55094B4FF000021B6823F81420C1
:1031800038BD00BF7482FF1F5C81FF1F78360000CE
:103190006E81FF1F9082FF1FA482FF1F6881FF1FA7
:1031A00010B5FFF7C1F8002409E0194B2046197843
:1031B00001224FF4D973FFF777FF0134E4B2154BC6
:1031C0001B78A342F1D800230AE01349134A096887
:1031D0001348C95C1268C908415CD1540133DBB2A1
:1031E000104A12789A42F0D8FFF796F8002407E0C8
:1031F0000A4B20461B68195DFFF798FF0134E4B2C3
:10320000044B1B78A342F3D8BDE81040FFF7F8BE8B
:103210006C81FF1F7181FF1F5C81FF1F6081FF1F99
:10322000803600007081FF1F032A2DE9F0070BD8BC
:103230003AB1002311F803C000F803C001339342F0
:10324000F8D1BDE8F007704782180C46034603E04A
:1032500014F8011C03F8011C03F003061946A446E8
:1032600001330134002EF3D11CF00304634608BF80
:10327000C1EB020C68D06542C4F1040A0CEB0507EF
:1032800033464FEACA0A5CF805604FEAC408551A8B
:1032900008E057F8044F264604FA0AF449EA040401
:1032A000CC5004335C18032D26FA08F9A5F1040567
:1032B0000CEB0306EDDC002302E0F15CE15401338A
:1032C00019199142F9D3BCE753F8404C41F8404CEE
:1032D00053F83C4C41F83C4C53F8384C41F8384CCE
:1032E00053F8344C41F8344C53F8304C41F8304CDE
:1032F00053F82C4C41F82C4C53F8284C41F8284CEE
:1033000053F8244C41F8244C53F8204C41F8204CFD
:1033100053F81C4C41F81C4C53F8184C41F8184C0D
:1033200053F8144C41F8144C53F8104C41F8104C1D
:1033300053F80C4C41F80C4C53F8084C41F8084C2D
:1033400053F8044C41F8044C1C460D4640334031C0
:10335000BCF13F0FACF1400CB6DC21462B46541BB0
:103360000FE051F8105C43F8105C51F80C5C43F826
:103370000C5C51F8085C43F8085C51F8045C43F8B5
:10338000045C0F2C0D469C4601F1100103F1100363
:10339000A4F11004E5DCCCEB0201002303E0EC58BF
:1033A0004CF8034004335E19032903EB0C04A1F12C
:1033B0000401F4DC7FE700BF032AC9B230B407D8A8
:1033C00022B10023C15401339342FBD130BC70477A
:1033D00000EB020C034601E003F8011C03F00304B8
:1033E0001A460133002CF7D14FF00133C2EB0C0425
:1033F00003FB01F31FE042F8403C42F83C3C42F83A
:10340000383C42F8343C42F8303C42F82C3C42F81C
:10341000283C42F8243C42F8203C42F81C3C42F84C
:10342000183C42F8143C42F8103C42F80C3C42F87C
:10343000083C42F8043C154640323F2CA4F14004BD
:10344000D9DC2A46C5EB0C0407E042F8103C42F8F0
:103450000C3C42F8083C42F8043C154610320F2C54
:10346000A4F11004F1DC2A46C5EB0C0501E042F89A
:10347000043C14460432032DA5F10405F7DC01E0F9
:1034800004F8011B6445FBD3A0E700BF08B500F0BA
:1034900017F8074800B10068064901B10968002221
:1034A000FCF7AAFE044B0BB1AFF30080FEE700BFB0
:1034B000000000000000000000000000FEE7000027
:1034C00070B543F2047643F20475C0F20006C0F210
:1034D0000005761BB61006D0002455F824300134C0
:1034E0009847A642F9D843F2047543F20C76C0F22D
:1034F0000005C0F20006761B00F0FEF8B61006D0FC
:10350000002455F8243001349847A642F9D870BDFC
:10351000696E697469616C697A696E672E2E2E0016
:103520006D61747269780000626F617264000000FE
:10353000696E746572727570747300006361707384
:10354000656E73650000000074696D6572000000AF
:10355000746573740000000054727920746F2063E6
:103560006F6E6E6563743400506C6163652061201A
:10357000646973632100000047616D65204F7665C3
:1035800072000000426F6172642066756C6C00000E
:10359000436F6C756D6E2066756C6C004F70706F4C
:1035A0006E656E742773207475726E002020202063
:1035B000202020202020202020202020000000008B
:1035C0006572726F72000000636F6C6F72206D69BC
:1035D000736D61746368000020202020202020008B
:1035E00052656400477265656E00000059656C6C39
:1035F0006F770000426C7565000000004D616765E3
:103600006E7461004379616E000000005768697450
:10361000650000002D5000402E5000402850004012
:10362000295000402A5000402B5000402C500040B0
:1036300005050505050505002040010204081000E8
:10364000065200400E520040165200401E520040EA
:10365000265200402E520040365200407E5200401A
:10366000010200000000000002000100050101004D
:10367000001900000800000002020202020202001B
:103680000101010202020303030404040405050509
:10369000060606070707080808090909090A0A0AA9
:1036A0005C5100405C5100405C5100405C51004066
:1036B0005C5100405C5100405C5100408B5A00401E
:1036C000DB5A00409B5A00402040010204081001D0
:1036D0000110000060510040100000000140001087
:1036E00000140140000800400140000A004C014065
:1036F0000002005001402000F8B500BFF8BC08BC33
:103700009E4670478100000051090000F8B500BFD7
:10371000F8BC08BC9E4670476D0000000000000029
:10372000303700000881FF1F7000000038010000E2
:10373000000000000104010000366E01C05D0000C1
:10374000180000000000E02E7F000000C8C8C8C8B4
:10375000C8C8C800030303006464640014141400A0
:10376000000A0A0001010100010000003481FF1F6E
:103770003881FF1F2C81FF1F603600006C3600006F
:103780003081FF1F2481FF1F4882FF1F8081FF1FA0
:103790009081FF1F0A00C22D0707030000000000F0
:040000030000092DC3
:00000001FF
