:10000000008000204D030000DD180000DD18000016
:10001000DD180000DD180000DD180000DD1800000C
:10002000DD180000DD180000DD180000DD180000FC
:10003000DD180000DD180000DD180000DD180000EC
:10004000DD180000DD180000DD180000DD180000DC
:10005000DD180000DD180000DD180000DD180000CC
:10006000DD180000DD180000DD180000DD180000BC
:10007000DD180000DD180000DD180000DD180000AC
:10008000DD180000DD180000DD180000DD1800009C
:10009000DD180000DD180000DD180000DD1800008C
:1000A000DD180000DD180000DD180000DD1800007C
:1000B000DD180000DD180000DD180000DD1800006C
:1000C00080B51448144B21E05C689968DD688C4267
:1000D0000CD0002205E0A6180832D6E9008941E9D3
:1000E00002898C460831AA42F5D101E004EB050CE7
:1000F0001C696146002204E008320026002741E91D
:1001000002670831A242F7D1143301380028DBD14D
:1001100001F0CCFB01000000E019000048F21813C8
:10012000C1F6FF731A780AB901201870704700BF32
:1001300048F20010C1F6FF7008B503682BB140F219
:100140000003C0F2000303B1984708BD80B582B038
:1001500000AF78607B68DBB218464FF0000100F01A
:1001600089FC41F63410C0F2000000F0BDFC07F13C
:100170000807BD4680BD00BF80B582B000AF786083
:100180004FF0010000F0ECFC4FF000004FF00001D8
:1001900000F070FC786800F0A7FC07F10807BD4686
:1001A00080BD00BF80B582B000AF78604FF0010025
:1001B000FFF7CCFF4FF001004FF0000100F05AFCB8
:1001C000786800F091FC07F10807BD4680BD00BFCC
:1001D00080B582B000AF4FF000037B6019E048F2B9
:1001E0001A13C1F6FF731A88114649F22813C1F693
:1001F000FF73595C02F101039AB248F21A13C1F677
:10020000FF731A80084600F071FA7B6803F101035E
:100210007B607B68032B0BDC48F21A13C1F6FF737B
:100220001A8841F63013C0F200031B889A42D6D3D5
:1002300007F10807BD4680BDB0B500AF48F21A13FC
:10024000C1F6FF731C88254600F09AF903461A464A
:1002500048F22813C1F6FF735A5504F101039AB20C
:1002600048F21A13C1F6FF731A8048F21A13C1F646
:10027000FF731B88B3F5805F06D148F21C13C1F6EB
:10028000FF734FF001021A70B0BD00BF80B582B09D
:1002900000AF00F0D9FB41F64810C0F20000FFF7B4
:1002A0006BFF40F2D113C0F20003184600F00AFEC3
:1002B00040F23923C0F20003184600F057FE00F068
:1002C000A5F800F06DFA00F0AFF94FF00003BB8025
:1002D00013E0BA88BB88D9B249F22813C1F6FF737C
:1002E0009954BA8848F22813C1F6FF734FF0000101
:1002F0009954BB8803F10103BB8041F63013C0F26F
:1003000000031B88BA889A42E3D341F65810C0F222
:100310000000FFF731FFFFF75BFF48F21C13C1F647
:10032000FF731B7883F00103DBB2002BF5D141F69C
:100330006410C0F20000FFF735FF41F63213C0F23F
:1003400000031B88184600F0A3FEE4E7054B1C7869
:1003500044F001041C70044B1A78D2B2034B1A709B
:10036000FFF7AEFEE8460040FA460040BC7600408B
:1003700080B582B000AF4EF60C53CEF2000340F2CF
:100380000042C0F2FA521A604EF61453CEF2000345
:100390004EF61452CEF20002126842F400721A6055
:1003A0004FF000037B6014E07A687B684FEA8301BA
:1003B00040F20003C0F200030B441B68194648F2E8
:1003C0000003C1F6FF7343F822107B6803F10103B9
:1003D0007B607B682F2BE7D947F2BC63C4F2000334
:1003E0001B78DAB24AF2A813C1F6FF731A704EF600
:1003F0000853CEF2000348F20002C1F6FF721A6001
:1004000000F0FEFF07F10807BD4680BD80B500AFD4
:1004100048F21E13C1F6FF731B78002B08D100F0C1
:100420000BF848F21E13C1F6FF734FF001021A7069
:1004300000F044F880BD00BF80B500AF4FF0000071
:1004400040F61901C0F2000100F05AFE4FF0000022
:100450004FF0070100F084FE46F28143C4F200032E
:100460004FF076021A7046F28343C4F200034FF055
:1004700020021A704FF0010040F60511C0F2000191
:1004800000F03EFE4FF001004FF0070100F068FE63
:1004900046F22543C4F200034FF00F021A7046F2F1
:1004A0003543C4F200036FF06F021A7046F28443C2
:1004B000C4F200034FF002021A7080BD80B582B012
:1004C00000AF00F0D1FD0346FB7146F29143C4F248
:1004D000000346F29142C4F200021278D2B242F016
:1004E0002002D2B21A7046F29343C4F2000346F2DD
:1004F0009342C4F200021278D2B242F01002D2B299
:100500001A704EF20013CEF200034FF001021A608F
:1005100046F29443C4F2000346F29442C4F200024D
:100520001278D2B242F01002D2B21A704EF2001318
:10053000CEF200034FF002021A6000F06BFDFB796F
:10054000184600F095FD07F10807BD4680BD00BFC5
:1005500080B400AF4EF20013CEF200034FF0010260
:100560001A60BD4680BC704780B400AF4EF2801365
:10057000CEF200034FF001021A60BD4680BC704706
:1005800080B582B000AFFFF7EFFF48F22113C1F64C
:10059000FF731B78BB7148F22213C1F6FF731B78FF
:1005A000FB7148F22313C1F6FF731B78DBB2002BFB
:1005B00003D1BA79FB799A4226D0BA794AF2281344
:1005C000C1F6FF739B5C7B71BB7903F10103BB71C7
:1005D000BB793F2B02D94FF00003BB7148F22113C6
:1005E000C1F6FF73BA791A7048F22313C1F6FF738C
:1005F0001B78DBB2002B0ED048F22313C1F6FF7339
:100600004FF000021A7007E046F24043C4F20003C4
:100610001B787B7100E000BFFFF79AFF7B791846DB
:1006200007F10807BD4680BD80B582B000AF00F07D
:100630001BFD0346FB7146F29043C4F2000346F2F1
:100640009042C4F200021278D2B242F00102D2B259
:100650001A7046F29043C4F2000346F29042C4F28C
:1006600000021278D2B202F0FE021A70FB7918462C
:1006700000F0FEFCFFF778FF48F22113C1F6FF738C
:100680004FF000021A7048F22213C1F6FF734FF0C8
:1006900000021A7048F22313C1F6FF734FF00002F4
:1006A0001A7048F22413C1F6FF734FF000021A705B
:1006B000FFF74EFF07F10807BD4680BD80B400AFCD
:1006C0004EF20013CEF200034FF002021A60BD4654
:1006D00080BC704780B400AF4EF28013CEF20003AE
:1006E0004FF002021A60BD4680BC704780B582B0F0
:1006F00000AF0346FB7148F21E13C1F6FF731B786F
:10070000002B48D0FFF7E6FF48F21F13C1F6FF7336
:100710001B78DAB248F22013C1F6FF731B789A42B5
:1007200010D146F26443C4F200031B78DBB203F03D
:100730000403002B06D146F24143C4F20003FA79C8
:100740001A7026E048F22013C1F6FF731B783F2B86
:1007500006D948F22013C1F6FF734FF000021A7059
:1007600048F22013C1F6FF731B781A464AF2681349
:10077000C1F6FF73F979995448F22013C1F6FF735B
:100780001B7803F10103DAB248F22013C1F6FF73BC
:100790001A70FFF793FF07F10807BD4680BD00BF41
:1007A00080B582B000AF00F05FFC0346FB7146F2FB
:1007B0009143C4F2000346F29142C4F2000212785F
:1007C000D2B242F00102D2B21A7046F29143C4F2A0
:1007D000000346F29142C4F200021278D2B202F053
:1007E000FE021A70FB79184600F042FCFFF772FF18
:1007F00048F21F13C1F6FF734FF000021A7048F25F
:100800002013C1F6FF734FF000021A70FFF756FF76
:1008100007F10807BD4680BD80B483B000AF4FF03C
:100820000003FB7146F26343C4F200031B78BB7103
:100830005EE048F22213C1F6FF731B78DBB21A4662
:1008400046F24043C4F200031B78D9B24AF228139F
:10085000C1F6FF7399544FF00103FB71FB79002B34
:1008600040D048F22313C1F6FF731B78DBB2002B94
:1008700006D048F22413C1F6FF734FF001021A703C
:1008800048F22213C1F6FF731B78DBB203F10103B8
:10089000DAB248F22213C1F6FF731A7048F222133B
:1008A000C1F6FF731B78DBB23F2B06D948F2221347
:1008B000C1F6FF734FF000021A7048F22213C1F61E
:1008C000FF731B78DAB248F22113C1F6FF731B786D
:1008D000DBB29A4206D148F22313C1F6FF734FF000
:1008E00001021A7046F26343C4F200031B78BB7125
:1008F000BB7903F02003002B9BD107F10C07BD4609
:1009000080BC704780B400AF2EE048F21F13C1F6E0
:10091000FF731B78DBB23F2B06D948F21F13C1F6D9
:10092000FF734FF000021A7046F24143C4F2000315
:1009300048F21F12C1F6FF721278D2B211464AF283
:100940006812C1F6FF72525CD2B21A7048F21F13DD
:10095000C1F6FF731B78DBB203F10103DAB248F290
:100960001F13C1F6FF731A7048F21F13C1F6FF730D
:100970001B78DAB248F22013C1F6FF731B789A4253
:1009800009D046F26443C4F200031B78DBB203F0E3
:100990000403002BB9D0BD4680BC704780B500AFC2
:1009A0004FF0280000F074FB4FF0030000F044FA11
:1009B0004FF0050000F06CFB4FF0030000F03CFA34
:1009C0004FF00F0000F064FB4FF0030000F034FA2A
:1009D0004FF0010000F05CFB4FF0020000F02CFA39
:1009E0004FF0050000F054FB4FF0060000F0B8F89F
:1009F0004FF00E0000F0B4F84FF02C0000F0B0F80B
:100A00004FF0080000F0ACF84FF0010000F0A8F83B
:100A10004FF00C0000F0A4F84FF0030000F0A0F835
:100A20004FF0050000F034FB80BD00BF80B500AF83
:100A30004FF00C0000F094F848F22613C1F6FF7353
:100A40004FF001021A7080BD80B500AF48F2271345
:100A5000C1F6FF731B78002B08D1FFF79FFF48F208
:100A60002713C1F6FF734FF001021A70FFF7DEFF84
:100A700080BD00BF80B582B000AF02460B46FA7160
:100A8000BB71FB79032B2AD801A252F823F000BFD7
:100A9000A10A0000B10A0000C10A0000D10A00004A
:100AA000BB79A3F18003DBB2184600F059F816E0D9
:100AB000BB79A3F14003DBB2184600F051F80EE019
:100AC000BB79A3F16C03DBB2184600F049F806E0ED
:100AD000BB79A3F12C03DBB2184600F041F807F113
:100AE0000807BD4680BD00BF80B584B000AF786008
:100AF0004FF00103BB737B681B78FB730CE0FB7B3F
:100B0000184600F011F8BA7B7B6813441B78FB731E
:100B1000BB7B03F10103BB73FB7B002BEFD107F120
:100B20001007BD4680BD00BF80B584B000AF03464E
:100B3000FB7100F031F8FB794FEA1313FB73FB7B79
:100B4000184600F023F9FB7903F00F03FB73FB7BDE
:100B5000184600F01BF907F11007BD4680BD00BF25
:100B600080B584B000AF0346FB7100F015F8FB7947
:100B70004FEA1313FB73FB7B184600F05DF9FB791A
:100B800003F00F03FB73FB7B184600F055F907F1E8
:100B90001007BD4680BD00BF80B582B000AF45F2F2
:100BA0002013C4F2000345F22012C4F200021278AE
:100BB000D2B202F080021A7045F22213C4F200038E
:100BC0001B78DBB223F00F03FB7145F22213C4F252
:100BD0000003FA7942F00F02D2B21A7045F22313E1
:100BE000C4F200031B78DBB223F00F03FB7145F264
:100BF0002313C4F20003FA791A7045F22413C4F2E5
:100C000000031B78DBB223F00F03FB7145F22413C2
:100C1000C4F20003FA791A7045F22013C4F20003FB
:100C200045F22012C4F200021278D2B202F0DF02C2
:100C30001A7045F22013C4F2000345F22012C4F2E8
:100C400000021278D2B242F04002D2B21A704FF0D3
:100C5000000000F041FA45F22013C4F2000345F20F
:100C60002012C4F200021278D2B242F01002D2B2C4
:100C70001A704FF0010000F02FFA45F22113C4F270
:100C800000031B78FB7145F22013C4F2000345F208
:100C90002012C4F200021278D2B202F0EF021A70EF
:100CA000FB7903F00803FB7145F22013C4F2000343
:100CB00045F22012C4F200021278D2B242F01002C1
:100CC000D2B21A704FF0010000F006FA45F220137C
:100CD000C4F2000345F22012C4F200021278D2B22C
:100CE00002F0EF021A70FB79002BB0D145F220130D
:100CF000C4F2000345F22012C4F200021278D2B20C
:100D000002F0BF021A7045F22013C4F2000345F24C
:100D10002012C4F200021278D2B202F080021A70DD
:100D200045F22213C4F2000345F22212C4F200027B
:100D30001278D2B202F0F0021A7045F22313C4F214
:100D400000031B78DBB223F00F03FB7145F2231382
:100D5000C4F20003FA7942F00F02D2B21A7045F2DF
:100D60002413C4F200031B78DBB223F00F03FB71E2
:100D700045F22413C4F20003FA7942F00F02D2B212
:100D80001A7007F10807BD4680BD00BF80B582B06C
:100D900000AF0346FB71FFF7FFFE45F22013C4F2DC
:100DA000000345F22012C4F200021278D2B242F0DF
:100DB0002002D2B21A7045F22013C4F2000345F2A9
:100DC0002012C4F200021278D2B202F0BF021A70EE
:100DD00045F22013C4F2000345F22012C4F20002CF
:100DE0001278D2B202F0F0021A7045F22013C4F267
:100DF000000345F22012C4F200021278D1B2FA794F
:100E000041EA0202D2B242F01002D2B21A704FF09E
:100E1000010000F061F945F22013C4F2000345F22D
:100E20002012C4F200021278D2B202F0EF021A705D
:100E300007F10807BD4680BD80B582B000AF03460C
:100E4000FB7145F22013C4F2000345F22012C4F2F4
:100E500000021278D2B202F09F021A7045F22013FB
:100E6000C4F2000345F22012C4F200021278D2B29A
:100E700002F0F0021A7045F22013C4F2000345F2AA
:100E80002012C4F200021278D1B2FA7941EA0202C9
:100E9000D2B242F01002D2B21A704FF0010000F04C
:100EA0001BF945F22013C4F2000345F22012C4F2EC
:100EB00000021278D2B202F0EF021A7007F10807AE
:100EC000BD4680BD80B582B000AF786000F042F8CA
:100ED000786800F00BF84FF0070000F01BF800F006
:100EE0002DF807F10807BD4680BD00BF80B485B06E
:100EF00000AF78604EF60853CEF200031B68FB602B
:100F0000FB6803F14C037A681A6007F11407BD46C9
:100F100080BC704780B483B000AF0346FB714EF2D3
:100F20000343CEF20003FA794FEA4212D2B21A70AA
:100F300007F10C07BD4680BC704700BF80B400AF0E
:100F40004EF20013CEF200034FF008021A60BD46C5
:100F500080BC704780B400AF4EF28013CEF2000325
:100F60004FF008021A60BD4680BC704780B582B061
:100F700000AF786000F042F8786800F00BF84FF0AE
:100F8000070000F01BF800F02DF807F10807BD4638
:100F900080BD00BF80B485B000AF78604EF60853C6
:100FA000CEF200031B68FB60FB6803F148037A681C
:100FB0001A6007F11407BD4680BC704780B483B047
:100FC00000AF0346FB714EF20243CEF20003FA7902
:100FD0004FEA4212D2B21A7007F10C07BD4680BC2C
:100FE000704700BF80B400AF4EF20013CEF2000392
:100FF0004FF004021A60BD4680BC704780B400AF59
:101000004EF28013CEF200034FF004021A60BD4688
:1010100080BC704780B400AF44F2A233C4F2000336
:1010200044F2A232C4F200021278D2B242F00102BB
:10103000D2B21A7044F2B233C4F2000344F2B232B4
:10104000C4F200021278D2B242F00102D2B21A7097
:10105000BD4680BC704700BF0230800803D000BF8F
:1010600001380046FCD17047EFF3108072B670472C
:1010700080F31088704700BF80B483B000AF034690
:10108000FB7101BE07F10C07BD4680BC704700BF75
:1010900080B582B000AF78600BE048F21013C1F663
:1010A000FF731B681846FFF7D7FF7B68A3F5004363
:1010B0007B607B68B3F5004FEFD848F20813C1F6A8
:1010C000FF731B687A6802FB03F31846FFF7C4FF3F
:1010D00007F10807BD4680BD80B582B000AF03466A
:1010E000FB80FA8848F20C13C1F6FF731B7803FBF0
:1010F00002F31846FFF7B0FF07F10807BD4680BDB1
:1011000080B584B000AF03463960FB714EF60853DA
:10111000CEF200031B68FB60FB791F2B03D94FF055
:101120000000FFF7A9FFFB7903F01F0303F1100391
:101130004FEA8302FB6813441B68BB60FB7903F032
:101140001F0303F110034FEA8302FB6813443A685C
:101150001A60BB68184607F11007BD4680BD00BF86
:1011600080B582B000AF02460B46FA71BB71BB7905
:10117000072B03D94FF00000FFF77EFFFB791F2BF1
:1011800003D94FF00000FFF777FFFB7903F01F034F
:1011900003F1604303F56443BA794FEA4212D2B2D5
:1011A0001A7007F10807BD4680BD00BF80B582B048
:1011B00000AF7860396078684FF000013A6800F05D
:1011C0000BFB07F10807BD4680BD00BF80B584B0AA
:1011D00000AFF860B9607A60F868B9687A6800F0C2
:1011E00033FA07F11007BD4680BD00BF80B487B059
:1011F00000AF786039604FF00003FB604FF00003F0
:10120000BB602CE0BB684FEA83027B6813441B6819
:101210003B613B69FB753B6923F0FF033B6117E0D2
:10122000FB684FEA43023B6813441B781A463B694C
:101230001344FA684FEA42013A680A4452781A7035
:10124000FB6803F10103FB60FB7D03F1FF33FB75DA
:10125000FB7D002BE4D1BB6803F10103BB60BB68DD
:101260000E2BCFD907F11C07BD4680BC704700BFCD
:1012700080B582B000AF44F28003C4F200034FF0A7
:1012800026021A8044F28203C4F200034FF01802CF
:101290001A7044F20033C4F200034FF002021A70D5
:1012A00044F20003C4F200034FF008021A7044F243
:1012B0000023C4F200034FF003021A7044F2A1634A
:1012C000C4F2000340F20812C4F600121278D2B23F
:1012D0001A7044F22223C4F200034FF008021A806D
:1012E00044F22023C4F2000341F251021A804FF06D
:1012F0000003FB714FF019033B6019E0FB794FEAE3
:101300004303DAB244F22523C4F200031B78DBB2B4
:1013100003F0010342EA0303DBB203F00303FB71B2
:101320004FF4F070FFF798FE3B6803F1FF333B602A
:101330003B68002B02D0FB79032BDFD144F204037E
:10134000C4F200034FF480721A8044F20403C4F222
:1013500000034FF007021A7044F20603C4F20003C0
:101360004FF000021A7044F20803C4F200034FF079
:1013700048021A7044F20403C4F200034FF0000262
:101380001A7044F20103C4F200034FF002021A7013
:1013900044F2A233C4F2000344F2A232C4F20002C7
:1013A0001278D2B242F00102D2B21A7007F10807E5
:1013B000BD4680BD80B483B000AF40F2CF13C4F609
:1013C00000131B78FB7145F66E03C4F20003FA7933
:1013D00002F007021A7045F66F03C4F20003FA79AF
:1013E0004FEA1212D2B21A7045F67603C4F2000325
:1013F0004FF044021A7007F10C07BD4680BC7047DD
:1014000080B586B000AF72B644F2E863C4F2000360
:1014100044F2E862C4F200021278D2B242F004024E
:10142000D2B21A704FF00003FB702FE0FA78134627
:101430004FEA430313444FEA43031A4641F6741339
:10144000C0F2000313447B607B681A7859784FEA36
:10145000012141EA020299784FEA014141EA020280
:10146000DB784FEA036343EA02031A467B68197983
:101470005B794FEA032343EA01039BB21046194606
:10148000FFF794FEFB7803F10103FB70FB78092B57
:10149000CCD94FF00003FB7043E0FA7813464FEAD3
:1014A000830313444FEA43031A4641F6B013C0F2D4
:1014B00000031344BB60BB681A7859784FEA0121D6
:1014C00041EA020299784FEA014141EA0202DB78DF
:1014D0004FEA036343EA0203FB60BB681A79597958
:1014E0004FEA012141EA020299794FEA014141EABA
:1014F0000202DB794FEA036343EA02033B61BB6804
:101500001A7A5B7A4FEA032343EA0203FB82FB8ADF
:10151000F86839691A46FFF759FEFB7803F10103B1
:10152000FB70FB78002BB8D04FF0904040F23C01AC
:10153000C4F60001FFF75AFE45F20303C4F20103AB
:1015400045F20302C4F201021278D2B242F0020262
:10155000D2B21A7045F21303C4F2010345F213022A
:10156000C4F201021278D2B242F00202D2B21A7070
:1015700044F2A033C4F2000344F2A032C4F20002E9
:101580001278D2B242F04002D2B21A7044F2C233A0
:10159000C4F2000344F2C232C4F200021278D2B2A2
:1015A00042F01002D2B21A7045F20210C4F20000EA
:1015B00040F20841C4F600014FF00802FFF706FEB2
:1015C00045F22210C4F2000040F21041C4F60001BE
:1015D0004FF00802FFF7FAFD44F22233C4F2000391
:1015E00044F22232C4F200021278D2B242F008026F
:1015F000D2B21A7044F60003C4F200034FF00102A5
:101600001A70FFF735FE44F60003C4F200036FF0D2
:101610007E021A7040F20403C4F208034FF0010284
:101620001A70FFF7C7FE44F2B030C4F2000044F273
:10163000A031C4F200014FF00E02FFF7C7FD07F121
:101640001807BD4680BD00BF032A2DE9F0070BD85F
:101650003AB1002311F803C000F803C001339342EC
:10166000F8D1BDE8F007704782180C46034603E046
:1016700014F8011C03F8011C03F003061946A446E4
:1016800001330134002EF3D11CF00304634608BF7C
:10169000C1EB020C68D06542C4F1040A0CEB0507EB
:1016A00033464FEACA0A5CF805604FEAC408551A87
:1016B00008E057F8044F264604FA0AF449EA0404FD
:1016C000CC5004335C18032D26FA08F9A5F1040563
:1016D0000CEB0306EDDC002302E0F15CE154013386
:1016E00019199142F9D3BCE753F8404C41F8404CEA
:1016F00053F83C4C41F83C4C53F8384C41F8384CCA
:1017000053F8344C41F8344C53F8304C41F8304CD9
:1017100053F82C4C41F82C4C53F8284C41F8284CE9
:1017200053F8244C41F8244C53F8204C41F8204CF9
:1017300053F81C4C41F81C4C53F8184C41F8184C09
:1017400053F8144C41F8144C53F8104C41F8104C19
:1017500053F80C4C41F80C4C53F8084C41F8084C29
:1017600053F8044C41F8044C1C460D4640334031BC
:10177000BCF13F0FACF1400CB6DC21462B46541BAC
:101780000FE051F8105C43F8105C51F80C5C43F822
:101790000C5C51F8085C43F8085C51F8045C43F8B1
:1017A000045C0F2C0D469C4601F1100103F110035F
:1017B000A4F11004E5DCCCEB0201002303E0EC58BB
:1017C0004CF8034004335E19032903EB0C04A1F128
:1017D0000401F4DC7FE700BF032AC9B230B407D8A4
:1017E00022B10023C15401339342FBD130BC704776
:1017F00000EB020C034601E003F8011C03F00304B4
:101800001A460133002CF7D14FF00133C2EB0C0420
:1018100003FB01F31FE042F8403C42F83C3C42F835
:10182000383C42F8343C42F8303C42F82C3C42F818
:10183000283C42F8243C42F8203C42F81C3C42F848
:10184000183C42F8143C42F8103C42F80C3C42F878
:10185000083C42F8043C154640323F2CA4F14004B9
:10186000D9DC2A46C5EB0C0407E042F8103C42F8EC
:101870000C3C42F8083C42F8043C154610320F2C50
:10188000A4F11004F1DC2A46C5EB0C0501E042F896
:10189000043C14460432032DA5F10405F7DC01E0F5
:1018A00004F8011B6445FBD3A0E700BF08B500F0B6
:1018B00017F8074800B10068064901B1096800221D
:1018C000FEF7E4FC044B0BB1AFF30080FEE700BF72
:1018D000000000000000000000000000FEE7000023
:1018E00070B541F6C81641F6C815C0F20006C0F240
:1018F0000005761BB61006D0002455F824300134BC
:101900009847A642F9D841F6C81541F6D016C0F25C
:101910000005C0F20006761B00F050F8B61006D0A5
:10192000002455F8243001349847A642F9D870BDF8
:101930000010D00720202020202020202020202040
:101940002020202000000000696E697469616C69C4
:101950007A696E672E2E2E0072756E6E696E672E16
:101960002E2E00007472616E7366657220646F6E55
:101970006500000010510040100030510040400050
:10198000C05100401000F051004010000000014024
:10199000800400050140000B0014014000080040D5
:1019A0000140000A004C01400002005001402000AC
:1019B000800401408803004880000000F8B500BFA3
:1019C000F8BC08BC9E46704731010000710300005E
:1019D000F8B500BFF8BC08BC9E4670471D0100006A
:1019E00000000000F81900000080FF1F180100002F
:0819F000982000000000000037
:1019F80000000000000000000000000000000000DF
:101A080000000000000000000000000000000000CE
:101A180000000000000000000000000000000000BE
:101A280000000000000000000000000000000000AE
:101A3800000000000000000000000000000000009E
:101A4800000000000000000000000000000000008E
:101A5800000000000000000000000000000000007E
:101A6800000000000000000000000000000000006E
:101A7800000000000000000000000000000000005E
:101A8800000000000000000000000000000000004E
:101A9800000000000000000000000000000000003E
:101AA800000000000000000000000000000000002E
:101AB800000000000000000000000000000000001E
:101AC800000000000000000000000000000000000E
:101AD80000000000000000000000000000000000FE
:101AE80000000000000000000000000000000000EE
:101AF8000000000000366E01C05D00001800000004
:081B08000000E02E00000000C7
:040000030000034DA9
:00000001FF
