:40000000008000209D050000BD240000BD240000BD240000BD240000BD240000BD240000BD240000BD240000BD240000BD240000BD240000BD240000BD240000BD24000030
:40004000BD240000BD240000BD240000BD240000BD240000BD240000BD240000BD240000BD240000BD240000BD240000BD240000BD240000BD240000BD240000BD24000070
:40008000BD240000BD240000BD240000BD240000BD240000BD240000BD240000BD240000BD240000BD240000BD240000BD240000BD240000BD240000BD240000BD24000030
:4000C00080B51448144B21E05C689968DD688C420CD0002205E0A6180832D6E9008941E902898C460831AA42F5D101E004EB050C1C696146002204E008320026002741E9DE
:4001000002670831A242F7D1143301380028DBD102F0BCF9010000001426000048F22813C1F6FF731A780AB901201870704700BF48F20010C1F6FF7008B503682BB140F283
:400140000003C0F2000303B1984708BD80B483B000AF0346FB80FB88042B19D801A252F823F000BF850100007F01000079010000910100008B0100004FF050030AE04FF0DA
:40018000520307E04FF04E0304E04FF0440301E04FF03F03184607F10C07BD4680BC704780B582B000AF0346FB804FF0000000F0B7FD48F20413C1F6FF73FA881A8048F2BB
:4001C0000413C1F6FF731B88DBB2184600F0A8FD07F10807BD4680BD80B584B000AF786039604FF00003BB817B689BB24FEA83037B8182E0BB89042B38D801A252F823F07E
:400200001502000041020000570200006D0200002B02000042F21050C0F2000000F0A4F94FF0000000F07CFD31E042F21850C0F2000000F099F94FF0040000F071FD26E06C
:4002400042F22050C0F2000000F08EF94FF0010000F066FD1BE042F22850C0F2000000F083F94FF0020000F05BFD10E042F23050C0F2000000F062F942F23850C0F20000C1
:4002800000F072F94FF0000000F04AFDFEE74FF00003FB8116E04FF001004FF00F0100F049FA3B689AB2FB89C3EB02039BB2184600F0AEFC4FF47A7000F04EFDFB8903F1C7
:4002C0000103FB81FA893B689A42E4DBBB89002B03D14FF00103BB810BE0BB89042B02D14FF0000301E04FF00203BA8902FB03F3BB817B8903F1FF337B817B89002B7FF429
:4003000079AF07F11007BD4680BD00BF80B500AF48F20413C1F6FF731B88042B02D14FF0010301E04FF004031846FFF739FF01F0A5FC80BD90B583B000AF00F0E5F942F296
:400340004050C0F2000000F0F9F842F25050C0F2000000F009F901F083FB42F25850C0F2000000F001F900F095FF01F099F842F25C50C0F2000000F0F7F800F07BFD42F2E8
:400380006050C0F2000000F0EFF84FF001004FF00301FFF721FF42F26850C0F2000000F0E3F862B640F20D30C0F2000001F006FC4FF00400FFF7F4FE42F27450C0F2000001
:4003C00000F0BCF842F27C50C0F2000000F0CCF84FF001004FF00C0100F0ACF900F062FE0346184600F0FEFB61E001F09DF803469BB2FB804FF001004FF0080100F09AF90F
:4004000042F28450C0F2000000F0CEF94FF001004FF0070100F08EF9FB884FF0640202FB03F348F20102C8F2000282FB03121A444FEAE2324FEAE373C3EB02039BB218460F
:4004400000F0E6FBFC8800F02DFE034603FB04F348F20102C8F2000282FB03121A444FEAE2324FEAE373C3EB02039BB2184600F0DDFD4FF000004FF0070100F05BF948F2DD
:400480000413C1F6FF731B881846FFF75FFE0346184600F0A9F94FF000004FF00C0100F049F900F093FD0346184600F09BFB4FF0000001F009F80346002B96D142F28850ED
:4004C000C0F2000000F03AF842F26850C0F2000000F04AF801F086FB42F25C50C0F2000000F042F800F050FD42F25850C0F2000000F03AF800F0ECFE42F25050C0F20000DD
:4005000000F032F801F0CEFA07F10C07BD4690BD80B582B000AF78607B68DBB218464FF0000100F007F942F29450C0F2000000F03BF907F10807BD4680BD00BF80B582B046
:4005400000AF78604FF0010000F078F94FF000004FF0000100F0EEF8786800F025F907F10807BD4680BD00BF80B582B000AF78604FF00100FFF7CCFF4FF001004FF000019B
:4005800000F0D8F8786800F00FF907F10807BD4680BD00BF80B400AFFEE700BF054B1C7844F001041C70044B1A78D2B2034B1A70FFF786FDE8460040FA460040BC76004057
:4005C00080B582B000AF4EF60C53CEF2000340F20042C0F2FA521A604EF61453CEF200034EF61452CEF20002126842F400721A604FF000037B6014E07A687B684FEA83018A
:4006000040F20003C0F200030B441B68194648F20003C1F6FF7343F822107B6803F101037B607B682F2BE7D947F2BC63C4F200031B78DAB248F23413C1F6FF731A704EF671
:400640000853CEF2000348F20002C1F6FF721A6001F0E8FC07F10807BD4680BD80B500AF4FF0280000F078FB4FF0030000F052FA4FF0050000F070FB4FF0030000F04AFA21
:400680004FF00F0000F068FB4FF0030000F042FA4FF0010000F060FB4FF0020000F03AFA4FF0050000F058FB4FF0060000F0C6F84FF00E0000F0C2F84FF02C0000F0BEF8B9
:4006C0004FF0080000F0BAF84FF0010000F0B6F84FF00C0000F0B2F84FF0030000F0AEF84FF0050000F038FB80BD00BF80B500AF4FF00C0000F0A2F848F22913C1F6FF73BB
:400700004FF001021A7080BD80B500AF48F22A13C1F6FF731B78002B08D1FFF79FFF48F22A13C1F6FF734FF001021A70FFF7DEFF80BD00BF80B582B000AF02460B46FA71AC
:40074000BB71FB79032B2AD801A252F823F000BF61070000710700008107000091070000BB79A3F18003DBB2184600F067F816E0BB79A3F14003DBB2184600F05FF80EE044
:40078000BB79A3F16C03DBB2184600F057F806E0BB79A3F12C03DBB2184600F04FF807F10807BD4680BD00BF80B584B000AF78604FF00103BB737B681B78FB730CE0FB7B2C
:4007C000184600F01FF8BA7B7B6813441B78FB73BB7B03F10103BB73FB7B002BEFD107F11007BD4680BD00BF80B582B000AF0346FB71FB79184600F005F807F10807BD46C5
:4008000080BD00BF80B584B000AF0346FB7100F031F8FB794FEA1313FB73FB7B184600F023F9FB7903F00F03FB73FB7B184600F01BF907F11007BD4680BD00BF80B584B07F
:4008400000AF0346FB7100F015F8FB794FEA1313FB73FB7B184600F05DF9FB7903F00F03FB73FB7B184600F055F907F11007BD4680BD00BF80B582B000AF45F22013C4F27F
:40088000000345F22012C4F200021278D2B202F080021A7045F22213C4F200031B78DBB223F00F03FB7145F22213C4F20003FA7942F00F02D2B21A7045F22313C4F2000323
:4008C0001B78DBB223F00F03FB7145F22313C4F20003FA791A7045F22413C4F200031B78DBB223F00F03FB7145F22413C4F20003FA791A7045F22013C4F2000345F220129C
:40090000C4F200021278D2B202F0DF021A7045F22013C4F2000345F22012C4F200021278D2B242F04002D2B21A704FF0000000F037FA45F22013C4F2000345F22012C4F21E
:4009400000021278D2B242F01002D2B21A704FF0010000F025FA45F22113C4F200031B78FB7145F22013C4F2000345F22012C4F200021278D2B202F0EF021A70FB7903F07D
:400980000803FB7145F22013C4F2000345F22012C4F200021278D2B242F01002D2B21A704FF0010000F0FCF945F22013C4F2000345F22012C4F200021278D2B202F0EF02C2
:4009C0001A70FB79002BB0D145F22013C4F2000345F22012C4F200021278D2B202F0BF021A7045F22013C4F2000345F22012C4F200021278D2B202F080021A7045F2221302
:400A0000C4F2000345F22212C4F200021278D2B202F0F0021A7045F22313C4F200031B78DBB223F00F03FB7145F22313C4F20003FA7942F00F02D2B21A7045F22413C4F279
:400A400000031B78DBB223F00F03FB7145F22413C4F20003FA7942F00F02D2B21A7007F10807BD4680BD00BF80B582B000AF0346FB71FFF7FFFE45F22013C4F2000345F2B9
:400A80002012C4F200021278D2B242F02002D2B21A7045F22013C4F2000345F22012C4F200021278D2B202F0BF021A7045F22013C4F2000345F22012C4F200021278D2B2FB
:400AC00002F0F0021A7045F22013C4F2000345F22012C4F200021278D1B2FA7941EA0202D2B242F01002D2B21A704FF0010000F057F945F22013C4F2000345F22012C4F2FD
:400B000000021278D2B202F0EF021A7007F10807BD4680BD80B582B000AF0346FB7145F22013C4F2000345F22012C4F200021278D2B202F09F021A7045F22013C4F2000394
:400B400045F22012C4F200021278D2B202F0F0021A7045F22013C4F2000345F22012C4F200021278D1B2FA7941EA0202D2B242F01002D2B21A704FF0010000F011F945F29E
:400B80002013C4F2000345F22012C4F200021278D2B202F0EF021A7007F10807BD4680BD80B582B000AF0346FB71FB794FEA1313DBB21A4642F2A853C0F200039B5C1846A2
:400BC000FFF712FEFB7903F00F0242F2A853C0F200039B5C1846FFF707FE07F10807BD4680BD00BF80B582B000AF0346FB80FB884FEA13239BB2DBB21846FFF7D1FFFB88F0
:400C0000DBB21846FFF7CCFF07F10807BD4680BD80B586B000AF0346FB804FF00003BB752AE0B87DFA884CF6CD43CCF6CC43A3FB02134FEAD3010B464FEA83030B444FEA35
:400C40004303C3EB02039BB2DBB203F13003DAB207F1180101EB000303F8102CFA884CF6CD43CCF6CC43A3FB02134FEAD303FB80BB7D03F10103BB75FB88092BD1D8B87DE0
:400C8000FA884CF6CD43CCF6CC43A3FB02134FEAD3010B464FEA83030B444FEA4303C3EB02039BB2DBB203F13003DAB207F1180101EB000303F8102CBB7DFB7512E0FA7D69
:400CC000BB7DC3EB0203BA7D07F118010A4412F8102C07F118010B4403F8082CBB7D03F1FF33BB75BB7D002BE9D1FB7D3A7A07F118010B4403F8082CFB7D03F1010307F1D0
:400D0000180213444FF0000203F8082C07F110031846FFF749FD07F11807BD4680BD00BF80B483B000AF0346FB7146F27A43C4F20003FA791A7007F10C07BD4680BC7047A0
:400D400080B483B000AF0346FB7101BE07F10C07BD4680BC704700BF80B582B000AF78600BE048F21413C1F6FF731B68184601F04BFA7B68A3F500437B607B68B3F5004F3C
:400D8000EFD848F20C13C1F6FF731B687A6802FB03F3184601F038FA07F10807BD4680BD80B582B000AF0346FB80FA8848F21013C1F6FF731B7803FB02F3184601F024FAF5
:400DC00007F10807BD4680BD80B584B000AF03463960FB714EF60853CEF200031B68FB60FB791F2B03D94FF00000FFF7A9FFFB7903F01F0303F110034FEA8302FB68134487
:400E00001B68BB60FB7903F01F0303F110034FEA8302FB6813443A681A60BB68184607F11007BD4680BD00BF80B582B000AF02460B46FA71BB71BB79072B03D94FF000009A
:400E4000FFF77EFFFB791F2B03D94FF00000FFF777FFFB7903F01F0303F1604303F56443BA794FEA4212D2B21A7007F10807BD4680BD00BF80B500AF48F22B13C1F6FF73A2
:400E80001B78002B08D100F00BF848F22B13C1F6FF734FF001021A7000F060F880BD00BF80B582B000AF46F27B43C4F200031B78DBB223F03F03BB7146F27B43C4F20003E2
:400EC000BA7942F00902D2B21A7046F29A43C4F2000346F29A42C4F200021278D2B242F00102D2B21A7046F29B43C4F2000346F29B42C4F200021278D2B242F00102D2B226
:400F00001A704FF0310000F051F84FF0310000F07DF84FF0180000F089F84FF0000000F095F801F079F90346FB7146F29A43C4F2000346F29A42C4F200021278D2B242F033
:400F40001002D2B21A70FB79184601F069F900F04FF807F10807BD4680BD00BF80B400AF46F27B43C4F2000346F27B42C4F200021278D2B26FEA42626FEA5262D2B21A708A
:400F8000BD4680BC704700BF80B400AF46F27B43C4F2000346F27B42C4F200021278D2B202F07F021A70BD4680BC704780B483B000AF0346FB8046F61403C4F20003FA88D4
:400FC0001A8007F10C07BD4680BC704780B400AF46F63403C4F200031B8846F6B403C4F200031B889BB21846BD4680BC704700BF80B500AF01E000F049F800F037F8034697
:4010000003F01003002BF6D180BD00BF80B483B000AF0346FB8046F69403C4F20003FA881A8007F10C07BD4680BC704780B483B000AF0346FB8046F65403C4F20003FA8891
:401040001A8007F10C07BD4680BC704780B483B000AF0346FB7146F28A43C4F20003FA791A7007F10C07BD4680BC704780B483B000AF46F26A43C4F200031B78FB71FB7927
:40108000184607F10C07BD4680BC704780B400AF46F6B403C4F200031B889BB21846BD4680BC704780B400AF46F69403C4F200031B889BB21846BD4680BC704780B500AF67
:4010C0004FF0010000F042FA4FF0100000F00AFD4FF0100000F022FD4FF0020048F658614FF400424FF0100300F09CFB80BD00BF80B500AF44F2AA33C4F2000344F2AA328C
:40110000C4F200021278D2B242F00102D2B21A7044F2AA33C4F2000344F2AA32C4F200021278D2B242F01002D2B21A7044F2BA33C4F2000344F2BA32C4F200021278D2B2EC
:4011400042F00102D2B21A7044F2BA33C4F2000344F2BA32C4F200021278D2B242F01002D2B21A7048F21813C1F6FF731B78DBB2012B47D144F2F863C4F2000344F2F8624A
:40118000C4F200021278D2B242F00202D2B21A7044F2F963C4F2000344F2F962C4F200021278D2B242F00202D2B21A7045F69103C4F2000345F69102C4F200021278D2B223
:4011C00042F00302D2B21A704FF00300FFF7E8FD44F2F863C4F2000344F2F862C4F200021278D2B202F0FD021A7044F2F963C4F2000344F2F962C4F200021278D2B202F0DE
:40120000FD021A7045F67703C4F2000345F67702C4F200021278D2B242F00602D2B21A7044F2A133C4F2000344F2A132C4F200021278D2B242F00102D2B21A7044F2B13306
:40124000C4F2000344F2B132C4F200021278D2B242F00102D2B21A7044F2A233C4F2000344F2A232C4F200021278D2B242F00102D2B21A7044F2B233C4F2000344F2B232CE
:40128000C4F200021278D2B242F00102D2B21A7080BD00BF80B500AF48F22E13C1F6FF731B78002B10D148F22F13C1F6FF731B78DBB2002B01D1FFF701FF48F22E13C1F618
:4012C000FF734FF001021A70FFF712FF80BD00BF80B500AF44F60063C4F2000344F60062C4F200021278D2B202F0FE021A7044F60163C4F2000344F60162C4F2000212785F
:40130000D2B242F00402D2B21A7044F2F863C4F2000344F2F862C4F200021278D2B242F00202D2B21A7044F2F963C4F2000344F2F962C4F200021278D2B242F00202D2B2A3
:401340001A7045F69103C4F2000345F69102C4F200021278D2B202F0FC021A7045F69203C4F2000345F69202C4F200021278D2B202F0F7021A704FF00300FFF711FD44F23E
:40138000F863C4F2000344F2F862C4F200021278D2B202F0FD021A7044F2F963C4F2000344F2F962C4F200021278D2B202F0FD021A7044F2AA33C4F2000344F2AA32C4F297
:4013C00000021278D2B202F0EF021A7044F2AA33C4F2000344F2AA32C4F200021278D2B202F0FE021A7044F2BA33C4F2000344F2BA32C4F200021278D2B202F0FE021A7010
:4014000044F2BA33C4F2000344F2BA32C4F200021278D2B202F0EF021A7045F67703C4F2000345F67702C4F200021278D2B202F0F9021A7044F2A133C4F2000344F2A13250
:40144000C4F200021278D2B202F0FE021A7044F2B133C4F2000344F2B132C4F200021278D2B202F0FE021A7044F2A233C4F2000344F2A232C4F200021278D2B202F0FE0276
:401480001A7044F2B233C4F2000344F2B232C4F200021278D2B202F0FE021A7080BD00BF80B400AF44F60063C4F2000344F60062C4F200021278D2B242F00102D2B21A7098
:4014C000BD4680BC704700BF80B485B000AF0346FB7148F22D13C1F6FF731B78DBB2012B0CD148F22C13C1F6FF731B78FB73FB7B012B12D0FB79002BF3D00EE044F6016389
:40150000C4F200031B78DBB203F00103FB73FB7B012B02D0FB79002BF0D0FB7B184607F11407BD4680BC704780B483B000AF44F61063C4F200031B88FB80FB881BB2184675
:4015400007F10C07BD4680BC704700BF80B582B000AF0346FB7148F22D13C1F6FF734FF000021A7048F22E13C1F6FF731B78002B68D145F69603C4F200034FF007021A7078
:4015800045F69703C4F200034FF000021A7045F69E03C4F200034FF000021A7045F60733C4F2000345F60732C4F200021278D2B242F01802D2B21A7045F69303C4F2000326
:4015C0004FF000021A7045F68833C4F200034FF000021A7045F68933C4F200034FF000021A7045F68003C4F200034FF00A021A7045F68103C4F200034FF000021A7045F661
:401600008203C4F200034FF07A021A7045F68303C4F200034FF000021A7045F68D03C4F200034FF000021A7044F60163C4F200034FF014021A7044F61463C4F200034FF0B4
:4016400001021A70FB79012B40F0E88044F60063C4F200034FF038021A7044F60263C4F200034FF004021A7044F60363C4F200034FF006021A7044F60463C4F200034FF062
:4016800000021A7044F60563C4F200034FF000021A7044F60663C4F200034FF03F021A7044F60863C4F200034FF000021A7044F60963C4F200034FF000021A7044F60A6318
:4016C000C4F200034FF000021A7045F68403C4F200034FF050021A7045F68503C4F200034FF00E021A7045F68603C4F200034FF03E021A7045F68703C4F200034FF0000236
:401700001A7045F68803C4F200034FF012021A7045F68903C4F200034FF013021A7045F68A03C4F200034FF044021A7045F68B03C4F200034FF048021A7045F68C03C4F2C0
:4017400000034FF001021A7045F68E03C4F200034FF001021A7045F68F03C4F200034FF011021A7045F69003C4F200034FF019021A7045F69103C4F200036FF068021A70A1
:401780004FF0520000F01CF945F69403C4F200034FF058021A7045F69503C4F200034FF000021A7045F69A03C4F200034FF005021A7045F69B03C4F200034FF002021A70CE
:4017C00045F69C03C4F200034FF001021A7045F69D03C4F200034FF000021A704FF0000000F0D6F948F21C13C1F6FF7343F233321A604FF01D004FF00701FFF715FB4FF09F
:401800001D0041F65521C0F20001FFF7DDFA4EF20013CEF200034FF000521A6007F10807BD4680BD80B487B000AFF871B9807A807B70FB79A3F10403062B5DD801A252F8F3
:4018400023F000BF61180000F9180000F918000087180000AD180000F9180000D31800007B780F2B07D940F21813C4F600131B78DBB2FB7343E040F21C13C4F600131B78F2
:40188000DBB2FB733BE07B780F2B07D940F21913C4F600131B78DBB2FB7330E040F21D13C4F600131B78DBB2FB7328E07B780F2B07D940F21A13C4F600131B78DBB2FB73B0
:4018C0001DE040F21E13C4F600131B78DBB2FB7315E07B780F2B07D940F21B13C4F600131B78DBB2FB730AE040F21F13C4F600131B78DBB2FB7302E04FF00003FB73FB79C1
:40190000002B11D0FB79012B0ED0FB79022B0BD0FB79032B08D0FB79052B05D0FB79062B02D0FB79092B03D14FF000033B8206E097F90F309BB24FEA43139BB23B823A8A5D
:40194000BB8813447B827B8A7A8802FB03F37B617B694FEAD3337B827B780D2B12D87A8A7B786FEA030303F10F0342FA03F37B8244F60E63C4F200037A7802F10102D2B26A
:401980001A7006E044F60E63C4F200034FF00F021A7044F60C63C4F200037A8AD2B21A7044F60D63C4F200037A8A4FEA122292B2D2B21A7007F11C07BD4680BC704700BF0F
:4019C00080B582B000AF0346FB7144F2F863C4F2000344F2F862C4F200021278D2B242F00302D2B21A7044F2F963C4F2000344F2F962C4F200021278D2B242F00302D2B2DA
:401A00001A7045F69203C4F20003FA791A704FF00300FFF7C5F944F2F863C4F2000344F2F862C4F200021278D2B202F0FC021A7044F2F963C4F2000344F2F962C4F20002F2
:401A40001278D2B202F0FC021A7007F10807BD4680BD00BF80B400AFBD4680BC704700BF80B400AF44F2A233C4F2000344F2A232C4F200021278D2B242F00202D2B21A7085
:401A800044F2B233C4F2000344F2B232C4F200021278D2B242F00202D2B21A70BD4680BC704700BF80B400AF44F2A233C4F2000344F2A232C4F200021278D2B202F0FD0211
:401AC0001A7044F2B233C4F2000344F2B232C4F200021278D2B202F0FD021A70BD4680BC704700BF80B483B000AF0346FB7144F20213C4F2000344F20212C4F2000212781D
:401B0000D1B2FA7902F0F80241EA0202D2B21A7007F10C07BD4680BC704700BF80B483B000AF0346FB7144F28203C4F2000344F28202C4F200021278D1B2FA7902F0F802A9
:401B400041EA0202D2B21A7007F10C07BD4680BC704700BF80B582B000AF4FF00003FB7107E0FB79184600F033FAFB7903F10103FB71FB79012BF4D948F22013C1F6FF73F3
:401B80004FF0FF321A7007F10807BD4680BD00BF80B582B000AF0346FB71FFF7DBFFFB79184600F0EFF948F22013C1F6FF73FA791A7007F10807BD4680BD00BF80B582B0E0
:401BC00000AF786000F04EF8786800F017F84FF0070000F027F800F039F807F10807BD4680BD00BF80B500AF00F03CF840F29550C0F2000000F002F880BD00BF80B485B0AD
:401C000000AF78604EF60853CEF200031B68FB60FB6803F140037A681A6007F11407BD4680BC704780B483B000AF0346FB714EF20043CEF20003FA794FEA4212D2B21A70BF
:401C400007F10C07BD4680BC704700BF80B400AF4EF20013CEF200034FF001021A60BD4680BC704780B400AF4EF28013CEF200034FF001021A60BD4680BC704780B400AFEB
:401C80004EF28023CEF200034FF001021A60BD4680BC704780B582B000AF7860396078684FF000013A6800F087FB07F10807BD4680BD00BF80B584B000AFF860B9607A60A8
:401CC000F868B9687A6800F0AFFA07F11007BD4680BD00BF80B487B000AF786039604FF00003FB604FF00003BB602CE0BB684FEA83027B6813441B683B613B69FB753B6957
:401D000023F0FF033B6117E0FB684FEA43023B6813441B781A463B691344FA684FEA42013A680A4452781A70FB6803F10103FB60FB7D03F1FF33FB75FB7D002BE4D1BB68D1
:401D400003F10103BB60BB68142BCFD907F11C07BD4680BC704700BF80B582B000AF44F28003C4F200034FF008021A8044F28203C4F200034FF018021A7044F28403C4F241
:401D800000034FF017021A8044F28603C4F200034FF018021A7044F20010C4F2000040F2E011C4F600014FF00402FFF783FF44F20033C4F200034FF002021A7044F2000314
:401DC000C4F200034FF008021A7044F20023C4F200034FF003021A7044F2A163C4F2000340F20812C4F600121278D2B21A7044F22223C4F200034FF008021A8044F2202344
:401E0000C4F2000341F251021A804FF00003FB714FF019033B6019E0FB794FEA4303DAB244F22523C4F200031B78DBB203F0010342EA0303DBB203F00303FB714FF4F07098
:401E400000F0E2F93B6803F1FF333B603B68002B02D0FB79032BDFD144F20403C4F200034FF480721A8044F20403C4F200034FF007021A7044F20603C4F200034FF000027B
:401E80001A7044F20803C4F200034FF048021A7044F20403C4F200034FF000021A7044F20103C4F200034FF002021A7044F20B03C4F200034FF004021A7044F2A233C4F27D
:401EC000000344F2A232C4F200021278D2B242F00302D2B21A7044F2A133C4F2000344F2A132C4F200021278D2B242F00102D2B21A7044F2A033C4F2000344F2A032C4F275
:401F000000021278D2B26FEA42626FEA5262D2B21A7007F10807BD4680BD00BF80B483B000AF40F2CF13C4F600131B78FB7145F66E03C4F20003FA7902F007021A7045F6E5
:401F40006F03C4F20003FA794FEA1212D2B21A7045F26D13C4F200034FF020021A7045F60033C4F200034FF002021A7045F67603C4F200034FF044021A7007F10C07BD467F
:401F800080BC704780B483B000AF0346FB71FB79012B18D8FA7942F2B853C0F2000353F82220F97942F2B853C0F2000353F821301978F87942F2C053C0F200031B5C41EA3D
:401FC0000303DBB2137007F10C07BD4680BC704780B483B000AF0346FB71FB79012B1BD8FA7942F2B853C0F2000353F82220F97942F2B853C0F2000353F821301978F87974
:4020000042F2C053C0F200031B5C6FEA0303DBB201EA0303DBB2137007F10C07BD4680BC704700BF80B582B000AF72B644F2E863C4F2000344F2E862C4F200021278D2B2C2
:4020400042F00402D2B21A704FF00003FB702FE0FA7813464FEA430313444FEA43031A4642F2C453C0F2000313447B607B681A7859784FEA012141EA020299784FEA014150
:4020800041EA0202DB784FEA036343EA02031A467B6819795B794FEA032343EA01039BB210461946FFF7F6FDFB7803F10103FB70FB78062BCCD94FF0904040F25401C4F63A
:4020C0000001FFF707FE45F20303C4F2010345F20302C4F201021278D2B242F00202D2B21A7045F21303C4F2010345F21302C4F201021278D2B242F00202D2B21A7044F212
:40210000A033C4F2000344F2A032C4F200021278D2B242F04002D2B21A7044F2C233C4F2000344F2C232C4F200021278D2B242F01002D2B21A7045F2C210C4F2000040F2AC
:40214000B811C4F600014FF00802FFF7B3FD45F2F010C4F2000040F2C011C4F600014FF00A02FFF7A7FD45F22210C4F2000040F2CC11C4F600014FF00802FFF79BFD45F265
:402180006010C4F2000040F2D411C4F600014FF00A02FFF78FFD44F22233C4F2000344F22232C4F200021278D2B242F00802D2B21A7044F60003C4F200034FF001021A70BA
:4021C000FFF7CAFD44F60003C4F200036FF07E021A7040F20403C4F208034FF001021A70FFF79CFE44F2B030C4F2000044F2A031C4F200014FF00E02FFF75CFD07F108073E
:40220000BD4680BD000000000230800803D000BF01380046FCD17047EFF3108072B6704780F31088704700BF032A2DE9F0070BD83AB1002311F803C000F803C00133934282
:40224000F8D1BDE8F007704782180C46034603E014F8011C03F8011C03F003061946A44601330134002EF3D11CF00304634608BFC1EB020C68D06542C4F1040A0CEB050767
:4022800033464FEACA0A5CF805604FEAC408551A08E057F8044F264604FA0AF449EA0404CC5004335C18032D26FA08F9A5F104050CEB0306EDDC002302E0F15CE154013303
:4022C00019199142F9D3BCE753F8404C41F8404C53F83C4C41F83C4C53F8384C41F8384C53F8344C41F8344C53F8304C41F8304C53F82C4C41F82C4C53F8284C41F8284CCE
:4023000053F8244C41F8244C53F8204C41F8204C53F81C4C41F81C4C53F8184C41F8184C53F8144C41F8144C53F8104C41F8104C53F80C4C41F80C4C53F8084C41F8084C5D
:4023400053F8044C41F8044C1C460D4640334031BCF13F0FACF1400CB6DC21462B46541B0FE051F8105C43F8105C51F80C5C43F80C5C51F8085C43F8085C51F8045C43F814
:40238000045C0F2C0D469C4601F1100103F11003A4F11004E5DCCCEB0201002303E0EC584CF8034004335E19032903EB0C04A1F10401F4DC7FE700BF032AC9B230B407D87F
:4023C00022B10023C15401339342FBD130BC704700EB020C034601E003F8011C03F003041A460133002CF7D14FF00133C2EB0C0403FB01F31FE042F8403C42F83C3C42F8DA
:40240000383C42F8343C42F8303C42F82C3C42F8283C42F8243C42F8203C42F81C3C42F8183C42F8143C42F8103C42F80C3C42F8083C42F8043C154640323F2CA4F14004AD
:40244000D9DC2A46C5EB0C0407E042F8103C42F80C3C42F8083C42F8043C154610320F2CA4F11004F1DC2A46C5EB0C0501E042F8043C14460432032DA5F10405F7DC01E0A3
:4024800004F8011B6445FBD3A0E700BF08B500F017F8074800B10068064901B109680022FDF748FF044B0BB1AFF30080FEE700BF000000000000000000000000FEE700009E
:4024C00070B542F2FC5642F2FC55C0F20006C0F20005761BB61006D0002455F8243001349847A642F9D842F2FC5542F20466C0F20005C0F20006761B00F07AF8B61006D05D
:40250000002455F8243001349847A642F9D870BD69646C6500000000666F727761726400726576657273650073746F700000000073746F70706564006572726F720000005E
:40254000696E697469616C697A696E672E2E2E00436C6F636B0000004144430050574D004D6F746F72000000496E7465727275707473000020676561723A00007370656527
:40258000643A000020250000636C65616E696E672E2E2E00202020202020202020202020202020200000000030313233343536373839414243444546035B0040035B00408F
:4025C0004040000000510040200030510040300000000140001000140140000800400140000A004C014000020050014020000000F8B500BFF8BC08BC9E467047310100008F
:40260000C1050000F8B500BFF8BC08BC9E4670471D01000000000000282600000080FF1F280100001000000000000000000000000000000000000000000000000000000012
:40264000000000000000000000000000000000000000000000000000000000000000000000000000000000000000000000000000000000000000000000000000000000005A
:40268000000000000000000000000000000000000000000000000000000000000000000000000000000000000000000000000000000000000000000000000000000000001A
:4026C00000000000000000000000000000000000000000000000000000000000000000000000000000000000000000000000000000000000000000000000000000000000DA
:4027000000000000000000000000000000000000000000000000000000000000000000000000000000000000000000000200000000366E01C05D0000180000000000E02EAF
:402740000100000033330000FF00000000000000000000000000000000000000000000000000000000000000000000000000000000000000000000000000000000000000F3
:402780000000000000000000000000000000000000000000000000000000000000000000000000000000000000000000000000000000000000000000000000000000000019
:4027C00000000000000000000000000000000000000000000000000000000000000000000000000000000000000000000000000000000000000000000000000000000000D9
:402800000000000000000000000000000000000000000000000000000000000000000000000000000000000000000000000000000000000000000000000000000000000098
:402840000000000000000000000000000000000000000000000000000000000000000000000000000000000000000000000000000000000000000000000000000000000058
:020000040003F7
:0200000480007A
:40000000045200400164004001030140030901404B0A01402B0B0140030D014001150140011B014002400140024101400A440140074501400B460140054701400248014014
:4000400001490140014C0140024D014002500140015101403104340260307C208A2DEE08B004B284B72005040801090D1101170D21023103330634013508380A392A3E1158
:400080003F154020410449FF4AFF4BFF4DA04F0450185425580459045A045B045C015D115F01604062C06440654066C068C06AC06CC06EC094089E0EAE03B008B204B401B1
:4000C000B602C020C104C5D0C602C710C826C9FFCAFFCBFFCDAFCE0FCF04D018D280D804DA04DB04DC01DD11DF01E040E2C0E440E540E6C0E8C0EAC0ECC0EEC000100E20E1
:400100000F02178018541D201E601F802008210223202B8030023308391441204280452046804D025680570159025A4460046802699477808D408F089440A502AD02C00288
:40014000C2A0C480CA01CC03CE06D0A5D60BD804E8028040E404EE08EC10EC103320CC10AF20EE10050850405810721077807F80C004D405DC01DE058380948096109C107A
:400180009F80A780AD08040845088C44948096109C10AF80C004D001E208E408A508B010B610E804EC082510C820B510A508B508EC0800020C02000300F0F000F0000000E5
:4001C000200000200000000000000000007F7F00000000000200000E0C000C002000000025001801000000000000000000000000000000000000000000000000000000003B
:4002000000000000000000000000000000000000000000000000000000000000000000000000000000000000000000000000000000000000000000000000000000000000BE
:40024000000000000000000000000000000000000000000000000000000000000000000000000000000000000000000000000000000000000000000000000000000000007E
:40028000000000000000000000000000000000000000000000000000000000000000000000000000000000000000000000000000000000000000000000000000000000003E
:4002C00000000000000000000000000000000000000000000000000000000000000000000000000000000000000000000000000000000000000000000000000000000000FE
:0200000490006A
:0400000000004005B7
:0200000490105A
:04000000BC90ACAF55
:0200000490303A
:020000001032BC
:0200000490501A
:0C00000000012E12306900012E23409BED
:0200000490402A
:4000000000000000000000000000000000000000000000000000000000000000000000000000000000000000000000000000000000000000000000000000000000000000C0
:400040000000000000000000000000000000000000000000000000000000000000000000000000000000000000000000000000000000000000000000000000000000000080
:400080000000000000000000000000000000000000000000000000000000000000000000000000000000000000000000000000000000000000000000000000000000000040
:4000C0000000000000000000000000000000000000000000000000000000000000000000000000000000000000000000000000000000000000000000000000000000000000
:00000001FF
