:1000000000800020A9010000A1010000A101000062
:1000100080B51448144B21E05C689968DD688C4217
:100020000CD0002205E0A6180832D6E9008941E983
:1000300002898C460831AA42F5D101E004EB050C97
:100040001C696146002204E008320026002741E9CD
:1000500002670831A242F7D1143301380028DBD1FE
:1000600001F0FCFD010000007C1D000048F2281397
:10007000C1F6FF731A780AB901201870704700BFE3
:1000800048F20810C1F6FF7008B503682BB140F2C2
:100090000003C0F2000303B1984708BD80B582B0E9
:1000A00000AF00F02DFD4FF000004FF0000100F018
:1000B0003DFD41F6E040C0F2000000F071FD00F0AF
:1000C000CBF900F0E7F901F0EBF84FF0010000F098
:1000D000A3FD4FF000004FF0000100F027FD41F6B6
:1000E000F040C0F2000000F05BFD4FF001004FF067
:1000F000000100F01BFD41F6FC40C0F2000000F0E2
:100100004FFD42E000F00AFA03469BB2FB804FF03D
:1001100001004FF00C0100F009FD41F60C50C0F257
:10012000000000F03DFD4FF001004FF00C0100F029
:10013000FDFCFB884FF0640202FB03F348F201026E
:10014000C8F2000282FB03121A444FEAE2324FEA7D
:10015000E373C3EB02039BB2184600F013FFFB8866
:1001600040F2E73202FB03F348F20102C8F2000258
:1001700082FB03121A444FEAE2324FEAE373C3EB05
:1001800002039BB2184601F067F94FF0000000F03F
:1001900095F90346002BB5D107F10807BD4680BD90
:1001A00080B400AFFEE700BF054B1C7844F00104AB
:1001B0001C70044B1A78D2B2034B1A70FFF728FF59
:1001C000E8460040FA460040BC76004080B582B068
:1001D00000AF4EF60C53CEF2000340F20042C0F2E4
:1001E000FA521A604EF61453CEF200034EF6145231
:1001F000CEF20002126842F400721A604FF000035F
:100200007B6019E079687B68032B07D87A6840F235
:100210000003C0F2000353F8223003E040F2A113C0
:10022000C0F2000348F20002C1F6FF7242F821302A
:100230007B6803F101037B607B682F2BE2D947F2D7
:10024000BC63C4F200031B78DAB248F23713C1F67C
:10025000FF731A704EF60853CEF2000348F2000204
:10026000C1F6FF721A6001F0DFFA48F20013C1F61E
:10027000FF734FF000021A6007F10807BD4680BD0A
:1002800080B500AF4FF0010000F05AF94FF01000B8
:1002900000F000FF4FF0100000F018FF4FF00200D8
:1002A00048F658614FF400424FF0100300F0B4FAE2
:1002B00080BD00BF80B500AF44F2AA33C4F2000392
:1002C00044F2AA32C4F200021278D2B242F0010221
:1002D000D2B21A7044F2AA33C4F2000344F2AA3232
:1002E000C4F200021278D2B242F01002D2B21A70F6
:1002F00044F2BA33C4F2000344F2BA32C4F2000248
:100300001278D2B242F00102D2B21A7044F2BA3379
:10031000C4F2000344F2BA32C4F200021278D2B23C
:1003200042F01002D2B21A7048F20C13C1F6FF73F9
:100330001B78DBB2012B47D144F2F863C4F200030F
:1003400044F2F862C4F200021278D2B242F0020221
:10035000D2B21A7044F2F963C4F2000344F2F962B3
:10036000C4F200021278D2B242F00202D2B21A7083
:1003700045F69103C4F2000345F69102C4F200026F
:100380001278D2B242F00302D2B21A704FF00300D8
:1003900000F01CFF44F2F863C4F2000344F2F86278
:1003A000C4F200021278D2B202F0FD021A7044F2D6
:1003B000F963C4F2000344F2F962C4F20002127855
:1003C000D2B202F0FD021A7045F67703C4F20003C0
:1003D00045F67702C4F200021278D2B242F0060269
:1003E000D2B21A7044F2A133C4F2000344F2A13233
:1003F000C4F200021278D2B242F00102D2B21A70F4
:1004000044F2B133C4F2000344F2B132C4F2000248
:100410001278D2B242F00102D2B21A7044F2A23380
:10042000C4F2000344F2A232C4F200021278D2B243
:1004300042F00102D2B21A7044F2B233C4F20003A5
:1004400044F2B232C4F200021278D2B242F0010297
:10045000D2B21A7080BD00BF80B500AF48F22E1333
:10046000C1F6FF731B78002B10D148F22F13C1F691
:10047000FF731B78DBB2002B01D1FFF701FF48F2BD
:100480002E13C1F6FF734FF001021A70FFF712FF2F
:1004900080BD00BF80B400AF44F60063C4F2000327
:1004A00044F60062C4F200021278D2B242F00102B5
:1004B000D2B21A70BD4680BC704700BF80B485B010
:1004C00000AF0346FB7148F22D13C1F6FF731B7892
:1004D000DBB2012B0CD148F22C13C1F6FF731B7851
:1004E000FB73FB7B012B12D0FB79002BF3D00EE0CA
:1004F00044F60163C4F200031B78DBB203F001038E
:10050000FB73FB7B012B02D0FB79002BF0D0FB7B34
:10051000184607F11407BD4680BC704780B483B00D
:1005200000AF44F61063C4F200031B88FB80FB8815
:100530001BB2184607F10C07BD4680BC704700BFD0
:1005400080B582B000AF0346FB7148F22D13C1F6AF
:10055000FF734FF000021A7048F22E13C1F6FF73BA
:100560001B78002B68D145F69603C4F200034FF0C8
:1005700007021A7045F69703C4F200034FF0000219
:100580001A7045F69E03C4F200034FF000021A7081
:1005900045F60733C4F2000345F60732C4F2000201
:1005A0001278D2B242F01802D2B21A7045F6930312
:1005B000C4F200034FF000021A7045F68833C4F20B
:1005C00000034FF000021A7045F68933C4F20003AD
:1005D0004FF000021A7045F68003C4F200034FF09A
:1005E0000A021A7045F68103C4F200034FF00002BC
:1005F0001A7045F68203C4F200034FF07A021A70B3
:1006000045F68303C4F200034FF000021A7045F66A
:100610008D03C4F200034FF000021A7044F6016328
:10062000C4F200034FF014021A7044F61463C4F2CB
:1006300000034FF001021A70FB79012B40F0E880B3
:1006400044F60063C4F200034FF038021A7044F617
:100650000263C4F200034FF004021A7044F603630D
:10066000C4F200034FF006021A7044F60463C4F2A9
:1006700000034FF000021A7044F60563C4F2000351
:100680004FF000021A7044F60663C4F200034FF004
:100690003F021A7044F60863C4F200034FF00002F0
:1006A0001A7044F60963C4F200034FF000021A7096
:1006B00044F60A63C4F200034FF000021A7045F6D4
:1006C0008403C4F200034FF050021A7045F685030C
:1006D000C4F200034FF00E021A7045F68603C4F20E
:1006E00000034FF03E021A7045F68703C4F2000380
:1006F0004FF000021A7045F68803C4F200034FF071
:1007000012021A7045F68903C4F200034FF0130277
:100710001A7045F68A03C4F200034FF044021A70BF
:1007200045F68B03C4F200034FF048021A7045F6F9
:100730008C03C4F200034FF001021A7045F68E03D9
:10074000C4F200034FF001021A7045F68F03C4F2A1
:1007500000034FF011021A7045F69003C4F2000333
:100760004FF019021A7045F69103C4F200036FF0BE
:1007700068021A704FF0520000F01CF945F694031D
:10078000C4F200034FF058021A7045F69503C4F204
:1007900000034FF000021A7045F69A03C4F20003FA
:1007A0004FF005021A7045F69B03C4F200034FF0A8
:1007B00002021A7045F69C03C4F200034FF00102D6
:1007C0001A7045F69D03C4F200034FF000021A7040
:1007D0004FF0000000F0B4FC48F21013C1F6FF73B4
:1007E00043F233321A604FF01D004FF0070100F062
:1007F00031FD4FF01D0040F64921C0F2000100F02C
:10080000F9FC4EF20013CEF200034FF000521A60D2
:1008100007F10807BD4680BD80B487B000AFF8710E
:10082000B9807A807B70FB79A3F10403062B5DD835
:1008300001A252F823F000BF55080000ED080000A7
:10084000ED0800007B080000A1080000ED08000092
:10085000C70800007B780F2B07D940F21813C4F6A5
:1008600000131B78DBB2FB7343E040F21C13C4F6A9
:1008700000131B78DBB2FB733BE07B780F2B07D9AF
:1008800040F21913C4F600131B78DBB2FB7330E09F
:1008900040F21D13C4F600131B78DBB2FB7328E093
:1008A0007B780F2B07D940F21A13C4F600131B787C
:1008B000DBB2FB731DE040F21E13C4F600131B787D
:1008C000DBB2FB7315E07B780F2B07D940F21B13CB
:1008D000C4F600131B78DBB2FB730AE040F21F136F
:1008E000C4F600131B78DBB2FB7302E04FF0000389
:1008F000FB73FB79002B11D0FB79012B0ED0FB7918
:10090000022B0BD0FB79032B08D0FB79052B05D0EC
:10091000FB79062B02D0FB79092B03D14FF00003A2
:100920003B8206E097F90F309BB24FEA43139BB22C
:100930003B823A8ABB8813447B827B8A7A8802FB9B
:1009400003F37B617B694FEAD3337B827B780D2B8A
:1009500012D87A8A7B786FEA030303F10F0342FA15
:1009600003F37B8244F60E63C4F200037A7802F14B
:100970000102D2B21A7006E044F60E63C4F200031C
:100980004FF00F021A7044F60C63C4F200037A8A27
:10099000D2B21A7044F60D63C4F200037A8A4FEAA9
:1009A000122292B2D2B21A7007F11C07BD4680BC67
:1009B000704700BF80B582B000AF0346FB7144F2C0
:1009C000F863C4F2000344F2F862C4F20002127841
:1009D000D2B242F00302D2B21A7044F2F963C4F206
:1009E000000344F2F962C4F200021278D2B242F07B
:1009F0000302D2B21A7045F69203C4F20003FA79E8
:100A00001A704FF0030000F0E1FB44F2F863C4F207
:100A1000000344F2F862C4F200021278D2B202F08B
:100A2000FC021A7044F2F963C4F2000344F2F96262
:100A3000C4F200021278D2B202F0FC021A7007F17E
:100A40000807BD4680BD00BF80B400AFBD4680BC76
:100A5000704700BF80B500AF4FF0280000F092FB58
:100A60004FF0030000F048FA4FF0050000F08AFB59
:100A70004FF0030000F040FA4FF00F0000F082FB4F
:100A80004FF0030000F038FA4FF0010000F07AFB5D
:100A90004FF0020000F030FA4FF0050000F072FB5A
:100AA0004FF0060000F0B8F84FF00E0000F0B4F878
:100AB0004FF02C0000F0B0F84FF0080000F0ACF858
:100AC0004FF0010000F0A8F84FF00C0000F0A4F87F
:100AD0004FF0030000F0A0F84FF0050000F052FBCB
:100AE00080BD00BF80B500AF4FF00C0000F094F85F
:100AF00048F23413C1F6FF734FF001021A7080BD43
:100B000080B500AF48F23513C1F6FF731B78002B98
:100B100008D1FFF79FFF48F23513C1F6FF734FF07E
:100B200001021A70FFF7DEFF80BD00BF80B582B002
:100B300000AF02460B46FA71BB71FB79032B2AD832
:100B400001A252F823F000BF590B0000690B00000E
:100B5000790B0000890B0000BB79A3F18003DBB2A5
:100B6000184600F059F816E0BB79A3F14003DBB258
:100B7000184600F051F80EE0BB79A3F16C03DBB22C
:100B8000184600F049F806E0BB79A3F12C03DBB26C
:100B9000184600F041F807F10807BD4680BD00BFC8
:100BA00080B584B000AF78604FF00103BB737B6801
:100BB0001B78FB730CE0FB7B184600F011F8BA7B46
:100BC0007B6813441B78FB73BB7B03F10103BB738E
:100BD000FB7B002BEFD107F11007BD4680BD00BFA6
:100BE00080B584B000AF0346FB7100F031F8FB79AB
:100BF0004FEA1313FB73FB7B184600F027F9FB79D0
:100C000003F00F03FB73FB7B184600F01FF907F19D
:100C10001007BD4680BD00BF80B584B000AF03465D
:100C2000FB7100F015F8FB794FEA1313FB73FB7BA4
:100C3000184600F061F9FB7903F00F03FB73FB7BAF
:100C4000184600F059F907F11007BD4680BD00BFF6
:100C500080B582B000AF45F22013C4F2000345F224
:100C60002012C4F200021278D2B202F080021A708E
:100C700045F22213C4F200031B78DBB223F00F030A
:100C8000FB7145F22213C4F20003FA7942F00F021D
:100C9000D2B21A7045F22313C4F200031B78DBB200
:100CA00023F00F03FB7145F22313C4F20003FA791A
:100CB0001A7045F22413C4F200031B78DBB223F050
:100CC0000F03FB7145F22413C4F20003FA791A7082
:100CD00045F22013C4F2000345F22012C4F20002D0
:100CE0001278D2B202F0DF021A7045F22013C4F279
:100CF000000345F22012C4F200021278D2B242F090
:100D00004002D2B21A704FF0000000F05FFA45F2D4
:100D10002013C4F2000345F22012C4F2000212783C
:100D2000D2B242F01002D2B21A704FF0010000F0BD
:100D30004DFA45F22113C4F200031B78FB7145F212
:100D40002013C4F2000345F22012C4F2000212780C
:100D5000D2B202F0EF021A704FF0000000F036FA43
:100D6000FB7903F00803FB7145F22013C4F2000382
:100D700045F22012C4F200021278D2B242F0100200
:100D8000D2B21A704FF0010000F020FA45F22013A1
:100D9000C4F2000345F22012C4F200021278D2B26B
:100DA00002F0EF021A70FB79002BACD145F2201350
:100DB000C4F2000345F22012C4F200021278D2B24B
:100DC00002F0BF021A7045F22013C4F2000345F28C
:100DD0002012C4F200021278D2B202F080021A701D
:100DE00045F22213C4F2000345F22212C4F20002BB
:100DF0001278D2B202F0F0021A7045F22313C4F254
:100E000000031B78DBB223F00F03FB7145F22313C1
:100E1000C4F20003FA7942F00F02D2B21A7045F21E
:100E20002413C4F200031B78DBB223F00F03FB7121
:100E300045F22413C4F20003FA7942F00F02D2B251
:100E40001A7007F10807BD4680BD00BF80B582B0AB
:100E500000AF0346FB71FFF7FBFE45F22013C4F21F
:100E6000000345F22012C4F200021278D2B242F01E
:100E70002002D2B21A7045F22013C4F2000345F2E8
:100E80002012C4F200021278D2B202F0BF021A702D
:100E900045F22013C4F2000345F22012C4F200020E
:100EA0001278D2B202F0F0021A7045F22013C4F2A6
:100EB000000345F22012C4F200021278D1B2FA798E
:100EC00041EA0202D2B242F01002D2B21A704FF0DE
:100ED000010000F07BF945F22013C4F2000345F253
:100EE0002012C4F200021278D2B202F0EF021A709D
:100EF00007F10807BD4680BD80B582B000AF03464C
:100F0000FB7145F22013C4F2000345F22012C4F233
:100F100000021278D2B202F09F021A7045F220133A
:100F2000C4F2000345F22012C4F200021278D2B2D9
:100F300002F0F0021A7045F22013C4F2000345F2E9
:100F40002012C4F200021278D1B2FA7941EA020208
:100F5000D2B242F01002D2B21A704FF0010000F08B
:100F600035F945F22013C4F2000345F22012C4F211
:100F700000021278D2B202F0EF021A7007F10807ED
:100F8000BD4680BD80B586B000AF0346FB804FF004
:100F90000003BB752AE0B87DFA884CF6CD43CCF649
:100FA000CC43A3FB02134FEAD3010B464FEA830362
:100FB0000B444FEA4303C3EB02039BB2DBB203F1E2
:100FC0003003DAB207F1180101EB000303F8102C2B
:100FD000FA884CF6CD43CCF6CC43A3FB02134FEA80
:100FE000D303FB80BB7D03F10103BB75FB88092B99
:100FF000D1D8B87DFA884CF6CD43CCF6CC43A3FBD0
:1010000002134FEAD3010B464FEA83030B444FEA26
:101010004303C3EB02039BB2DBB203F13003DAB24A
:1010200007F1180101EB000303F8102CBB7DFB75E1
:1010300012E0FA7DBB7DC3EB0203BA7D07F1180114
:101040000A4412F8102C07F118010B4403F8082C7D
:10105000BB7D03F1FF33BB75BB7D002BE9D1FB7D6D
:101060003A7A07F118010B4403F8082CFB7D03F1D1
:10107000010307F1180213444FF0000203F8082C93
:1010800007F110031846FFF78BFD07F11807BD465F
:1010900080BD00BF80B483B000AF0346FB7144F253
:1010A0000213C4F2000344F20212C4F200021278E6
:1010B000D1B2FA7902F0F80241EA0202D2B21A7011
:1010C00007F10C07BD4680BC704700BF80B483B0F9
:1010D00000AF0346FB7144F28203C4F2000344F202
:1010E0008202C4F200021278D1B2FA7902F0F80258
:1010F00041EA0202D2B21A7007F10C07BD4680BC69
:10110000704700BF80B582B000AF4FF00003FB71A5
:1011100007E0FB79184600F05DFBFB7903F1010362
:10112000FB71FB79012BF4D948F21413C1F6FF735C
:101130004FF0FF321A7007F10807BD4680BD00BFAF
:1011400080B582B000AF0346FB71FFF7DBFFFB7990
:10115000184600F019FB48F21413C1F6FF73FA7930
:101160001A7007F10807BD4680BD00BF80B483B088
:1011700000AF0346FB7101BE07F10C07BD4680BC02
:10118000704700BF80B582B000AF78600BE048F2D6
:101190002413C1F6FF731B68184600F01DFC7B6822
:1011A000A3F500437B607B68B3F5004FEFD848F2AE
:1011B0001C13C1F6FF731B687A6802FB03F3184621
:1011C00000F00AFC07F10807BD4680BD80B582B07B
:1011D00000AF0346FB80FA8848F22013C1F6FF7384
:1011E0001B7803FB02F3184600F0F6FB07F1080733
:1011F000BD4680BD80B584B000AF03463960FB7149
:101200004EF60853CEF200031B68FB60FB791F2BE0
:1012100003D94FF00000FFF7A9FFFB7903F01F038C
:1012200003F110034FEA8302FB6813441B68BB60A1
:10123000FB7903F01F0303F110034FEA8302FB68FD
:1012400013443A681A60BB68184607F11007BD4698
:1012500080BD00BF80B582B000AF02460B46FA7178
:10126000BB71BB79072B03D94FF00000FFF77EFF5E
:10127000FB791F2B03D94FF00000FFF777FFFB79B5
:1012800003F01F0303F1604303F56443BA794FEAA7
:101290004212D2B21A7007F10807BD4680BD00BFE6
:1012A00080B500AF48F23613C1F6FF731B78002BF0
:1012B00008D100F00BF848F23613C1F6FF734FF077
:1012C00001021A7000F088F880BD00BF80B582B0BE
:1012D00000AF44F60073C4F2000344F60072C4F297
:1012E00000021278D2B242F00202D2B21A7044F670
:1012F0000273C4F200031B78DBB223F07003FB71AE
:1013000044F60273C4F20003FA7942F01002D2B23A
:101310001A7044F60B73C4F2000344F60B72C4F265
:1013200000021278D2B202F0CF021A7044F60B73A8
:10133000C4F2000344F60B72C4F200021278D2B277
:1013400042F03002D2B21A7044F60B73C4F20003BA
:1013500044F60B72C4F200021278D2B202F0F0022C
:101360001A7044F60B73C4F2000344F60B72C4F215
:1013700000021278D2B242F00F02D2B21A7040F2DA
:10138000E73000F059F847F6FF7000F065F84FF0CD
:10139000000000F071F844F2A333C4F2000344F2F9
:1013A000A332C4F200021278D2B242F00102D2B2E9
:1013B0001A7044F60173C4F2000344F60172C4F2D9
:1013C00000021278D2B242F00102D2B21A7007F1D2
:1013D0000807BD4680BD00BF80B400AF44F2A33310
:1013E000C4F2000344F2A332C4F200021278D2B273
:1013F00042F00102D2B21A7044F2B333C4F20003D5
:1014000044F2B332C4F200021278D2B242F00102C6
:10141000D2B21A7044F60073C4F2000344F60072AC
:10142000C4F200021278D2B242F00102D2B21A70B3
:10143000BD4680BC704700BF80B483B000AF034698
:10144000FB8044F60473C4F20003FA881A8007F1A3
:101450000C07BD4680BC704780B483B000AF034624
:10146000FB8044F60673C4F20003FA881A8007F181
:101470000C07BD4680BC704780B483B000AF034604
:10148000FB7144F60373C4F20003FA791A7007F192
:101490000C07BD4680BC704780B582B000AF786055
:1014A000396078684FF000013A6800F06DFB07F191
:1014B0000807BD4680BD00BF80B584B000AFF860AE
:1014C000B9607A60F868B9687A6800F095FA07F14F
:1014D0001007BD4680BD00BF80B487B000AF786004
:1014E00039604FF00003FB604FF00003BB602CE05D
:1014F000BB684FEA83027B6813441B683B613B690E
:10150000FB753B6923F0FF033B6117E0FB684FEA83
:1015100043023B6813441B781A463B691344FA683C
:101520004FEA42013A680A4452781A70FB6803F1A4
:101530000103FB60FB7D03F1FF33FB75FB7D002B9B
:10154000E4D1BB6803F10103BB60BB68122BCFD9A8
:1015500007F11C07BD4680BC704700BF80B582B054
:1015600000AF44F28003C4F200034FF008021A8077
:1015700044F28203C4F200034FF018021A7044F2DE
:101580008403C4F200034FF017021A8044F286036A
:10159000C4F200034FF018021A7044F20010C4F2B3
:1015A000000040F2B001C4F600014FF00402FFF762
:1015B00083FF44F20033C4F200034FF002021A70BA
:1015C00044F20003C4F200034FF008021A7044F220
:1015D0000023C4F200034FF003021A7044F2A16327
:1015E000C4F2000340F20812C4F600121278D2B21C
:1015F0001A7044F22223C4F200034FF008021A804A
:1016000044F22023C4F2000341F251021A804FF049
:101610000003FB714FF019033B6019E0FB794FEABF
:101620004303DAB244F22523C4F200031B78DBB291
:1016300003F0010342EA0303DBB203F00303FB718F
:101640004FF4F07000F0C8F93B6803F1FF333B60E2
:101650003B68002B02D0FB79032BDFD144F204035B
:10166000C4F200034FF480721A8044F20403C4F2FF
:1016700000034FF007021A7044F20603C4F200039D
:101680004FF000021A7044F20803C4F200034FF056
:1016900048021A7044F20403C4F200034FF000023F
:1016A0001A7044F20103C4F200034FF002021A70F0
:1016B00044F20B03C4F200034FF004021A7044F228
:1016C000A233C4F2000344F2A232C4F20002127840
:1016D000D2B242F00302D2B21A7044F2A133C4F281
:1016E000000344F2A132C4F200021278D2B242F0F6
:1016F0000102D2B21A7044F2A033C4F2000344F2E1
:10170000A032C4F200021278D2B26FEA42626FEAEB
:101710005262D2B21A7007F10807BD4680BD00BF01
:1017200080B483B000AF40F2CF13C4F600131B782F
:10173000FB7145F66E03C4F20003FA7902F007026A
:101740001A7045F66F03C4F20003FA794FEA1212D9
:10175000D2B21A7045F26D13C4F200034FF02002AA
:101760001A7045F60033C4F200034FF002021A70FB
:1017700045F67603C4F200034FF044021A7007F1F5
:101780000C07BD4680BC704780B483B000AF0346F1
:10179000FB71FB79012B18D8FA7941F61053C0F28E
:1017A000000353F82220F97941F61053C0F20003E8
:1017B00053F821301978F87941F61853C0F2000334
:1017C0001B5C41EA0303DBB2137007F10C07BD4653
:1017D00080BC704780B483B000AF0346FB71FB79D7
:1017E000012B1BD8FA7941F61053C0F2000353F8CD
:1017F0002220F97941F61053C0F2000353F821304A
:101800001978F87941F61853C0F200031B5C6FEAAF
:101810000303DBB201EA0303DBB2137007F10C0729
:10182000BD4680BC704700BF80B582B000AF72B6C5
:1018300044F2E863C4F2000344F2E862C4F2000236
:101840001278D2B242F00402D2B21A704FF0000302
:10185000FB702FE0FA7813464FEA430313444FEA34
:1018600043031A4641F61C53C0F2000313447B6045
:101870007B681A7859784FEA012141EA0202997887
:101880004FEA014141EA0202DB784FEA036343EA8F
:1018900002031A467B6819795B794FEA032343EA0E
:1018A00001039BB210461946FFF7F6FDFB7803F1E2
:1018B0000103FB70FB78092BCCD94FF0904040F22C
:1018C0004C01C4F60001FFF707FE45F20303C4F222
:1018D000010345F20302C4F201021278D2B242F0CF
:1018E0000202D2B21A7045F21303C4F2010345F2A8
:1018F0001302C4F201021278D2B242F00202D2B252
:101900001A7044F2A033C4F2000344F2A032C4F2CD
:1019100000021278D2B242F04002D2B21A7044F2FF
:10192000C233C4F2000344F2C232C4F2000212789D
:10193000D2B242F01002D2B21A7045F22210C4F2B2
:10194000000040F2A001C4F600014FF00802FFF7CA
:10195000B3FD45F26210C4F2000040F2A801C4F6E3
:1019600000014FF00802FFF7A7FD44F22233C4F252
:10197000000344F22232C4F200021278D2B242F0E2
:101980000802D2B21A7044F60003C4F200034FF00A
:1019900001021A70FFF7E2FD44F60003C4F20003EF
:1019A0006FF07E021A7040F20403C4F208034FF095
:1019B00001021A70FFF7B4FE44F2B030C4F2000026
:1019C00044F2A031C4F200014FF00E02FFF774FDA3
:1019D00007F10807BD4680BD0230800803D000BF74
:1019E00001380046FCD17047EFF3108072B67047A3
:1019F00080F31088704700BF032A2DE9F0070BD849
:101A00003AB1002311F803C000F803C00133934238
:101A1000F8D1BDE8F007704782180C46034603E092
:101A200014F8011C03F8011C03F003061946A44630
:101A300001330134002EF3D11CF00304634608BFC8
:101A4000C1EB020C68D06542C4F1040A0CEB050737
:101A500033464FEACA0A5CF805604FEAC408551AD3
:101A600008E057F8044F264604FA0AF449EA040449
:101A7000CC5004335C18032D26FA08F9A5F10405AF
:101A80000CEB0306EDDC002302E0F15CE1540133D2
:101A900019199142F9D3BCE753F8404C41F8404C36
:101AA00053F83C4C41F83C4C53F8384C41F8384C16
:101AB00053F8344C41F8344C53F8304C41F8304C26
:101AC00053F82C4C41F82C4C53F8284C41F8284C36
:101AD00053F8244C41F8244C53F8204C41F8204C46
:101AE00053F81C4C41F81C4C53F8184C41F8184C56
:101AF00053F8144C41F8144C53F8104C41F8104C66
:101B000053F80C4C41F80C4C53F8084C41F8084C75
:101B100053F8044C41F8044C1C460D464033403108
:101B2000BCF13F0FACF1400CB6DC21462B46541BF8
:101B30000FE051F8105C43F8105C51F80C5C43F86E
:101B40000C5C51F8085C43F8085C51F8045C43F8FD
:101B5000045C0F2C0D469C4601F1100103F11003AB
:101B6000A4F11004E5DCCCEB0201002303E0EC5807
:101B70004CF8034004335E19032903EB0C04A1F174
:101B80000401F4DC7FE700BF032AC9B230B407D8F0
:101B900022B10023C15401339342FBD130BC7047C2
:101BA00000EB020C034601E003F8011C03F0030400
:101BB0001A460133002CF7D14FF00133C2EB0C046D
:101BC00003FB01F31FE042F8403C42F83C3C42F882
:101BD000383C42F8343C42F8303C42F82C3C42F865
:101BE000283C42F8243C42F8203C42F81C3C42F895
:101BF000183C42F8143C42F8103C42F80C3C42F8C5
:101C0000083C42F8043C154640323F2CA4F1400405
:101C1000D9DC2A46C5EB0C0407E042F8103C42F838
:101C20000C3C42F8083C42F8043C154610320F2C9C
:101C3000A4F11004F1DC2A46C5EB0C0501E042F8E2
:101C4000043C14460432032DA5F10405F7DC01E041
:101C500004F8011B6445FBD3A0E700BF08B500F002
:101C600017F8074800B10068064901B10968002269
:101C7000FEF714FA044B0BB1AFF30080FEE700BF90
:101C8000000000000000000000000000FEE700006F
:101C900070B541F6645641F66455C0F20006C0F2D4
:101CA0000005761BB61006D0002455F82430013408
:101CB0009847A642F9D841F6645541F66C56C0F2F1
:101CC0000005C0F20006761B00F046F8B61006D0FC
:101CD000002455F8243001349847A642F9D870BD45
:101CE000696E697469616C697A696E672E2E2E005F
:101CF00072756E6E696E672E2E2E000062726967B5
:101D000068746E6573733A2000000000202025007F
:101D1000035B0040035B004040400000004F004078
:101D20000C00005100402000305100403000C051F4
:101D300000401000F0510040100000000140001071
:101D400000140140000800400140000A004C01401E
:101D50000002005001402000F8B500BFF8BC08BCEC
:101D60009E46704781000000CD010000F8B500BF1D
:101D7000F8BC08BC9E4670476D00000000000000E3
:101D8000901D00000881FF1F2000000010000000CF
:101D9000000000000100000033330000FF000000DD
:101DA00000366E01C05D0000180000000000E02E4B
:04000003000001A94F
:00000001FF
