:1000000000800020090C0000513800005138000029
:1000100051380000513800005138000051380000BC
:1000200051380000513800005138000051380000AC
:10003000513800005138000051380000513800009C
:10004000513800005138000051380000513800008C
:10005000513800005138000051380000513800007C
:10006000513800005138000051380000513800006C
:10007000513800005138000051380000513800005C
:10008000513800005138000051380000513800004C
:10009000513800005138000051380000513800003C
:1000A000513800005138000051380000513800002C
:1000B000513800005138000051380000513800001C
:1000C00080B51448144B21E05C689968DD688C4267
:1000D0000CD0002205E0A6180832D6E9008941E9D3
:1000E00002898C460831AA42F5D101E004EB050CE7
:1000F0001C696146002204E008320026002741E91D
:1001000002670831A242F7D1143301380028DBD14D
:1001100003F086FB01000000AC39000048F2201318
:10012000C1F6FF731A780AB901201870704700BF32
:1001300048F20010C1F6FF7008B503682BB140F219
:100140000003C0F2000303B1984708BD80B500AFBB
:1001500000F014FA0346012B14BF002301231846B4
:1001600002F0ECFA80BD00BF98B500AF00F004FCCF
:1001700000F01AFA0346012B28D100F033FD0246A5
:100180000B461046194612A3D3E9002302F0A8FD3E
:1001900002460B461046194603F0F0F903469BB29F
:1001A0001C4601F0BDFB034603FB04F24AF2534335
:1001B000C7F65C3383FB02134FEA63314FEAE27305
:1001C000C3EB01039BB2184601F06EFB98BD00BF64
:1001D000000000000088B34090B585B002AF01F088
:1001E00001FC43F6A400C0F2000000F09BF943F6C6
:1001F000B400C0F2000000F0ABF901F037FA43F6AA
:10020000BC00C0F2000000F0A3F900F049FE00F0CD
:100210004DFF43F6C000C0F2000000F099F901F074
:1002200067FA43F6C400C0F2000000F091F901F053
:100230003BFF43F6CC00C0F2000000F089F902F069
:1002400007F843F6D400C0F2000000F081F9A0A343
:10025000D3E90023CDE900239FA1D1E90001A0A3A8
:10026000D3E9002300F09AFA9FA1D1E90001A0A3ED
:10027000D3E9002300F0B6FA43F6D800C0F200003C
:1002800000F066F962B640F26910C0F2000002F0B8
:100290005FF840F24D10C0F2000002F0EFF943F6B3
:1002A000E400C0F2000000F03DF94FF001004FF013
:1002B0000E0101F0ADFB01F033FB0346DBB2184643
:1002C00001F0DCFDBFE000F035FF03469BB27B8010
:1002D00001F03EFF03461A4613464FEA0313C2EBF2
:1002E00003034FEA83034FEAD37213444FEA6303D5
:1002F000BB8000F059F90346002B3FD14FF00100BD
:100300004FF0000101F084FB43F6EC00C0F2000066
:1003100001F0B8FB4FF001004FF0070101F078FB4E
:100320007B884FF0640202FB03F348F20102C8F23B
:10033000000282FB03121A444FEAE2324FEAE373EF
:10034000C3EB02039BB2184601F0BAFD7C8801F0B2
:10035000E7FA034603FB04F348F20102C8F2000285
:1003600082FB03121A444FEAE2324FEAE373C3EB13
:1003700002039BB2184601F097FA41E07B8844F2F1
:10038000682202FB03F348F20102C8F2000282FB7A
:1003900003121A444FEAE2324FEAE373C3EB02035B
:1003A0009BB203F59C5303F10803FB804FF001005F
:1003B0004FF0000101F02CFB43F6FC00C0F20000FE
:1003C00001F060FB4FF001004FF0070101F020FB4E
:1003D000FB88184601F074FDBB88184602F0BEFD8C
:1003E00002460B461046194600F068F9FB8818468D
:1003F00002F0B4FD02460B461046194600F070F9B3
:100400004FF000004FF0070101F002FB43F60C1023
:10041000C0F2000001F036FB4FF000004FF0070182
:1004200001F0F6FABB88184601F04AFD4FF00000D3
:100430004FF00E0101F0ECFA01F006FA0346DBB2D0
:10044000184601F01BFD4FF0000000F043FE03468C
:10045000002B7FF438AF43F61410C0F2000000F018
:1004600061F843F6D800C0F2000000F071F802F025
:1004700019F901F081FF43F6CC00C0F2000000F052
:1004800067F801F0FBFE43F6C400C0F2000000F084
:100490005FF801F01FFE43F6C000C0F2000000F05C
:1004A00057F801F0AFF943F6BC00C0F2000000F0CD
:1004B0004FF800F013FD43F6B400C0F2000000F066
:1004C00047F801F0F5F807F10C07BD4690BD00BFF5
:1004D000B81E85EB51B8AE3FB81E85EB51B8CE3F84
:1004E000B81E85EB51B8BE3F000000000088B34045
:1004F00000000000007CD54080B582B000AF78607D
:100500007B68DBB218464FF0000101F081FA43F638
:100510002010C0F2000001F0B5FA07F10807BD464F
:1005200080BD00BF80B582B000AF78604FF00100A1
:1005300001F0F2FA4FF000004FF0000101F068FA0C
:10054000786801F09FFA07F10807BD4680BD00BF3B
:1005500080B582B000AF78604FF00100FFF7CCFFAC
:100560004FF001004FF0000101F052FA786801F0FD
:1005700089FA07F10807BD4680BD00BF80B500AF0E
:1005800048F22413C1F6FF731B68002B14BF00232D
:100590000123184600F014F848F22413C1F6FF7343
:1005A0001B68184680BD00BF80B400AF48F224131A
:1005B000C1F6FF731B681846BD4680BC704700BF7C
:1005C00090B583B000AF78607B68012B6BD148F2A7
:1005D0002413C1F6FF731B68012B64D048F2781313
:1005E000C1F6FF73D3E9000148F25813C1F6FF7357
:1005F000C3E9000148F26013C1F6FF73D3E90001BB
:1006000048F27013C1F6FF73C3E9000148F270139A
:10061000C1F6FF73D3E9000148F24013C1F6FF733E
:10062000D3E900234FF0000C644602F09DFF03461F
:10063000002B02D04FF001031C46E3B2002B0CD07C
:1006400048F24013C1F6FF73D3E9000148F270137A
:10065000C1F6FF73C3E9000125E048F27013C1F64B
:10066000FF73D3E9000148F24813C1F6FF73D3E9E1
:1006700000234FF0000C644602F058FF0346002BA5
:1006800002D04FF001031C46E3B2002B0BD048F21E
:100690004813C1F6FF73D3E9000148F27013C1F6A5
:1006A000FF73C3E9000148F22413C1F6FF737A68AF
:1006B0001A6007F10C07BD4690BD00BF80B483B03F
:1006C00000AFC7E9000148F27813C1F6FF73D7E91C
:1006D0000001C3E9000107F10C07BD4680BC70476B
:1006E00090B583B000AFC7E9000148F25013C1F6DE
:1006F000FF73D7E90001C3E9000148F25013C1F6C6
:10070000FF73D3E9000148F24013C1F6FF73D3E948
:1007100000234FF0000C644602F026FF0346002B36
:1007200002D04FF001031C46E3B2002B0CD048F27C
:100730004013C1F6FF73D3E9000148F25013C1F62C
:10074000FF73C3E9000125E048F25013C1F6FF73BF
:10075000D3E9000148F24813C1F6FF73D3E900233F
:100760004FF0000C644602F0E1FE0346002B02D07D
:100770004FF001031C46E3B2002B0BD048F24813A4
:10078000C1F6FF73D3E9000148F25013C1F6FF73BD
:10079000C3E9000107F10C07BD4690BD80B485B0E8
:1007A00000AFC7E90201C7E9002348F28013C1F690
:1007B000FF73D7E90201C3E9000148F26813C1F6EB
:1007C000FF73D7E90001C3E9000148F23813C1F60D
:1007D000FF73D7E90601C3E9000107F11407BD461D
:1007E00080BC704790B585B000AFC7E90201C7E98A
:1007F00000234FF000031C46D7E90201D7E900238C
:1008000002F0B2FE0346002B02D04FF001031C465B
:10081000E3B2002B40F0AB8048F24813C1F6FF73FF
:10082000D7E90201C3E9000148F24013C1F6FF73A2
:10083000D7E90001C3E9000148F26013C1F6FF7374
:10084000D3E9000148F24013C1F6FF73D3E9002356
:100850004FF0000C644602F087FE0346002B02D0E6
:100860004FF001031C46E3B2002B0CD048F24013BA
:10087000C1F6FF73D3E9000148F26013C1F6FF73BC
:10088000C3E9000125E048F26013C1F6FF73D3E924
:10089000000148F24813C1F6FF73D3E900234FF07B
:1008A000000C644602F042FE0346002B02D04FF0DB
:1008B00001031C46E3B2002B0BD048F24813C1F6EB
:1008C000FF73D3E9000148F26013C1F6FF73C3E977
:1008D000000148F27013C1F6FF73D3E9000148F23A
:1008E0004013C1F6FF73D3E900234FF0000C6446B8
:1008F00002F03AFE0346002B02D04FF001031C46E3
:10090000E3B2002B0CD048F24013C1F6FF73D3E9D9
:10091000000148F27013C1F6FF73C3E9000127E03C
:1009200048F27013C1F6FF73D3E9000148F248138F
:10093000C1F6FF73D3E900234FF0000C644602F0C8
:10094000F5FD0346002B02D04FF001031C46E3B235
:10095000002B0DD048F24813C1F6FF73D3E9000114
:1009600048F27013C1F6FF73C3E9000100E000BF55
:1009700007F11407BD4690BDB0B584B000AF48F292
:100980002413C1F6FF731B68012B40F0258148F248
:100990005013C1F6FF73D3E9000148F27813C1F692
:1009A000FF73D3E9002302F09BF902460B46C7E927
:1009B000002348F26813C1F6FF73D3E90023104601
:1009C0001946D7E9002302F03FFB02460B461046CA
:1009D000194648F27013C1F6FF73D3E9002302F001
:1009E00081F902460B461046194648F27013C1F6CB
:1009F000FF73C3E9000148F27013C1F6FF73D3E936
:100A0000000148F24013C1F6FF73D3E900234FF011
:100A1000000C644602F0A8FD0346002B02D04FF004
:100A200001031C46E3B2002B0CD048F24013C1F680
:100A3000FF73D3E9000148F27013C1F6FF73C3E9F5
:100A4000000125E048F27013C1F6FF73D3E90001FD
:100A500048F24813C1F6FF73D3E900234FF0000CAE
:100A6000644602F063FD0346002B02D04FF0010301
:100A70001C46E3B2002B0BD048F24813C1F6FF73BB
:100A8000D3E9000148F27013C1F6FF73C3E9000116
:100A900048F27813C1F6FF73D3E9000148F2581306
:100AA000C1F6FF73D3E9002302F01AF902460B46A0
:100AB000C7E9022348F27813C1F6FF73D3E90001B6
:100AC00048F25813C1F6FF73C3E9000148F28013DE
:100AD000C1F6FF73D3E9002310461946D7E9002376
:100AE00002F0B2FA02460B461046194648F270135D
:100AF000C1F6FF73D3E9002302F0F4F802460B4677
:100B000014461D4648F23813C1F6FF73D3E900239B
:100B100010461946D7E9022302F096FA02460B4620
:100B20002046294602F0DCF802460B4610461946DC
:100B300048F26013C1F6FF73C3E9000148F2601385
:100B4000C1F6FF73D3E9000148F24013C1F6FF7309
:100B5000D3E900234FF0000C644602F005FD034684
:100B6000002B02D04FF001031C46E3B2002B0CD047
:100B700048F24013C1F6FF73D3E9000148F2601355
:100B8000C1F6FF73C3E9000127E048F26013C1F624
:100B9000FF73D3E9000148F24813C1F6FF73D3E9AC
:100BA00000234FF0000C644602F0C0FC0346002B0B
:100BB00002D04FF001031C46E3B2002B0DD048F2E7
:100BC0004813C1F6FF73D3E9000148F26013C1F680
:100BD000FF73C3E9000100E000BF07F11007BD4645
:100BE000B0BD00BF80B400AF48F26013C1F6FF7320
:100BF000D3E9002310461946BD4680BC704700BFAC
:100C000080B400AFFEE700BF054B1C7844F0010440
:100C10001C70044B1A78D2B2034B1A70FFF750FACB
:100C2000E8460040FA460040BC76004080B582B0FD
:100C300000AF4EF60C53CEF2000340F20042C0F279
:100C4000FA521A604EF61453CEF200034EF61452C6
:100C5000CEF20002126842F400721A604FF00003F4
:100C60007B6014E07A687B684FEA830140F20003FE
:100C7000C0F200030B441B68194648F20003C1F69A
:100C8000FF7343F822107B6803F101037B607B68EC
:100C90002F2BE7D947F2BC63C4F200031B78DAB20A
:100CA00048F28813C1F6FF731A704EF60853CEF25D
:100CB000000348F20002C1F6FF721A6001F028FF3B
:100CC00007F10807BD4680BD80B500AF4FF00100B9
:100CD00000F042FA4FF0100001F09AFB4FF01000C4
:100CE00001F0B2FB4FF0020048F658614FF40042A9
:100CF0004FF0100300F09CFB80BD00BF80B500AF3B
:100D000044F2AA33C4F2000344F2AA32C4F200024D
:100D10001278D2B242F00102D2B21A7044F2AA336F
:100D2000C4F2000344F2AA32C4F200021278D2B232
:100D300042F01002D2B21A7044F2BA33C4F2000385
:100D400044F2BA32C4F200021278D2B242F0010286
:100D5000D2B21A7044F2BA33C4F2000344F2BA3287
:100D6000C4F200021278D2B242F01002D2B21A706B
:100D700048F20413C1F6FF731B78DBB2012B47D195
:100D800044F2F863C4F2000344F2F862C4F20002D1
:100D90001278D2B242F00202D2B21A7044F2F9636F
:100DA000C4F2000344F2F962C4F200021278D2B233
:100DB00042F00202D2B21A7045F69103C4F2000367
:100DC00045F69102C4F200021278D2B242F0030258
:100DD000D2B21A704FF0030001F0C6FB44F2F86380
:100DE000C4F2000344F2F862C4F200021278D2B2F4
:100DF00002F0FD021A7044F2F963C4F2000344F2F7
:100E0000F962C4F200021278D2B202F0FD021A7046
:100E100045F67703C4F2000345F67702C4F20002F8
:100E20001278D2B242F00602D2B21A7044F2A13362
:100E3000C4F2000344F2A132C4F200021278D2B22A
:100E400042F00102D2B21A7044F2B133C4F200038C
:100E500044F2B132C4F200021278D2B242F001027E
:100E6000D2B21A7044F2A233C4F2000344F2A232A6
:100E7000C4F200021278D2B242F00102D2B21A7069
:100E800044F2B233C4F2000344F2B232C4F20002BC
:100E90001278D2B242F00102D2B21A7080BD00BF05
:100EA00080B500AF48F22A13C1F6FF731B78002B00
:100EB00010D148F22B13C1F6FF731B78DBB2002B65
:100EC00001D1FFF701FF48F22A13C1F6FF734FF07B
:100ED00001021A70FFF712FF80BD00BF80B500AF9E
:100EE00044F60063C4F2000344F60062C4F2000258
:100EF0001278D2B202F0FE021A7044F60163C4F214
:100F0000000344F60162C4F200021278D2B242F049
:100F10000402D2B21A7044F2F863C4F2000344F23D
:100F2000F862C4F200021278D2B242F00202D2B2E7
:100F30001A7044F2F963C4F2000344F2F962C4F295
:100F400000021278D2B242F00202D2B21A7045F612
:100F50009103C4F2000345F69102C4F20002127834
:100F6000D2B202F0FC021A7045F69203C4F20003FA
:100F700045F69202C4F200021278D2B202F0F702F1
:100F80001A704FF0030001F0EFFA44F2F863C4F274
:100F9000000344F2F862C4F200021278D2B202F006
:100FA000FD021A7044F2F963C4F2000344F2F962DC
:100FB000C4F200021278D2B202F0FD021A7044F2BA
:100FC000AA33C4F2000344F2AA32C4F20002127837
:100FD000D2B202F0EF021A7044F2AA33C4F2000354
:100FE00044F2AA32C4F200021278D2B202F0FE0237
:100FF0001A7044F2BA33C4F2000344F2BA32C4F2B3
:1010000000021278D2B202F0FE021A7044F2BA3331
:10101000C4F2000344F2BA32C4F200021278D2B22F
:1010200002F0EF021A7045F67703C4F2000345F6AA
:101030007702C4F200021278D2B202F0F9021A70FA
:1010400044F2A133C4F2000344F2A132C4F200021C
:101050001278D2B202F0FE021A7044F2B133C4F236
:10106000000344F2B132C4F200021278D2B202F0AC
:10107000FE021A7044F2A233C4F2000344F2A23218
:10108000C4F200021278D2B202F0FE021A7044F2E8
:10109000B233C4F2000344F2B232C4F20002127856
:1010A000D2B202F0FE021A7080BD00BF80B400AF61
:1010B00044F60063C4F2000344F60062C4F2000286
:1010C0001278D2B242F00102D2B21A70BD4680BC90
:1010D000704700BF80B485B000AF0346FB7148F293
:1010E0002913C1F6FF731B78DBB2012B0CD148F238
:1010F0002813C1F6FF731B78FB73FB7B012B12D007
:10110000FB79002BF3D00EE044F60163C4F2000338
:101110001B78DBB203F00103FB73FB7B012B02D0D6
:10112000FB79002BF0D0FB7B184607F11407BD4676
:1011300080BC704780B483B000AF44F61063C4F243
:1011400000031B88FB80FB881BB2184607F10C07C5
:10115000BD4680BC704700BF80B582B000AF03467B
:10116000FB7148F22913C1F6FF734FF000021A70A9
:1011700048F22A13C1F6FF731B78002B68D145F69D
:101180009603C4F200034FF007021A7045F6970366
:10119000C4F200034FF000021A7045F69E03C4F239
:1011A00000034FF000021A7045F60733C4F2000343
:1011B00045F60732C4F200021278D2B242F01802A9
:1011C000D2B21A7045F69303C4F200034FF0000246
:1011D0001A7045F68833C4F200034FF000021A700B
:1011E00045F68933C4F200034FF000021A7045F649
:1011F0008003C4F200034FF00A021A7045F681031F
:10120000C4F200034FF000021A7045F68203C4F2E4
:1012100000034FF07A021A7045F68303C4F200030C
:101220004FF000021A7045F68D03C4F200034FF030
:1012300000021A7044F60163C4F200034FF0140276
:101240001A7044F61463C4F200034FF001021A70DE
:10125000FB79012B40F0E88044F60063C4F2000300
:101260004FF038021A7044F60263C4F200034FF0E4
:1012700004021A7044F60363C4F200034FF006023E
:101280001A7044F60463C4F200034FF000021A70AF
:1012900044F60563C4F200034FF000021A7044F6EE
:1012A0000663C4F200034FF03F021A7044F608636D
:1012B000C4F200034FF000021A7044F60963C4F24E
:1012C00000034FF000021A7044F60A63C4F20003F0
:1012D0004FF000021A7045F68403C4F200034FF089
:1012E00050021A7045F68503C4F200034FF00E0257
:1012F0001A7045F68603C4F200034FF03E021A70DE
:1013000045F68703C4F200034FF000021A7045F659
:101310008803C4F200034FF012021A7045F68903E5
:10132000C4F200034FF013021A7045F68A03C4F2A8
:1013300000034FF044021A7045F68B03C4F2000319
:101340004FF048021A7045F68C03C4F200034FF0C8
:1013500001021A7045F68E03C4F200034FF0010239
:101360001A7045F68F03C4F200034FF011021A7091
:1013700045F69003C4F200034FF019021A7045F6C7
:101380009103C4F200036FF068021A704FF052002C
:1013900000F01CF945F69403C4F200034FF0580224
:1013A0001A7045F69503C4F200034FF000021A705C
:1013B00045F69A03C4F200034FF005021A7045F691
:1013C0009B03C4F200034FF002021A7045F69C031F
:1013D000C4F200034FF001021A7045F69D03C4F2F7
:1013E00000034FF000021A704FF0000001F066F8A1
:1013F00048F20813C1F6FF7343F233321A604FF01C
:101400001D004FF0070101F0F3F84FF01D0041F20D
:101410006161C0F2000101F0BBF84EF20013CEF2A0
:1014200000034FF000521A6007F10807BD4680BD67
:1014300080B487B000AFF871B9807A807B70FB7997
:10144000A3F10403062B5DD801A252F823F000BFDC
:101450006D14000005150000051500009314000030
:10146000B914000005150000DF1400007B780F2B75
:1014700007D940F21813C4F600131B78DBB2FB73D4
:1014800043E040F21C13C4F600131B78DBB2FB737D
:101490003BE07B780F2B07D940F21913C4F60013F9
:1014A0001B78DBB2FB7330E040F21D13C4F600136F
:1014B0001B78DBB2FB7328E07B780F2B07D940F257
:1014C0001A13C4F600131B78DBB2FB731DE040F265
:1014D0001E13C4F600131B78DBB2FB7315E07B7898
:1014E0000F2B07D940F21B13C4F600131B78DBB295
:1014F000FB730AE040F21F13C4F600131B78DBB243
:10150000FB7302E04FF00003FB73FB79002B11D05B
:10151000FB79012B0ED0FB79022B0BD0FB79032B2F
:1015200008D0FB79052B05D0FB79062B02D0FB797F
:10153000092B03D14FF000033B8206E097F90F30EF
:101540009BB24FEA43139BB23B823A8ABB88134457
:101550007B827B8A7A8802FB03F37B617B694FEA9B
:10156000D3337B827B780D2B12D87A8A7B786FEA13
:10157000030303F10F0342FA03F37B8244F60E6385
:10158000C4F200037A7802F10102D2B21A7006E0C6
:1015900044F60E63C4F200034FF00F021A7044F6D3
:1015A0000C63C4F200037A8AD2B21A7044F60D6357
:1015B000C4F200037A8A4FEA122292B2D2B21A70AF
:1015C00007F11C07BD4680BC704700BF80B582B0E4
:1015D00000AF0346FB7144F2F863C4F2000344F227
:1015E000F862C4F200021278D2B242F00302D2B220
:1015F0001A7044F2F963C4F2000344F2F962C4F2CF
:1016000000021278D2B242F00302D2B21A7045F64A
:101610009203C4F20003FA791A704FF0030000F04D
:10162000A3FF44F2F863C4F2000344F2F862C4F288
:1016300000021278D2B202F0FC021A7044F2F9638E
:10164000C4F2000344F2F962C4F200021278D2B28A
:1016500002F0FC021A7007F10807BD4680BD00BF0A
:1016600080B400AFBD4680BC704700BF80B400AFFF
:1016700044F2A233C4F2000344F2A232C4F20002E4
:101680001278D2B242F00202D2B21A7044F2B233ED
:10169000C4F2000344F2B232C4F200021278D2B2B1
:1016A00042F00202D2B21A70BD4680BC704700BF41
:1016B00080B400AF44F2A233C4F2000344F2A23279
:1016C000C4F200021278D2B202F0FD021A7044F2A3
:1016D000B233C4F2000344F2B232C4F20002127810
:1016E000D2B202F0FD021A70BD4680BC704700BF46
:1016F00080B500AF48F23013C1F6FF731B78002BA2
:1017000008D100F00BF848F23013C1F6FF734FF028
:1017100001021A7000F060F880BD00BF80B582B091
:1017200000AF46F27A43C4F200031B78DBB223F029
:101730003F03BB7146F27A43C4F20003BA7942F028
:101740000902D2B21A7046F29C43C4F2000346F278
:101750009C42C4F200021278D2B242F00102D2B22C
:101760001A7046F29D43C4F2000346F29D42C4F251
:1017700000021278D2B242F00102D2B21A704FF0D7
:10178000270000F051F84FF0270000F07DF84FF0EF
:10179000000000F089F84FF0000000F095F800F02C
:1017A000ABFE0346FB7146F29D43C4F2000346F2D2
:1017B0009D42C4F200021278D2B242F01002D2B2BC
:1017C0001A70FB79184600F09BFE00F04FF807F105
:1017D0000807BD4680BD00BF80B400AF46F27A4323
:1017E000C4F2000346F27A42C4F200021278D2B286
:1017F0006FEA42626FEA5262D2B21A70BD4680BC92
:10180000704700BF80B400AF46F27A43C4F20003D1
:1018100046F27A42C4F200021278D2B202F07F029B
:101820001A70BD4680BC704780B483B000AF0346D9
:10183000FB8046F61803C4F20003FA881A8007F109
:101840000C07BD4680BC704780B400AF46F6380335
:10185000C4F200031B8846F6B803C4F200031B88D9
:101860009BB21846BD4680BC704700BF80B500AF34
:1018700001E000F049F800F037F8034603F01003E8
:10188000002BF6D180BD00BF80B483B000AF03460B
:10189000FB8046F69803C4F20003FA881A8007F129
:1018A0000C07BD4680BC704780B483B000AF0346D0
:1018B000FB8046F65803C4F20003FA881A8007F149
:1018C0000C07BD4680BC704780B483B000AF0346B0
:1018D000FB7146F28D43C4F20003FA791A7007F1E6
:1018E0000C07BD4680BC704780B483B000AF46F2A1
:1018F0006D43C4F200031B78FB71FB79184607F1B6
:101900000C07BD4680BC704780B400AF46F6B803F4
:10191000C4F200031B889BB21846BD4680BC7047CA
:1019200080B400AF46F69803C4F200031B889BB254
:101930001846BD4680BC704780B500AF4FF0280008
:1019400000F0EEFD4FF0030000F052FA4FF00500FA
:1019500000F0E6FD4FF0030000F04AFA4FF00F00F0
:1019600000F0DEFD4FF0030000F042FA4FF00100FE
:1019700000F0D6FD4FF0020000F03AFA4FF00500FB
:1019800000F0CEFD4FF0060000F0C6F84FF00E005C
:1019900000F0C2F84FF02C0000F0BEF84FF0080045
:1019A00000F0BAF84FF0010000F0B6F84FF00C006C
:1019B00000F0B2F84FF0030000F0AEF84FF0050071
:1019C00000F0AEFD80BD00BF80B500AF4FF00C0051
:1019D00000F0A2F848F23113C1F6FF734FF0010294
:1019E0001A7080BD80B500AF48F23213C1F6FF73A4
:1019F0001B78002B08D1FFF79FFF48F23213C1F686
:101A0000FF734FF001021A70FFF7DEFF80BD00BFC9
:101A100080B582B000AF02460B46FA71BB71FB790C
:101A2000032B2AD801A252F823F000BF3D1A000070
:101A30004D1A00005D1A00006D1A0000BB79A3F179
:101A40008003DBB2184600F067F816E0BB79A3F11B
:101A50004003DBB2184600F05FF80EE0BB79A3F15B
:101A60006C03DBB2184600F057F806E0BB79A3F12F
:101A70002C03DBB2184600F04FF807F10807BD460B
:101A800080BD00BF80B584B000AF78604FF0010327
:101A9000BB737B681B78FB730CE0FB7B184600F084
:101AA0001FF8BA7B7B6813441B78FB73BB7B03F185
:101AB0000103BB73FB7B002BEFD107F11007BD4681
:101AC00080BD00BF80B582B000AF0346FB71FB79DB
:101AD000184600F005F807F10807BD4680BD00BFB5
:101AE00080B584B000AF0346FB7100F031F8FB799C
:101AF0004FEA1313FB73FB7B184600F023F9FB79C5
:101B000003F00F03FB73FB7B184600F01BF907F192
:101B10001007BD4680BD00BF80B584B000AF03464E
:101B2000FB7100F015F8FB794FEA1313FB73FB7B95
:101B3000184600F05DF9FB7903F00F03FB73FB7BA4
:101B4000184600F055F907F11007BD4680BD00BFEB
:101B500080B582B000AF45F22013C4F2000345F215
:101B60002012C4F200021278D2B202F080021A707F
:101B700045F22213C4F200031B78DBB223F00F03FB
:101B8000FB7145F22213C4F20003FA7942F00F020E
:101B9000D2B21A7045F22313C4F200031B78DBB2F1
:101BA00023F00F03FB7145F22313C4F20003FA790B
:101BB0001A7045F22413C4F200031B78DBB223F041
:101BC0000F03FB7145F22413C4F20003FA791A7073
:101BD00045F22013C4F2000345F22012C4F20002C1
:101BE0001278D2B202F0DF021A7045F22013C4F26A
:101BF000000345F22012C4F200021278D2B242F081
:101C00004002D2B21A704FF0000000F0ADFC45F275
:101C10002013C4F2000345F22012C4F2000212782D
:101C2000D2B242F01002D2B21A704FF0010000F0AE
:101C30009BFC45F22113C4F200031B78FB7145F2B3
:101C40002013C4F2000345F22012C4F200021278FD
:101C5000D2B202F0EF021A70FB7903F00803FB71B5
:101C600045F22013C4F2000345F22012C4F2000230
:101C70001278D2B242F01002D2B21A704FF00100C4
:101C800000F072FC45F22013C4F2000345F220126A
:101C9000C4F200021278D2B202F0EF021A70FB799D
:101CA000002BB0D145F22013C4F2000345F22012FC
:101CB000C4F200021278D2B202F0BF021A7045F2EA
:101CC0002013C4F2000345F22012C4F2000212787D
:101CD000D2B202F080021A7045F22213C4F200035D
:101CE00045F22212C4F200021278D2B202F0F002DF
:101CF0001A7045F22313C4F200031B78DBB223F001
:101D00000F03FB7145F22313C4F20003FA7942F08A
:101D10000F02D2B21A7045F22413C4F200031B78EA
:101D2000DBB223F00F03FB7145F22413C4F200036E
:101D3000FA7942F00F02D2B21A7007F10807BD46D5
:101D400080BD00BF80B582B000AF0346FB71FFF7D6
:101D5000FFFE45F22013C4F2000345F22012C4F244
:101D600000021278D2B242F02002D2B21A7045F2CA
:101D70002013C4F2000345F22012C4F200021278CC
:101D8000D2B202F0BF021A7045F22013C4F200036F
:101D900045F22012C4F200021278D2B202F0F00230
:101DA0001A7045F22013C4F2000345F22012C4F267
:101DB00000021278D1B2FA7941EA0202D2B242F0BC
:101DC0001002D2B21A704FF0010000F0CDFB45F2C4
:101DD0002013C4F2000345F22012C4F2000212786C
:101DE000D2B202F0EF021A7007F10807BD4680BDBB
:101DF00080B582B000AF0346FB7145F22013C4F2F8
:101E0000000345F22012C4F200021278D2B202F0AE
:101E10009F021A7045F22013C4F2000345F220120B
:101E2000C4F200021278D2B202F0F0021A7045F247
:101E30002013C4F2000345F22012C4F2000212780B
:101E4000D1B2FA7941EA0202D2B242F01002D2B221
:101E50001A704FF0010000F087FB45F22013C4F226
:101E6000000345F22012C4F200021278D2B202F04E
:101E7000EF021A7007F10807BD4680BD80B582B039
:101E800000AF0346FB71FB794FEA1313DBB21A462E
:101E900043F63413C0F200039B5C1846FFF712FEB2
:101EA000FB7903F00F0243F63413C0F200039B5C8E
:101EB0001846FFF707FE07F10807BD4680BD00BFC3
:101EC00080B586B000AF0346FB804FF00003BB75C2
:101ED0002AE0B87DFA884CF6CD43CCF6CC43A3FB80
:101EE00002134FEAD3010B464FEA83030B444FEA38
:101EF0004303C3EB02039BB2DBB203F13003DAB25C
:101F000007F1180101EB000303F8102CFA884CF6D6
:101F1000CD43CCF6CC43A3FB02134FEAD303FB80A3
:101F2000BB7D03F10103BB75FB88092BD1D8B87DBC
:101F3000FA884CF6CD43CCF6CC43A3FB02134FEA10
:101F4000D3010B464FEA83030B444FEA4303C3EB31
:101F500002039BB2DBB203F13003DAB207F11801DE
:101F600001EB000303F8102CBB7DFB7512E0FA7D3A
:101F7000BB7DC3EB0203BA7D07F118010A4412F8D6
:101F8000102C07F118010B4403F8082CBB7D03F15A
:101F9000FF33BB75BB7D002BE9D1FB7D3A7A07F19E
:101FA00018010B4403F8082CFB7D03F1010307F132
:101FB000180213444FF0000203F8082C07F1100335
:101FC0001846FFF75FFD07F11807BD4680BD00BF4B
:101FD00080B582B000AF46F27A53C4F200031B789A
:101FE000DBB223F00703BB7146F27A53C4F200035D
:101FF000BA7942F00102D2B21A7046F27A53C4F2B0
:1020000000031B78DBB223F00303BB7146F27A5363
:10201000C4F20003BA7942F00802D2B21A7000F09A
:10202000C3F84FF6FF7000F09FF84FF0000000F08B
:102030007FF84FF0000000F05FF800F06DF84FF609
:10204000FF7000F0A1F800F057FA0346FB7146F26A
:102050009B53C4F2000346F29B52C4F20002127872
:10206000D2B242F01002D2B21A70FB79184600F0D8
:1020700047FA07F10807BD4680BD00BF80B400AF36
:1020800046F27A53C4F2000346F27A52C4F20002D6
:102090001278D2B26FEA42626FEA5262D2B21A701A
:1020A000BD4680BC704700BF80B500AF48F2331317
:1020B000C1F6FF731B78002B08D1FFF789FF48F2A8
:1020C0003313C1F6FF734FF001021A70FFF7D6FF0A
:1020D00080BD00BF80B400AF46F27A53C4F2000363
:1020E00046F27A52C4F200021278D2B202F07F02B3
:1020F0001A70BD4680BC704780B483B000AF034601
:10210000FB7146F28B53C4F20003FA791A7007F19F
:102110000C07BD4680BC704780B400AF46F26B53DD
:10212000C4F200031B78DBB21846BD4680BC704782
:1021300080B483B000AF0346FB8046F61423C4F29C
:102140000003FA881A8007F10C07BD4680BC70476F
:1021500080B400AF46F69423C4F200031B889BB200
:102160001846BD4680BC704780B483B000AF0346BC
:10217000FB8046F65423C4F20003FA881A8007F164
:102180000C07BD4680BC704780B483B000AF0346E7
:10219000FB8046F67423C4F20003FA881A8007F124
:1021A0000C07BD4680BC704780B500AF01E0FFF76B
:1021B000CFFFFFF7B1FF034603F04003002BF6D13A
:1021C00080BD00BF80B582B000AF44F23F20C0F2B6
:1021D0000F0000F081F844F23F20C0F20F0000F041
:1021E00099F800F089F90346FB7146F29A43C4F26C
:1021F000000346F29A42C4F200021278D2B242F0D0
:102200001002D2B21A70FB79184600F079F900F08A
:1022100091F84FF0000000F043F807F10807BD46C1
:1022200080BD00BF80B400AF46F27B43C4F2000320
:1022300046F27B42C4F200021278D2B26FEA4262E6
:102240006FEA5262D2B21A70BD4680BC704700BFBE
:1022500080B500AF48F23413C1F6FF731B78002B32
:1022600008D1FFF7AFFF48F23413C1F6FF734FF008
:1022700001021A70FFF7D6FF80BD00BF80B400AF27
:1022800046F27B43C4F2000346F27B42C4F20002F2
:102290001278D2B202F07F021A70BD4680BC70473D
:1022A00080B483B000AF0346FB7146F28A43C4F2A8
:1022B0000003FA791A7007F10C07BD4680BC70471D
:1022C00080B400AF46F26A43C4F200031B78DBB26D
:1022D0001846BD4680BC704780B582B000AF7860BC
:1022E00046F22840C4F20000796800F0A7F907F12F
:1022F0000807BD4680BD00BF80B400AF46F248432A
:10230000C4F200031B6823F07F431846BD4680BC1F
:10231000704700BF80B582B000AF786046F20840D9
:10232000C4F20000796800F089F907F10807BD469A
:1023300080BD00BF80B500AF01E0FFF7DDFFFFF714
:10234000BFFF034603F00803002BF6D180BD00BF9A
:1023500080B582B000AF786000F04EF8786800F089
:1023600017F84FF0070000F027F800F039F807F1F0
:102370000807BD4680BD00BF80B500AF00F03CF847
:1023800040F60140C0F2000000F002F880BD00BF3E
:1023900080B485B000AF78604EF60853CEF20003EB
:1023A0001B68FB60FB6803F144037A681A6007F15D
:1023B0001407BD4680BC704780B483B000AF0346AD
:1023C000FB714EF20143CEF20003FA794FEA42125A
:1023D000D2B21A7007F10C07BD4680BC704700BF2F
:1023E00080B400AF4EF20013CEF200034FF00202B1
:1023F0001A60BD4680BC704780B400AF4EF28013B7
:10240000CEF200034FF002021A60BD4680BC704756
:1024100080B483B000AF0346FB7144F20213C4F2F0
:10242000000344F20212C4F200021278D1B2FA7927
:1024300002F0F80241EA0202D2B21A7007F10C0768
:10244000BD4680BC704700BF80B483B000AF034678
:10245000FB7144F28203C4F2000344F28202C4F22C
:1024600000021278D1B2FA7902F0F80241EA0202CF
:10247000D2B21A7007F10C07BD4680BC704700BF8E
:1024800080B582B000AF4FF00003FB7107E0FB792D
:10249000184600F013FBFB7903F10103FB71FB7994
:1024A000012BF4D948F20C13C1F6FF734FF0FF3241
:1024B0001A7007F10807BD4680BD00BF80B582B025
:1024C00000AF0346FB71FFF7DBFFFB79184600F016
:1024D000CFFA48F20C13C1F6FF73FA791A7007F1BC
:1024E0000807BD4680BD00BF0230800803D000BF92
:1024F00001380046FCD17047EFF3108072B6704788
:1025000080F31088704700BF80B483B000AF0346EB
:10251000FB7101BE07F10C07BD4680BC704700BFD0
:1025200080B582B000AF78600BE048F21C13C1F6B2
:10253000FF731B681846FFF7D7FF7B68A3F50043BE
:102540007B607B68B3F5004FEFD848F21413C1F6F7
:10255000FF731B687A6802FB03F31846FFF7C4FF9A
:1025600007F10807BD4680BD80B582B000AF0346C5
:10257000FB80FA8848F21813C1F6FF731B7803FB3F
:1025800002F31846FFF7B0FF07F10807BD4680BD0C
:1025900080B584B000AF03463960FB714EF6085336
:1025A000CEF200031B68FB60FB791F2B03D94FF0B1
:1025B0000000FFF7A9FFFB7903F01F0303F11003ED
:1025C0004FEA8302FB6813441B68BB60FB7903F08E
:1025D0001F0303F110034FEA8302FB6813443A68B8
:1025E0001A60BB68184607F11007BD4680BD00BFE2
:1025F00080B582B000AF02460B46FA71BB71BB7961
:10260000072B03D94FF00000FFF77EFFFB791F2B4C
:1026100003D94FF00000FFF777FFFB7903F01F03AA
:1026200003F1604303F56443BA794FEA4212D2B230
:102630001A7007F10807BD4680BD00BF80B485B0A1
:1026400000AF786039607B68FB603B68DAB2FB689A
:102650001A70FB6803F101033A684FEA1222D2B202
:102660001A70FB6803F102033A684FEA1242D2B2D1
:102670001A7007F11407BD4680BC704780B582B060
:1026800000AF786000F04EF8786800F017F84FF06F
:10269000070000F027F800F039F807F10807BD46F9
:1026A00080BD00BF80B500AF00F03CF840F60140AF
:1026B000C0F2000000F002F880BD00BF80B485B019
:1026C00000AF78604EF60853CEF200031B68FB6043
:1026D000FB6803F140037A681A6007F11407BD46EE
:1026E00080BC704780B483B000AF0346FB714EF2EC
:1026F0000043CEF20003FA794FEA4212D2B21A70C6
:1027000007F10C07BD4680BC704700BF80B400AF26
:102710004EF20013CEF200034FF001021A60BD46E4
:1027200080BC704780B400AF4EF28013CEF200033D
:102730004FF001021A60BD4680BC704780B485B07E
:1027400000AF0346FB7145F26013C4F200031B782F
:10275000DBB223F00803FB7345F26013C4F20003FD
:10276000FA794FEAC202D2B202F00802F97B42EAD9
:102770000102D2B21A7007F11407BD4680BC70473F
:1027800080B582B000AF7860396078684FF00001A2
:102790003A6800F0DBFF07F10807BD4680BD00BFC7
:1027A00080B584B000AFF860B9607A60F868B96845
:1027B0007A6800F003FF07F11007BD4680BD00BF37
:1027C00080B487B000AF786039604FF00003FB60E1
:1027D0004FF00003BB602CE0BB684FEA83027B68CC
:1027E00013441B683B613B69FB753B6923F0FF03A6
:1027F0003B6117E0FB684FEA43023B6813441B78D8
:102800001A463B691344FA684FEA42013A680A449F
:1028100052781A70FB6803F10103FB60FB7D03F142
:10282000FF33FB75FB7D002BE4D1BB6803F1010393
:10283000BB60BB681E2BCFD907F11C07BD4680BC0F
:10284000704700BF80B582B000AF44F28003C4F28D
:1028500000034FF008021A8044F28203C4F200031E
:102860004FF018021A7044F28403C4F200034FF0D0
:1028700017021A8044F28603C4F200034FF01802D4
:102880001A7044F20010C4F2000040F2F431C4F6B1
:1028900000014FF00402FFF783FF44F20033C4F25B
:1028A00000034FF002021A7044F20003C4F2000366
:1028B0004FF008021A7044F20023C4F200034FF0F4
:1028C00003021A7044F2A163C4F2000340F208123A
:1028D000C4F600121278D2B21A7044F22223C4F263
:1028E00000034FF008021A8044F22023C4F20003D0
:1028F00041F251021A804FF00003FB714FF01903AF
:102900003B6019E0FB794FEA4303DAB244F2252336
:10291000C4F200031B78DBB203F0010342EA0303B5
:10292000DBB203F00303FB714FF4F070FFF7DCFD43
:102930003B6803F1FF333B603B68002B02D0FB791F
:10294000032BDFD144F20403C4F200034FF480727E
:102950001A8044F20403C4F200034FF007021A7015
:1029600044F20603C4F200034FF000021A7044F26E
:102970000803C4F200034FF048021A7044F2040343
:10298000C4F200034FF000021A7044F20103C4F2D3
:1029900000034FF002021A7044F20B03C4F200036A
:1029A0004FF004021A7044F2A233C4F2000344F25E
:1029B000A232C4F200021278D2B242F00302D2B2C2
:1029C0001A7044F2A133C4F2000344F2A132C4F2FB
:1029D00000021278D2B242F00102D2B21A7044F26E
:1029E000A033C4F2000344F2A032C4F20002127811
:1029F000D2B26FEA42626FEA5262D2B21A7007F143
:102A00000807BD4680BD00BF80B483B000AF40F270
:102A1000CF13C4F600131B78FB7145F66E03C4F2A6
:102A20000003FA7902F007021A7045F66F03C4F248
:102A30000003FA794FEA1212D2B21A7045F26D13FE
:102A4000C4F200034FF020021A7045F60033C4F2BE
:102A500000034FF002021A7045F67603C4F2000339
:102A60004FF044021A7007F10C07BD4680BC704756
:102A700080B483B000AF0346FB71FB79012B18D8FB
:102A8000FA7943F64413C0F2000353F82220F9798F
:102A900043F64413C0F2000353F821301978F87953
:102AA00043F64C13C0F200031B5C41EA0303DBB2A4
:102AB000137007F10C07BD4680BC704780B483B02B
:102AC00000AF0346FB71FB79012B1BD8FA7943F663
:102AD0004413C0F2000353F82220F97943F644135B
:102AE000C0F2000353F821301978F87943F64C13FB
:102AF000C0F200031B5C6FEA0303DBB201EA0303CD
:102B0000DBB2137007F10C07BD4680BC704700BFF5
:102B100080B582B000AF72B644F2E863C4F200033D
:102B200044F2E862C4F200021278D2B242F0040227
:102B3000D2B21A704FF00003FB702FE0FA78134600
:102B40004FEA430313444FEA43031A4643F6501334
:102B5000C0F2000313447B607B681A7859784FEA0F
:102B6000012141EA020299784FEA014141EA020259
:102B7000DB784FEA036343EA02031A467B6819795C
:102B80005B794FEA032343EA01039BB210461946DF
:102B9000FFF7F6FDFB7803F10103FB70FB78082BD0
:102BA000CCD94FF0904040F27C01C4F60001FFF711
:102BB00007FE45F20303C4F2010345F20302C4F227
:102BC00001021278D2B242F00202D2B21A7045F279
:102BD0001303C4F2010345F21302C4F20102127896
:102BE000D2B242F00202D2B21A7044F2A033C4F25E
:102BF000000344F2A032C4F200021278D2B242F0D2
:102C00004002D2B21A7044F2C233C4F2000344F25A
:102C1000C232C4F200021278D2B242F01002D2B232
:102C20001A7045F21010C4F2000040F2D431C4F61C
:102C300000014FF00A02FFF7B3FD45F22210C4F283
:102C4000000040F2E031C4F600014FF00802FFF747
:102C5000A7FD45F26010C4F2000040F2E831C4F66E
:102C600000014FF00A02FFF79BFD44F22233C4F249
:102C7000000344F22232C4F200021278D2B242F0CF
:102C80000802D2B21A7044F60003C4F200034FF0F7
:102C900001021A70FFF7D6FD44F60003C4F20003E8
:102CA0006FF07E021A7040F20403C4F208034FF082
:102CB00001021A70FFF7A8FE44F2B030C4F200001F
:102CC00044F2A031C4F200014FF00E02FFF768FD9C
:102CD00007F10807BD4680BD81F0004102E000BF5A
:102CE00083F0004330B54FEA41044FEA430594EACC
:102CF000050F08BF90EA020F1FBF54EA000C55EA07
:102D0000020C7FEA645C7FEA655C00F0E2804FEAD7
:102D10005454D4EB5555B8BF6D420CDD2C4480EAB9
:102D2000020281EA030382EA000083EA010180EAE9
:102D3000020281EA0303362D88BF30BD11F0004F37
:102D40004FEA01314FF4801C4CEA113102D040426D
:102D500061EB410113F0004F4FEA03334CEA1333A8
:102D600002D0524263EB430394EA050F00F0A780C0
:102D7000A4F10104D5F1200E0DDB02FA0EFC22FABB
:102D800005F2801841F1000103FA0EF2801843FAAF
:102D900005F359410EE0A5F120050EF1200E012AA0
:102DA00003FA0EFC28BF4CF0020C43FA05F3C018DE
:102DB00051EBE37101F0004507D54FF0000EDCF157
:102DC000000C7EEB00006EEB0101B1F5801F1BD300
:102DD000B1F5001F0CD349085FEA30004FEA3C0C04
:102DE00004F101044FEA445212F5800F80F09A80FA
:102DF000BCF1004F08BF5FEA500C50F1000041EBFE
:102E0000045141EA050130BD5FEA4C0C404141EB01
:102E1000010111F4801FA4F10104E9D191F0000F28
:102E200004BF01460020B1FA81F308BF2033A3F1AB
:102E30000B03B3F120020CDA0C3208DD02F1140CA2
:102E4000C2F10C0201FA0CF021FA02F10CE002F1DD
:102E50001402D8BFC2F1200C01FA02F120FA0CFCD6
:102E6000DCBF41EA0C019040E41AA2BF01EB04511F
:102E7000294330BD6FEA04041F3C1CDA0C340EDC1D
:102E800004F11404C4F1200220FA04F001FA02F360
:102E900040EA030021FA04F345EA030130BDC4F11E
:102EA0000C04C4F1200220FA02F001FA04F340EA13
:102EB0000300294630BD21FA04F0294630BD94F0C4
:102EC000000F83F4801306BF81F480110134013DAB
:102ED0004EE77FEA645C18BF7FEA655C29D094EA1C
:102EE000050F08BF90EA020F05D054EA000C04BF9A
:102EF0001946104630BD91EA030F1EBF0021002085
:102F000030BD5FEA545C05D14000494128BF41F023
:102F1000004130BD14F580043CBF01F5801130BD87
:102F200001F0004545F0FE4141F470014FF0000012
:102F300030BD7FEA645C1ABF194610467FEA655CC3
:102F40001CBF0B46024650EA013406BF52EA033565
:102F500091EA030F41F4002130BD00BF90F0000F53
:102F600004BF0021704730B54FF4806404F132048F
:102F70004FF000054FF0000150E700BF90F0000F48
:102F800004BF0021704730B54FF4806404F132046F
:102F900010F0004548BF40424FF000013EE700BF3F
:102FA00042004FEAE2014FEA31014FEA02701FBFCF
:102FB00012F07F4393F07F4F81F06051704792F0A1
:102FC000000F14BF93F07F4F704730B54FF460741B
:102FD00001F0004521F0004120E700BF50EA010266
:102FE00008BF704730B54FF000050AE050EA010213
:102FF00008BF704730B511F0004502D5404261EB83
:1030000041014FF4806404F132045FEA915C3FF4C3
:10301000DCAE4FF003025FEADC0C18BF03325FEA5C
:10302000DC0C18BF033202EBDC02C2F1200300FA11
:1030300003FC20FA02F001FA03FE40EA0E0021FA36
:1030400002F11444C1E600BF70B54FF0FF0C4CF420
:10305000E06C1CEA11541DBF1CEA135594EA0C0FD6
:1030600095EA0C0F00F0DEF82C4481EA030621EA11
:103070004C5123EA4C5350EA013518BF52EA03354C
:1030800041F4801143F4801338D0A0FB02CE4FF0FE
:103090000005E1FB02E506F00042E0FB03E54FF02E
:1030A0000006E1FB03569CF0000F18BF4EF0010E26
:1030B000A4F1FF04B6F5007F64F5407404D25FEA22
:1030C0004E0E6D4146EB060642EAC62141EA5551D5
:1030D0004FEAC52040EA5E504FEACE2EB4F1FD0C17
:1030E00088BFBCF5E06F1ED8BEF1004F08BF5FEA95
:1030F000500E50F1000041EB045170BD06F0004647
:1031000046EA010140EA020081EA0301B4EB5C04F3
:10311000C2BFD4EB0C0541EA045170BD41F48011EB
:103120004FF0000E013C00F3AB8014F1360FDEBF10
:10313000002001F0004170BDC4F10004203C35DAEC
:103140000C341BDC04F11404C4F1200500FA05F36F
:1031500020FA04F001FA05F240EA020001F0004210
:1031600021F0004110EBD37021FA04F642EB060186
:103170005EEA430E08BF20EAD37070BDC4F10C04B0
:10318000C4F1200500FA04F320FA05F001FA04F274
:1031900040EA020001F0004110EBD37041F1000160
:1031A0005EEA430E08BF20EAD37070BDC4F120056B
:1031B00000FA05F24EEA020E20FA04F301FA05F2D3
:1031C00043EA020321FA04F001F0004121FA04F27B
:1031D00020EA020000EBD3705EEA430E08BF20EA4B
:1031E000D37070BD94F0000F0FD101F00046400085
:1031F00041EB010111F4801F08BF013CF7D041EA07
:10320000060195F0000F18BF704703F0004652000A
:1032100043EB030313F4801F08BF013DF7D043EADB
:103220000603704794EA0C0F0CEA135518BF95EA91
:103230000C0F0CD050EA410618BF52EA4306D1D118
:1032400081EA030101F000414FF0000070BD50EA37
:10325000410606BF1046194652EA430619D094EAC1
:103260000C0F02D150EA013613D195EA0C0F05D1AB
:1032700052EA03361CBF104619460AD181EA0301FF
:1032800001F0004141F0FE4141F470014FF00000B7
:1032900070BD41F0FE4141F4780170BD70B54FF052
:1032A000FF0C4CF4E06C1CEA11541DBF1CEA1355D2
:1032B00094EA0C0F95EA0C0F00F0A7F8A4EB0504B4
:1032C00081EA030E52EA03354FEA013100F08880AB
:1032D0004FEA03334FF0805545EA131343EA126374
:1032E0004FEA022245EA111545EA10654FEA002629
:1032F0000EF000419D4208BF964244F1FD0404F5E2
:10330000407402D25B084FEA3202B61A65EB03053D
:103310005B084FEA32024FF480104FF4002CB6EBFA
:10332000020E75EB030E22BFB61A754640EA0C007A
:103330005B084FEA3202B6EB020E75EB030E22BFBA
:10334000B61A754640EA5C005B084FEA3202B6EBFB
:10335000020E75EB030E22BFB61A754640EA9C00BA
:103360005B084FEA3202B6EB020E75EB030E22BF8A
:10337000B61A754640EADC0055EA060E18D04FEA48
:10338000051545EA16754FEA06164FEAC30343EAE8
:1033900052734FEAC2025FEA1C1CC0D111F4801FB5
:1033A0000BD141EA00014FF000004FF0004CB6E7AE
:1033B00011F4801F04BF01430020B4F1FD0C88BF4D
:1033C000BCF5E06F3FF6AFAEB5EB030C04BFB6EB58
:1033D000020C5FEA500C50F1000041EB045170BD4B
:1033E0000EF0004E4EEA113114EB5C04C2BFD4EB78
:1033F0000C0541EA045170BD41F480114FF0000EFC
:10340000013C90E645EA060E8DE60CEA135594EA77
:103410000C0F08BF95EA0C0F3FF43BAF94EA0C0F7A
:103420000AD150EA01347FF434AF95EA0C0F7FF4EF
:1034300025AF104619462CE795EA0C0F06D152EA43
:1034400003353FF4FDAE1046194622E750EA410627
:1034500018BF52EA43067FF4C5AE50EA41047FF438
:103460000DAF52EA43057FF4EBAE12E74FF0FF3C9D
:1034700006E000BF4FF0010C02E000BF4FF0010C6E
:103480004DF804CD4FEA410C7FEA6C5C4FEA430CE7
:1034900018BF7FEA6C5C1BD001B050EA410C0CBF36
:1034A00052EA430C91EA030F02BF90EA020F002098
:1034B000704710F1000F91EA030F58BF994208BFFF
:1034C00090422CBFD8176FEAE37040F001007047BC
:1034D0004FEA410C7FEA6C5C02D150EA013C07D113
:1034E0004FEA430C7FEA6C5CD6D152EA033CD3D05E
:1034F0005DF8040B704700BF8446104662468C4658
:103500001946634600E000BF01B5FFF7B7FF00288A
:1035100048BF10F1000F01BD4DF808EDFFF7F4FFB3
:103520000CBF012000205DF808FB00BF4DF808ED3E
:10353000FFF7EAFF34BF012000205DF808FB00BF61
:103540004DF808EDFFF7E0FF94BF012000205DF883
:1035500008FB00BF4DF808EDFFF7CEFF94BF012038
:1035600000205DF808FB00BF4DF808EDFFF7C4FF31
:1035700034BF012000205DF808FB00BF4A0011D2D3
:1035800012F5001211D20DD56FF47873B3EB6252BD
:103590000ED44FEAC12343F0004343EA505323FAC9
:1035A00002F070474FF00000704750EA013002D13E
:1035B0004FF0FF3070474FF000007047032A2DE9AD
:1035C000F0070BD83AB1002311F803C000F803C08C
:1035D00001339342F8D1BDE8F007704782180C46DA
:1035E000034603E014F8011C03F8011C03F0030672
:1035F0001946A44601330134002EF3D11CF0030414
:10360000634608BFC1EB020C68D06542C4F1040AEE
:103610000CEB050733464FEACA0A5CF805604FEA2F
:10362000C408551A08E057F8044F264604FA0AF46D
:1036300049EA0404CC5004335C18032D26FA08F937
:10364000A5F104050CEB0306EDDC002302E0F15CC0
:10365000E154013319199142F9D3BCE753F8404CB6
:1036600041F8404C53F83C4C41F83C4C53F8384C32
:1036700041F8384C53F8344C41F8344C53F8304C42
:1036800041F8304C53F82C4C41F82C4C53F8284C52
:1036900041F8284C53F8244C41F8244C53F8204C62
:1036A00041F8204C53F81C4C41F81C4C53F8184C72
:1036B00041F8184C53F8144C41F8144C53F8104C82
:1036C00041F8104C53F80C4C41F80C4C53F8084C92
:1036D00041F8084C53F8044C41F8044C1C460D4684
:1036E00040334031BCF13F0FACF1400CB6DC214619
:1036F0002B46541B0FE051F8105C43F8105C51F856
:103700000C5C43F80C5C51F8085C43F8085C51F819
:10371000045C43F8045C0F2C0D469C4601F110013B
:1037200003F11003A4F11004E5DCCCEB020100234B
:1037300003E0EC584CF8034004335E19032903EB13
:103740000C04A1F10401F4DC7FE700BF032AC9B235
:1037500030B407D822B10023C15401339342FBD1C6
:1037600030BC704700EB020C034601E003F8011C7B
:1037700003F003041A460133002CF7D14FF0013354
:10378000C2EB0C0403FB01F31FE042F8403C42F89B
:103790003C3C42F8383C42F8343C42F8303C42F879
:1037A0002C3C42F8283C42F8243C42F8203C42F8A9
:1037B0001C3C42F8183C42F8143C42F8103C42F8D9
:1037C0000C3C42F8083C42F8043C154640323F2C81
:1037D000A4F14004D9DC2A46C5EB0C0407E042F80A
:1037E000103C42F80C3C42F8083C42F8043C1546B8
:1037F00010320F2CA4F11004F1DC2A46C5EB0C05A5
:1038000001E042F8043C14460432032DA5F10405FE
:10381000F7DC01E004F8011B6445FBD3A0E700BF1F
:1038200008B500F017F8074800B10068064901B173
:1038300009680022FCF7D0FC044B0BB1AFF3008009
:10384000FEE700BF000000000000000000000000D4
:10385000FEE7000070B543F6941643F69415C0F2E7
:103860000006C0F20005761BB61006D0002455F8FD
:10387000243001349847A642F9D843F6941543F60C
:103880009C16C0F20005C0F20006761B00F07CF822
:10389000B61006D0002455F8243001349847A642CB
:0438A000F9D870BD26
:1038A400696E697469616C697A696E672E2E2E007F
:1038B400436C6F636B0000004144430050574D005C
:1038C400436F756E7465720054696D657200000013
:1038D40050494400496E74657272757074730000C7
:1038E400202052504D3A000073706565643A2020E0
:1038F400202520200000000073657450743A2020B5
:103904002020202000000000202020202000000093
:10391400636C65616E696E672E2E2E002020202058
:103924002020202020202020202020200000000013
:1039340030313233343536373839414243444546E1
:10394400035B0040035B0040404000000051004026
:103954001000305100403000C05100401000F051C0
:103964000040100000000140001000140140000855
:1039740000400140000A004C014000020050014098
:1039840020000000F8B500BFF8BC08BC9E46704794
:10399400310100002D0C0000F8B500BFF8BC08BCD4
:1039A4009E4670471D01000000000000C039000061
:0C39B4000080FF1F2001000070000000D8
:1039C00000000000000000000000000000000000F7
:1039D00000000000000000000000000000000000E7
:1039E00000000000000000000000000000000000D7
:1039F00000000000000000000000000000000000C7
:103A000000000000000000000000000000000000B6
:103A100000000000000000000000000000000000A6
:103A20000000000000000000000000000000000096
:103A30000000000000000000000000000000000086
:103A40000000000000000000000000000000000076
:103A50000000000000000000000000000000000066
:103A60000000000000000000000000000000000056
:103A70000000000000000000000000000000000046
:103A80000000000000000000000000000000000036
:103A90000000000000000000000000000000000026
:103AA0000000000000000000000000000000000016
:103AB0000000000000000000000000000000000006
:103AC000000000000100000033330000FF00000090
:103AD00000366E01C05D0000180000000000E02EFE
:0400000300000C09E4
:00000001FF
