:4000000000800020E9150000E1150000E115000080B51448144B21E05C689968DD688C420CD0002205E0A6180832D6E9008941E902898C460831AA42F5D101E004EB050CF7
:400040001C696146002204E008320026002741E902670831A242F7D1143301380028DBD104F060FE010000007050000048F27813C1F6FF731A780AB901201870704700BF86
:4000800048F20810C1F6FF7008B503682BB140F20003C0F2000303B1984708BD80B400AF48F27913C1F6FF731B78002B0DD048F20D13C1F6FF731B7883F00103DBB2DAB26F
:4000C00048F20D13C1F6FF731A70BD4680BC704780B582B000AF4FF04003FB8093E048F21113C1F6FF731B7803F10103DAB248F21113C1F6FF731A7048F21113C1F6FF7341
:400100001B78082B21D948F21113C1F6FF734FF000021A7048F21013C1F6FF731B7803F10103DAB248F21013C1F6FF731A7048F21013C1F6FF731B78082B06D948F2101378
:40014000C1F6FF734FF000021A7048F21013C1F6FF731B78194648F21113C1F6FF731B781A4648F2C813C1F6FF734FEAC1010A4413441B78002B16D048F21013C1F6FF7391
:400180001B78194648F21113C1F6FF731B781A4648F20E13C1F6FF731B78084611461A4601F00CF83CE048F21013C1F6FF731B78194648F21113C1F6FF731B781A4648F27A
:4001C0000823C1F6FF734FEAC1010A4413441B78002B18D001F0F4F848F21013C1F6FF731B78194648F21113C1F6FF731B781A4648F20F13C1F6FF731B78084611461A4679
:4002000000F0DCFF0CE0FB88002B0CBF00230123DBB2FA8802F1FF32FA80002B7FF45FAF07F10807BD4680BD80B582B000AF00F06BF844F6A850C0F2000000F093FF48F29E
:400240000C13C1F6FF731B78002B06D148F20D13C1F6FF731B78002B33D048F20C13C1F6FF731B78002B04D044F6B453C0F2000303E044F6C053C0F20003184600F072FFAF
:4002800000F0F8F90346FB71FB79184600F044FC0346BB7148F20D13C1F6FF731B7883F00103DBB2002B1DD0BB79C3F10803DAB2FB7903F10103DBB21046194600F00EFCD8
:4002C00011E044F6C050C0F2000000F04BFF00F0D3FA0346FB71FB79184600F01DFC0346BB7100E000BF00F097FC48F20C13C1F6FF731B7883F00103DBB2DAB248F20C13F5
:40030000C1F6FF731A709AE780B582B000AF01F04DFB44F6CC50C0F2000000F023FF44F6DC50C0F2000000F033FF00F0ABF844F6E450C0F2000000F02BFF4FF001004FF09A
:40034000000101F075F801F03BF844F6EC50C0F2000000F01DFF62B644F6F850C0F2000000F016FF03F084F94FF4FA5003F0A6F944F60060C0F2000000F00AFF01F026FF8B
:4003800002F004FA44F60C60C0F2000000F0EAFE40F29D00C0F2000003F0B2F948F27913C1F6FF734FF001021A704FF00503FB7128E048F20D13C1F6FF731B78002B04D073
:4003C00044F61C63C0F2000303E044F62463C0F20003184600F0DCFE4FF4FA7001F002FA4FF001004FF00F0101F0F6FAFB79184601F02CFD4FF4FA7001F0F4F9FB7903F125
:40040000FF33FB71FB79002BD3D148F27913C1F6FF734FF000021A7003F086F948F20D13C1F6FF731B7883F00103DBB2002B19D044F6CC50C0F2000000F094FE44F62C6031
:40044000C0F2000000F0A4FE03F0DCF903F0CEFC03F044FB44F63460C0F2000000F098FE00F048F844F63C60C0F2000000F090FE40F2D100C0F2000003F0DCFD07F10807BD
:40048000BD4680BD80B483B000AF4FF00003BB7128E04FF00003FB711DE0B979FA7948F2C813C1F6FF734FEAC1010A4413444FF000021A70B979FA7948F20823C1F6FF7344
:4004C0004FEAC1010A4413444FF000021A70FB7903F10103FB71FB79072BDED9BB7903F10103BB71BB79072BD3D907F10C07BD4680BC704780B500AF4FF001004FF0050188
:4005000001F06AFA44F64460C0F2000001F09EFA4FF47A7001F066F944F64C60C0F2000003F0F4FB40F6B83001F05CF903F07AFA0346022BFAD903F01FFA03464F2B09D199
:4005400003F01AFA03464B2B04D103F015FA03460D2B03D04FF0010003F004FE4FF001004FF0050101F038FA44F65060C0F2000001F06CFA44F65C60C0F2000003F0C6FB5E
:4005800003F050FA0346022BFAD903F0F5F903464F2B09D103F0F0F903464B2B04D103F0EBF903460D2B03D04FF0010003F0DAFD4FF001004FF0050101F00EFA44F6646016
:4005C000C0F2000001F042FA44F67060C0F2000003F09CFB4FF00C0003F0E2FA4FF00D0003F038FB03F01EFA0346022BFAD903F0C3F903464F2B09D103F0BEF903464B2B41
:4006000004D103F0B9F903460D2B03D04FF0010003F0A8FD4FF001004FF0050101F0DCF944F67860C0F2000001F010FA44F68460C0F2000003F06AFB03F0F4F90346022B8C
:40064000FAD903F099F903464F2B09D103F094F903464B2B04D103F08FF903460D2B03D04FF0010003F07EFD4FF0010003F0A8F880BD00BF80B584B000AF44F68C60C0F235
:40068000000000F085FD4FF00003FB7113E0FB7903F10103FB71FB79072B0CD944F69C60C0F2000000F05EFD44F6A860C0F2000000F06EFDFEE7FA7948F2C813C1F6FF73AC
:4006C00013441B7A002BE2D1FA7948F20823C1F6FF7313441B7A002BD9D14FF000033B724FF000037B7202F075F901F00BFE01F049FE0346002BFAD14FF0010002F062FAF1
:400700000346002B1DD0FA7948F2C813C1F6FF7313441B7A002B08D1FA7948F20823C1F6FF7313441B7A002B07D044F6B460C0F2000000F02DFD00BF7DE04FF001033B72A2
:4007400079E03B7A002B03D04FF001037B7272E0F979FA7948F20823C1F6FF734FF00000985448F20823C1F6FF739A5C48F2C813C1F6FF735A544FF0000002F07BFB0346ED
:400780001A4613464FEAC303C2EB030240F2EB73C1F21D5383FB02134FEAE3014FEAE273C3EB01037B817B89072B01D87B89FB714FF00103FB6014E0FB79062B02D94FF060
:4007C000FF33FB60FB79002B06D1FB68B3F1FF3F02D14FF00103FB60FB68DAB2FB791344FB71FA7948F2C813C1F6FF7313441B7A002BE1D1FA7948F20823C1F6FF73134448
:400800001B7A002BD8D148F20C13C1F6FF731B78002B08D0FA7948F2C813C1F6FF734FF00101995407E0FA7948F20823C1F6FF734FF0010199547B7A83F00103DBB2002B1E
:400840007FF451AFF979FA7948F20823C1F6FF734FF00000985448F20823C1F6FF739A5C48F2C813C1F6FF735A54FB79184607F11007BD4680BD00BF80B582B000AF07F109
:400880000403184600F028F83B79C3F10803DBB23B717B7903F1FF33DBB27B713B7919467B791A4648F20823C1F6FF734FEAC1010A4413441B78002B06D048F24820C1F602
:4008C000FF7000F08FF8DAE703F008F97B79184607F10807BD4680BD80B584B000AF786003F0FCF844F6C060C0F2000000F050FC4FF001004FF0070101F06EF844F6C86065
:40090000C0F2000001F0A2F84FF001004FF0070101F062F803F086F803464FEAC30303F17F02002BB8BF13464FEAE313FB7307E04FF02E0001F0AAF8FB7B03F1FF33FB73F1
:40094000FB7B002BF4D103F005FA0346002B09D148F24820C1F6FF7000F044F84FF0320000F040FF03F05EF80346032BEBD903F003F80346852B00D02EE003F053F803466D
:40098000002BFAD002F0F8FF03F04CF80346002BFAD002F0F1FF03461A467B681A707B681B78002B03D07B681B78072B00D913E003F038F80346002BFAD002F0DDFF03468C
:4009C0001A467B685A707B685B78002B03D07B681B78082B01D900BF84E700BF07F11007BD4680BD80B586B000AF78604FF07E037B734FF00103BB734FF00003FB734FF675
:400A0000FF733B824FF00103FB744FF00903BB82BA7BFB7B1344DAB23B8A4FEA13239BB2DBB21344DAB23B8ADBB21344DAB2FB7C1344DAB27B681B781344DAB27B685B7830
:400A40001344DBB2A3F12603DBB26FEA0303FB7503F0CCF97B7B184603F0A2F8BB8A4FEA13239BB2DBB2184603F09AF8BB8ADBB2184603F095F8BB7B184603F091F8FB7B39
:400A8000184603F08DF83B8A4FEA13239BB2DBB2184603F085F83B8ADBB2184603F080F8FB7C184603F07CF84FF0DA0003F078F84FF0000003F074F87B681B78184603F04C
:400AC0006FF87B685B78184603F06AF8FB7D184603F066F807F11807BD4680BD80B582B000AF02460B46FA71BB7148F24823C1F6FF73FA791A7048F24823C1F6FF73BA7996
:400B00005A7048F24820C1F6FF70FFF76BFF07F10807BD4680BD00BF80B584B000AF0346FB714FF00103FB736CE048F20C13C1F6FF731B78002B0DD0F97BFA7948F2C813DA
:400B4000C1F6FF734FEAC1010A4413444FF001021A700CE0F97BFA7948F20823C1F6FF734FEAC1010A4413444FF001021A70FB7B03F10101FA7948F2C813C1F6FF734FEABD
:400B8000C1010A4413441B78002B3ED1FB7B03F10101FA7948F20823C1F6FF734FEAC1010A4413441B78002B2FD1FB7B072B2CD04FF0140000F016FE48F20C13C1F6FF73B9
:400BC0001B78002B0DD0F97BFA7948F2C813C1F6FF734FEAC1010A4413444FF000021A700CE0F97BFA7948F20823C1F6FF734FEAC1010A4413444FF000021A70FB7B03F194
:400C00000103FB73FB7B072B8FD9FB7B184607F11007BD4680BD00BF80B584B000AF4FF064037B804FF001033B7077E24FF000037B706BE23B78042B00F291804FF00103AE
:400C40003B724FF000037B6039E048F20C13C1F6FF731B78002B16D03A787B6802EB03017A7848F2C813C1F6FF734FEAC1010A4413441B7883F00103DBB2002B1AD04FF02A
:400C800000033B7217E03A787B6802EB03017A7848F20823C1F6FF734FEAC1010A4413441B7883F00103DBB2002B04D04FF000033B7200E000BF7B6803F101037B603B7A58
:400CC000002B02D07B68032BBFDD3B7A002B46D044F6D460C0F2000000F05AFA4FF000037B724FF000037B6029E048F20C13C1F6FF731B78002B0FD03A787B6802EB0301F6
:400D00007A7848F2C813C1F6FF734FEAC1010A4413447A7A1A700EE03A787B6802EB03017A7848F20823C1F6FF734FEAC1010A4413447A7A1A707B6803F101037B603B7AE8
:400D4000002B02D07B68032BCFDD7B88184600F049FD7B7A83F00103DBB27B72C1E77B78042B00F28D804FF00103BB724FF000037B6037E048F20C13C1F6FF731B78002B8F
:400D800015D039787A787B681A4448F2C813C1F6FF734FEAC1010A4413441B7883F00103DBB2002B19D04FF00003BB7216E039787A787B681A4448F20823C1F6FF734FEAD1
:400DC000C1010A4413441B7883F00103DBB2002B04D04FF00003BB7200E000BF7B6803F101037B60BB7A002B02D07B68032BC1DDBB7A002B44D044F6D460C0F2000000F0CD
:400E0000C7F94FF00003FB724FF000037B6027E048F20C13C1F6FF731B78002B0ED039787A787B681A4448F2C813C1F6FF734FEAC1010A441344FA7A1A700DE039787A78B1
:400E40007B681A4448F20823C1F6FF734FEAC1010A441344FA7A1A707B6803F101037B60BB7A002B02D07B68032BD1DD7B88184600F0B8FCFB7A83F00103DBB2FB72C3E7C9
:400E80003B78042B00F29D807B78042B00F299804FF001033B734FF000037B603DE048F20C13C1F6FF731B78002B18D03A787B6802EB03017A787B681A4448F2C813C1F63C
:400EC000FF734FEAC1010A4413441B7883F00103DBB2002B1CD04FF000033B7319E03A787B6802EB03017A787B681A4448F20823C1F6FF734FEAC1010A4413441B7883F05C
:400F00000103DBB2002B04D04FF000033B7300E000BF7B6803F101037B603B7B002B02D07B68032BBBDD3B7B002B4AD044F6D460C0F2000000F02CF94FF000037B734FF0E1
:400F400000037B602DE048F20C13C1F6FF731B78002B11D03A787B6802EB03017A787B681A4448F2C813C1F6FF734FEAC1010A4413447A7B1A7010E03A787B6802EB0301D9
:400F80007A787B681A4448F20823C1F6FF734FEAC1010A4413447A7B1A707B6803F101037B603B7B002B02D07B68032BCBDD7B88184600F017FC7B7B83F00103DBB27B73E3
:400FC000BDE73B78032B40F29D807B78042B00F299804FF00103BB734FF000037B603DE048F20C13C1F6FF731B78002B18D03A787B68C3EB02017A787B681A4448F2C8138F
:40100000C1F6FF734FEAC1010A4413441B7883F00103DBB2002B1CD04FF00003BB7319E03A787B68C3EB02017A787B681A4448F20823C1F6FF734FEAC1010A4413441B7896
:4010400083F00103DBB2002B04D04FF00003BB7300E000BF7B6803F101037B60BB7B002B02D07B68032BBBDDBB7B002B4AD044F6D460C0F2000000F08BF84FF00003FB730E
:401080004FF000037B602DE048F20C13C1F6FF731B78002B11D03A787B68C3EB02017A787B681A4448F2C813C1F6FF734FEAC1010A441344FA7B1A7010E03A787B68C3EB5C
:4010C00002017A787B681A4448F20823C1F6FF734FEAC1010A441344FA7B1A707B6803F101037B60BB7B002B02D07B68032BCBDD7B88184600F076FBFB7B83F00103DBB2AF
:40110000FB73BDE77B7803F101037B707B78072B7FF690AD3B7803F101033B703B78072B7FF684AD07F11007BD4680BD80B582B000AF78607B68DBB218464FF0000100F0D4
:401140004BFC44F6EC60C0F2000000F07FFC7B68DBB218464FF0000100F03EFC07F10807BD4680BD80B582B000AF78604FF0010000F0B6FC4FF000004FF0000100F02CFC9F
:40118000786800F063FC07F10807BD4680BD00BF80B582B000AF78604FF00100FFF7C6FF4FF001004FF0000100F016FC786800F04DFC07F10807BD4680BD00BF80B588B003
:4011C00000AFF860B9601346FB714FF00003BB744FF00103FB744FF00102FB6802FA03F33B754FF001037B754FF00103BB754FF00103FB75FB7903F1FF33062B65D801A29C
:4012000052F823F0211200003512000049120000631200007712000091120000AB1200007A7DBB6802FA03F37B75BB7CBB75BB7CFB7556E0BB7C7B75BA7DBB6802FA03F36B
:40124000BB75BB7CFB754CE07A7DBB6802FA03F37B75BA7DBB6802FA03F3BB75BB7CFB753FE0BB7C7B75BB7CBB75FA7DBB6802FA03F3FB7535E07A7DBB6802FA03F37B7592
:40128000BB7CBB75FA7DBB6802FA03F3FB7528E0BB7C7B75BA7DBB6802FA03F3BB75FA7DBB6802FA03F3FB751BE07A7DBB6802FA03F37B75BA7DBB6802FA03F3BB75FA7D3A
:4012C000BB6802FA03F3FB750BE044F60070C0F20000FFF747FF44F60870C0F20000FFF757FF3B7D6FEA03033B757B7D6FEA03037B75BB7D6FEA0303BB75FB7D6FEA03038A
:40130000FB75BB7C184602F0E9FE4FF00003BB614BE03A7D4FF08001BB6941FA03F302EA0303002B01D0FB7C00E0BB7C184600F0C7F97A7D4FF08001BB6941FA03F302EAF8
:401340000303002B01D0FB7C00E0BB7C184600F0D9F9BA7D4FF08001BB6941FA03F302EA0303002B01D0FB7C00E0BB7C184600F0EBF9FA7D4FF08001BB6941FA03F302EA4B
:401380000303002B01D0FB7C00E0BB7C184600F0FDF9FB7C184602F0C3FEBB7C184602F0BFFEBB6903F10103BB61BB69072BB0DDFB7C184602F092FE07F12007BD4680BDBC
:4013C00080B582B000AF4FF00003BB704FF00103FB70BB78184602F081FE4FF000037B601BE04FF0FF0000F06BF94FF0FF0000F089F94FF0FF0000F0A7F94FF0FF0000F064
:40140000C5F9FB78184602F08BFEBB78184602F087FE7B6803F101037B607B68072BE0DDFB78184602F05AFE07F10807BD4680BD80B584B000AF02460B46FA71BB71FFF772
:40144000BFFF4FF001037B73C2E04FF00003BB73ADE04FF00003FB73A1E04FF00100FFF765FE4FF001004FF0000100F0B5FABB7B184600F0EBFC4FF001004FF0010100F019
:40148000ABFA4FF02C0000F001FB4FF001004FF0020100F0A1FAFB7B184600F0D7FC4FF001004FF0040100F097FA44F61870C0F2000000F0CBFA4FF001004FF0040100F0EA
:4014C0008BFA7B7B03F1FF33062B42D801A252F823F000BFF1140000FF1400000D1500001B15000029150000371500004515000044F62070C0F2000000F0A8FA36E044F695
:401500002470C0F2000000F0A1FA2FE044F62C70C0F2000000F09AFA28E044F63470C0F2000000F093FA21E044F63C70C0F2000000F08CFA1AE044F64470C0F2000000F011
:4015400085FA13E044F64C70C0F2000000F07EFA0CE044F60070C0F20000FFF703FE44F60870C0F20000FFF713FEFEE7B97BFA7B7B7B084611461A46FFF720FEBB79002B43
:4015800002D04FF07D0301E04FF00503184600F029F9FFF715FFFB7B03F10103FB73FB7B072B7FF65AAFBB7B03F10103BB73BB7B072B7FF64EAFFB79002B04D07B7B03F163
:4015C0000103DBB203E07B7B4FEA4303DBB27B737B7B072B7FF639AF07F11007BD4680BD80B400AFFEE700BF054B1C7844F001041C70044B1A78D2B2034B1A70FEF708FD4C
:40160000E8460040FA460040BC76004080B582B000AF4EF60C53CEF2000340F20042C0F2FA521A604EF61453CEF200034EF61452CEF20002126842F400721A604FF000032A
:401640007B6019E079687B68032B07D87A6840F20003C0F2000353F8223003E041F2E153C0F2000348F20002C1F6FF7242F821307B6803F101037B607B682F2BE2D947F287
:40168000BC63C4F200031B78DAB248F24A23C1F6FF731A704EF60853CEF2000348F20002C1F6FF721A6002F01DFF48F20013C1F6FF734FF000021A6007F10807BD4680BD13
:4016C00080B485B000AF0346FB7145F24013C4F200031B78DBB223F00403FB7345F24013C4F20003FA794FEA8202D2B202F00402F97B42EA0102D2B21A7007F11407BD467C
:4017000080BC704780B485B000AF0346FB7145F24013C4F200031B78DBB223F02003FB7345F24013C4F20003FA794FEA4212D2B202F02002F97B42EA0102D2B21A7007F15E
:401740001407BD4680BC704780B485B000AF0346FB7145F24013C4F200031B78DBB223F04003FB7345F24013C4F20003FA794FEA8212D2B202F04002F97B42EA0102D2B202
:401780001A7007F11407BD4680BC704780B485B000AF0346FB7145F24013C4F200031B78DBB203F07F03FB7345F24013C4F20003FA794FEAC212D1B2FA7B41EA0202D2B215
:4017C0001A7007F11407BD4680BC704780B483B000AF0346FB7101BE07F10C07BD4680BC704700BF80B582B000AF78600BE048F22013C1F6FF731B68184602F085FF7B6863
:40180000A3F500437B607B68B3F5004FEFD848F21813C1F6FF731B687A6802FB03F3184602F072FF07F10807BD4680BD80B582B000AF0346FB80FA8848F21C13C1F6FF7375
:401840001B7803FB02F3184602F05EFF07F10807BD4680BD80B584B000AF03463960FB714EF60853CEF200031B68FB60FB791F2B03D94FF00000FFF7A9FFFB7903F01F0348
:4018800003F110034FEA8302FB6813441B68BB60FB7903F01F0303F110034FEA8302FB6813443A681A60BB68184607F11007BD4680BD00BF80B582B000AF02460B46FA713E
:4018C000BB71BB79072B03D94FF00000FFF77EFFFB791F2B03D94FF00000FFF777FFFB7903F01F0303F1604303F56443BA794FEA4212D2B21A7007F10807BD4680BD00BFF0
:4019000080B500AF4FF02800FFF76CFF4FF0030000F056FA4FF00500FFF764FF4FF0030000F04EFA4FF00F00FFF75CFF4FF0030000F046FA4FF00100FFF754FF4FF0020087
:4019400000F03EFA4FF00500FFF74CFF4FF0060000F0C6F84FF00E0000F0C2F84FF02C0000F0BEF84FF0080000F0BAF84FF0010000F0B6F84FF00C0000F0B2F84FF00300D1
:4019800000F0AEF84FF00500FFF72CFF80BD00BF80B500AF4FF00C0000F0A2F848F27A13C1F6FF734FF001021A7080BD80B500AF48F27B13C1F6FF731B78002B08D1FFF71C
:4019C0009FFF48F27B13C1F6FF734FF001021A70FFF7DEFF80BD00BF80B582B000AF02460B46FA71BB71FB79032B2AD801A252F823F000BF051A0000151A0000251A000087
:401A0000351A0000BB79A3F18003DBB2184600F067F816E0BB79A3F14003DBB2184600F05FF80EE0BB79A3F16C03DBB2184600F057F806E0BB79A3F12C03DBB2184600F098
:401A40004FF807F10807BD4680BD00BF80B584B000AF78604FF00103BB737B681B78FB730CE0FB7B184600F01FF8BA7B7B6813441B78FB73BB7B03F10103BB73FB7B002BA0
:401A8000EFD107F11007BD4680BD00BF80B582B000AF0346FB71FB79184600F005F807F10807BD4680BD00BF80B584B000AF0346FB7100F031F8FB794FEA1313FB73FB7B2B
:401AC000184600F027F9FB7903F00F03FB73FB7B184600F01FF907F11007BD4680BD00BF80B584B000AF0346FB7100F015F8FB794FEA1313FB73FB7B184600F061F9FB790A
:401B000003F00F03FB73FB7B184600F059F907F11007BD4680BD00BF80B582B000AF45F22013C4F2000345F22012C4F200021278D2B202F080021A7045F22213C4F2000383
:401B40001B78DBB223F00F03FB7145F22213C4F20003FA7942F00F02D2B21A7045F22313C4F200031B78DBB223F00F03FB7145F22313C4F20003FA791A7045F22413C4F2AD
:401B800000031B78DBB223F00F03FB7145F22413C4F20003FA791A7045F22013C4F2000345F22012C4F200021278D2B202F0DF021A7045F22013C4F2000345F22012C4F25C
:401BC00000021278D2B242F04002D2B21A704FF00000FFF72BFE45F22013C4F2000345F22012C4F200021278D2B242F01002D2B21A704FF00100FFF719FE45F22113C4F2E3
:401C000000031B78FB7145F22013C4F2000345F22012C4F200021278D2B202F0EF021A704FF00000FFF702FEFB7903F00803FB7145F22013C4F2000345F22012C4F200028C
:401C40001278D2B242F01002D2B21A704FF00100FFF7ECFD45F22013C4F2000345F22012C4F200021278D2B202F0EF021A70FB79002BACD145F22013C4F2000345F220127E
:401C8000C4F200021278D2B202F0BF021A7045F22013C4F2000345F22012C4F200021278D2B202F080021A7045F22213C4F2000345F22212C4F200021278D2B202F0F00297
:401CC0001A7045F22313C4F200031B78DBB223F00F03FB7145F22313C4F20003FA7942F00F02D2B21A7045F22413C4F200031B78DBB223F00F03FB7145F22413C4F200039A
:401D0000FA7942F00F02D2B21A7007F10807BD4680BD00BF80B582B000AF0346FB71FFF7FBFE45F22013C4F2000345F22012C4F200021278D2B242F02002D2B21A7045F234
:401D40002013C4F2000345F22012C4F200021278D2B202F0BF021A7045F22013C4F2000345F22012C4F200021278D2B202F0F0021A7045F22013C4F2000345F22012C4F209
:401D800000021278D1B2FA7941EA0202D2B242F01002D2B21A704FF00100FFF747FD45F22013C4F2000345F22012C4F200021278D2B202F0EF021A7007F10807BD4680BD1C
:401DC00080B582B000AF0346FB7145F22013C4F2000345F22012C4F200021278D2B202F09F021A7045F22013C4F2000345F22012C4F200021278D2B202F0F0021A7045F2B2
:401E00002013C4F2000345F22012C4F200021278D1B2FA7941EA0202D2B242F01002D2B21A704FF00100FFF701FD45F22013C4F2000345F22012C4F200021278D2B202F098
:401E4000EF021A7007F10807BD4680BD80B586B000AF0346FB804FF00003BB752AE0B87DFA884CF6CD43CCF6CC43A3FB02134FEAD3010B464FEA83030B444FEA4303C3EB20
:401E800002039BB2DBB203F13003DAB207F1180101EB000303F8102CFA884CF6CD43CCF6CC43A3FB02134FEAD303FB80BB7D03F10103BB75FB88092BD1D8B87DFA884CF6BE
:401EC000CD43CCF6CC43A3FB02134FEAD3010B464FEA83030B444FEA4303C3EB02039BB2DBB203F13003DAB207F1180101EB000303F8102CBB7DFB7512E0FA7DBB7DC3EBF5
:401F00000203BA7D07F118010A4412F8102C07F118010B4403F8082CBB7D03F1FF33BB75BB7D002BE9D1FB7D3A7A07F118010B4403F8082CFB7D03F1010307F118021344F2
:401F40004FF0000203F8082C07F110031846FFF77DFD07F11807BD4680BD00BF80B582B000AF00F025FA4FF0020000F073FB02F0D3FB0346FB7146F29C43C4F2000346F2C1
:401F80009C42C4F200021278D2B242F00302D2B21A7046F29D43C4F2000346F29D42C4F200021278D2B242F00302D2B21A70FB79184602F0B5FB46F22C43C4F200034FF42E
:401FC00034421A8046F24C43C4F200034FF6FF721A8046F28B43C4F200034FF007021A7002F09AFB0346FB7146F29943C4F2000346F29942C4F200021278D2B242F0030257
:40200000D2B21A7046F29F43C4F2000346F29F42C4F200021278D2B242F00302D2B21A70FB79184602F07CFB46F22943C4F200034FF0FF321A7046F24943C4F200034FF04D
:40204000FF321A7046F20943C4F200034FF0FF321A7046F22F43C4F200034FF0FF321A7046F25F43C4F200034FF0FF321A7046F24F43C4F200034FF0FF321A704EF2801334
:40208000CEF200034FF004021A604FF0020043F24501C0F20001FFF7DDFB4FF002004FF00701FFF707FC01F029FA4FF0070002F0C9F94FF0080002F0C5F94FF0090002F0A1
:4020C000C1F946F27853C4F2000346F27852C4F200021278D2B242F00402D2B21A7001F03FF801F0FBF84FF0000001F075F94FF0040001F09BF94FF0000001F0C1F907F108
:402100000807BD4680BD00BF80B582B000AF02F003FB0346FB7146F29B43C4F2000346F29B42C4F200021278D2B242F02002D2B21A7001F061F801F005F944F2BB33C4F2B7
:40214000000344F2BB32C4F200021278D2B242F02002D2B21A7044F2AB33C4F2000344F2AB32C4F200021278D2B242F02002D2B21A7045F67203C4F2000345F67202C4F23B
:4021800000021278D2B242F00102D2B21A70FB79184602F0C5FA4EF20013CEF200034FF004021A6046F27853C4F2000346F27852C4F200021278D2B26FEA42626FEA5262E6
:4021C000D2B21A7007F10807BD4680BD80B500AF48F27D13C1F6FF731B78002B08D1FFF7BDFE48F27D13C1F6FF734FF001021A70FFF78AFF00F09EFF48F27C13C1F6FF73AE
:402200004FF001021A7080BD80B485B000AF0346FB71FB7903F10103FB71FB79072B18D0FB794FEAD303BB73FB7903F007034FF0010202FA03F3FB73BA7B48F22413C1F641
:40224000FF739A5CFB7B02EA0303DBB2002BE0D000E000BFFB79184607F11407BD4680BC704700BF80B584B000AF0346FB71FA7944F6A073C0F200039B5CFB73FA7948F299
:402280002813C1F6FF739B5C184601F0F9F846F25943C4F20003F97B48F23012C1F6FF72525C1A70FA7948F24C23C1F6FF739B5C184600F0B5F907F11007BD4680BD00BF60
:4022C00080B582B000AF0346FB7148F27E13C1F6FF734FF000021A7048F27F13C1F6FF73FA791A7048F27E13C1F6FF736FF07E021A70FB79184600F0F5F807F10807BD464C
:4023000080BD00BF80B500AF48F27E13C1F6FF734FF000021A7048F27F13C1F6FF734FF0FF321A7048F27F13C1F6FF731B78DBB21846FFF769FF03461A4648F27F13C1F612
:40234000FF731A7048F27F13C1F6FF731B78DBB2062B16D848F27E13C1F6FF731B78DBB243F00103DAB248F27E13C1F6FF731A7048F27F13C1F6FF731B78DBB2184600F075
:40238000B1F880BD80B400AF48F27E13C1F6FF731B78DBB203F00103DBB2002B02D04FF0010301E04FF000031846BD4680BC704780B582B000AF4FF00003FB7107E0FB79E6
:4023C000184600F04BF8FB7903F10103FB71FB79062BF4D907F10807BD4680BD80B584B000AF0346FB71FA7944F67073C0F200039B5CBB73FA7944F67873C0F200039B5C40
:40240000FB73FA7944F65473C0F2000353F822304FF009021A70BB7B0F2B02D14FF00703BB73BA7B44F68073C0F2000353F82220B97B44F68073C0F2000353F821301978F3
:40244000FB7B41EA0303DBB21370FB79184601F0F9FF07F11007BD4680BD00BF80B584B000AF0346FB71FA7944F67073C0F200039B5CBB73FA7944F67873C0F200039B5C61
:40248000FB73FB79184602F003F8BB7B0F2B02D14FF00703BB73BA7B44F68073C0F2000353F82220B97B44F68073C0F2000353F821301B781946FB7B6FEA0303DBB201EAA0
:4024C0000303DBB2DBB21370FA7944F65473C0F2000353F822304FF008021A7007F11007BD4680BD80B582B000AF0346FB71FB791846FFF7B7FE46F27853C4F2000346F215
:402500007852C4F200021278D2B242F00102D2B21A7045F67203C4F2000345F67202C4F200021278D2B202F0FE021A70FB791846FFF754FF46F27853C4F2000346F2785295
:40254000C4F200021278D2B242F00202D2B21A7007F10807BD4680BD80B582B000AF0346FB7146F27853C4F2000346F27852C4F200021278D2B202F0FC021A70FA7946F296
:402580001F43C4F200031B78DBB24FEA032399B248F28013C1F6FF7323F81210FA79F97948F28013C1F6FF7333F8111046F20F43C4F200031B78DBB241EA030399B248F2C3
:4025C0008013C1F6FF7323F81210FA79F97948F28013C1F6FF7333F811306FEA030399B248F28013C1F6FF7323F81210FB791846FFF734FF4FF0000000F042FF45F67203A3
:40260000C4F2000345F67202C4F200021278D2B242F00102D2B21A7007F10807BD4680BD80B483B000AF0346FB7146F22853C4F20003FA791A7046F23853C4F20003FA79BF
:402640004FEA5202D2B21A7007F10C07BD4680BC704700BF80B483B000AF0346FB71FB79012B0DD146F27853C4F2000346F27852C4F200021278D2B202F0EF021A700DE0D8
:4026800046F27853C4F2000346F27852C4F200021278D2B242F01002D2B21A7007F10C07BD4680BC704700BF80B485B000AF0346FB71FA7944F6A073C0F200039B5CFB73DD
:4026C000FA79F97948F28013C1F6FF7333F8111048F29013C1F6FF7323F81210FA7948F2A013C1F6FF734FF000019954FA7948F2A813C1F6FF734FF000019954FB7B002B5B
:402700000DD0FB7B03F1FF32F97B48F24013C1F6FF73595C48F2B813C1F6FF739954FA79F97948F28013C1F6FF7333F8111048F25C23C1F6FF7323F81210FA79F97948F2C2
:402740008013C1F6FF7333F8111048F26C23C1F6FF7323F8121007F11407BD4680BC704780B582B000AF0346FB71FB791846FFF7A7FDFFF707FE0346002BFAD1FB791846D6
:40278000FFF792FF07F10807BD4680BD80B582B000AF4FF00003FB7107E0FB791846FFF7DFFFFB7903F10103FB71FB79062BF4D907F10807BD4680BD80B586B000AF034606
:4027C000FB71FA7944F6A073C0F200039B5CBB75BA7D48F23813C1F6FF739B5CFB75FA7948F28013C1F6FF7333F81230BB82BB8A7B82FA7948F25C23C1F6FF7333F812207E
:40280000F97948F26C23C1F6FF7333F81130B98A084611461A4600F0D1FB0346BB82FA79F97948F25C23C1F6FF7333F8111048F26C23C1F6FF7323F81210FA7948F25C23D0
:40284000C1F6FF73798A23F81210FB79184600F063FCFA7948F29013C1F6FF7333F81230BA8A9A420ED3FA7948F29013C1F6FF7333F81230BA8AC3EB02037B824FF00103CA
:40288000BB750DE0FA7948F29013C1F6FF7333F81220BB8AC3EB02037B824FF00003BB75BB7D002B26D17B8A142B23D9FA7948F25423C1F6FF739B5C042B0CD9FB791846FA
:4028C000FFF7F2FEFA7948F25423C1F6FF734FF00001995456E0FA7948F25423C1F6FF739B5C03F10103D9B248F25423C1F6FF73995447E0FB7D7A8A9A4205D97B8A132B14
:4029000040D8BB7D002B3DD1FA7948F29013C1F6FF7333F812304FEA0323FB60FA7948F2A013C1F6FF739B5CFA6842EA0303FB60BB8AFA681344FB60FA7948F29013C1F69F
:40294000FF7333F81230FA68C3EB0203FB60FA79FB684FEA132399B248F29013C1F6FF7323F81210FA79FB68D9B248F2A013C1F6FF739954FA7948F25423C1F6FF734FF045
:4029800000019954FB7D7A8A9A4217D9BB7D002B14D07B8AFF2B08D9FA7948F2A813C1F6FF734FF0FF31995410E0FA797B8AD9B248F2A813C1F6FF73995407E0FA7948F20B
:4029C000A813C1F6FF734FF00001995407F11807BD4680BD80B582B000AF4FF000037B711FE07B794FEAD303BB717B7903F007034FF0010202FA03F3FB71BA7948F22413C8
:402A0000C1F6FF739A5CFB7902EA0303DBB2002B03D07B791846FFF7CFFE7B7903F101037B717B79062BDCD907F10807BD4680BD80B485B000AF0346FB71FB794FEAD30328
:402A4000BB72FB7903F007034FF0010202FA03F3FB72FA7944F6A073C0F200039B5C3B733A7B48F23413C1F6FF739B5C7B733A7B48F23C13C1F6FF739B5CBB733A7B48F23E
:402A80004013C1F6FF739B5CFB733B7B002B0BD14FF002037B727A7A48F2B813C1F6FF734FF00101995403E03B7B03F1FF337B72BA7A48F2B013C1F6FF739A5CFB7A02EA9A
:402AC0000303DBB2002B29D0FA7948F2A813C1F6FF739B5C1A46797BBB7BC3EB01039A4256DABA7AB97A48F2B013C1F6FF735B5C1946FB7A6FEA0303DBB201EA0303DBB2CD
:402B0000D9B248F2B013C1F6FF7399547A7A48F2B813C1F6FF73F97B99543CE0FA7948F2A813C1F6FF739B5C1A46797BBB7B0B449A4225DD7A7A48F2B813C1F6FF739B5C00
:402B4000012B8CBF00210121C9B203F1FF33D8B248F2B813C1F6FF73985400291AD0BA7AB97A48F2B013C1F6FF73595CFB7A41EA0303D9B248F2B013C1F6FF7399540AE0D3
:402B80007A7A48F2B813C1F6FF73F97B995402E000BF00E000BFBA7A48F2B013C1F6FF739A5CFB7A02EA0303DBB2002B02D04FF0010301E04FF00003184607F11407BD4637
:402BC00080BC704780B584B000AF0346FB71FA7944F6A873C0F200039B5C7B73FA7944F6AC73C0F200039A5C7B7B1344BB734FF00003FB737B7B1846FFF71AFF0346002B3A
:402C000002D04FF00103FB737B7B03F101037B737A7BBB7B9A42EDD3FB7B184607F11007BD4680BD80B485B000AF13460246FA710A46BA717B714FF0FF33BB724FF00003E0
:402C4000FB72FA7948F2A813C1F6FF731344FB604FF000037B7218E07A7AFB6813441B787A799A420DD27A7AFB6813441B78FA7A9A4206D27B7ABB727A7AFB6813441B78C2
:402C8000FB727B7A03F101037B727A7ABB799A42E2D3BB7A184607F11407BD4680BC704780B487B000AFF871B9717A717B80BA7948F2A813C1F6FF7313447B61FB7903F1F9
:402CC000FF337B72FB7903F10103BB72FA797B6913441A7848F2B413C1F6FF735A70FB79002B10D148F2B413C1F6FF734FF000021A70BA7A7B6913441A7848F2B413C1F6BA
:402D0000FF739A7028E0FA797B7903F1FF339A4210D17A7A7B6913441A7848F2B413C1F6FF731A7048F2B413C1F6FF734FF000029A7011E07A7A7B6913441A7848F2B41328
:402D4000C1F6FF731A70BA7A7B6913441A7848F2B413C1F6FF739A7048F2B413C1F6FF731B7897F820209A420FD248F2B413C1F6FF731A7897F82030C3EB0203DAB248F20E
:402D8000B413C1F6FF731A7006E048F2B413C1F6FF734FF000021A7048F2B413C1F6FF735A7897F82030C3EB0203DAB248F2B413C1F6FF735A7048F2B413C1F6FF739B7873
:402DC00097F820209A420FD248F2B413C1F6FF739A7897F82030C3EB0203DAB248F2B413C1F6FF739A7006E048F2B413C1F6FF734FF000029A7048F2B413C1F6FF739B7821
:402E00001A4648F2B413C1F6FF731B78C3EB0203FB6048F2B413C1F6FF731B781A4648F2B413C1F6FF735B781A4448F2B413C1F6FF739B7813443B61FB684FEA03223B695A
:402E400092FBF3F2FB794FEA032313443B617A883B6902FB03F33B613B6903F5FE434FEA1343FB72FB7A184607F11C07BD4680BC704700BF80B586B002AF0346FB71FA7925
:402E800048F24413C1F6FF739B5C7B72FA7944F6B473C0F200039B5CBB72FA7944F6A873C0F200039B5CBB73FA7944F6AC73C0F200039B5CFB73FA7948F23413C1F6FF7322
:402EC0009B5CB97BFA7B084611461A46FFF7AAFE0346FB72FB7AFF2B55D0FA7944F6B073C0F2000333F812C0FA7948F23813C1F6FF73985CF97ABA7BFB7B0090084611462B
:402F00001A466346FFF7CCFE0346BB81BB7A03F01F03002B48D07B7A03F101033B727A7A48F24413C1F6FF739B5C002B10D13A7ABB89D9B248F24413C1F6FF7399547A7A4D
:402F400048F24413C1F6FF734FF0010199542EE0BB7A03F00803002B28D03A7A48F24413C1F6FF739B5CBA891046194600F04CF80346BB813A7ABB89D9B248F24413C1F624
:402F8000FF73995413E04FF6FF73BB81BB7A03F01F03002B0BD07A7A48F24413C1F6FF734FF00001995402E000BF00E000BFBB89184607F11007BD4680BD00BF80B485B048
:402FC00000AF13460246FA800A46BA807B80FA88BB889A4205D9BB88FB81FB88BB80FB89FB80BA887B889A4201D97B88BB80BA88FB889A4228BF13469BB2184607F11407AF
:40300000BD4680BC704700BF80B485B000AF02460B46FA80BB80FA88BB881344FB60BB884FEA4303FA681344FB60FB684FEA9303FB60FB689BB2184607F11407BD4680BC3B
:40304000704700BF80B500AF48F27F13C1F6FF731B78DBB21846FFF77FFA48F27E13C1F6FF731B78DBB25BB2002B0EDA48F27E13C1F6FF731B78DBB21A4602F0FE0248F240
:403080007E13C1F6FF731A702FE048F27F13C1F6FF731B78DBB21846FFF7B6F803461A4648F27F13C1F6FF731A7048F27F13C1F6FF731B78DBB2062B09D848F27F13C1F6D4
:4030C000FF731B78DBB21846FFF70CFA0DE048F27E13C1F6FF731B78DBB21A4602F0FE0248F27E13C1F6FF731A7080BD80B582B000AF0346FB71FB791846FFF7E1F807F172
:403100000807BD4680BD00BF80B500AFFFF73AF90346184680BD00BF80B582B000AF0346FB71FB79184601F051FB07F10807BD4680BD00BF80B500AF01F07EFC80BD00BFA6
:4031400080B500AF4FF00200FFF784FA80BD00BF80B500AF4FF00100FFF77CFA80BD00BF80B500AF4FF0000000F068F845F64303C4F2000345F64302C4F200021278D2B23B
:4031800042F02002D2B21A7045F64303C4F2000345F64302C4F200021278D2B202F0FB021A7045F64303C4F2000345F64302C4F200021278D2B242F00802D2B21A7045F6AF
:4031C000DF23C4F2000345F6DF22C4F200021278D2B202F0E7021A7045F6DF23C4F2000345F6DF22C4F200021278D2B242F01002D2B21A7080BD00BF80B400AF44F2A73374
:40320000C4F2000344F2A732C4F200021278D2B242F00802D2B21A7044F2B733C4F2000344F2B732C4F200021278D2B242F00802D2B21A70BD4680BC704700BF80B483B092
:4032400000AF0346FB7145F64303C4F2000345F64302C4F200021278D2B2D1B201F0FC01FA79D2B202F0030241EA0202D2B2D2B21A70FB79012B16D144F23663C4F200033B
:4032800040F21312C4F600121278D2B21A7044F23763C4F2000340F21712C4F600121278D2B21A7015E044F23663C4F2000340F2B312C4F600121278D2B21A7044F2376363
:4032C000C4F2000340F2BB12C4F600121278D2B21A7007F10C07BD4680BC704780B500AF45F62C03C4F200034FF014021A7045F62D03C4F200034FF000021A7045F62D0371
:40330000C4F2000345F62D02C4F200021278D2B242F00402D2B21A7045F62D03C4F2000345F62D02C4F200021278D2B242F00202D2B21A704FF0000000F026F800F0B0F8E1
:4033400080BD00BF80B400AF44F2A833C4F2000344F2A832C4F200021278D2B242F00802D2B21A7044F2B833C4F2000344F2B832C4F200021278D2B242F00802D2B21A707A
:40338000BD4680BC704700BF80B483B000AF0346FB7145F62C03C4F2000345F62C02C4F200021278D2B202F0FD021A7045F62C03C4F2000345F62C02C4F200021278D1B26F
:4033C000FA7902F0020241EA0202D2B21A7007F10C07BD4680BC704780B582B000AF0346FB7145F62D03C4F2000345F62D02C4F200021278D2B202F0FB021A7045F62D0323
:40340000C4F2000345F62D02C4F200021278D1B2FA7902F0040241EA0202D2B21A7000F03FF807F10807BD4680BD00BF80B582B000AF0346FB7145F62C03C4F2000345F6A6
:403440002C02C4F200021278D2B202F0F3021A7045F62C03C4F2000345F62C02C4F200021278D1B2FA7902F00C0241EA0202D2B21A7000F015F807F10807BD4680BD00BFE3
:4034800080B483B000AF0346FB7145F68333C4F20003FA791A7007F10C07BD4680BC704780B483B000AF45F62C03C4F200031B78DBB203F00C034FEA5303FB7145F62D03D8
:4034C000C4F200031B78DBB203F00403002B03D0FB7903F10103FB7144F20B63C4F20003FA7902F1924202F59C721278D2B21A7007F10C07BD4680BC704700BF80B500AF4B
:4035000000F002F880BD00BF80B582B000AF4FF00003FB7107E0FB79184600F0B9FFFB7903F10103FB71FB79092BF4D907F10807BD4680BD80B500AF44F60073C4F20003A2
:4035400044F60072C4F200021278D2B202F001021A7044F60273C4F2000344F60272C4F200021278D2B202F0FC021A7044F60B73C4F2000344F60B72C4F200021278D2B216
:4035800002F0CF021A7044F60B73C4F2000344F60B72C4F200021278D2B242F03002D2B21A7044F60B73C4F2000344F60B72C4F200021278D2B202F0F0021A7044F60B734A
:4035C000C4F2000344F60B72C4F200021278D2B242F00F02D2B21A7044F60173C4F2000344F60172C4F200021278D2B242F00102D2B21A704FF6FF7000F060F84FF6FF7077
:4036000000F06EF84FF0000000F048F880BD00BF80B400AF44F2A333C4F2000344F2A332C4F200021278D2B242F00102D2B21A7044F2B333C4F2000344F2B332C4F2000265
:403640001278D2B242F00102D2B21A7044F60073C4F2000344F60072C4F200021278D2B242F00102D2B21A70BD4680BC704700BF80B500AF48F2BC13C1F6FF731B78002B55
:4036800008D1FFF757FF48F2BC13C1F6FF734FF001021A70FFF7BCFF80BD00BF80B483B000AF0346FB7144F60373C4F20003FA791A7007F10C07BD4680BC704780B485B09F
:4036C00000AF0346FB80FB88FB8144F60473C4F20003FA891A8007F11407BD4680BC704780B483B000AF0346FB8044F60673C4F20003FA881A8007F10C07BD4680BC704765
:4037000080B582B000AF786000F04EF8786800F017F84FF0070000F027F800F039F807F10807BD4680BD00BF80B500AF00F03CF841F2E150C0F2000000F002F880BD00BF06
:4037400080B485B000AF78604EF60853CEF200031B68FB60FB6803F144037A681A6007F11407BD4680BC704780B483B000AF0346FB714EF20143CEF20003FA794FEA421204
:40378000D2B21A7007F10C07BD4680BC704700BF80B400AF4EF20013CEF200034FF002021A60BD4680BC704780B400AF4EF28013CEF200034FF002021A60BD4680BC704763
:4037C00080B485B000AF0346FB7145F26013C4F200031B78DBB223F00803FB7345F26013C4F20003FA794FEAC202D2B202F00802F97B42EA0102D2B21A7007F11407BD46D3
:4038000080BC704780B500AF48F2BD13C1F6FF731B78002B08D100F00BF848F2BD13C1F6FF734FF001021A7000F044F880BD00BF80B500AF4FF0030043F66561C0F20001F5
:40384000FEF708F84FF003004FF00701FEF732F846F28953C4F200034FF076021A7046F28943C4F200034FF020021A704FF0040043F65571C0F20001FDF7ECFF4FF00400DE
:403880004FF00701FEF716F846F22843C4F200034FF00F021A7046F23843C4F200036FF06F021A7046F28C43C4F200034FF002021A7080BD80B582B000AF00F02DFF03467D
:4038C000FB7146F29953C4F2000346F29952C4F200021278D2B242F02002D2B21A7046F29943C4F2000346F29942C4F200021278D2B242F01002D2B21A704EF20013CEF229
:4039000000034FF008021A6046F29C43C4F2000346F29C42C4F200021278D2B242F01002D2B21A704EF20013CEF200034FF010021A6000F05DFBFB79184600F0F1FE07F1F1
:403940000807BD4680BD00BF80B400AF4EF20013CEF200034FF008021A60BD4680BC704780B400AF4EF28013CEF200034FF008021A60BD4680BC704780B582B000AFFFF749
:40398000EFFF48F2C013C1F6FF731B78BB7148F2C113C1F6FF731B78FB7148F2C213C1F6FF731B78DBB2002B03D1BA79FB799A4227D0BA7948F2D023C1F6FF739B5C7B71B1
:4039C000BB7903F10103BB71BB795BB2002B02DA4FF00003BB7148F2C013C1F6FF73BA791A7048F2C213C1F6FF731B78DBB2002B0ED048F2C213C1F6FF734FF000021A7062
:403A000007E046F24A43C4F200031B787B7100E000BFFFF799FF7B79184607F10807BD4680BD00BF80B582B000AFFFF799FF48F2C013C1F6FF731B78DAB248F2C113C1F65F
:403A4000FF731B78DBB29A420FD148F2C213C1F6FF731B78DBB2002B03D06FF07F03FB7133E04FF00003FB712FE048F2C013C1F6FF731B78DAB248F2C113C1F6FF731B7866
:403A8000DBB29A420FD248F2C113C1F6FF731B78DAB248F2C013C1F6FF731B78DBB2C3EB0203FB7111E048F2C113C1F6FF731B78DAB248F2C013C1F6FF731B78DBB2C3EBA6
:403AC0000203DBB2A3F18003FB71FFF73DFFFB79184607F10807BD4680BD00BF80B582B000AF00F019FE0346FB7146F29A43C4F2000346F29A42C4F200021278D2B242F0FB
:403B00000102D2B21A7046F29A43C4F2000346F29A42C4F200021278D2B202F0FE021A70FB79184600F0FCFDFFF71AFF48F2C013C1F6FF734FF000021A7048F2C113C1F6C0
:403B4000FF734FF000021A7048F2C213C1F6FF734FF000021A7048F2C313C1F6FF734FF000021A70FFF7F0FE07F10807BD4680BD80B400AF4EF20013CEF200034FF010028C
:403B80001A60BD4680BC704780B400AF4EF28013CEF200034FF010021A60BD4680BC704780B582B000AF0346FB7148F2BD13C1F6FF731B78002B49D0FFF7E6FF48F2BE13A0
:403BC000C1F6FF731B78DAB248F2BF13C1F6FF731B789A4210D146F26C43C4F200031B78DBB203F00403002B06D146F24B43C4F20003FA791A7027E048F2BF13C1F6FF7384
:403C00001B785BB2002B06DA48F2BF13C1F6FF734FF000021A7048F2BF13C1F6FF731B781A4648F25033C1F6FF73F979995448F2BF13C1F6FF731B7803F10103DAB248F2E6
:403C4000BF13C1F6FF731A70FFF792FF07F10807BD4680BD80B485B000AF0346FB7148F2BF13C1F6FF731B78BB7348F2BE13C1F6FF731B78FB73BA7BFB7B9A4209D2BA7B62
:403C8000FB7B03F1FF339A4214BF00230123DBB208E0BA7BFB7BC3EB02037F2B14BF00230123DBB2002BDAD1FA7BBB7B9A4210D146F26C43C4F200031B78DBB203F0040356
:403CC000002B06D146F24B43C4F20003FA791A7017E0BB7B5BB2002B02DA4FF00003BB73BA7B48F25033C1F6FF73F9799954BB7B03F10103BB7348F2BF13C1F6FF73BA7B55
:403D00001A7007F11407BD4680BC704780B584B000AF78604FF00003FB8148F2BD13C1F6FF731B78002B11D00AE0FA897B6813441B781846FFF78EFFFB8903F10103FB815D
:403D4000FA897B6813441B78002BEED107F11007BD4680BD80B582B000AFFFF715FF48F2BE13C1F6FF731B78DAB248F2BF13C1F6FF731B789A4203D14FF00003FB712CE015
:403D800048F2BE13C1F6FF731B78DAB248F2BF13C1F6FF731B789A420ED248F2BF13C1F6FF731A7848F2BE13C1F6FF731B78DBB2C3EB0203FB7110E048F2BF13C1F6FF73CD
:403DC0001A7848F2BE13C1F6FF731B78DBB2C3EB0203DBB2A3F18003FB71FFF7C9FEFB79184607F10807BD4680BD00BF80B582B000AF00F091FC0346FB7146F29B43C4F271
:403E0000000346F29B42C4F200021278D2B242F00102D2B21A7046F29B43C4F2000346F29B42C4F200021278D2B202F0FE021A70FB79184600F074FCFFF7A6FE48F2BE1364
:403E4000C1F6FF734FF000021A7048F2BF13C1F6FF734FF000021A70FFF78AFE07F10807BD4680BD80B483B000AF4FF00003FB7146F26943C4F200031B78BB715FE048F2F0
:403E8000C113C1F6FF731B78DBB21A4646F24A43C4F200031B78D9B248F2D023C1F6FF7399544FF00103FB71FB79002B41D048F2C213C1F6FF731B78DBB2002B06D048F2B4
:403EC000C313C1F6FF734FF001021A7048F2C113C1F6FF731B78DBB203F10103DAB248F2C113C1F6FF731A7048F2C113C1F6FF731B78DBB25BB2002B06DA48F2C113C1F627
:403F0000FF734FF000021A7048F2C113C1F6FF731B78DAB248F2C013C1F6FF731B78DBB29A4206D148F2C213C1F6FF734FF001021A7046F26943C4F200031B78BB71BB7951
:403F400003F02003002B9AD107F10C07BD4680BC704700BF80B400AF2FE048F2BE13C1F6FF731B78DBB25BB2002B06DA48F2BE13C1F6FF734FF000021A7046F24B43C4F2FC
:403F8000000348F2BE12C1F6FF721278D2B2114648F25032C1F6FF72525CD2B21A7048F2BE13C1F6FF731B78DBB203F10103DAB248F2BE13C1F6FF731A7048F2BE13C1F66F
:403FC000FF731B78DAB248F2BF13C1F6FF731B789A4209D046F26C43C4F200031B78DBB203F00403002BB8D0BD4680BC704700BF80B400AF44F2A233C4F2000344F2A232E0
:40400000C4F200021278D2B242F00102D2B21A7044F2B233C4F2000344F2B232C4F200021278D2B242F00102D2B21A70BD4680BC704700BF80B582B000AF786000F042F8B3
:40404000786800F00BF84FF0070000F01BF800F02DF807F10807BD4680BD00BF80B485B000AF78604EF60853CEF200031B68FB60FB6803F140037A681A6007F11407BD46CD
:4040800080BC704780B483B000AF0346FB714EF20043CEF20003FA794FEA4212D2B21A7007F10C07BD4680BC704700BF80B400AF4EF20013CEF200034FF001021A60BD4676
:4040C00080BC704780B400AF4EF28013CEF200034FF001021A60BD4680BC704780B485B000AF0346FB7145F24013C4F200031B78DBB223F01003FB7345F24013C4F200039B
:40410000FA794FEA0212D2B202F01002F97B42EA0102D2B21A7007F11407BD4680BC704780B485B000AF0346FB7145F24013C4F200031B78DBB223F00803FB7345F2401337
:40414000C4F20003FA794FEAC202D2B202F00802F97B42EA0102D2B21A7007F11407BD4680BC704780B485B000AF0346FB7145F26013C4F200031B78DBB223F00403FB7304
:4041800045F26013C4F20003FA794FEA8202D2B202F00402F97B42EA0102D2B21A7007F11407BD4680BC704780B582B000AF7860396078684FF000013A6800F049FD07F1BF
:4041C0000807BD4680BD00BF80B584B000AFF860B9607A60F868B9687A6800F071FC07F11007BD4680BD00BF80B487B000AF786039604FF00003FB604FF00003BB602CE0EF
:40420000BB684FEA83027B6813441B683B613B69FB753B6923F0FF033B6117E0FB684FEA43023B6813441B781A463B691344FA684FEA42013A680A4452781A70FB6803F1A2
:404240000103FB60FB7D03F1FF33FB75FB7D002BE4D1BB6803F10103BB60BB681D2BCFD907F11C07BD4680BC704700BF80B582B000AF44F28003C4F200034FF09B021A8062
:4042800044F28203C4F200034FF018021A7044F20033C4F200034FF002021A7044F20003C4F200034FF008021A7044F20023C4F200034FF003021A7044F2A163C4F2000320
:4042C00040F20812C4F600121278D2B21A7044F22223C4F200034FF008021A8044F22023C4F2000341F251021A804FF00003FB714FF019033B6019E0FB794FEA4303DAB289
:4043000044F22523C4F200031B78DBB203F0010342EA0303DBB203F00303FB714FF4F07000F0F2F93B6803F1FF333B603B68002B02D0FB79032BDFD144F20403C4F2000341
:404340004FF480721A8044F20403C4F200034FF007021A7044F20603C4F200034FF000021A7044F20803C4F200034FF048021A7044F20403C4F200034FF000021A7044F2DF
:404380000103C4F200034FF002021A7044F2A233C4F2000344F2A232C4F200021278D2B242F00102D2B21A7007F10807BD4680BD80B483B000AF40F2CF13C4F600131B78CB
:4043C000FB7145F66E03C4F20003FA7902F007021A7045F66F03C4F20003FA794FEA1212D2B21A7045F2FD13C4F200034FF020021A7045F67203C4F200034FF000021A7091
:4044000045F68823C4F200034FF003021A7045F6DB23C4F200034FF020021A7045F65833C4F200034FF002021A7045F67603C4F200034FF044021A7007F10C07BD4680BC20
:40444000704700BF80B483B000AF0346FB71FB79092B18D8FA7944F6E073C0F2000353F82220F97944F6E073C0F2000353F821301978F87945F20803C0F200031B5C41EA36
:404480000303DBB2137007F10C07BD4680BC704780B483B000AF0346FB71FB79092B1BD8FA7944F6E073C0F2000353F82220F97944F6E073C0F2000353F821301978F879EB
:4044C00045F20803C0F200031B5C6FEA0303DBB201EA0303DBB2137007F10C07BD4680BC704700BF80B582B000AF72B644F2E863C4F2000344F2E862C4F200021278D2B2E3
:4045000042F00402D2B21A704FF00003FB702FE0FA7813464FEA430313444FEA43031A4645F21403C0F2000313447B607B681A7859784FEA012141EA020299784FEA014168
:4045400041EA0202DB784FEA036343EA02031A467B6819795B794FEA032343EA01039BB210461946FFF720FEFB7803F10103FB70FB78082BCCD94FF0904040F27801C4F604
:404580000001FFF731FE45F67203C4F200034FF440721A8045F64E03C4F2000340F203321A8045F20303C4F2010345F20302C4F201021278D2B242F00202D2B21A7045F222
:4045C0001303C4F2010345F21302C4F201021278D2B242F00202D2B21A7044F2A033C4F2000344F2A032C4F200021278D2B242F04002D2B21A7044F2C233C4F2000344F268
:40460000C232C4F200021278D2B242F01002D2B21A7045F2F210C4F2000040F28C71C4F600014FF00802FFF7CFFD45F22210C4F2000040F29471C4F600014FF00802FFF73A
:40464000C3FD45F24210C4F2000040F29C71C4F600014FF00802FFF7B7FD45F25210C4F2000040F2A471C4F600014FF00802FFF7ABFD45F26010C4F2000040F2AC71C4F6B0
:4046800000014FF00A02FFF79FFD40F6DB23C4F201036FF07B021A7044F22233C4F2000344F22232C4F200021278D2B242F00802D2B21A7044F60003C4F200034FF00102B2
:4046C0001A70FFF7D3FD44F60003C4F200036FF07E021A7040F20403C4F208034FF001021A70FFF765FE44F2B030C4F2000044F2A031C4F200014FF00E02FFF765FD07F1C3
:404700000807BD4680BD00BF0230800803D000BF01380046FCD17047EFF3108072B6704780F31088704700BF224B234A1B6832F81010224A33F8103030B532F81040CD1A86
:40474000ADB2C3EB040C85EA0C0C1CF4004F2DD065B31C1B24B222F81010194A002CB8BF644212F800C0E4B2B4EB5C0F1EDA154A115C8C4208DD144C0131002501EBDC0CC2
:40478000255402F800C011E010D00F4C14F800C0BCF1090F04D80CF1010C04F800C005E04FF0000C013904F800C01154024A22F8103030BD6881FF1F7C82FF1FA082FF1FE6
:4047C000B482FF1FC882FF1F8C82FF1F38B5284B05461B681C5CFFF7A7FF264A135D591E1155002B24D1244A24491368095D24481955244B005D1968085512681B68125D06
:40480000E15C5208914228BFE2541F4B1B681A5D184B1A55184A1D4B12681B68125D92081A55164B4FF0FF321A55154B01321A55174B124A595D174B48005B5DC0B283422D
:4048400004D9105D984206D9135504E012F804C0844588BF10550A4A01EB5101C9B29B08994228BF0B46115D994238BF135538BD5481FF1FC482FF1F5C81FF1F9482FF1FC0
:40488000B082FF1F4881FF1F5881FF1F4C81FF1FC882FF1FB482FF1F70B5002237E0C45C944204D1204C1C5DA14238BF21460133DCB26445F3D31D4B1B6899541C4B1E78CE
:4048C0001C4B1D6800231DE0E85C904219D11A48154C185C13F804C007E04FEA4C0C5FFA8CFC40004CF0010C80B26145F5D80E4C10F47F4F03F804C00F4C18BF4FF0FF3094
:4049000018550133D8B2B042DED30132D2B20B4B1B78934207D9064B93F800C0054B186800231946C4E770BD9882FF1F5081FF1F7481FF1F5481FF1FB482FF1F7681FF1FF8
:404940002DE9F0419846194B04461B7883422AD9174B00261B6847001954164B16491B6880251E54154B09681B681B5CCA54114B20461B68E25C45EA0202E254FEF7B6FB75
:40498000FEF7C2FB0028FBD10D4B1B68DB5B434505D2084B1B68E25C22EA0502E25401366D08082EE3D1BDE8F08100BF7581FF1F6481FF1F6081FF1F5081FF1F5481FF1F21
:4049C0006881FF1F38B5154B4FF0FF321A54144BFF221B6804461D5C4DF69813FFF7B0FF104B114A1B5D12885343B3FBF5F5ADB204E00A4B6D081A5D52081A55802DF8D86C
:404A00000A4BEDB21D550A4BAD081D55094B4FF000021B6823F8142038BD00BF9882FF1F6081FF1FB84F00007281FF1FB482FF1FC882FF1F6C81FF1F10B5FEF789FB002401
:404A400009E0194B2046197801224FF4D973FFF777FF0134E4B2154B1B78A342F1D800230AE01349134A09681348C95C1268C908415CD1540133DBB2104A12789A42F0D85B
:404A8000FEF75EFB002407E00A4B20461B68195DFFF798FF0134E4B2044B1B78A342F3D8BDE81040FFF7F8BE7081FF1F7581FF1F6081FF1F6481FF1FC04F00007481FF1F17
:404AC000032A2DE9F0070BD83AB1002311F803C000F803C001339342F8D1BDE8F007704782180C46034603E014F8011C03F8011C03F003061946A44601330134002EF3D1E6
:404B00001CF00304634608BFC1EB020C68D06542C4F1040A0CEB050733464FEACA0A5CF805604FEAC408551A08E057F8044F264604FA0AF449EA0404CC5004335C18032DBC
:404B400026FA08F9A5F104050CEB0306EDDC002302E0F15CE154013319199142F9D3BCE753F8404C41F8404C53F83C4C41F83C4C53F8384C41F8384C53F8344C41F8344C3D
:404B800053F8304C41F8304C53F82C4C41F82C4C53F8284C41F8284C53F8244C41F8244C53F8204C41F8204C53F81C4C41F81C4C53F8184C41F8184C53F8144C41F8144CF5
:404BC00053F8104C41F8104C53F80C4C41F80C4C53F8084C41F8084C53F8044C41F8044C1C460D4640334031BCF13F0FACF1400CB6DC21462B46541B0FE051F8105C43F8C0
:404C0000105C51F80C5C43F80C5C51F8085C43F8085C51F8045C43F8045C0F2C0D469C4601F1100103F11003A4F11004E5DCCCEB0201002303E0EC584CF8034004335E1907
:404C4000032903EB0C04A1F10401F4DC7FE700BF032AC9B230B407D822B10023C15401339342FBD130BC704700EB020C034601E003F8011C03F003041A460133002CF7D1D3
:404C80004FF00133C2EB0C0403FB01F31FE042F8403C42F83C3C42F8383C42F8343C42F8303C42F82C3C42F8283C42F8243C42F8203C42F81C3C42F8183C42F8143C42F819
:404CC000103C42F80C3C42F8083C42F8043C154640323F2CA4F14004D9DC2A46C5EB0C0407E042F8103C42F80C3C42F8083C42F8043C154610320F2CA4F11004F1DC2A4653
:404D0000C5EB0C0501E042F8043C14460432032DA5F10405F7DC01E004F8011B6445FBD3A0E700BF08B500F017F8074800B10068064901B109680022FBF776FA044B0BB14A
:404D4000AFF30080FEE700BF000000000000000000000000FEE7000070B545F2580645F25805C0F20006C0F20005761BB61006D0002455F8243001349847A642F9D845F2D5
:404D8000580545F26006C0F20005C0F20006761B00F05CF9B61006D0002455F8243001349847A642F9D870BD436F6E6E6563742034000000506C617965722031000000007D
:404DC000506C61796572203200000000696E697469616C697A696E672E2E2E00626F6172640000006D61747269780000696E7465727275707473000074696D657200000041
:404E000043617053656E7365000000006C6F63617465206F70706F6E656E74006C6F63616C00000072656D6F7465000055415254000000005842656500000000646973706E
:404E40006C617900436F6E66696700002B2B2B00415049204D6F64650000000041544150310D00004368616E6E656C200000000041544348000000005265616479202020E4
:404E8000000000004154434E0D000000506C616365206120646973632100000047616D65204F766572000000426F6172642046756C6C0000436F6C756D6E2046756C6C0083
:404EC00077616974696E6700202020202020202020000000596F752077696E2100000000636C65616E696E672E2E2E00202020202020202020202020202020200000000008
:404F00006572726F72000000636F6C6F72206D69736D617463680000202020202020200052656400477265656E00000059656C6C6F770000426C7565000000004D61676548
:404F40006E7461004379616E0000000057686974650000002D5000402E50004028500040295000402A5000402B5000402C50004005050505050505002040010204081000A3
:404F8000065200400E520040165200401E520040265200402E520040365200407E52004001020000000000000200010005010100C01F00000800000002020202020202000F
:404FC00001010102020203030304040404050505060606070707080808090909090A0A0A5C5100405C5100405C5100405C5100405C5100405C5100405C5100408B5A00405F
:40500000DB5A00409B5A0040204001020408100101100000004F00400C00005100402000305100401000C0510040100000000140001000140140000800400140000A004C32
:40504000014000020050014020000000F8B500BFF8BC08BC9E467047810000000D160000F8B500BFF8BC08BC9E4670476D00000000000000885000000881FF1F700000003E
:4050800058020000000000000000000001010104FFFF000000366E01C05D0000180000000000E02E7F000000C8C8C8C8C8C8C800030303006464640014141400000A0A002D
:4050C00001010100010000003881FF1F3C81FF1F3081FF1FA04F0000AC4F00003481FF1F2881FF1F4C82FF1F8081FF1F9081FF1F0A00C22D07070300000000000000000063
:40510000000000000000000000000000000000000000000000000000000000000000000000000000000000000000000000000000000000000000000000000000000000006F
:40514000000000000000000000000000000000000000000000000000000000000000000000000000000000000000000000000000000000000000000000000000000000002F
:4051800000000000000000000000000000000000000000000000000000000000000000000000000000000000000000000000000000000000000000000000000000000000EF
:4051C00000000000000000000000000000000000000000000000000000000000000000000000000000000000000000000000000000000000000000000000000000000000AF
:020000040003F7
:0200000480007A
:40000000024F0040035200400964004002650040020301400404014001050140030701405F0801404D090140630A0140510B0140670C01404D0D0140570E0140360F014020
:400040004D1801403B19014006400140094101400642014006430140074401400B450140044601400647014001480140034901400A5001400251014001800A4B2E7F3140B0
:40008000340309FF0FFF19FF1FFF29FF2FFF89388B1F8C0F08FF8976E603EA02B880BE40D804DF011F80AF80E210EA800201050B060607040807090E0B010C070D050F0AD0
:4000C0001201130114051602180820072606280629082A012B023008320334043503370C3E01400445014750482149FF4A0F4BFF4C404D204EF04F055008580459045A04B0
:400100005C995F01604061A86240632080028201860689018B028C068D018F0294069501970299019B029D039E06A206A404AC06B006B503B601BB02C036C102C560C72056
:40014000C822D418D604D804D904DA04DB04DD09DF01E10CE2F0E30CE50CE70CE840E94CEA40EB4CEC90ED58EF0C00840102032004820510071008400A200C100EA00F04DC
:40018000110513401680172419411C101D121E2020042340255027042F0830A03204370139A03DA83E8041044204470248044AC04F0450015301560259016080622063025F
:4001C0008C809080910C92249308941695A19608975299029B229C509D949E029F01A044A104A301A4A8A572A6C4B210C0FDC275C47DCA20CC8ECE7CD086D204D601D80D72
:40020000E210EA80000201010240030406060A180B050C060E20100114061618181019041B021C181D041E061F01201E2404264028082C1E3060321E3304340135033A0837
:400240003E113F144032410542064404450C470E481149FF4AFF4BFF4C624DA04EF04F41500C580459045A045F016640670269106A306B106D106E106F12800188038901CF
:400280008D019002930197029901A704AA03AD02AF04B301B403B506BE10BF10C034C101C5EBC7C0C823C9FFCAFFCBFFCEF0CF44D00CD602D804D904DA04DB04DC90DD90D3
:4002C000DE08DF01E6C0EA40EB02008401020208038004020510084209200A100E801008110512201340172019201A701E04200821042504261027102D802F103110328C94
:400300003604371138223DA04004425045024620474048104B504D084F015304560160806101740175017D08852090A09320941295A09608971398029A209B629C909D1C21
:400340009E039F10A040A220A381A4B1A540A644A820A940AE02AF04C05FC21FC44FCA50CCECCE35D0D7D20CDE40E4020002010203200401093E0A020D3E111C132214027B
:400380001532170C192E1A011B101D08210126022D042E023002311E3201332035013E013F104003410249FF4AFF4BFF4C024D0C4EF854015604580459045A045B045C9943
:4003C0005D095F01624863A168F06AF06CF06EF0802C82D1830184148702889C89CD8A228B308DC08E038F309430950D964C97F0988099A89A109B549D3D9FC0A155A3A8C0
:40040000A409A5CDA6F0A730B103B4E0B5FCB61FBA20C003C102C6A0C9FFCAFFCBFFCC03CD0CCEF4D804D904DA04DD09DF01E248E3A1E8F0EAF0ECF0EEF001A8034005254A
:4004400007400A100B080E1811041544160119A01D081E40208021012220230424A0260A27282A082B802C202D012E082F01308032243510364A380439A23C123D804108C0
:4004800043104508471053105C205D015E405F09640265806740801087408B80900491049210940295A29608971699019A209B029C909D309E039F20A301A4B0A648B1C02A
:4004C000C07FC266C4A4CA93CCFECEBFD066D6F0D880EA02012503DA0592072509E30A010B1C0DE00F1C1503160117FC19E31B1C1D1F1FE02D482F25300135FF3E013F10D1
:40050000580459045F018001811B86038740880389608C808F039002916094A4971B99189A039B049C039D12A00CA2D0A580A6F8A80CA920AA70AC0CAD09AE10B0E0B1187E
:40054000B23CB380B403B507B760B980BA0ABE10BF51C023C105C502C606C805D608D804D904DA04DB0CDD99DF01E10CE2F0E30CE50CE70CE840E94CEA40EB4CEC90ED5829
:40058000EF0C002004020510060207200B100C040E800F091514160117011B011D211E10200425042602270A29402C142D202F0130A0320435113648370139A23B043D1CE4
:4005C0003E303F81452047084E024F0857405D80640167017C808801C0F2C2F4C4F0CA78CCFECEFFD060D210D610D810DE100A011C02280232013402382040534540460275
:400600004705481649FF4AFF4BFF4C024D204F055110521758045A045B045C095D995F01604061406280648066808019811C820483A18604874089108DBF901D934094056C
:4006400095089618980299A79A189B189D3C9F82A019A104A204A410A723A808AB18AC02AF04B001B180B338B403B540B61CB71FB820B902BA80BB80BE01BF10D602D71327
:40068000D804D904DB04DF01010103A005100A280B400F021048138A160819211A081B801D141E082221231229622B2030483211382039013B4845044F8256085740590192
:4006C00068A069A06F1970187120738875809220934895A19608971099429C409D849F11A104A320A4A8A520A624A708C04CC28EC44FCA0FCC0FCE0FD040D210D60132805B
:40070000330837823B40CCF0CE108308874097409F02A680A708AF80E6C0EA40128063029F02A680C410D6408F0298209F02AF01B020EE100102072063408910C00CD802F6
:40074000E40489029120974099029E40AF20B102B240E201EA01EE018740912097409E400240392091209E40C008CE08982078209820DE40000101010C010D010E010F017C
:40078000100111011C011D0100FE01030000000000002000007F7F000000000000FCFC000000000000007F00000000004200014E4C00400000000000000000000000000027
:4007C00000000000000000000000000000000000000000000000000000000000000000000000000000000000000000000000000000000000000000000000000000000000F9
:4008000000000000000000000000000000000000000000000000000000000000000000000000000000000000000000000000000000000000000000000000000000000000B8
:400840000000000000000000000000000000000000000000000000000000000000000000000000000000000000000000000000000000000000000000000000000000000078
:400880000000000000000000000000000000000000000000000000000000000000000000000000000000000000000000000000000000000000000000000000000000000038
:0200000490006A
:0400000000004005B7
:0200000490105A
:04000000BC90ACAF55
:0200000490303A
:020000002F6F60
:0200000490501A
:0C00000000012E12306900012E395FD87B
:0200000490402A
:4000000000000000000000000000000000000000000000000000000000000000000000000000000000000000000000000000000000000000000000000000000000000000C0
:400040000000000000000000000000000000000000000000000000000000000000000000000000000000000000000000000000000000000000000000000000000000000080
:400080000000000000000000000000000000000000000000000000000000000000000000000000000000000000000000000000000000000000000000000000000000000040
:4000C0000000000000000000000000000000000000000000000000000000000000000000000000000000000000000000000000000000000000000000000000000000000000
:00000001FF
